:020000040001F9
:10400000383F0020A5AB0100B7AB0100B9AB010000
:1040100000000000000000000000000000000000A0
:10402000000000000000000000000000BBAB010029
:104030000000000000000000BDAB0100BFAB0100AC
:10404000C1AB0100C1AB0100C1AB0100C1AB0100BC
:10405000C1AB01000000000091CB01007D520100C6
:10406000C1AB0100C1AB0100C1AB0100A14D01001A
:10407000C1AB0100C1AB0100C1AB0100C1AB01008C
:10408000C1AB01008DD10100C1AB0100C1AB01008A
:10409000A3D10100CDC8010079C90100C1AB010065
:1040A000C1AB0100C1AB0100000000000000000036
:1040B0000000000000000000000000000000000000
:1040C00000F002F800F0AFF80CA030C8083824184F
:1040D0002D18A246671EAB4654465D46AC4201D140
:1040E00000F0A1F87E460F3E0FCCB64601263342C3
:1040F00000D0FB1AA246AB4633431847A0D80000B5
:10410000C0D800000023002400250026103A01D367
:1041100078C1FBD8520700D330C100D50B6070477F
:1041200010B56E2902D10CF059F810BD702902D1DA
:104130000CF0B1F910BD662902D10DF0E7F910BD00
:10414000652902D10DF0E2F910BD672902D10DF009
:10415000DDF910BD612902D10DF0E0F910BD036851
:104160001B0A01D380231943692902D10BF092FC69
:1041700010BD642902D10BF08DFC10BD752902D150
:104180000BF088FC10BD6F2902D10CF02FF910BD87
:10419000782902D10CF06CF910BDE92902D10CF09C
:1041A000CBF810BDE42902D10CF0C6F810BDF529FA
:1041B00002D10CF0C1F810BDEF2902D10CF022F9A8
:1041C00010BDF82902D10CF061F910BD0368DB09BC
:1041D00001D380231943632902D10CF043F810BDA9
:1041E000732902D10CF046F810BDE32902D10CF07E
:1041F00030FD10BDF32902D10CF033FD10BD0020BD
:1042000010BD1FB50CF078FD0400002000210DF05A
:1042100067F9401C6060002000210DF04BF9E06060
:104220001FBD10B510BD0CF040FD1146FFF7E9FFB2
:1042300000F0D9FD0DF060F803B4FFF7F2FF03BC06
:104240000DF0AAF8401E00BF00BF00BF00BF00BFB6
:1042500000BF00BF00BF00BF00BF00BF00BFF1D163
:1042600070470000401E00BF00BF00BF00BF00BF7E
:1042700000BF00BF00BF00BF00BF00BF00BFF1D143
:1042800070470000401E00BF00BF00BF00BF00BF5E
:1042900000BF00BF00BF00BF00BF00BF00BFF1D123
:1042A0007047000070B505460C46164602E00FCC7C
:1042B0000FC5103E102EFAD2082E02D303CC03C530
:1042C000083E042E07D301CC01C5361F03E0217838
:1042D0002970641C6D1C761EF9D270BD0123FB4C45
:1042E000DB02E36008F081F8BFF34F8FF949F8482B
:1042F000C860BFF34F8FFEE710B5F74C206A09F096
:10430000C2F8002802D1206A09F045F803210022F2
:104310000904206A09F004F80120207010BD10B5CE
:10432000ED4C206A09F037F80020207010BD10B560
:10433000E948002101704278012A08D1417006F055
:10434000F7FB022804D00021102005F0C6FA10BDAA
:104350000121F9E710B5642004F01AF8DF4807F0EE
:1043600095F9002802D0DEA2D52106E0DB4807F04F
:1043700097F9002803D0DAA2D821FFF7AFFF10BDCC
:1043800010B5D5490978012923D08178002930D08A
:10439000012915D004292CD006291AD1007800282B
:1043A00017D106F0DEFB002813D006F098F800289D
:1043B0000FD102F00FFB14280BD10021072029E0B8
:1043C0000078002806D0012801D0022801D105F08C
:1043D00011FB10BD06F0B9FB0028FAD006F07FF8FB
:1043E0000028F6D102F0F6FA1428F2D100210520B7
:1043F00010E000780028ECD106F0ADFB0028E8D0F2
:1044000006F06DF80028E4D102F0E4FA1428E0D1B7
:104410000021062005F061FA10BD10B501680029E1
:1044200007D0012904D0022902D10830FFF7A8FFE4
:1044300010BDA9490122C8781043C870C14389073B
:104440000DD08007F4D4A548A349008928316EDF38
:104450000028EDD0FF21A2A25431FFF73FFF002139
:10446000A54A084608F0D8FC10BDFF219CA2733174
:10447000FFF734FF10B5984986B0091D9F4852DFF9
:10448000002803D0FF2196A27E3134E004AC9C4882
:10449000A11C52DF002803D0FF2191A281312AE024
:1044A000A11C984852DF002803D0FF218CA2843140
:1044B00021E0A11C944852DF002803D0FF2188A2EC
:1044C000873118E0002002900390904800909048B7
:1044D00001906946814807F085F8002803D0FF2144
:1044E0007FA2923107E07D4807F026F9002804D02A
:1044F000FF217BA29F31FFF7F1FE06B010BD0A46F7
:1045000001468448FFF7EAFE11B57C4991B0487B2B
:104510000A7B01021143684601806F4902240A792F
:1045200082700C613C2101A80BF05DFC0121684602
:1045300001944172818111A804900022684602848E
:10454000099201850B90114601A807F005FB002890
:1045500003D063A27049FFF7C1FE12B010BDF0B5E1
:1045600089B0142168460BF03EFC002069460870B3
:1045700001900872584C03902069032650270225A9
:10458000002806D0012805D002282DD0032822D1EA
:1045900033E0256105A809F0AEFC002802D050A246
:1045A0005E491FE06846007E002803D108A8007815
:1045B000002808D06846057205A803900420FFF77C
:1045C000A3FF256100E0266168460782142141822D
:1045D000012008F09BF9684663DF002819D08B2181
:1045E0003FA28900FFF77AFE0520FFF78DFF68469E
:1045F0000782282141822661EAE70520FFF784FF30
:104600001921890168460182B42141820220266174
:10461000DFE709B0F0BD10B5414A0320D061404941
:1046200040390863C8628862486250619061C8611D
:104630001060C86388634863D061D061D060106146
:104640000862172000F031FC0C2000F02EFC0B203B
:1046500000F02BFC0A2000F028FC092000F025FCCB
:10466000152000F022FC162000F01FFC072000F0AF
:104670001CFC102000F019FC0F2000F016FC0E208E
:1046800000F013FC0D2000F010FC172000F00DFCD2
:10469000172000F00AFC132000F007FC142000F0A3
:1046A00004FC082000F001FC10BD08B51D48009076
:1046B0001D4B0B221021002008F099FD002804D08A
:1046C000164907A25F31FFF709FE08BD000500503B
:1046D0000400FA0500ED00E000200020DC2B0020A3
:1046E0002E2E5C536F757263655C7372635C6D61D3
:1046F000696E2E6300000000554301005C18020043
:104700006C1802007C1802008C1802001B44010087
:104710006B440100EFBEADDE2F030000020200007B
:1047200040070050C34E01002825002010B505F0B9
:10473000EBFA10BD10B5FA4C606A08F02CFEE121CE
:1047400000224904606A08F0EBFD10BD10B5F44C7E
:10475000606A08F020FE05210022C903606A08F0A3
:10476000DFFD10BD10B505F0E2FA002801D0FFF71B
:10477000E1FF10BDEA4810B5EA4A0021143008F004
:1047800088FD002802D0E84AE8494BE0E448E84ABE
:104790000021183008F07DFD002803D0A921E24A4D
:1047A00089003FE002F019F9002803D05521DE4AC4
:1047B000C90037E0DF4A0121DF4808F06AFD002820
:1047C00003D0DA49D84A0B312CE0D548DB4A002126
:1047D0001C3008F05EFD002803D05721D24AC900E2
:1047E00020E0CF48D64A0021243008F052FD0028AE
:1047F00003D0CE49CC4A1B3114E0C948D14A00212C
:10480000203008F046FD002803D0C849C64A2031B0
:1048100008E004F0F7FF05F03AFA002804D0C34995
:10482000C14A2531FFF75AFD10BD10B50478C648BE
:10483000214606F08CFB00280AD0082808D0C3497E
:10484000884205D0C249884202D0B74AC14910E027
:10485000B348002C02D00021C16010BDC168491CC2
:10486000C1600329F9DD1521C08866DFB949AE4A68
:104870000C31FFF733FD10B59AB0402168460BF0BC
:10488000B2FAB5A1684606F069FAB5A108A806F023
:1048900065FAB1A102A806F061FAB3A106A806F074
:1048A0005DFA002018A9087001200007406919A9C5
:1048B0000F38C0B207F04DFE05F027FA011E04A81C
:1048C0001ED0199A002110AB545C5C54491CC9B22B
:1048D0002029F9D3194606F041FA0120014608A81B
:1048E000103101770020014608A84177684606F09C
:1048F000D6FB002806D08D498B4AE131FFF7EEFC4C
:104900009BA1E8E71AB010BD874A9D49FFF7E6FC76
:10491000F8B5038845269B4D9B4AF6430021804C01
:10492000172B35D00DDC994F102B20D0112B30D008
:10493000122B2DD0132B2BD122462832E0886FDF8B
:104940000EE0192B74D01A2B73D0392B01D0552BB4
:104950001ED11170002004F01BFE1321E08866DFD9
:10496000002815D08649704AF231FFF7B7FC0E4691
:10497000E170022121618088E08074DFE08873DFCC
:10498000258166704B2101224904386808F0C8FC73
:10499000F8BD0D461170002004F0FAFD0020C04360
:1049A000E08002F017F8052801D101F0C3FE02F003
:1049B00011F8012801D101F0BDFE386808F0EBFCC8
:1049C00073480178002902D0057002F021F800F048
:1049D000AFFE002801D001F050F801F08AFC002859
:1049E00017D006F09DF8002813D006F0A1F8002893
:1049F0000FD0002006F090F8002001F07EFC05F0BA
:104A00006EFD002805D10820205EB04201DA0120A9
:104A10006070A078002803D0A57009F042FA09E080
:104A200009F08FF9002805D055493F4AB6319CE777
:104A30000FE01AE009F08DFB06F080FE002803D09D
:104A40004F49394ABC3190E7FFF789FDFFF754FC25
:104A5000F8BD117080790028FAD12069042801D1AD
:104A600003202061FFF77BFDF8BD0627C75706F03E
:104A70005FF8484800680128F6D10820205EA84267
:104A800001D1278109E003210BF0F0F94500032152
:104A900038460BF0EBF92818208106F041F8002881
:104AA000E2D10820205EB042DEDD012006F034F8BD
:104AB000F8BD10B504460088102802D0112802D095
:104AC00004E0032000E0002007F020FF1E482146FC
:104AD000383006F020FD1C482146183000F00BFD50
:104AE000204609F0BFF8204607F0D7F921461648BE
:104AF00006F03EF92046FFF70BFF10BD08B526482B
:104B000011490090254B502284390D2007F00CFFED
:104B1000002804D00F49044ACE39FFF7DFFBD4E563
:104B200000200020FB650100E0460100A202000019
:104B30003D660100018801000C2100208F5A010010
:104B40002D4701002F430100A42B0020033000005B
:104B5000013400009A050000424C4B4B000000005D
:104B6000312E362E30000000312E302E3000000065
:104B70003031323334353637383961626364650039
:104B8000B5030000FF0F00002C210020882000202A
:104B9000B82000206C200020B54E0100B34A01006F
:104BA00010B5042804D02721FD4A4901FFF796FBE0
:104BB00000F0C4FD002805D0FA48012181701321BE
:104BC000C08866DF10BD10B504460146F64806F001
:104BD0009AFC206803000CF041FC03101003100045
:104BE000F0490222C8781043C870C043800704D13E
:104BF0000021EE4A084608F00FF910BD70B5EC48E8
:104C00000168CA070121002A1BD00160840465697C
:104C1000383D03E0E8B207F085FC6D1C6069183888
:104C2000A842F7D86569183D07E060690F38A842C7
:104C300002D0E8B207F076FC6D1C60690E38A8421D
:104C4000F3D80120DB49C005C860FF20913003F094
:104C50009FFB172000F029F970BD0020D6490222E1
:104C600083005B181A60401C2028F9D3704710B5E8
:104C7000FFF7D1FC05F013F800F0ECF9FFF715FD94
:104C8000CE4A1421082008F0B3F8002804D0FF21F0
:104C9000CBA2AE31FFF722FB00F070FB00F084FBEB
:104CA00002F0C9FB10BD00B587B005F091FDFFF71C
:104CB00061FDBD4902206C3907F0CFFF002802D00A
:104CC000BFA2C5495BE002F04EF9002201231B0799
:104CD0005969684613390170596914394170BF48E0
:104CE0000190BF4802906846827009F035F90028AB
:104CF00003D0B949B2A2153941E0FFF7FFFE00F039
:104D0000E9F800F01DF90520FFF7FEFB1C216846BD
:104D10000BF069F805210904019149100020029166
:104D20000090032269460A73C88101220A74059023
:104D3000AC480690684607F056F8002803D0F321E7
:104D40009FA289001BE000F074F9A74A0521012009
:104D500007F0C6FD002803D09F4999A208390EE04C
:104D6000002007F0D3FD8F480023A04A02213830ED
:104D700007F071FE002804D0974991A22031FFF777
:104D8000ADFA00F08CFE01F06FFE002806D0002086
:104D900001F03BFE02F041FC07B000BD0120F7E747
:104DA000934900200860934901204860924900041B
:104DB0008860924940110860704710B500F04AF9C8
:104DC00001208E4AC102803A11608E4A8C4991605E
:104DD0008C4A082140321160874A0104516085499C
:104DE000086030BF10BD1CB5FFF737FFFFF7E5FFC8
:104DF000714985485C310860172000F056F8FFF7CC
:104E000036FF05F0BBF8FFF7F9FEFFF74CFF002473
:104E10002546684661DF00280ED07C48816A446AD6
:104E20008DB22046294605F09FFE00F01DF907F0DF
:104E30002FF900280FD01CE000263746684680195D
:104E40004078F20039460AF04FFD04430D43761CCA
:104E5000062EF3DBE5E705F03FFC01F0D3FD00286B
:104E600007D005F063FD05F0C3FD05F00CFE03F06F
:104E700090FC03F066FE03F0B7FE04F04DFC04F076
:104E800081FC03F073FBFFF76AFB07F02AFE05F0D5
:104E9000A9FC08F037F805F0A9FC3DDF0028F8D0A0
:104EA0004D4947A23C31FFF719FA012181404148A1
:104EB0008160704710B50021554A084607F0ACFFE5
:104EC00010BD1CB501910090524A0821684607F0B8
:104ED000A3FF1CBD0EB511206946087204224EA125
:104EE00002A86CDF002803D0474935A2D93124E05D
:104EF0000920800168DF002803D0434930A2DC315B
:104F00001BE00020FF21009041316A460190118092
:104F1000FF21913151809080D18068466ADF00285E
:104F200003D0394926A2E63107E00320C04367DFFA
:104F3000002804D0344922A2E931FFF7CFF90EBD91
:104F400008B5FFF797FA0020011F0090684601702E
:104F50000120014668462031417000200146684624
:104F6000817011486946443805F092FE002802D04D
:104F700013A22B4911E000F0CBF80A482949303040
:104F800041602949016001460748203800F03DFB97
:104F9000002804D022490AA25131FFF79FF945E0C9
:104FA000E046010000200020DC2B002055430100DA
:104FB000000400400005005000070050D8230020E6
:104FC0002E2E5C536F757263655C7372635C6D61EA
:104FD000696E2E630000000049050000C74B010008
:104FE000A14B010009490100F9C701006606000054
:104FF00040B1004000B0004000B3004080E100E05C
:10500000FF0F000000B5004001020000800000100A
:10501000DF500100F5500100424C4B4B00000000F6
:1050200041030000C761010003630100FFF723FC97
:1050300075E54F491E200880887801221043E1223F
:105040001040DF220C30104088700720C8701020FC
:1050500008717047474901208861474900224A602A
:10506000830798604A607047F8B505F081FD0F46E8
:105070000646424901200860414D0521E960414949
:105080006962042129604049886008603F49002026
:1050900088602A2008F062FB0024A1002C20421A1C
:1050A000304639460AF030FC0007000F092801D9C4
:1050B000373000E0303008F051FB641C0C2CECDB86
:1050C000232008F04BFB322003F062F90020286017
:1050D000401EE8602948022114384161F8BD10B52E
:1050E000002904D02AA275210020FFF7F7F807F065
:1050F0002FFC10BD10B50246082905D0FF212FA2B4
:1051000016310020FFF7EAF811685068884710BD93
:1051100000B585B0142168460AF065FE0021684696
:1051200000910171029164210173012001466846DA
:10513000103141730120014668461031817300200F
:1051400001466846C173012001466846103101746A
:105150006946254805F0DCFE002803D0234A24498F
:10516000FFF7BCF8234800F011F905B000BD0000BE
:1051700028200020000500400001004014070050D6
:105180000025004000B0AF03002000400021004097
:105190002E2E5C6E726635313832325C496E636C2D
:1051A0007564655C626C655C626C655F7374616399
:1051B0006B5F68616E646C65722E68002E2E5C6E8B
:1051C000726635313832325C496E636C7564655C89
:1051D0006170705F636F6D6D6F6E5C6170705F7436
:1051E000696D65722E680000A42B0020C04F01007D
:1051F0005A0300002B480100A049884201D36420D3
:1052000070479E493239884201D95F2070479B49D7
:105210006439884201D95A207047984996398842A2
:1052200001D950207047AF210901884201D9462099
:1052300070479249FA39884201D93C207047904919
:10524000884201D9322070478D493239884201D9CC
:10525000282070478A496439884201D91E20704746
:1052600087499639884201D9142070478449C83942
:10527000884201D90A2070470120704770B58148E3
:1052800001680024804D00291DD00460A8687F4A71
:1052900001215160E121090148437D490AF0DCFD0B
:1052A0007C4A80B25080FFF7A7FF10705268002A36
:1052B00009D00121774807F0AFFD002803D076A27E
:1052C000E321FFF70BF82C6070BD6F4901200860E7
:1052D0006C4A002111606D490860704770B5054641
:1052E000FFF7F3FF0A2003F053F8664C02E00A20B0
:1052F00003F04EF820680028F9D0002020606248B2
:105300008068624A01215160E121090148436049F6
:105310000AF0A2FD288070BD6649012048606648F9
:1053200001680902090A02071143016063498020EC
:1053300008607047F1B55F48002545605F49012668
:105340008020803108604F4C2560504F7E60FFF711
:10535000BCFF0A2003F01CF820680028F9D0256063
:10536000494880687E60E1210901484348490AF0C4
:1053700073FD00990880FFF7CFFFF8BD4249504800
:10538000486040490020086070479EE710B5414AD8
:1053900050605088FFF730FF10705268002A02D02A
:1053A00001213C48904710BD10B53A48408800287C
:1053B00003D13848801CFFF791FF33490020086073
:1053C000FFF7AAFF33483F4A0121083007F061FF89
:1053D000002804D0FF2130A27831FEF77FFF10BDF6
:1053E0003948807C7047014610B52A480022806801
:1053F00007F096FF002804D0FF2134A28B31FEF77E
:105400006DFF10BD10B52348806807F0C4FF002869
:1054100004D0FF212DA29431FEF760FF10BD70B5BE
:1054200001200024C003FFF7DEFF1A4D2E4E6888CE
:10543000B04201D3012406E030BF07F063FD04F061
:1054400087FB0028F3D1FFF7DDFF204670BD0EB5C6
:105450002648022101700021417009228270C1702A
:10546000012202710B4A12784271019100900620CC
:1054700069460881684600F0A4FB0EBDB80B000029
:105480008C0A000000710040007500400070004070
:10549000FF030000502000202E2E5C536F757263B6
:1054A000655C7372635C62645F6261747465727977
:1054B0002E6300000073004004E400E000E100E01F
:1054C000028000008B530100A42B00202E2E5C5381
:1054D0006F757263655C7372635C62645F62617452
:1054E000746572792E63000098080000FC2B002080
:1054F0008D4B07C3704710B50B88012B2ED0102B96
:1055000016D00022112B1AD0502B10D1CB88048A30
:10551000891DA34202D10C8B022C17D082889342A2
:1055200005D18369002B02D00A8B1A31984710BD30
:1055300089888182C0690028F9D0804710BD002188
:10554000C9438182827500F0DCFE10BD498B0129C0
:1055500001D0827510BD0121817510BD72480268AD
:10556000002AFAD081684068904710BD70B50024C9
:105570000546601C90B00007000F08A91030089481
:105580000870601C0007000F103048708878F926FA
:105590003040801C88701C2101A80AF024FC694658
:1055A00008791021084369460871029408A80494F8
:1055B000059407940690287808A988710320694605
:1055C000888411200094087048708878F721304052
:1055D000801C0840EF21084001263043694688704E
:1055E00014210AA80AF0FFFB09A80A9068460B904C
:1055F00069460E8614204C8688862B4668880C33B4
:105600000AAA01A9A2DF10B070BD30B5474B0D4604
:1056100004460FCB85B003936B4607C30020C043FD
:10562000A0826868A0612868E0610020A07521461A
:10563000684652DF002814D1217868468174012120
:105640000182A21C04A90120A0DF002809D129465B
:105650002046FFF78BFF002803D12946204600F0A3
:105660001EF805B030BD1FB5837D002B05D0138813
:10567000142B04D9072004B010BD0820FBE7002339
:10568000009301930293039384896B461C800391DA
:10569000029201219970808A6946A6DFEBE770B516
:1056A0008EB005461C2168460AF09DFB68460178CD
:1056B0000820014368460170002401940394049477
:1056C00005940694297808A881700221684601840F
:1056D000601C0107090F684610310794017701200B
:1056E0000146684610314177817FF9200140F7205B
:1056F000891C0140EF200140012631436846817733
:10570000142109A80AF06FFB08A8099007A80A90BD
:10571000684686851421C485018668882B1D09AAE0
:105720006946A2DF0EB070BDF02B00202C150200E0
:10573000FE4800787047FD4908707047FC48FD49F5
:105740000088884201D00120704700207047F7B5DB
:1057500084B0049815460C46002804D1FF20F6A119
:10576000D530FEF7CCFE042C04D0FF20F2A1D630B9
:10577000FEF7C5FEED4C2646A0683036002804D062
:10578000022804D001280CD00DE0A5600BE0012D0B
:1057900009D1B088012806D104980068A0610120D1
:1057A0000FE0022D0CD0002069468881A0680228F5
:1057B0000AD0002806D004980568002D4AD151E08F
:1057C0000220E06007B0F0BDD8481430C17801294C
:1057D000F8D10288807801282DD00023D349AB204E
:1057E0003831087068460078102500090001284308
:1057F000DF25284001256B405B01184383069B0E83
:10580000684603704B7000274F8050BA8F80C88065
:1058100008226846828103AAD148FFF724FF0028A6
:105820000BD0D049884216D1C049CF48143102224A
:10583000FFF75EFEC6E70123D0E7BC48A76014303F
:10584000C770E0680128BDD1A0690028BAD0E76020
:10585000A56005467BE00020B449A0601431E060FB
:10586000C870AFE7B4A1C148FEF749FE6FE0AF4989
:10587000082040316A469081012717E06889002896
:10588000A0D02868002804D1B848ABA11530FEF795
:1058900036FE6889142801D9142100E001466A46C1
:1058A00091812989081A29684118022703AAAC485E
:1058B000FFF7D9FE00280ED0AA4988424BD1AA484A
:1058C00029460122FFF714FE01212A468904606A55
:1058D00007F026FD76E7002F39D0012F04D0022FE4
:1058E0000AD0032F33D12AE0B08801282FD100201D
:1058F000B080206460642AE0694668898989401A1A
:105900000004000C688122D100273A46114608465F
:10591000FFF7EEFDA7600121E5612A468904606A70
:1059200007F0FEFCE068022811D180481430C078EE
:1059300001280CD10220A0600020E06036E77B48FF
:105940001430C178012902D10021A160C170B08852
:10595000012893D18BE700273A4611460846FFF706
:10596000C7FDA7606968002902D0AF73002088478F
:10597000E0680228AED1E760A06017E738B50D46B1
:10598000040004D1FF206CA1BC30FEF7B8FD012D4E
:1059900008D0022D05D10222009404216846FFF7A9
:1059A000D6FE38BD00946089002803D05F48406A65
:1059B00007F0F1FC0122F0E770B5040024D05B4D44
:1059C000AB2040352870002068702289100AA8702A
:1059D000EA700020216804F0CBF8010A29715349CC
:1059E00068714888020AAA71E87122896281A081DF
:1059F000401C4880284601211038818004602046E0
:105A0000FFF7BCFF002070BD072070BD70B50446D5
:105A1000807B00281BD06089002809D1E07B032807
:105A200006D2401CE0732046FFF7C6FF00280ED0C8
:105A300000252A4611460846FFF75AFD3B48856077
:105A4000C560A5736168002901D00020884770BD3A
:105A500000210160704710B5002809D0012806D147
:105A6000334834490088884201D0132166DF10BDD5
:105A700000F060FE01F041F810BD02F038FE01F0C8
:105A8000FBFC06F0B0FC012039DF00F070FC274978
:105A90000120087026481321008866DF704710B582
:105AA000334800218173C1732048324A243007F003
:105AB000F0FB002804D0FF211FA22831FEF70EFCC6
:105AC0001A482D4A0021283007F0E3FB002804D0B3
:105AD000FF2119A22B31FEF701FC1448274A0021AF
:105AE0002C3007F0D6FB002804D0FF2112A22E3163
:105AF000FEF7F4FB002010BD70B50C4C0E46E169BA
:105B000000295DD0898981425AD1606A07F043FC3F
:105B10000025002E36D0E069C17B03293ED32A46FA
:105B200011460846FFF7E4FCA56029E05C20002050
:105B300006200020FFFF00002E2E5C536F7572635D
:105B4000655C7372635C62645F636F6D6D756E69D3
:105B5000636174655F70726F746F636F6C2E630046
:105B6000BC2B0020033000007D5901002102000001
:105B7000C42C00200D5A0100515A0100575A01004F
:105B8000E56016E02A4611460846FFF7B1FCE069D9
:105B900085734168002913D0012010E0491CC173AE
:105BA000FFF70AFF00280BD02A4611460846FFF7E8
:105BB0009FFCE06985734168002901D00020884777
:105BC00070BDF8B5050006D0FE4C0027A07B00286C
:105BD00003D00420F8BD0720F8BD0120A073FA4EC1
:105BE000AB20307077702A89100AB070F2700020F4
:105BF000296803F0BDFF010A3171314670714039E7
:105C00004888020AB271F0716A6862602A6822608C
:105C10002A8922812A896281E773A081401C4880F9
:105C2000304601211038818004602046FFF7A6FE2F
:105C30000020F8BD7047F8B50024062812D004DC17
:105C4000002809D0012804D106E0092816D00A2826
:105C500028D007242046F8BD002AFBD1002003F0FD
:105C6000DFFAF7E7012AF5D10978D848012902D0EF
:105C700000210170EEE701210170EFE70C2AE9D164
:105C80008A78C878120202434878097800041043E1
:105C90000D06054304F053FFA842DBD0284604F06C
:105CA0004BFFD7E70A2AD5D1087800908878CA78C0
:105CB00000061204024308794F7A0302487913431D
:105CC000184306468879CB7900020343087A4D7859
:105CD00002021743184602F00FFCBD4938464843FC
:105CE00002F00DFC30460A21484302F00BFC0098FC
:105CF00002F00BFC284602F013FCABE700B5B5A19F
:105D000003C985B00090AF4801910221C8380170E5
:105D1000002141700B228270C170032202716A4619
:105D20001278303A42716A469278303A82716A4605
:105D30001279303AC2710290039108206A461082AB
:105D400002A8FFF73EFF05B000BDFEB504F010FF4E
:105D50009C4A0223C83A1370002454700B25957096
:105D6000D470062313710B0A53710E02030E3343D2
:105D70009171D3710E04030C334313720B06010AA5
:105D80001943517290726846019400920581FFF7A1
:105D900018FFFEBDFEB500250C4610287ED00ADC9B
:105DA00003000BF05BFB0D181B4085188A9F18A49D
:105DB00018A918AC1800272871D006DC20286FD04D
:105DC00021286ED0262806D10FE132286AD040283B
:105DD00069D0412868D007252846FEBD042A7DD118
:105DE00000F0D9FFA178E67809020E436178C07807
:105DF00009040E43217809060E43B102C90E8842F8
:105E000005D0002004F098FE002002F03DFE304650
:105E100001F04AF900F0F6FD0028DDD002F064FC44
:105E200000286FD0D8E7052110460AF015F80029A0
:105E30006BD1C7B2082F00D90827384604F0FFFC01
:105E4000002628E0B0003218A05C00211219009151
:105E50000190537894461A0A1B0610431943624670
:105E6000009101909278130C12041143184362467A
:105E700000910190D278130E12021143184362462A
:105E8000009101901279304611430091694604F067
:105E9000E7FC761CF6B2BE42D4D306E033E0ABE0BA
:105EA00051E062E0AFE0B5E0C9E004F002FD93E745
:105EB000002A2AD101F05DF98EE7042A25D1A078C5
:105EC000E178000208436178090401432078000664
:105ED000084300D1414804F0B8FD00E015E004F0AB
:105EE000BDFD79E7002A9DD101F0AAF974E7002AE7
:105EF00098D1FFF7ACFA6FE7FFF700FF6CE7FFF709
:105F000024FF69E71CE0042A01D0092564E700208A
:105F10000090E0780090A178090208430090617831
:105F20000904084300902178090608430090684658
:105F300004F027FD04F02FFD01F076F90028B6D01B
:105F400002F027FC48E7012AB1D108780407240FA2
:105F5000022CACD8204604F0E7FD002C03D0012031
:105F600004F0DAFD38E70020FAE7082A9FD1002084
:105F700000900190E079002101910090A279130234
:105F8000DA17184311430191009062791304DA176C
:105F9000184311430191009022791206D317104340
:105FA000194301910090E27811430191A278120205
:105FB0001143019162781204114301912278120673
:105FC00011430DE0C42C00209C2000202C21002037
:105FD00010270000312E362E30000000581B000024
:105FE0006846019104F01AFC57E70878002800D0B1
:105FF000012004F0A7FDEFE60878002800D001207A
:1060000004F0A6FDE8E60878002800D0012004F09E
:10601000A5FDE1E6042A95D120785A2892D160782E
:106020005B288FD1A0785C288CD1C8785D2889D175
:106030000021092003F051FCFEF788FBCCE6042A7E
:1060400090D12078A5288DD16078B5288AD1A07804
:10605000C52887D1C878D52884D100F088F910B533
:10606000012000F0D2FC002004F04EFD002004F0DE
:1060700063FD02F03CFB04F03EFD02F0A7FB10BD07
:106080003EB5FB4A01231370002353700224947021
:10609000D370147150719171072069460193009279
:1060A00008816846FFF78DFD3EBDF7B50D46002817
:1060B0000DD0002D0BD00278C11C042A2ED008DC94
:1060C000012A0DD0022A1CD0032A6AD10CE0072035
:1060D000FEBD052A2FD0062A50D0FF2A61D137E015
:1060E000807800F0E4F95CE04A780C7811022143F2
:1060F00049BACA058378411DD20D184600F073F9DC
:106100004FE04A780C781102214349BACA058378D6
:10611000411DD20D1846FFF73DFE42E04A780C784B
:106120001102214349BACA058378411DD20D184690
:1061300000F025F935E04A780C781102214349BA7C
:10614000CA058378411DD20D1846FFF774FD28E07B
:10615000012D26D1C078012804D0022805D00328BB
:106160001FD105E00122114604E00122022101E0D5
:1061700001220321032000F025FC12E00526841CE7
:106180000DE06078A1780002401887B239462046B9
:1061900004F0A3F8F019C01CE41986B2E41CA81B93
:1061A000EFD50298002101600846FEBD10B5B14A46
:1061B000917010800120D07002211046FFF7DEFBA5
:1061C000002010BD7047FEB5AA4C1646143C0F4681
:1061D000A06A07F058F9002802D1A06A07F0DBF89E
:1061E000A349226AE03100250091002A12D0012A39
:1061F00047D0022A0DD1787869460871C10608D5C2
:106200008006C10FF879BA790002104340BAFFF74F
:1062100073FCFEBD3978AB29FBD19548A580D830F9
:106220003246394609F080FD9148A680D830418831
:1062300048BA0830801B00B2E08000281EDC8C4E7B
:106240006A46D83670781071C20604D58006C10F30
:106250002562F088DAE702202062A580B08840BA83
:106260002DE0F088012140BAFFF7A0FF7088814A35
:1062700041BA0C320098FFF718FFFEBD01202062E2
:106280002FE07B48A188D83040183246394609F0C3
:106290004BFDA0888019A080E088801B00B2E080C0
:1062A00000281EDC724E6946D83670780871C10627
:1062B000CCD402202062A580B088718840BA4ABA46
:1062C000009900F031F90028CBD02562F088002138
:1062D00040BAFFF76BFF0021674A084606F09CFDB5
:1062E000FEBD644A01210C328904A06A07F018F847
:1062F000FEBD60481438407870475E4914394870D4
:10630000704770B50024224620461146FFF7F0F88A
:10631000584D143D2869012800D168702C61AC618A
:106320005348AC60C830EC608473C473E8690028DB
:1063300005D084734168002901D0002088472C6271
:10634000AC804C48EC8004804480686A07F09BF87D
:10635000002802D1686A07F01EF8A86A07F093F8CF
:10636000002802D1A86A07F016F8002070BDBFF31C
:106370004F8F43494148C860BFF34F8FFEE710B5C8
:10638000002420281ED006DC03000BF067F8060C62
:106390000F121215180C212817D0302818D03128C8
:1063A00019D041281AD00724204610BD002105200D
:1063B00016E003F01FFBF7E70021062010E00021A4
:1063C00007200DE000210A200AE000210B2007E051
:1063D00000210C2004E000210D2001E000210E200E
:1063E00003F07BFAE0E7F7B5224D0026143D0F4697
:1063F0000446012801D0032C02D1E86A06F0CBFF45
:10640000012C04D0032C1ED0062C4ED149E002985A
:10641000202815D1002F13D0FEF7E2FF0A280FD352
:1064200020223946174809F07FFC0F210022490439
:10643000E86A06F075FF0021012003F04EFA34E00F
:1064400000F05BFB31E00298202807D1002F05D037
:106450002021384600F088FB060015D000F0D4FB60
:106460004B2101224904E86A06F05AFF1DE00000B2
:10647000FC2B002070200020C56101000400FA05FB
:1064800000ED00E0382D002003F0B2F904F097F998
:10649000002801D103F0EAFF00F0A1FB01202861F0
:1064A00003E027481321008866DF3046FEBD3EB575
:1064B000012818D0112815D122480121017000228D
:1064C000427012238370C270042303714171817181
:1064D000C1710172009001920920694608816846E5
:1064E000FFF76FFB3EBD03F09EF90446012003F069
:1064F00097F9FEF775FF142807D201210846FFF728
:10650000BFFD204603F08CF93EBD00210846FFF791
:10651000B7FD0D49012008700C4805210022C90370
:10652000006806F0FDFE3EBD10B50446002003F0F5
:106530001FFBA04201D1002010BD0B2010BD0000A8
:1065400006200020FC2B00205C2000201C200020C6
:106550000EB565490968012911D1644907220A70FD
:1065600000224A7001238B70CA700B714871009130
:1065700006200192694608816846FFF722FB0EBD9E
:1065800010B5042911D1006801280FD002280CD1C0
:1065900000F020FA012811D00220FFF7D9FF54485B
:1065A0000069C00101D503F0EBFF10BD0120FFF72A
:1065B000CFFF0021142003F090F910BD00F0B3FAD2
:1065C00010BD10B5042911D1006801280FD0022890
:1065D0000CD11220FFF7BCFF45480069400305D4E9
:1065E0000021092003F079F9FEF7B0F810BD112061
:1065F000FFF7AEFF03F0FEF910BD08B500213C48DF
:106600000091006942033B4816D40278521CD2B272
:106610000270022A08D9022200920170364A04212F
:10662000684606F0F9FB08BD3448012100228903C1
:10663000006806F075FE08BD0122EDE708B50021EF
:106640002B4800910069C2012A4816D44278521C96
:10665000D2B24270022A08D9022200924170284A1E
:106660000421684606F0D8FB08BD26480121002217
:106670008903006806F054FE08BD0122EDE710B55D
:10668000122815D11A480069400311D41B4C206808
:1066900006F0F9FE002802D1206806F07CFE0020FA
:1066A00014490246087001218903206806F038FE6B
:1066B00010BD10B5182815D10D480069C00111D4BE
:1066C000104C206806F0DFFE002802D1206806F09A
:1066D00062FE0020074902464870012189032068B4
:1066E00006F01EFE10BD00006C200020FC2B0020D8
:1066F00000050050A4200020816501001420002026
:10670000C36501001820002070B50021B74BB84CBC
:1067100001220546CD40ED07ED0F5D5C164602D027
:10672000AE40E66001E0AE40A660491CC9B20F2948
:10673000EFD370BD10B5AF4CE06806F02CFEFF2023
:10674000A0600020A080142020700020FFF7DCFF54
:1067500010BD70B5A74DA86815286ED00EDC0300DB
:106760000AF07CFE1543383C3F4346494C4F525992
:106770005C5F6265687B7F828588B000202826D0B8
:1067800009DC163803000AF069FE0A7B80838689DB
:106790008C8F251B1E9D252856D008DC21284DD026
:1067A00022284ED023286ED024286DD112E026282E
:1067B0004DD027284BD028284CD0642864D126E01F
:1067C0008A4C8A3C01E0894C863C022172E0874C6D
:1067D000103401E0854C28340C216BE0834C4034AC
:1067E000FAE7824C5834052164E0804C823CECE7A7
:1067F0007E4C7E3CE9E77D4C7A3CE6E77B4C763C80
:10680000E3E77A4C723CE0E7784C6E3CDDE7774C8E
:106810008C3C01214EE0754C3E3CD6E7734C3A3C33
:10682000D3E7724C363CD0E7704C323CCDE76F4C2E
:106830002E3CCAE76D4C2A3CC7E71EE06B4C263C59
:10684000C3E76A4C223CC0E7684C1E3CBDE7674C7E
:106850001A3CBAE7654C163CB7E7644C083C042187
:1068600028E0624C123CB0E7604C6A3CADE75F4CFC
:10687000663CAAE75D4C623CA7E75C4C5E3CA4E743
:106880005A4C5A3CA1E712E01CE0584C563C9CE79D
:10689000564C523C99E7554C4E3C96E7534C4A3C7B
:1068A00093E7524C463C90E7504C423C8DE74F4CAE
:1068B0000E3C0321002C05D0A8886A88904204D39E
:1068C000002A02D0FFF736FF70BD09F0C5FA480074
:1068D000205AFFF719FFA888401CA88070BDF8B5A2
:1068E0000746444C0020A080A76015460E46E0688D
:1068F00006F0C9FD002802D1E06806F04CFD3146E3
:106900000C2270045143000C89B2152F31D00EDCDB
:106910003B000AF0A3FD152E3030322E2E2E2E2EE7
:106920002E2E2E2E2E2E2E412E2E2E2E3500202FA8
:1069300021D009DC163F3B000AF090FD0A1B1B1B0F
:106940001B1B1B1B1D1B1B22252F12D008DC212FFC
:106950000FD0222F0DD0232F20D0242F10D10AE0CA
:10696000262F06D0272F04D0282F02D0642F07D13E
:1069700005E0608004E0618002E0B0000FE0668026
:10698000A068FF2807D00020FFF7E3FE0022294679
:10699000E06806F0C5FCF8BDB000EAE7700030180A
:1069A000E7E770B50D46134914460A78904207D8B8
:1069B00008701A4621462846FFF791FF012070BD56
:1069C000002070BD0B2803D00D2801D00A4BE8E74A
:1069D0000A4BFCE7074800787047064810B5084A9C
:1069E00001210C3006F055FC10BD0000C815020056
:1069F00000050050A8200020333300009A19000041
:106A0000536701008B48407870478A494870704747
:106A10001CB500221146104605F026FD69460124EA
:106A200008802407606901A91238C0B205F091FD01
:106A3000002818D160691238C0B205F073FD0198C2
:106A400008227D49001D05F05BFD00280BD16A4638
:106A50002021794805F008FD6946088077494118EA
:106A6000019805F048FD1CBD1CB5002211461046DA
:106A700005F0FAFC6946088001200007406901A979
:106A80001238C0B205F065FD002815D101996C4B94
:106A90000868020C9A4210D184B220226648091D6F
:106AA000FDF700FC6A462021634805F0DDFC6946DD
:106AB0000880A04203D100201CBD401C01D00B2047
:106AC0001CBD05201CBD0EB55E48032101700021D0
:106AD000417002228270C1700122027141710191E4
:106AE00000900620694608816846FFF76AF80EBDE7
:106AF00055481321008866DF70470EB551480321C1
:106B000001700021417002228270C1700121017167
:106B100041714E49019100900620694608816846FE
:106B2000FFF74FF80EBD10B54948006806F033FC7A
:106B300040480124047001F0F4FFFFF7FBFDFFF76C
:106B4000C2FF0021022002F0C8FE42480460FFF7A5
:106B500086FA03F0ECF8002805D03F48006806F0FC
:106B60001AFC03F0EEFA10BDFEB50D46060001D08A
:106B7000202D01D00720FEBD00221146104605F051
:106B800073FC6946088001200007406901A912389A
:106B9000C0B205F0DEFC0400EDD10198284A03687C
:106BA000190C91420AD19FB26A462021001D05F0BE
:106BB0005BFC69460880B84202D105E05B1C01D04D
:106BC0000B20FEBD0520FEBD01992A463046091D59
:106BD00009F05AF8002800D00B242046FEBD0EB55F
:106BE0001848032101700021417004228270C17095
:106BF00001220271417101910090062069460881CD
:106C00006846FEF7DEFF0EBD0EB50E48032101708B
:106C10000021417004228270C17001220271427110
:106C2000019100900620694608816846FEF7C9FF79
:106C30000EBD0000B8200020382D00200000DE45E9
:106C4000DE450000FC2B002006200020F16A010038
:106C5000882000206C2000202420002002461F20D5
:106C6000012907D0062901D9491EC9B2C90700D098
:106C70001E2070471C32D0B27047F8B50A46044651
:106C8000F949104609F0E8F80D4606463C21284629
:106C900009F0E2F82171E1210901284609F0DCF848
:106CA000054608463C2109F0D7F86071A5717D20A2
:106CB0000001B5B220800FE0002F26D064213046BD
:106CC00009F0CAF8002901D0B0071ED0FF206E30AD
:106CD000281A761C85B226802088FF21064691312D
:106CE00009F0BAF80F0013D06421304609F0B4F867
:106CF000002901D0B0070BD0FF206E30A842DBD9AD
:106D00000020FF27A07091371DE0FF206F30DFE7E4
:106D1000FF206F30F2E720883946064609F09CF8DC
:106D2000002927D06421304609F096F8002901D0C7
:106D3000B0071FD00020A178FFF790FF281A85B276
:106D4000A078401CA07020883946064609F084F8D7
:106D5000002911D06421304609F07EF8002901D0C5
:106D6000B00709D00020A178FFF778FFA842D2D958
:106D7000E570F8BD0120DEE70120F4E710B5BA495F
:106D800009F06AF8072109F067F8481D072109F0A2
:106D900063F8084610BD10B5B448C1681030FFF75D
:106DA0006CFFB24810308178491C8170C178491C51
:106DB000C17010BD70B5FFF7EEFF044600254AE034
:106DC000284603F045FD0068A179C001C00E884245
:106DD0003FD1284603F03CFD006861790003800E36
:106DE000884236D1A148C068FFF7C8FF064628464A
:106DF00003F02EFD01780120B0400140480624D167
:106E0000284603F025FD0068E1788000C00E884226
:106E10001FD1284603F01CFD01680079890880070E
:106E20000843A178000F884213D1284603F010FDD3
:106E3000014600680979020A080610437D21800E88
:106E4000090140182188884203D100210F2002F057
:106E500044FD6D1CEDB203F0EFFCA842B0D870BD4C
:106E6000F8B503F0E6FC0646FFF795FF054603CEAE
:106E7000020E08021043000E083E012829D17B4C67
:106E8000E068FFF77BFF0246A8790027002804D1BD
:106E90006979002901D12760676001239340316837
:106EA000DAB2114215D00A02120E824211D80A0437
:106EB000120E82420DD33C2250436A79090E80188B
:106EC00008F0CAFF002905D003F039FE6168401AB6
:106ED0002060F8BDB08831680004090C08432168BF
:106EE000000C884203D90021112002F0F6FC276033
:106EF00003F025FE6060F8BD10B55C4CE068401CF6
:106F0000E06003F073FCE1210901E06808F0A4FFF0
:106F1000002908D1564857490088884203D20021E9
:106F2000082002F0DAFC3C21E06808F095FF0C0034
:106F300001D01E2C16D1FFF74DFD142805D102F00B
:106F4000B2FE002801D1FEF7C0F9002C0AD101F0F1
:106F5000CBFB002806D0FFF72DFFFFF781FF0020B5
:106F600001F04CFD10BD10B540487D2109011030E5
:106F7000018000218170C1708171417101713B4CB0
:106F80003D4AE1600121083806F083F9002804D069
:106F9000FF213AA21C31FDF7A1F901210022C9030A
:106FA000A06806F0BDF9002804D0FF2133A21E31ED
:106FB000FDF794F910BDF8B5054681060005800E71
:106FC0003C225043890E4118E803E122C00E120111
:106FD0005043401800907D20AE0E00013018FF2174
:106FE00000270446913108F037FF002915D02046CC
:106FF000642108F031FF002901D0B0070DD0002333
:10700000A8021949C00E4843009940181649494240
:107010004418A801050F6D1E09E00123F0E7F9B23D
:107020001846FFF71BFE1049484304197F1CBD4258
:10703000F5D8002514E07D200001FF2128189131AA
:10704000074608F009FF00292CD06421384608F0D3
:1070500003FF002901D0A80724D0114824186D1C73
:10706000AE42E8D82046F8BD80510100BC20002087
:10707000522000208C0A0000F96E01002E2E5C5375
:107080006F757263655C7372635C62645F77616C79
:107090006C5F636C6F636B5F74696D65722E630008
:1070A0008033E1019148D9E7F8B50546810600052E
:1070B000800E3C225043890E4118E803E122C00EA5
:1070C00012015043401800907D20AE0E0001301890
:1070D000FF2100270446913108F0BEFE002915D09B
:1070E0002046642108F0B8FE002901D0B0070DD079
:1070F0000023A8027E49C00E4843009940187C49ED
:1071000049424418A801050F6D1E09E00123F0E76C
:10711000F9B21846FFF7A2FD7549484304197F1CD0
:10712000BD42F5D8002514E07D200001FF2128187C
:107130009131074608F090FE002918D064213846A6
:1071400008F08AFE002901D0A80710D06948241849
:107150006D1CAE42E8D8684DEC60A86806F01BF9DB
:1071600001210022C903A86806F0DAF87BE75F482E
:10717000EDE7FEB5614D0220287000266E700420F8
:10718000A870EE7003F058FB8100401828710024AD
:107190002CE0204603F05CFBA100611800794F1938
:1071A0007871204603F054FB014600680979000E0F
:1071B00009020843B871204603F04AFB0146006803
:1071C0000979000C09040843F871204603F040FBDC
:1071D000014600880979000A0906084338722046EA
:1071E00003F036FB0078641C7872E4B203F024FBF1
:1071F000A042CED80196009528796946401D0881A5
:107200006846FEF7DEFCFEBD3B48C068704710B51F
:10721000394CE060A06806F0BEF801210022C903E5
:10722000A06806F07DF810BD10B5FFF7B4FD00882A
:107230007D210901884201D1002010BD012010BD2F
:107240003EB52E4C02202070002565700720A070EE
:10725000E57004202071FFF79EFD0279B1099206C6
:107260008901920E11433F22920191434279920685
:10727000120D11431F22120391438279D206D20BC1
:1072800011431F2252049143C278D206920A11433D
:107290000F229205914382780078920511430322D0
:1072A000890180069207890980180143080E6071E0
:1072B000080CA071080AE0712172019500942079F0
:1072C0006946401D08816846FEF77BFC3EBD10B54F
:1072D0000948806806F05FF8002804D0FF21084ABA
:1072E000DD31FCF7FBFF10BD704700000085E201B7
:1072F000805101008033E101BC200020FC2B0020E4
:107300007C700100002208B51146104601F04EF8CD
:1073100000287DD0002001F0ADF869460F2000F074
:10732000CDF9002803D1DAA1BD20FDF7E8F86846C1
:107330000078332803D0D6A1BE20FDF7E0F8002165
:10734000202000F0D1F9002803D1D1A1C020FDF701
:10735000D6F80021212000F0C7F9002803D1CCA1E4
:10736000C120FDF7CCF80021222000F0BDF9002853
:1073700003D1C7A1C220FDF7C2F80021232000F0ED
:10738000B3F9002803D1C2A1C320FDF7B8F800214A
:10739000242000F0A9F9002803D1BDA1C420FDF7E5
:1073A000AEF80021252000F09FF9002803D1B8A1F4
:1073B000C520FDF7A4F8042000F0A8FD002803D1A3
:1073C000B3A1C620FDF79BF8072000F0E7FA0028DC
:1073D00003D1AFA1C920FDF792F8022000F092FA84
:1073E000002803D1AAA1CA20FDF789F8052000F0E2
:1073F000EFF9002803D1A6A1CC20FDF780F80120E9
:1074000000F0E4FA012000F0F9FA002805D100E0CC
:1074100010E09FA1CE20FDF772F8022000F076FD6B
:10742000002000F009FC002000F0CBFC002001F05F
:107430003BF8012008BD70B59C4904209B4C743179
:107440000860091F0860994910310860091F086029
:107450002060964D78352860FF20913000F098FF2D
:10746000934820602860934901208860C82000F07C
:107470008FFFFFF747FF70BD10B5002000F0FAFF47
:1074800000F068FC002804D1FF2081A17F30FDF7C7
:1074900036F80021202000F027F9002804D1FF2031
:1074A0007BA18030FDF72BF80021212000F01CF992
:1074B000002804D1FF2076A18130FDF720F80021BB
:1074C000222000F011F9002804D1FF2070A18230A1
:1074D000FDF715F80021232000F006F9002804D15B
:1074E000FF206BA18330FDF70AF80021242000F073
:1074F000FBF8002804D1FF2065A18430FCF7FFFFD2
:107500000021252000F0F0F8002804D1FF2060A120
:107510008530FCF7F4FF042000F0F8FC002804D1CB
:10752000FF205BA18630FCF7EAFF002000F0BCFFE3
:1075300010BD70B504460D46002000F09BFF042CE2
:1075400002D0052C17D10AE0202000F075FB0220A4
:1075500000F095FB042000F09FFB052009E02020AF
:1075600000F06AFB032000F08AFB0E2000F094FB81
:107570001E2000F09AFB012D02D1302000F072FB9A
:107580000124002000F090FF204670BD10B5044695
:10759000002000F06FFF012000F0F2FB002C01D072
:1075A000802000E0002000F035FB002000F07CFF90
:1075B00001210520FFF7BDFF10BD10B504460020D6
:1075C00000F058FF002C13D0212000F085FC002093
:1075D00000F08FFC002000F00AFC002000F01FFCEF
:1075E000012000F0CDFB402000F002FB2A2003E048
:1075F000002000F0FDFA802000F0E3FB002000F006
:1076000053FF10BD10B5002000F034FF002000F043
:1076100079F9002000F048FF10BD10B5002000F0FF
:1076200029FF022000F06EF9002000F03DFF10BDA0
:107630007CB50546002000F01DFF0024684604705C
:1076400001A9402000F00DFE684600F037FE6846B4
:107650000079012802D12020694608706846007828
:10766000154E810889006846017006E006206043D7
:10767000801900F079FD641CE4B268460078844209
:10768000F4D3684600782870002000F00DFF7CBD20
:107690002E2E5C536F757263655C7372635C6264FB
:1076A0005F68616C5F6163632E63000000070050D8
:1076B0000102000000050050582D002010B5802266
:1076C0001043FD4A0C4610700221FC4BFC4800F0B0
:1076D000A2FE002803D1FBA13920FCF710FFF748D8
:1076E00040782070012010BD10B5FF4C022222709E
:1076F000FE4B00221A70F04AF04B10705170217846
:10770000EF4800F088FE002803D1EEA15220FCF7DC
:10771000F6FE012010BD10B501460F20FFF7CEFF89
:10772000002800D0012010BD10B501460720FFF74A
:10773000C5FF002800D0012010BD38B50C46054615
:1077400069460720FFF7BAFF002811D00020012169
:10775000802D0ED0402D16D0202D18D0102D1AD0EF
:10776000082D1CD0042D1ED0022D20D0012D26D096
:1077700038BD6A461278D309DB0124E0217000E0AD
:107780002070012038BD6B461A78402312E06B460A
:107790001A7820230EE06B461A7810230AE06B4615
:1077A0001A78082306E06B461A78042302E06B4639
:1077B0001A7802231A406B461A70E1D0DEE76A4657
:1077C0001278D307DB0F6A461370002BD8D0D5E7A9
:1077D00038B5044669462020FFF770FF00280ED018
:1077E0006846007821010007000F0143C9B26846CE
:1077F00001702020FFF778FF002800D0012038BD5D
:1078000038B5044669461F20FFF758FF002810D0FE
:1078100068460078BF210840A1010143E001084308
:10782000C1B2684601701F20FFF75EFF002800D03C
:10783000012038BD38B5044669461F20FFF73EFFDA
:1078400000280ED068460078E1014006400E014352
:10785000C9B2684601701F20FFF746FF002800D01C
:10786000012038BD1CB5044669460820FFF726FFF5
:10787000002833D001A90920FFF720FF00282DD0D0
:1078800069460879097800020843000920806946A2
:107890000A20FFF713FF002820D001A90B20FFF7D3
:1078A0000DFF00281AD069460879097800020843BC
:1078B0000009608069460C20FFF700FF00280DD00A
:1078C00001A90D20FFF7FAFE002807D069460879C4
:1078D0000978000208430009A08001201CBD1CB5E6
:1078E000044601A90C20FFF7E9FE002809D06946EB
:1078F0000D20FFF7E3FE002803D0684600782070D3
:1079000001201CBD1CB5044669462020FFF7D6FEA9
:10791000002819D001A92320FFF7D0FE002813D09A
:107920006846017872480A0905D1027812091201E5
:107930000A4369460A70002C07D0F7210823012C5E
:1079400014D0022C09D000201CBD694609780170B2
:107950000807000F6946087010E0684602780A4080
:10796000027002790A401A43027107E06A461078F1
:10797000084018431070107908401071684601786B
:107980002020FFF7B1FE0028DED0684601792320D1
:10799000FFF7AAFE0028D7D001201CBD38B5044649
:1079A00069462020FFF78AFE00280ED0684600783E
:1079B0006107C008C000490F0143684601702020DC
:1079C000FFF792FE002800D0012038BD38B50446EC
:1079D00069462320FFF772FE00280ED06846017822
:1079E000CF20014020010843C1B268460170232026
:1079F000FFF77AFE002800D0012038BD38B50446D4
:107A000069462320FFF75AFE00280ED0684600780A
:107A1000E1014006400E0143C9B2684601702320CF
:107A2000FFF762FE002800D0012038BD38B50446BB
:107A300069462320FFF742FE00280ED068460178F1
:107A4000BF200140A0010843C1B268460170232055
:107A5000FFF74AFE002800D0012038BD38B50446A3
:107A600069462320FFF72AFE00280ED068460178D9
:107A7000F920014060000843C1B26846017023202C
:107A8000FFF732FE002800D0012038BD38B504468B
:107A900069462120FFF712FE00282DD068460178A4
:107AA000FB200140A0000843C1B2684601702120BC
:107AB000FFF71AFE00281DE0D5200020DD20002061
:107AC000003000402E2E5C536F757263655C7372DC
:107AD000635C62645F6C69733364685F6472697667
:107AE00065722E6300000000E6200020E5200020E3
:107AF000D420002000D0012038BD38B504466946A6
:107B00002120FFF7DBFD00280DD0684600784008F3
:107B100040002043C1B2684601702120FFF7E4FD18
:107B2000002800D0012038BD38B504466946212020
:107B3000FFF7C4FD00280ED068460178FD20014003
:107B400060000843C1B2684601702120FFF7CCFDF8
:107B5000002800D0012038BD38B5044669462120F0
:107B6000FFF7ACFD00280ED068460078A101800622
:107B7000800E0143C9B2684601702120FFF7B4FDB1
:107B8000002800D0012038BD38B50446032801D9AB
:107B9000002038BD69462120FFF790FD0028F8D06D
:107BA00068460078CF21084021010143C9B26846E8
:107BB00001702120FFF798FD0028EAD0012038BD90
:107BC00038B5044669462120FFF778FD00280ED01D
:107BD00068460178F7200140E0000843C1B26846DA
:107BE00001702120FFF780FD002800D0012038BD62
:107BF00038B5044669462220FFF760FD002808D00A
:107C00006846047021462220FFF76EFD002800D050
:107C1000012038BD38B5044669462520FFF74EFDE2
:107C2000002808D06846047021462520FFF75CFD37
:107C3000002800D0012038BD38B5044669463820F8
:107C4000FFF73CFD00280CD06846007881098901C7
:107C50002143684601703820FFF746FD002800D018
:107C6000012038BD10B57F2801D9002010BD014684
:107C70003A20FFF739FD0028F8D0012010BD10B5DB
:107C80007F2801D9002010BD01463B20FFF72CFDC5
:107C90000028F8D0012010BD10B501463C20FFF7A8
:107CA00023FD002800D0012010BD10B501463D2065
:107CB000FFF71AFD002800D0012010BD38B504469A
:107CC00069463920FFF7FAFC002840D06846007862
:107CD0004106490E68460170480601D4002034E090
:107CE000880619D508070BD5480701D52C202CE0AC
:107CF000880701D52A2028E0C80729D0292024E0B8
:107D0000480701D5242020E0880701D522201CE067
:107D1000C8071DD0212018E008070BD5480701D55A
:107D20001C2012E0880701D51A200EE0C8070FD0EA
:107D300019200AE0480701D5142006E0880701D57C
:107D4000122002E0C80703D011202070012038BDA6
:107D5000002038BD08B569462420FFF7AFFC002895
:107D60000DD0684600784106490E802001436846E0
:107D700001702420FFF7B8FC002800D0012008BDC6
:107D800038B5044669462420FFF798FC00280ED039
:107D900068460178F7200140E0000843C1B2684618
:107DA00001702420FFF7A0FC002800D0012038BD7E
:107DB00008B569463120FFF781FC002800D001207A
:107DC00008BD38B5044669463020FFF777FC002827
:107DD0000CD068460178402001402143684601707C
:107DE0003020FFF781FC002800D0012038BD38B5D5
:107DF000044669463020FFF761FC00280ED0684633
:107E00000078A1018006800E0143C9B26846017066
:107E10003020FFF769FC002800D0012038BD7CB578
:107E2000044669463020FFF749FC002835D001A9F7
:107E30002420FFF743FC00282FD0BF214025FB2042
:107E4000012C04D0022C07D0002C10D016E06B4679
:107E50001A780A402A430DE06A4613780B402B43F8
:107E600013701179014004200143117106E06B4643
:107E70001A780A401A701979014019716846017818
:107E80003020FFF731FC002807D068460179242014
:107E9000FFF72AFC002800D001207CBD38B504463D
:107EA00069463120FFF70AFC002814D0694608789B
:107EB0004006400E087048280BD006DC412808D048
:107EC000422806D0442805D103E0502801D060287C
:107ED00000D12070012038BD10B57F2801D90020C5
:107EE00010BD01463220FFF7FFFB0028F8D001202B
:107EF00010BD10B57F2801D9002010BD01463320E8
:107F0000FFF7F2FB0028F8D0012010BD38B5BF24E0
:107F1000042809D04025002823D001283CD002287D
:107F200057D003287BD077E069462E20FFF7C6FBA9
:107F3000002872D068460078C106C90E68460170F4
:107F40002E20FFF7D1FB002867D069462420FFF7D9
:107F5000B5FB002861D068460178214001702420DB
:107F600056E069462420FFF7A9FB002855D0684653
:107F700001782140294301702420FFF7B5FB002838
:107F80004BD069462E20FFF799FB002845D0684664
:107F90000078C106C90E38E069462420FFF78EFB41
:107FA00000283AD06846017821402C4621430170D0
:107FB0002420FFF799FB00282FD069462E20FFF7D9
:107FC0007DFB002829D0684600782146C006C00EF7
:107FD0001AE069462420FFF771FB00281DD068468F
:107FE00001782140294301702420FFF77DFB002800
:107FF00013D069462E20FFF761FB00280DD068469C
:108000000078C006C00E80210143684601702E2012
:10801000FFF76AFB002800D0012038BDFFE7694662
:108020002420FFF74BFB0028F7D068460178214059
:10803000294301702420FFF757FB0028EDD0694643
:108040002E20FFF73BFB0028E7D068460078C006EB
:10805000C00EC021D8E738B5044669462E20FFF788
:108060002DFB0028D9D068460178DF20014060014F
:108070000843C1B2684601702E20FFF735FB002887
:10808000CBD00120C9E738B504461F2801D900200C
:10809000C3E769462E20FFF711FB0028BDD06846D4
:1080A0000078410949012143684601702E20FFF7FD
:1080B0001BFB0028B1D00120AFE710B501462720F7
:1080C000FFF7FCFA002800D0012010BD38B50C469F
:1080D000054669462720FFF7F1FA00289DD00021C8
:1080E0000122102D23D008DC012D34D0022D2AD0FE
:1080F000042D24D0082D06D11DE0202D13D0402DB5
:108100000DD0802D01D0002087E768460078C30994
:10811000DB0124E0227000E0217001207DE76B4646
:108120001878402312E06B46187820230EE06B4647
:10813000187810230AE06B461878082306E06B468F
:108140001878042302E06B461878022318406B4627
:108150001870E1D0DEE768460078C307DB0F684699
:108160000370002BD8D0D5E71CB504468349E8201E
:10817000087007216B46814A814800F04CF90028BD
:1081800003D180498048FCF7BAF968468178427883
:10819000080600141043208068460179C27808065A
:1081A00000141043608068468279417910060014FB
:1081B0000843A08001201CBD10B501463120FFF707
:1081C0007DFA002800D0012010BD38B50C460546C8
:1081D00069463120FFF772FA00280FD000200121F4
:1081E000402D0CD0202D13D0102D15D0082D17D0D8
:1081F000042D19D0022D1BD0012D21D00DE76B4687
:108200001A78402317E0217000E02070012004E775
:108210006B461A7820230EE06B461A7810230AE08A
:108220006B461A78082306E06B461A78042302E0AE
:108230006B461A7802231A406B461A70E5D0E2E7C3
:108240006A461278D307DB0F6A461370DDD0DAE78F
:1082500010B501462F20FFF731FA002800D0012089
:1082600010BD38B50C46054669462F20FFF726FAA3
:10827000002807D000200121802D04D0402D0CD0F3
:10828000202D12D0C9E66A461278D309DB0110E02E
:10829000217000E020700120BFE66B461A78402371
:1082A0001A406B461A70F5D0F2E76A461278D30787
:1082B000DB0F6A461370002BECD0E9E738B50446B3
:1082C00069462F20FFF7FAF9002806D0694608789A
:1082D000C006C00E0870207001209EE638B5044626
:1082E00069462320FFF7EAF900280DD06846007898
:1082F000400840002043C1B2684601702320FFF7C8
:10830000F3F9002800D0012087E610B50120FFF71F
:1083100077FA002804D11C481A49F830FCF7EFF826
:1083200047212020FFF7E0F9002804D1164815491D
:10833000FB30FCF7E4F800212120FFF7D5F90028F5
:1083400003D110491148FCF7DAF800212220FFF789
:10835000CBF9002804D10D480A49801CFCF7CFF85E
:1083600008212320FFF7C0F9002804D10748054958
:108370000E30FCF7C4F8012010BD0000D52000200D
:1083800000300040C47A0100B1050000B1060000D1
:1083900031B5054C04E0401E00902046FBF752FF2B
:1083A00000980028F7D138BDE7030000F8B505268E
:1083B000360215460F4600280ED0494C0121890788
:1083C000A0194162002F05D0012F14D0022F14D024
:1083D000032F14D0002113E04348424C1D2181603B
:1083E0001C21C16004210161032000F074F83F49A1
:1083F00003200860E2E7022102E0042100E00621F8
:10840000002D01D00122114341650021FF200930D8
:1084100001512046F8BDF8B5944600250322344F9B
:1084200008269E462C46FE603E158719FF30013017
:1084300019E06646365DFE610326360300E06D1CDA
:108440008368002B01D1B542F9D3B54204D110465F
:1084500000F041F80020F8BD00268660BE69734632
:108460001E55641CA4B28C42E3D3104600F033F8CE
:108470000120F8BD10B504461E2000F02CF80121A3
:10848000002C05D01648052212028018016010BD8C
:10849000184A14481160121F1160164B0022643BE9
:1084A0001A601A1F1160EEE7002809D00C49052256
:1084B00000201202891808600D499005C8607047B5
:1084C0000C4A02200749343A50631063094A743A4F
:1084D0001061D060EBE70121814005488160704761
:1084E000004000400030004000350040E8200020FF
:1084F0000005005074070050FE4988807047FD4910
:1085000048617047FB498861704710B5F94BFA4CD8
:108510003033596880072140C00A0143596010BDBB
:1085200010B5F44B782430335968E44300072140F8
:10853000400E0143596010BDEE4880887047ED48F9
:1085400040697047EB488069704710B5E94C207866
:1085500000280AD0E06904F01EFF002803D0E7A23B
:108560009F21FBF7BBFE0020207010BD10B5E14C31
:10857000207800280CD10022E849E06904F0D0FE00
:10858000002803D0DDA2AE21FBF7A8FE0120207059
:1085900010BD10B5D748C28803899A4201D9114647
:1085A00000E0194681814489A14200D82146818199
:1085B000914201D1002010BD994201D1012010BD8E
:1085C000022010BDF8B506460068022803D0CBA1F2
:1085D000C720FBF794FF7268002A5BDDC54CA188B9
:1085E00020462030002902D143785B1C4370437839
:1085F0000125002B00D145705018A08002F09FFA91
:108600007168401802F098FAB068002802DD6169CC
:10861000401860613069002802DDA1694018A0613E
:10862000F068002804D0012806D002280BD107E00A
:10863000E088401CE08006E02089401C208102E0A8
:108640006089401C6081FFF7A4FFAA4BAA4E30331B
:10865000596880073140C00A0143B14800260140F3
:10866000A0880005400B0143596002F068FA0746F4
:1086700002F0E8F9874202D3A07800280BD002F07C
:108680005EFA054602F0DEF9854200D2A6700020AF
:1086900000F0C6FDF8BDA5700021132001F01DF902
:1086A000F5E710B504460068012804D0FF2093A127
:1086B0000330FBF724FF8F492079C870204600F073
:1086C000B9FF002000F0ACFD10BD10B504460068F5
:1086D000022802D12046FFF775FF2068012802D149
:1086E0002046FFF7DEFF10BD82484078704710B586
:1086F00080490020487005F000FF10BD10B5FEF75E
:1087000083FD00217D227B4CD2000B4607F00DF942
:10871000E162A06210BDF8B500680102CF0D41040E
:108720008E0D41004D0EC40F002D00DC2325002EC0
:1087300000DC4D26002F00DCAF27002C01D100D03B
:1087400001246C484078002801D0FFF7D0FF2B4669
:10875000324639461920009405F09DFE002804D0C9
:10876000FF2066A1A530FBF7CAFE624801214170D7
:10877000FFF7C4FF00216B4805F0CEFE002804D0AF
:10878000FF205EA1AB30FBF7BAFEFEF746FF0020EC
:10879000F8BD584810B520304078002803D100F0CB
:1087A000FBFE00F054FE534824304088002801D1DD
:1087B00000F0EDFE5C4800684088002801D101F01F
:1087C00015FF02F0DBF8FFF7A6FF10BD10B500F0B3
:1087D000E3FE00F0DCFE01F009FF00F038FE454842
:1087E000002181808161416141810181C180084610
:1087F00002F0A2F900F074F900F052F9012010BD66
:10880000F0B585B0002402A8FEF712FF394D38E01C
:10881000A00731D1687800282ED00621434A614351
:10882000505EC010039088180221415ECF100421D1
:10883000415E0398CE103946404379434118304693
:108840007043081801F0A8F9AA6A27238446D218B1
:10885000E96A00204141AA62E962009201916346FF
:1088600032463946039805F060FE002804D02B20DC
:1088700022A10001FBF743FE641C2869E4B2401CFE
:1088800028616846007A8442C2D305B0F0BDF1B5D4
:10889000184E82B0B08835463035009000287DD023
:1088A0000A21B06907F0E2FA4003400B0704040C08
:1088B00068682988C00889B2C0000F4304431C4976
:1088C000706907F0D3FA390C80B2090408430A49E9
:1088D0000C4002998907C90A0C4311490C400099C0
:1088E0000905490B0C4311C5210E2C46183C607834
:1088F000C2001FE0F0200020FFFFE7FF2E2E5C5398
:108900006F757263655C7372635C62645F737465D8
:10891000705F636F756E7465722E6300D7230000FD
:108920007F00F8FFCB86010090210020582D002009
:10893000102700005748083D0368D218517062782C
:1089400069680368D200090CD21891706278A9880E
:108950000368D200090AD218D17062780368D20085
:108960002979D21811712A7929681202090E114346
:1089700062780368D200D21851712A7929681204EA
:10898000090C114362780368D200D21891712A79D8
:1089900029881206090A1143627800E011E0036891
:1089A000D200D218D17162780068D20029781018EC
:1089B00001726078082804D100F048FB002800D13B
:1089C00060706A686968530D28880022B280B261BD
:1089D000726172813281C9025B1CF280C90A5B0537
:1089E0002D4A1943114082B2C808110CC000090475
:1089F0007822D243104029606860FEBDFEB5FEF7C4
:108A0000CAF90546FFF7C5FD0646FFF777FEA879C8
:108A10000027224C002808D16879002805D1287940
:108A2000002802D102F088F8A770E08886420FD9AA
:108A30001A4A7823303203CADB430B40C709490680
:108A40003943090F083A491C0907490E0B43536083
:108A5000E07801280CD12078002809D1E16AA06AC9
:108A60000023019100901A461946184605F05DFD55
:108A700068790F2107F0F0F9002902D13046FFF79D
:108A800006FF01F02FFDFEBD0449887070470348C2
:108A900080787047382100207F00E0FFF020002020
:108AA00038B5012424076169206929394143F9480F
:108AB00001606169226929395143416000200090B9
:108AC000606969462938C0B203F043FD0098006828
:108AD000401C04D060692938C0B203F013FE38BDD1
:108AE00038B5012424076169206938394143E948D0
:108AF00008380160616922693839514341600020BA
:108B00000090606969463838C0B203F022FD0098D1
:108B10000068401C04D060693838C0B203F0F2FD30
:108B200038BD10B5FFF7DCFFFFF7BAFF01F064FDB9
:108B300010BD10B501210907096989B207F08CF948
:108B400010BD70B5D34C012560682D07002802D0F8
:108B50002068002809D1686929692938484360607C
:108B6000686929692938484320606068FFF7E1FF98
:108B7000296989B248436168884217D00846FFF7DF
:108B8000D8FF296989B248436168081A80102C21EE
:108B900007F062F9002909D0686929692938484332
:108BA0006060686929692938484320606068016805
:108BB000491C02D14168491C15D0FFF7BAFFC0B269
:108BC00003F0B0FC6068FFF7B4FF296989B248433D
:108BD0006060FFF7AEFF05462068FFF7AAFF8542F9
:108BE00001D16068206070BD70B5AA4C0125083CB9
:108BF00060682D07002802D02068002809D1686924
:108C000029693838484360606869296938384843B9
:108C100020606068FFF78DFF296989B24843616869
:108C2000884217D00846FFF784FF296989B2484374
:108C30006168081A80104C2107F00EF9002909D04C
:108C40006869296938384843606068692969383833
:108C50004843206060680168491C02D14168491C92
:108C600015D0FFF766FFC0B203F05CFC6068FFF749
:108C700060FF296989B248436060FFF75AFF0546E3
:108C80002068FFF756FF854201D16068206070BD03
:108C9000804803C8884201D10020704701207047F6
:108CA0007D484088002800D00120704770B5794C7D
:108CB0002068FFF73EFF054620685830FFF739FF70
:108CC0008542206801D12C3070BDFFF732FF0125AD
:108CD0002D076969401C1A39884206D22068FFF7BF
:108CE00028FF2969401C89B203E02869696980B2BC
:108CF0002939484370BD70B5664C60688430FFF711
:108D000018FF06466068FFF714FF01252D0786420D
:108D10005AD060685830FFF70CFF06466068FFF7CE
:108D200008FF864250D16068FFF703FF6969401C65
:108D30001A3988422AD26068FFF7FBFE401CC0B295
:108D400003F0E0FC6068FFF7F4FE2969401C89B27B
:108D500048432168884237D86068FFF7EAFE2969EE
:108D6000401C89B24843296989B241182068814270
:108D70002AD9FFF7DEFE6969401A1B3001D020684E
:108D80001BE02869696980B229391BE068692938C4
:108D9000C0B203F0B7FC286981B268692938414341
:108DA0002068814210D829696A6989B2293A5143F9
:108DB0002A6992B28918814206D9FFF7BAFE296959
:108DC000401C89B2484320606068FFF7B2FE064647
:108DD00060685830FFF7ADFE8642606801D12C30E4
:108DE00070BDFFF7A6FE6969401C1A39884206D299
:108DF0006068FFF79EFE2969401C89B203E028697C
:108E0000696980B22939484370BD2248083803C8CF
:108E1000884201D100207047012070471F484078E8
:108E200000280CD01E4903C9C20C4803194910433D
:108E30003039C988000D884201D0012070470020D8
:108E4000704716484078012801D90120704700205A
:108E5000704770B50F4C083C2068FFF76AFE054666
:108E600020689830FFF765FE8542206801D14C30BC
:108E700070BDFFF75EFE01252D076969401C293989
:108E800088420FD22068FFF754FE2969401C89B23E
:108E90000CE000006021002014210020102100209F
:108EA000202100202869696980B23839484370BDA3
:108EB00070B5FB4C6068E430FFF73BFE0646606827
:108EC000FFF737FE01252D0786425AD0606898309B
:108ED000FFF72FFE06466068FFF72BFE864250D153
:108EE0006068FFF726FE6969401C293988422AD24A
:108EF0006068FFF71EFE401CC0B203F003FC606810
:108F0000FFF717FE2969401C89B24843216888424F
:108F100037D86068FFF70DFE2969401C89B24843C5
:108F2000296989B24118206881422AD9FFF701FED8
:108F30006969401A2A3001D020681BE028696969F4
:108F400080B238391BE068693838C0B203F0DAFB08
:108F5000286981B26869383841432068814210D855
:108F600029696A6989B2383A51432A6992B28918E3
:108F7000814206D9FFF7DDFD2969401C89B24843CB
:108F800020606068FFF7D5FD064660689830FFF7FF
:108F9000D0FD8642606801D14C3070BDFFF7C9FD3D
:108FA0006969401C2939884206D26068FFF7C1FD13
:108FB0002969401C89B203E02869696980B238399F
:108FC000484370BD70B500281AD0002918D04A78DF
:108FD0000524D200121D04700025D3050226DB0DE6
:108FE000457086701C0AC47003714B881B0A43715C
:108FF0008B7883710B78C37149780172501D70BDF5
:109000000020C04370BD70B500281CD000291AD0C4
:109010004A8805249200121D92B204700025D305DF
:109020000326DB0D457086701C0AC47003710B8823
:109030001B0A43710B7883714B881B0AC3718978B3
:109040000172501D70BD0020C04370BD70B5002876
:1090500002D0082801D9092070BD914C9149283CC3
:10906000A068FFF7AFFFC01CC117890F0818800365
:109070008B4D020C6868A16803F042FA002801D009
:10908000012070BDFFF714FF686086490020864A02
:109090004870864B506811881840C008C0000021F5
:1090A00011605060084670BD10B57D4C283C207999
:1090B00000280DD105210022C903E06904F030F930
:1090C000002803D07AA28249FBF708F90120207119
:1090D00010BD3EB5744C724D03CCC20C4803104316
:1090E000000D283D083C00285BD0FFF728FA79499D
:1090F00006F0BCFE216882B2090C0904114321600C
:10910000FFF720FA0A2106F0B1FE4003400B030CE2
:10911000020461682088C90880B2C900104319435D
:1091200003C46048AB684278090ED200D21851706F
:10913000083C42786168AB68D200090CD218917083
:109140004278A188AB68D200090AD218D17042785F
:10915000AB68D2002179D2181171217922680B02F3
:10916000110E19434278AB68D200D218517122799E
:1091700021681204090C11434278AB68D200D2185E
:10918000917121882279090A120611434278AB684D
:10919000D200D218D1714078AA682178C000801816
:1091A00001724049A868FFF70DFF4B490191A9687A
:1091B0000091694608816846FCF703FD002801D04C
:1091C00000203EBD03CCC20C48031043000DE880D4
:1091D00001203EBD3EB5324C08342068C17802798A
:1091E00009025118491D89B22C2908D80278052A8C
:1091F00005D14278002A02D18278032A03D0FFF7F2
:1092000055FD206008E0344A0090019268460181D3
:10921000FCF7D7FC002801D000203EBD01203EBD58
:10922000FEB52E480068012866D11D4C283C2078E8
:1092300000285FD1A069002804D025481CA16A3805
:10924000FBF75DF9E0780526234F0125002847D17B
:10925000FFF71EFD00280FD1FFF722FD00280BD1DC
:1092600001F0ADFA002807D1FFF7CFFD002803D1A8
:10927000FFF7E7FD002833D00948002108380670C1
:10928000417007228270C170017100900197684699
:109290000681FCF796FC00282CD106207EE0000019
:1092A0005821002010210020202100207F00E0FF15
:1092B0002E2E5C536F757263655C7372635C6264BF
:1092C0005F73796E635F646174612E6300000000F8
:1092D0002505000010270000C19401006C2000202B
:1092E000FFF7D6FC002808D0FFF774FF002801D054
:1092F000A6611FE0FFF7D8FEFEBDFFF7D1FC0028F6
:109300000FD0F649E068FFF77EFE0197E168009113
:10931000694608816846FCF754FC0028EAD104201D
:109320003CE001F04CFA002806D001F047FA002892
:10933000E0D0A5612570FEBDFFF767FD002805D0D0
:1093400000F0FFF80028D5D0032027E0FFF779FDD3
:1093500000280AD101E0022020E0E148007800283E
:1093600008D0FFF75BFD002804D0FFF7B2FE00280D
:10937000F1D1BFE7E0780028DDD0DA48002106709F
:10938000417008228270C170017100900197684697
:109390000681FCF716FC0028ACD10720A061C9E7C4
:1093A00010B5D04C1034002803D0FFF77FFC2060AC
:1093B00010BDCC48216820384269914203D04161F8
:1093C0000021817010BD8178491CC9B281700429C7
:1093D000EBD210BD10B5FDF7DEFC01780322490287
:1093E00052038918BD4A3F24138849046402490C7A
:1093F000A3431943FF231180E133994383781B076B
:10940000DB0D19431180C07849094901C006C00E1F
:10941000014311800020508010BD10B5B14C0834BC
:10942000002803D0FFF715FD206010BDAD4821686E
:1094300020380269914203D001610021417010BDC2
:109440004178491CC9B241700429EBD210BD70B5F6
:10945000FDF7A1FC05460020A34C014603C4687932
:109460000F21083C06F0F8FCA97989004018400556
:1094700000212160606070BDE9E710B5FDF78BFC4D
:109480009A4AC3785188DB0649094901DB0E194322
:10949000FF235180E133994383781B07DB0D194388
:1094A00051800078032340025B03C0184004400C45
:1094B0003F235B029943084350800020507010BD49
:1094C00070B5884C0025203C2570012814D0FFF78A
:1094D000EBFDA069022804D0032804D0052809D197
:1094E00005E0E58006E00020FFF797FF02E000209E
:1094F000FFF756FFA56170BDA069030007F0AEFF3E
:10950000081C05080D1114181B1C01F092F813E03B
:10951000FFF7B3FFFFF79BFF0EE00120FFF77DFF92
:109520000AE0FFF757FF07E00120FFF739FF03E0EC
:109530000120E07000E0E5700120A561FFF770FEFA
:1095400070BD3EB5674C08342068C17802790902C5
:109550005118491D89B24C2908D80278052A05D12D
:109560004278002A02D18278022A03D0FFF771FCE8
:10957000206008E05E4A0090019268460181FCF795
:1095800020FB002801D000203EBD01203EBD21E788
:1095900054492039C870704710B5FDF7FCFB534A99
:1095A000C3785188DB0649094901DB0E1943FF23C3
:1095B0005180E133994383781B07DB0D19435180B8
:1095C0000078032340025B03C0184004400C3F2393
:1095D0005B029943084350800020507010BD70B565
:1095E000002802D0082801D9092070BD3D4C3B4914
:1095F000203CE068FFF707FDC01CC117890F081861
:1096000080032546020C30356868E16802F078FF77
:10961000002801D0012070BDFFF76DFB68602F4965
:109620000020488070BD2F4918310A6802604968DF
:109630004160704770B5054680683C2106F016FC15
:10964000264C064622880F235104880ED205800638
:109650009B05120F9843920510431F225204890262
:109660009043890A0843FDF7A6FC3C2106F0F4FB71
:10967000311A20481B4A4180183269681160AB6872
:1096800053600268090712091201090F0A430260B8
:109690006188120E491C89B261808B001149203902
:1096A000CD685B195A7163880268CD689B00120C03
:1096B0005B199A7163880288CD689B00120A5B1956
:1096C000DA716288C968920000785118087260885F
:1096D000082802D3C0B2FFF782FF70BD142100201A
:1096E0002C210020502100202021002010210020CA
:1096F000C19401002821002010B5FEF74AFFFFF7B2
:10970000C6F800F0BBFF49488078FFF768FF48487B
:109710004078FFF79BFC10BD7CB5002001252D078C
:10972000019068693838C4B227E001A9204602F0E8
:1097300010FF01980068009068460078FF2802D06A
:10974000052815D10CE068464078FF2810D16846FE
:109750008078FF280CD16846C078FF280BD007E03E
:1097600068464078002803D168468078022802D0F5
:10977000204602F0D7FE641CE4B268692938A04292
:10978000D3D87CBD7CB5002001252D0701906869E8
:109790002938C4B227E001A9204602F0DAFE019878
:1097A0000068009068460078FF2802D0052815D18F
:1097B0000CE068464078FF2810D168468078FF2882
:1097C0000CD16846C078FF280BD007E06846407887
:1097D000002803D168468078032802D0204602F092
:1097E000A1FE641CE4B268691A38A042D3D87CBDDB
:1097F000002065E610B50F49002008710120FFF731
:109800000FFD10BD0B4810B50B4A00211C3003F0B2
:1098100040FD002803D0094A0949FAF75FFD10BD51
:1098200004490870704703480078704714210020ED
:109830001021002030210020F5970100B092010096
:109840001605000010B501F07AF9044601F0FAF8A7
:1098500084423FD801F0F6F8044601F070F9642123
:109860004843214606F0F8FAC0B20A2802D2032281
:10987000122103E0142805D2032213211420FDF73E
:10988000A1F810BD1E2802D203221421F6E72828D1
:1098900002D203221521F1E7322802D20322162137
:1098A000ECE73C2802D203221721E7E7462802D240
:1098B00003221821E2E7502802D203221921DDE712
:1098C0005A2802D203221A21D8E7642802D203229E
:1098D0001B21D3E703221C21D0E710B5030007F0BA
:1098E000BDFD162A0C102A2A141D23373B6D7179F1
:1098F0007D872B2D83414F58632A00221F21012091
:109900006FE001222021022029E006220F210520FC
:10991000FDF758F800280ED0062136E00622212156
:10992000104604E0032130E0062222210720FDF743
:1099300049F80028F6D110BD062107E006222621AD
:109940001020FDF73FF80028F5D0032101201DE08D
:1099500001222721082044E0032228210920FDF7C5
:1099600031F803E0002903D0032202E001210CE0DA
:1099700001220D211220FDF725F80028F6D110BD97
:1099800003221E21132020E00221022000F04BF9C7
:1099900010BD00F0A4FD002803D003220D211420E7
:1099A0001FE0FFF74FFF10BD00F099FD002801D028
:1099B000002000E0012000F023F810BD0322232145
:1099C0000A20B4E7022224210B20FCF7FBFF002829
:1099D000DAD110BD032223210A2002E00122242132
:1099E0000B20FCF7EFFF10BD0622252111209EE77A
:1099F0000121ABE710B500F03EF9FCF79BFE10BD6E
:109A000010B5002806D0064B01221D211420FCF7BA
:109A1000C8FF10BD01220E211420FCF7D3FF10BD9A
:109A2000CD0C000010B50068002802D0012828D114
:109A30002AE0FBF7D5FC0446142106F00DFA49494B
:109A4000401C0A78C0B282421BD00870142C02D28B
:109A50000022052112E0282C02D2002206210DE06E
:109A60003C2C02D20022072108E0502C02D2002216
:109A7000082103E0642C05D2002209210420FCF710
:109A8000A1FF10BD642CFCD100226421F6E735480B
:109A90000078810040183C21081AC0B27047314953
:109AA000002801D0002008704868022802D02D4804
:109AB000001DB7E770472C480169C90DC907C90FD8
:109AC00009D000210069C00DC007C00F05D00029D2
:109AD00007D0012070470121F4E7002901D00020C0
