:020000040001F9
:10400000383F00203DA901004FA9010051A901003E
:1040100000000000000000000000000000000000A0
:1040200000000000000000000000000053A9010093
:10403000000000000000000055A9010057A9010080
:1040400059A9010059A9010059A9010059A9010064
:1040500059A9010000000000C1C801008150010001
:1040600059A9010059A9010059A90100A14C010059
:1040700059A9010059A9010059A9010059A9010034
:1040800059A90100BDCE010059A9010059A901009B
:10409000D3CE010001C60100ADC6010059A901003F
:1040A00059A9010059A9010000000000000000000A
:1040B0000000000000000000000000000000000000
:1040C00000F002F800F032F80CA030C808382418CC
:1040D0002D18A246671EAB4654465D46AC4201D140
:1040E00000F024F87E460F3E0FCCB6460126334240
:1040F00000D0FB1AA246AB4633431847B4BD0000BC
:10410000D4BD00000023002400250026103A01D36E
:1041100078C1FBD8520700D330C100D50B6070477F
:104120001FB5C046C0461FBD10B510BD0BF086FCC4
:104130001146FFF7F5FF00F0D6FD0BF09EFC03B42F
:10414000FFF7F2FF03BC0BF0A3FC0000401E00BF12
:1041500000BF00BF00BF00BF00BF00BF00BF00BF67
:1041600000BF00BF00BFF1D170470000401E00BF7C
:1041700000BF00BF00BF00BF00BF00BF00BF00BF47
:1041800000BF00BF00BFF1D17047000070B5054609
:104190000C46164602E00FCC0FC5103E102EFAD288
:1041A000082E02D303CC03C5083E042E07D301CC4E
:1041B00001C5361F03E021782970641C6D1C761E32
:1041C000F9D270BD0123FE4CDB02E36007F0AAFFC9
:1041D000FD49FC48C860BFF3408FFEE710B5FB4CBB
:1041E000206A08F0E6FF002802D1206A08F069FF83
:1041F000032100220904206A08F026FF0120207014
:1042000010BD10B5F14C206A08F05BFF0020207053
:1042100010BD10B5ED48002101704278012A08D187
:10422000417006F051FB022804D00021102005F057
:1042300058FA10BD0121F9E710B5642003F0ACFF76
:10424000E34807F0DBF8002802D0E2A2D52106E01F
:10425000DF4807F0DDF8002803D0DEA2D821FFF701
:10426000B1FF10BD10B5D9490978012921D0817855
:10427000012915D004292CD006291AD1007800284C
:1042800017D106F03AFB002813D005F0E9FF00280B
:104290000FD102F0A9FA14280BD10021072029E040
:1042A0000078002806D0012801D0022801D105F0AD
:1042B000A0FA10BD06F015FB0028FAD005F0D0FFDB
:1042C0000028F6D102F090FA1428F2D1002105203E
:1042D00010E000780028ECD106F009FB0028E8D0B7
:1042E00005F0BEFF0028E4D102F07EFA1428E0D1E8
:1042F0000021062005F0F5F910BD10B50168002970
:1043000007D0012904D0022902D10830FFF7AAFF03
:1043100010BDAE490122C8781043C870C143890757
:104320000DD08007F4D4AA48A849008928316EDF4F
:104330000028EDD0FF21A7A25331FFF743FF002152
:10434000AA4A084608F001FC10BDFF21A1A2723163
:10435000FFF738FF10B59D4986B0091DA44852DF0C
:10436000002803D0FF219BA27D3134E004ACA11CC6
:10437000A04852DF002803D0FF2196A280312AE016
:10438000A11C9D4852DF002803D0FF2191A2833158
:1043900021E0A11C994852DF002803D0FF218DA203
:1043A000863118E0002002900390954800909548CF
:1043B00001906946864806F0D0FF002803D0FF210F
:1043C00084A2913107E0824807F06EF8002804D0FB
:1043D000FF2180A29E31FFF7F5FE06B010BD0A4610
:1043E00001468948FFF7EEFE11B5814991B0487B3F
:1043F0000A7B0102114368460180744902240A794C
:1044000082700C613C2101A80BF0AFF901226846D3
:1044100001944272828111A80490002168460184AF
:10442000099102850B9001A807F069FA002803D0D2
:1044300068A27649FFF7C6FE12B010BDF0B589B08C
:10444000142168460BF091F900206946087001902C
:1044500008725E4C0390206903265027022500282D
:1044600006D0012805D002282DD0032822D133E020
:10447000256105A809F048FB002802D055A264492F
:104480001FE06846007E002803D108A800780028B5
:1044900008D06846057205A803900420FFF7A4FF22
:1044A000256100E0266168460782142141820120CF
:1044B00008F0C6F8684663DF002819D0544945A2C1
:1044C0002A31FFF77FFE0520FFF78EFF684607823F
:1044D000282141822661EAE70520FFF785FF19219F
:1044E000890168460182B421418202202661DFE70A
:1044F00009B0F0BD474A0320D061464940390863FE
:10450000C8628862486250619061C8611060C86387
:1045100088634863D061D061D06010610862012176
:104520002748C9058160CA1282600A1382604A1353
:1045300082608A1382608A1082604A1082608022C0
:104540008260CA1182600A1282604A1282608A12F4
:104550008260816081600911816049008160091376
:104560008160704708B52C4B00932C4B0B22102117
:10457000002008F0D1FC002804D0132115A2490125
:10458000FFF720FE08BD10B505F0BEFA10BD10B54E
:104590000E4C606A08F095FDE12100224904606A32
:1045A00008F052FD10BD10B5084C606A08F089FD96
:1045B00005210022C903606A08F046FD10BD000015
:1045C000000500500400FA0500ED00E00020002086
:1045D000DC2B00202E2E5C536F757263655C73724A
:1045E000635C6D61696E2E6300000000394201005A
:1045F00070FE010080FE010090FE0100A0FE01009F
:10460000FB4201004B430100EFBEADDE2D03000075
:104610000102000040070050774D010028250020CE
:1046200010B505F083FA0028C8D0FFF7B0FFC5E742
:1046300010B5FF4A0021FF4808F0BFFC002802D057
:10464000FD4AFE494BE0FB48FD4A0021001D08F0F1
:10465000B4FC002803D0F949F74A891C3FE002F076
:10466000C6F8002803D0F549F34A891D37E0F54A1A
:104670000121F54808F0A1FC002803D0AB21EE4A47
:1046800089002CE0EB48F14A0021083008F095FC45
:10469000002803D0E949E84A163120E0E548EC4A11
:1046A0000021103008F089FC002803D0AF21E24A35
:1046B000890014E0DF48E74A00210C3008F07DFC57
:1046C000002803D0DD49DC4A203108E004F0A2FFD5
:1046D00005F0DDF9002804D0D849D74A2531FFF785
:1046E00071FD6BE710B50478DB48214606F0F5FA5A
:1046F00000280BD0082809D0D849884206D0D849CC
:10470000884203D0B321CC4AC90010E0C94814380C
:10471000002C02D00021C16050E7C168491CC16073
:104720000329F9DD1521C08866DFC34ACD49FFF7AB
:1047300049FD10B59AB0402168460BF016F8CAA1A1
:10474000684606F0D5F9CBA108A806F0D1F9CBA1AF
:1047500002A806F0CDF9CBA106A806F0C9F9002001
:1047600018A9087001200007406919A90F38C0B2C4
:1047700007F08CFD05F0C9F9010004A81ED0199AB4
:10478000002110AB545C5C54491CC9B22029F9D3F8
:10479000194606F0ADF901200146103108A801774D
:1047A0000020014608A84177684606F071FB002802
:1047B00006D0A249A04AE031FFF704FDB3A1E8E723
:1047C0001AB0FBE69C4AB549FFF7FCFCF8B5994CDA
:1047D00001884526B24DB34AF6430023143C1729FD
:1047E00036D00EDCB04F102921D0112931D012293A
:1047F0002ED013292CD1224628320021E0886FDFE9
:104800000EE0192974D01A2973D0392901D05529FD
:104810001ED11370002004F0C2FD1321E08866DF72
:10482000002815D09D49844AF231FFF7CBFCE37094
:104830000221216180881E46E08074DFE08873DFFA
:10484000258166704B2101224904386808F0FCFB81
:10485000F8BD1D461370002004F0A1FD0020C043E8
:10486000E08001F0C1FF052801D101F06FFE01F0E9
:10487000BBFF012801D101F069FE386808F021FC76
:104880008A480178002902D0057001F0CBFF00F0C2
:1048900041FE002801D000F0DFFF01F03FFC0028BE
:1048A00017D006F009F8002813D006F00DF80028FC
:1048B0000FD0002005F0FCFF002001F033FC05F0D4
:1048C000CFFC002805D10820205EB04201DA01208B
:1048D0006070A078002803D0A57009F0EBF809E01B
:1048E00009F031F8002805D06C49534AB6319CE7ED
:1048F0000FE01AE009F033FA06F0D8FD002803D0E3
:1049000066494D4ABC3190E7FFF798FDFFF766FC1A
:10491000F8BD137080790028FAD12069042801D1EC
:1049200003202061FFF78AFDF8BD0627C75705F071
:10493000CBFF5F4800680128F6D10820205EA8421E
:1049400001D1278109E003210AF052FF450003212C
:1049500038460AF04DFF2818208105F0ADFF0028E9
:10496000E2D10820205EB042DEDD012005F0A0FF8C
:10497000F8BD10B504460088102802D0112802D0D6
:1049800004E0032000E0002007F05AFE32482146F0
:10499000383006F075FC30482146183000F09FFC96
:1049A000204608F061FF204607F019F921462A4801
:1049B00006F0A8F82046FFF709FFFFE508B53D4BD4
:1049C000254900933C4B502284390D2007F046FEC8
:1049D000002804D02349184ADA39FFF7F3FB08BD51
:1049E00010B5042804D01F49134AC639FFF7EAFB63
:1049F00000F096FD002806D00E4801211438817081
:104A00001321C08866DFD9E510B504460146124877
:104A1000383006F02DFC23680BF084F80358580357
:104A20005800044902221439C8781043C87045E080
:104A30001364010014200020D4450100A1020000ED
:104A400055640100018601000C2100207558010009
:104A50008745010013420100A42B00200330000011
:104A600001340000A40500004C6F75697320506983
:104A70006F6E0000312E312E3000000050494F4E35
:104A800000000000312E302E300000003031323373
:104A9000343536373839616263646500B30300002A
:104AA000FF0F00002C21002088200020B8200020CB
:104AB0006C200020694D010073490100C04380074C
:104AC00004D10021F84A084608F03FF876E570B5B1
:104AD000F64802680121D2071BD001608404656991
:104AE000383D03E0E8B207F0BAFB6D1C6069183886
:104AF000A842F7D86569183D07E060690F38A842F9
:104B000002D0E8B207F0ABFB6D1C60690E38A8421A
:104B1000F3D80124E64DE405EC60FF20913003F06A
:104B20003BFBAC6070BD0020E24A022183009B1871
:104B30001960401C2028F9D37047FEB50024254693
:104B4000684661DF00281BD0DB48816A446A8DB269
:104B50002046294605F0D4FEFFF7CCFC04F09FFF69
:104B600000F08DF9FFF7FEFCD44A1421082007F06D
:104B7000D9FF002812D0FF21D14AAD31FFF722FB27
:104B800000266F46B81940780021F2000AF090FC28
:104B900004430D43761C062EF4DBD9E700F0F0FA4F
:104BA00000F004FB02F049FBFEBD00B587B005F044
:104BB000DBFCFFF73DFDC349022007F0E8FE0028BB
:104BC00002D0BF4AC0495AE002F0D4F800200123C5
:104BD0001B075A696946133A0A705A69143A4A70AF
:104BE000BA490191BA49029169468870684608F04D
:104BF000BCFF002803D0B449B14A15393FE0FFF7A4
:104C0000DDFE00F0C1F800F0F5F80520FFF7ECFB41
:104C10001C2168460AF0A9FD0521090401914910EB
:104C2000002002910090032269460A73C881012284
:104C30000A740590A7480690684606F076FF00289B
:104C400002D09F4AA4491AE000F007F9A34A0521BF
:104C5000012007F0DFFC002803D09B49984A08395F
:104C60000DE0002007F0ECFC00239D4A02219D4846
:104C700007F08BFD002804D09349914A2031FFF7BB
:104C8000A1FA00F0FFFD01F0FAFD002806D0002097
:104C900001F0C5FD02F0C3FB07B000BD0120F7E73E
:104CA0009149002008609149012048609049000422
:104CB0008860904940110860704710B500F0DFF837
:104CC00001208C4AC102803A11608C4A8A49916065
:104CD0008A4A082140321160854A010451608349A3
:104CE000086030BF6AE4FFF71EFFFFF7E6FF714977
:104CF00083485C3108606E49C0058860FFF71DFF7E
:104D000005F005F8FFF7E3FEFFF74FFF07F062F845
:104D100000280DD105F0ADFB01F07EFD002807D085
:104D200005F0D0FC05F030FD05F079FD03F031FC15
:104D300003F00FFE03F060FE04F0F6FB04F02AFC23
:104D400003F014FBFFF77AFB07F064FD05F016FC97
:104D500007F070FF05F016FC3DDF0028F8D05A4937
:104D6000574A3C31FFF72EFA10B50021654A084634
:104D700007F0EBFE22E41CB501910090624A082185
:104D8000684607F0E2FE1CBD0EB5112069460872A8
:104D900004225E4902A86CDF002803D05849484A23
:104DA000D83124E00920800168DF002803D0B72132
:104DB000434A89001BE00021FF20009141306A46F0
:104DC00001911080FF20913050809180D080684602
:104DD0006ADF002803D04049394AE43907E003205C
:104DE000C04367DF002804D03B49354AE139FFF76B
:104DF000E9F90EBD08B5FFF7ADFA00200090FC21DF
:104E0000684601700120014620316846417000204B
:104E10000146684681702B486946283005F004FE3B
:104E2000002803D02C49264A8B3911E000F09AF86B
:104E30002C4837490838416036490160014621480D
:104E40004C3000F0D4FA002804D039211C4A090162
:104E5000FFF7B8F9FFF76DFC08BD22491E20103995
:104E60000880887801221043E12210400C30DF22B4
:104E7000104088700720C8701020087170472649BC
:104E800001208861254900224A60830798604A60B2
:104E9000704710B5002904D021A275210020FFF72A
:104EA00091F907F0EFFB1CE43942010000040040D7
:104EB000000500500007005080000010D82300209B
:104EC000D4450100702B002047050000094A01006D
:104ED000E1490100C5470100CA0300002BC50100DC
:104EE000660600003820002040B1004000B00040BD
:104EF00000B3004080E100E0FF0F000000B500407B
:104F000001020000934E01004D4F01007C4A010058
:104F1000CD5F01002D61010000050040000100404F
:104F20002E2E5C6E726635313832325C496E636C9F
:104F30007564655C626C655C626C655F737461630B
:104F40006B5F68616E646C65722E680002460829AA
:104F500005D0FF211BA216310020FFF733F911689D
:104F60005068084700B585B0142168460AF0FDFB7B
:104F700000216846009101710291642101730120B2
:104F800001461031684641730120014610316846E0
:104F90008173002001466846C1730120014610312B
:104FA000684601746946124805F078FE002804D06E
:104FB0006B21104AC900FFF705F90F4800F0E8F827
:104FC00005B000BD2E2E5C6E726635313832325C13
:104FD000496E636C7564655C6170705F636F6D6D65
:104FE0006F6E5C6170705F74696D65722E68000031
:104FF000A42B0020D4450100E5460100A0498842C9
:1050000001D3642070479E493239884201D95F201C
:1050100070479B496439884201D95A2070479849A2
:105020009639884201D950207047AF210901884242
:1050300001D9462070479249FA39884201D93C206B
:1050400070479049884201D9322070478D493239E2
:10505000884201D9282070478A496439884201D999
:105060001E20704787499639884201D9142070471D
:105070008449C839884201D90A2070470120704705
:1050800070B5814801680024804D00291DD004605E
:10509000A8687F4A01215160E121090148437D4907
:1050A0000AF09CFB7C4A80B25080FFF7A7FF10708B
:1050B0005268002A09D00121774807F046FD0028F0
:1050C00003D076A2E321FFF77DF82C6070BD6F4915
:1050D000012008606C4A002111606D49086070472A
:1050E00070B50546FFF7F3FF0A2003F055F8664C4C
:1050F00002E00A2003F050F820680028F9D00020D0
:10510000206062488068624A01215160E121090102
:10511000484360490AF062FB288070BD664901205F
:105120004860664801680902090A020711430160E4
:105130006349802008607047F1B55F4800274760E9
:105140005F4901258020803108604F4C2760504E18
:105150007560FFF7BCFF0A2003F01EF820680028E6
:10516000F9D02760494880687560E121090148430A
:1051700048490AF033FB00990880FFF7CFFFF8BDDC
:1051800042495048486040490020086070479EE707
:1051900010B5414A50605088FFF730FF10705268D8
:1051A000002A02D001213C48904710BD10B53A4872
:1051B0004088002803D13848801CFFF791FF33490D
:1051C00000200860FFF7AAFF33483F4A012108305A
:1051D00007F0F3FE002804D0FF2130A27831FEF75B
:1051E000F1FF10BD3948807C7047014610B52A4850
:1051F0000022806807F028FF002804D0FF2127A2A2
:105200008B31FEF7DFFF10BD10B52348806807F033
:1052100058FF002804D0FF2120A29431FEF7D2FFCE
:1052200010BD70B501200024C003FFF7DEFF1A4D4A
:10523000274E6888B04201D3012406E030BF07F052
:10524000F9FC04F086FB0028F3D1FFF7DDFF2046D0
:1052500070BD0EB51F480221017000214170092266
:105260008270C170012202710B4A12784271019161
:105270000090062069460881684600F098FB0EBD44
:10528000B80B00008C0A000000710040007500405F
:1052900000700040FF030000502000202E2E5C53C1
:1052A0006F757263655C7372635C62645F62617484
:1052B000746572792E6300000073004004E400E01E
:1052C00000E100E0028000008F510100A42B0020CB
:1052D00098080000FC2B00208C4B07C3704710B5CA
:1052E0000B88012B2ED0102B16D00022112B1AD098
:1052F000502B10D1891D0B88048AA34202D10C8B3C
:10530000022C17D08288934205D18369002B02D0EA
:105310000A8B1A31984710BD89888182C06900289C
:10532000F9D0804710BD0021C9438182827500F009
:10533000FDFE10BD498B012901D0827510BD0121F0
:10534000817510BD71480268002AFAD081684068F2
:10535000904710BD70B500240546601C90B0000752
:10536000000F08A9103008940870601C0007000F97
:10537000103048708878F9263040801C88701C21D5
:1053800001A80AF0F2F96946087910210843694634
:105390000871029408A8049405940794069028784C
:1053A00008A9887103206946888411200094087038
:1053B00048708878E7213040801C0840012630433F
:1053C0006946887014210AA80AF0CFF909A80A9042
:1053D00068460B9069460E8614204C8688862B46BC
:1053E00068880C330AAA01A9A2DF10B070BD30B5DD
:1053F000474B04460D460FCB85B003936B4607C35E
:105400000020C043A0826868A0612868E061002095
:10541000A0752146684652DF002815D121786846DC
:10542000817401210182A21C04A90120A0DF0028AF
:105430000AD129462046FFF78DFF002804D12946CE
:10544000204600F01FF8002805B030BD1FB5837D51
:10545000002B05D01388142B04D9072004B010BDED
:105460000820FBE7002300930193029303938489B0
:105470006B461C800391029201219970808A6946D3
:10548000A6DFEBE770B58EB005461C2168460AF032
:105490006CF96846017808200143684601700024D1
:1054A00001940394049405940694297808A88170C3
:1054B000022168460184601C0107090F103168460B
:1054C0000794017701200146103168464177817FBA
:1054D000F9200140891CE72001400126314368463C
:1054E0008177142109A80AF040F908A8099007A8B3
:1054F0000A90684686851421C485018668882B1D1C
:1055000009AA6946A2DF0EB070BD0000F02B002092
:1055100040FB0100FF4800787047FE490870704763
:10552000FD49FE4A09880120914200D100207047C0
:10553000F7B582B002980C461546002804D1FF202A
:10554000F7A1D530FEF74BFF042C04D0FF20F4A1C7
:10555000D630FEF744FFEF4C2646A06830360028D0
:1055600004D0022804D001280CD00DE0A5600BE087
:10557000012D09D1B088012806D102980068A061E8
:1055800001200FE0022D0CD0002069460880A068A1
:1055900002280AD0002806D002980568002D49D1BB
:1055A00050E00220E06005B0F0BDDA481430C17868
:1055B0000129F8D10288807801282DD00023D5490F
:1055C000AB203831087068460079102500090001C9
:1055D0002843DF25284001256B405B0118438306E3
:1055E0009B0E684603714B7000274F8050BA8F8026
:1055F000C8800822684602806A46D348FFF726FF23
:1056000000280BD0D149884215D1C249D048143165
:105610000222FFF761FEC6E70123D0E7BD48A7607D
:105620001430C770E0680128BDD1A569002DBAD03B
:10563000E760A0607AE00020B649A0601431E06025
:10564000C870B0E7B6A1C348FEF7C9FE6EE0B14925
:10565000082040316A461080012716E0688900283A
:10566000A1D02868002804D1BA48ADA11530FEF7B2
:10567000B6FE68891421142800D801466A461180B4
:1056800029892A680227081A81186A46AE48FFF756
:10569000DDFE00280ED0AD4988424BD1AC482946EA
:1056A0000122FFF719FE01212A468904606A07F0EA
:1056B000CBFC78E7002F39D0012F04D0022F0AD07D
:1056C000032F33D12AE0B08801282FD10020B080E9
:1056D000206460642AE0694668890988401A0004E9
:1056E000000C688122D100273A4639463846FFF738
:1056F000F3FDA7600121E5612A468904606A07F08D
:10570000A3FCE068022811D182481430C078012837
:105710000CD10220A0600020E06038E77D48143002
:10572000C178012902D10021A160C170B08801288F
:1057300094D18CE700273A4639463846FFF7CCFD2E
:10574000A7606968002902D0AF7300208847E0682D
:105750000228AED1E760A06019E738B504000D4615
:1057600004D1FF206EA1BC30FEF739FE012D08D018
:10577000022D05D10222009404216846FFF7D8FECD
:1057800038BD00946089002803D06248406A07F061
:1057900098FC0122F0E770B5040024D05D4DAB20E9
:1057A00040352870002068702289100AA870EA70BD
:1057B0000020216804F0DCF8010A2971554968715C
:1057C0004888020AAA71E87122896281A081401C7E
:1057D0004880284601211038818004602046FFF768
:1057E000BCFF002070BD072070BD70B50446807BF3
:1057F00000281BD06089002809D1E07B032806D24D
:10580000401CE0732046FFF7C6FF00280ED000259D
:105810002A4629462846FFF75FFD3E488560C56059
:10582000A5736168002901D00020884770BD002160
:105830000160704710B5002809D0012806D136480C
:1058400036490088884201D0132166DF10BD00F080
:105850007DFE01F05DF810BD02F048FE01F00EFD86
:1058600006F05EFC012039DF3C493B48C860BFF3CD
:10587000408FFEE727490120087027481321008840
:1058800066DF704710B5364800218173C173214827
:10589000344A243007F091FB002804D0FF2120A2D5
:1058A0002831FEF78FFC1B482F4A0021283007F0D3
:1058B00084FB002804D0FF2119A22B31FEF782FCC3
:1058C00014482A4A00212C3007F077FB002804D026
:1058D000FF2113A22E31FEF775FC002010BD70B51C
:1058E0000C4D0E46E969002960D0898981425DD15D
:1058F000686A07F0E6FB0024002E39D0E869C17B16
:10590000032941D3224621462046FFF7E5FCAC603F
:10591000EC6044E05C20002006200020FFFF000037
:105920002E2E5C536F757263655C7372635C626488
:105930005F636F6D6D756E69636174655F70726FC3
:10594000746F636F6C2E6300BC2B0020033000006B
:105950005B570100210200000400FA0500ED00E0A1
:10596000C42C0020EB5701002F58010035580100CE
:10597000224621462046FFF7AFFCE8698473416860
:10598000002913D0012010E0491CC173FFF703FF69
:1059900000280BD0224621462046FFF79DFCE869EF
:1059A00084734168002901D00020884770BDF8B594
:1059B000040006D0FF4F0026B87B002803D0042047
:1059C000F8BD0720F8BD0120B873FB4DAB2028704F
:1059D0006E702289100AA870EA700020216803F016
:1059E000C7FF010A29712A466871403A5188080A9E
:1059F000A871E97163687B6023683B6023893B8100
:105A000023897B81FE73B981491C5180294601227B
:105A100010398A800F6038461146FFF79EFE00203D
:105A2000F8BD7047F8B50025062812D004DC002820
:105A300009D0012804D106E0092816D00A2828D068
:105A400007252846F8BD002AFBD1002003F0F2FA12
:105A5000F7E7012AF5D10978D848012902D00021B9
:105A60000170EEE701210170EFE70C2AE9D1887897
:105A7000CA78000210434A781204024308780406E8
:105A8000144304F028FFA042DBD0204604F020FF9E
:105A9000D7E70A2AD5D1087800908878CA78000616
:105AA0001204024308794C790002104304438879B8
:105AB000CA7900020243087A4F7A03024E781F43E4
:105AC000104602F019FCBE493846484302F017FC64
:105AD0000A20604302F016FC009802F016FC3046E3
:105AE00002F01EFCADE700B5B6A103C985B0009079
:105AF000B04801910221C8380170002141700B2289
:105B00008270C170032202716A461278303A427183
:105B10006A469278303A82716A461279303AC27196
:105B20000290039108206A46108202A8FFF73FFF07
:105B300005B000BDFEB504F0E7FE9E4A0223C83A58
:105B40001370002353700B249470D37006251571C5
:105B50000D0A55710E02050E35439171D5710E0473
:105B6000050C354315720D06010A294351729072D6
:105B70006846019300920481FFF719FFFEBDF0B55E
:105B80000346002585B00C461046102B7ED009DC5C
:105B900009F0C8FF0D181B408F1894A718AC18B255
:105BA00018B51800272B72D006DC202B70D0212BC3
:105BB0006FD0262B06D117E1322B6BD0402B6AD049
:105BC000412B69D007252846EDE4042A70D100F066
:105BD000EBFFA178E67809020E436178C0780904EA
:105BE0000E43217809060E43B102C90E884205D042
:105BF000002004F06DFE002002F04DFE304601F062
:105C000059F900F009FE0028DDD002F06CFC0028F4
:105C100071D0D8E7052109F0E1FD002974D1C0B2A7
:105C20000090082801D90820009004F0D4FC002638
:105C300038E0B0003218A05C00211219944602919D
:105C4000039052780B06170A3B4312061143184380
:105C500062460291039092780023170C1B043B4389
:105C6000120411431843624602910390D278002334
:105C7000170E1B0212023B43114318436246029166
:105C8000039012791143029102A906E03AE0B2E0D2
:105C900058E069E0B6E0BCE0D0E0304604F0ACFC8F
:105CA000761CF6B200988642C3D304F0CEFC8AE795
:105CB0002AE0002A28D101F05FF984E7042A23D1E1
:105CC000A078E17862780002084323781104014348
:105CD0001806084300D13D4804F083FD04F08AFD16
:105CE00071E7002A95D101F0AEF96CE7002A90D156
:105CF000FFF7AFFA67E722E0FFF7F5FE63E7FFF78C
:105D000019FF60E7042A01D009255CE70020009014
:105D1000E0780090A17809020843009061780904B6
:105D2000084300902178090608430090684604F073
:105D3000F4FC04F0FCFC01F07AF90028B7D002F082
:105D400028FC40E7012AB2D108780407240F022C6E
:105D5000ADD8204604F0B4FD002C03D0012004F09F
:105D6000A7FD30E70020FAE7082AA0D10020009024
:105D70000190E079002101910090A2791302DA17D5
:105D8000184311430191009062791204D317104314
:105D900019430191009022791206D3171043194339
:105DA00001910090E27811430191A278120211430F
:105DB00001910DE0C42C00209C2000202C2100200B
:105DC00010270000312E312E30000000581B00003B
:105DD0006278684612041143019122781206114339
:105DE000019104F0E7FB60E70878002800D001206B
:105DF00004F074FDE7E60878002800D0012004F0E4
:105E000073FDE0E60878002800D0012004F072FD60
:105E1000D9E6042A95D120785A2892D160785B2857
:105E20008FD1A0785C288CD1C8785D2889D10021D9
:105E3000092003F056FCFEF7B6FBC4E6042A90D115
:105E40002078A5288DD16078B5288AD1A078C5287A
:105E500087D1C878D52884D1FF49FE48C860BFF3F0
:105E6000408FFEE710B5012000F0D9FC002004F0BF
:105E700017FD002004F02CFD02F038FB04F007FDB4
:105E800002F0A4FB10BD3EB5F44A012313700023B9
:105E9000537002249470D370147150719171072063
:105EA00069460193009208816846FFF780FD3EBD78
:105EB000F7B50D4600280DD0002D0BD00278411CFF
:105EC000042A2ED008DC012A0DD0022A1CD0032A75
:105ED0006AD10CE00720FEBD052A2FD0062A50D03B
:105EE000FF2A61D137E0807800F0EEF95CE0CA78F3
:105EF0008C781102214349BACA058378411DD20D1D
:105F0000184600F07DF94FE0CA788C7811022143E1
:105F100049BACA058378411DD20D1846FFF72FFEF6
:105F200042E0CA788C781102214349BACA058378C5
:105F3000411DD20D184600F02FF935E0CA788C7853
:105F40001102214349BACA058378411DD20D184672
:105F5000FFF768FD28E0012D26D1C078012804D084
:105F6000022805D003281FD105E00122114604E0D4
:105F70000122022101E001220321032000F02CFC78
:105F800012E00526841C0DE06078A178000240181C
:105F900087B23946204604F062F8E419E41CF0198F
:105FA000C01C86B2A81BEFD50298002101600846EC
:105FB000FEBD10B5AA4A917010800120D070022158
:105FC0001046FFF7CAFB002010BD7047FEB5A44C79
:105FD0000F46143C1646A06A07F0EBF8002802D1E1
:105FE000A06A07F06EF89D48226AD8300146083151
:105FF00000250091002A12D0012A44D0022A0DD196
:1060000078786A46C106107108D58006C10FF87904
:10601000BA790002104340BAFFF761FCFEBD39783F
:10602000AB29FBD105463246394609F03FFBA68035
:10603000698848BA0830801B00B2E08000281FDC65
:1060400068786B46C206187103D58006C10FE888D0
:10605000E1E7022000262062A680A88849BA8AB219
:1060600040BA009900F06CF9002802D02662E88856
:1060700035E0E888012140BAFFF79BFF68883EE0E1
:106080000120206242E07549A088D83101900818AB
:106090003246394609F00AFB01988019A080E08851
:1060A000801B00B2E080002830DC6C4E6A46D83697
:1060B00070781071C10604D58006C10F2562F08882
:1060C000A9E702202062A5807188B0884ABA40BA48
:1060D000009900F035F900280BD02562F0880021E6
:1060E00040BAFFF766FF00215E4A084606F02DFD24
:1060F000FEBDF088012140BAFFF75BFF7088584A67
:1061000041BA0C320098FFF7D3FEFEBD544A01217C
:106110000C328904A06A06F097FFFEBD504814387F
:10612000407870474E4914394870704770B5002464
:10613000204622462146FFF7CFF8494D143D2869F5
:10614000012800D168702C61AC614448AC60C83053
:10615000EC608473C473E869002805D084734168D7
:10616000002901D0002088472C62AC803C48EC809C
:1061700004804480686A07F01CF8002802D1686A2D
:1061800006F09FFFA86A07F014F8002802D1A86A59
:1061900006F097FF002070BD10B5002403462028AC
:1061A0001DD005DC09F0BEFC060C0F121215180CF0
:1061B000212B17D0302B18D0312B19D041281AD0D1
:1061C0000724204610BD0021052016E003F011FB36
:1061D000F7E70021062010E0002107200DE0002154
:1061E0000A200AE000210B2007E000210C2004E037
:1061F00000210D2001E000210E2003F072FAE0E7FB
:10620000F7B5174C0546143C0027E06A0E46012DF1
:1062100008D0032D01D106F054FF032D2DD0062DFB
:1062200050D14BE006F04DFF0298202822D1002EDD
:1062300020D0FEF7D7FF0A281CD3202231460A4877
:1062400009F034FA0F2100224904E06A06F0FCFE4E
:1062500000210BE00400FA0500ED00E0FC2B00201B
:1062600070200020CB5F0100382D0020012003F0BA
:1062700038FA27E000F04CFB24E00298202807D1F0
:10628000002E05D02021304600F079FB070008D011
:1062900000F0C5FB4B2101224904E06A06F0D4FE60
:1062A00010E003F0ADF904F057F9002801D103F034
:1062B0009EFF00F09FFB0120206103E02648132190
:1062C000008866DF3846FEBD3EB50124012817D0A0
:1062D000112814D1214800210470417012228270CB
:1062E000C1700422027144718471C47104720191FD
:1062F00000900920694608816846FFF758FB3EBDBB
:1063000003F099F90546012003F092F9FEF76AFFC0
:10631000142807D201210846FFF7B5FD284603F0EF
:1063200087F93EBD00210846FFF7ADFD0C48052169
:1063300004700C480022C903006806F085FE3EBDCB
:1063400010B50446002003F013FBA04201D1002049
:1063500010BD0B2010BD000006200020FC2B0020EB
:106360005C2000201C2000200EB565490968012929
:1063700011D1644907220A7000224A7001238B70F0
:10638000CA700B714871009106200192694608811C
:106390006846FFF70CFB0EBD10B5042911D100684B
:1063A00001280FD002280CD100F01EFA012811D0CC
:1063B0000220FFF7D9FF54480069C00101D503F05E
:1063C000A2FF10BD0120FFF7CFFF0021142003F032
:1063D00088F910BD00F0B2FA10BD10B5042911D132
:1063E000006801280FD002280CD11220FFF7BCFF53
:1063F00045480069400305D40021092003F071F9E4
:10640000FEF7D1F810BD1120FFF7AEFF03F0F1F950
:1064100010BD08B500213C48009102693B48520379
:1064200016D40278521CD2B20270022A08D9022273
:1064300000920170364A0421684606F086FB08BDCA
:106440003448012100228903006806F0FDFD08BDE3
:106450000122EDE708B500212B48009102692B4885
:10646000D20116D44278521CD2B24270022A08D904
:10647000022200924170284A0421684606F065FB1A
:1064800008BD2648012100228903006806F0DCFDD2
:1064900008BD0122EDE710B5122815D11A48006990
:1064A000400311D41B4C206806F083FE002802D163
:1064B000206806F006FE00201449024608700121FB
:1064C0008903206806F0C0FD10BD10B5182815D14D
:1064D0000D480069C00111D4104C206806F069FE17
:1064E000002802D1206806F0ECFD00200749024692
:1064F000487001218903206806F0A6FD10BD000048
:106500006C200020FC2B002000050050A42000205F
:106510009963010014200020DB6301001820002093
:1065200070B50021B64BB74C01220546CD40ED07B2
:10653000ED0F5D5C164602D0AE40E66001E0AE4075
:10654000A660491CC9B20F29EFD370BD10B5AE4C7F
:10655000E06806F0B6FDFF20A0600020A0801420B7
:1065600020700020FFF7DCFF10BD70B5A64DAB68B2
:10657000152B6FD00DDC09F0D5FA1542373B3E42A2
:1065800045484B4E51585B5E6164677A7E818487D3
:10659000AF00202B25D008DC163B09F0C3FA0A7B9C
:1065A0007E8386898C8F251B1E9D252B56D008DC6B
:1065B000212B4CD0222B4ED0232B71D0242B70D1E9
:1065C00012E0262B4DD0272B4BD0282B4CD0642B00
:1065D00067D126E08A4C8A3C01E0894C863C022146
:1065E00072E0874C103401E0854C28340C216BE0BC
:1065F000834C4034FAE7824C5834052164E0804CE7
:10660000823CECE77E4C7E3CE9E77D4C7A3CE6E759
:106610007B4C763CE3E77A4C723CE0E7784C6E3C8E
:10662000DDE7774C8C3C01214EE0754C3E3CD6E7D3
:10663000734C3A3CD3E7724C363CD0E7704C323C5A
:10664000CDE76F4C2E3CCAE76D4C2A3CC7E76C4C3B
:10665000263CC4E71BE06A4C223CC0E7684C1E3C69
:10666000BDE7674C1A3CBAE7654C163CB7E7644C8B
:10667000083C042128E0624C123CB0E7604C6A3CC4
:10668000ADE75F4C663CAAE75D4C623CA7E75C4C1B
:106690005E3CA4E75A4C5A3CA1E7594C563C9EE755
:1066A0000FE019E0564C523C99E7554C4E3C96E7AA
:1066B000534C4A3C93E7524C463C90E7504C423C8A
:1066C0008DE74F4C0E3C0321002C05D0A8886A882A
:1066D000904204D3002A02D0FFF738FF70BD09F0C2
:1066E0007DF84800205AFFF71BFFA888401CA880AF
:1066F00070BDF8B50746444C0020A080A7600E4648
:106700001546E06806F055FD002802D1E06806F065
:10671000D8FC31460C2270045143000C89B2152F6D
:1067200031D00EDC3B4609F0FDF9152E3030322E0B
:106730002E2E2E2E2E2E2E2E2E2E2E412E2E2E2E66
:106740003500202F21D009DC3B46163B09F0EAF941
:106750000A1B1B1B1B1B1B1B1D1B1B22252F12D0C7
:1067600008DC212F0FD0222F0DD0232F20D0242F53
:1067700010D10AE0262F06D0272F04D0282F02D0D0
:10678000642F07D105E0608004E0618002E0B00082
:106790000FE06680A068FF2807D00020FFF7E5FE25
:1067A00000222946E06806F04FFCF8BDB000EAE799
:1067B00070003018E7E770B50C46154612491A46C6
:1067C0000B78984206D8087029462046FFF791FFBB
:1067D000012070BD002070BD0B2803D00D2801D012
:1067E0000A4BE8E70A4BFCE7074800787047064881
:1067F00010B5084A01210C3006F0DFFB10BD000087
:10680000DCFB010000050050A8200020333300000D
:106810009A1900006B6501008B48407870478A49DF
:10682000487070471CB500221146104605F0BAFCAE
:106830006946012408802407606901A91238C0B2A2
:1068400005F024FD002819D160691238C0B205F0A6
:1068500006FD019808227D49001D05F0EEFC002888
:106860000CD16A462021794805F09CFC69460880D5
:1068700077494118019805F0DBFC00281CBD1CB5C8
:1068800000221146104605F08DFC69460880012063
:106890000007406901A91238C0B205F0F7FC0028D2
:1068A00015D101996B4B0868020C9A4210D184B241
:1068B0002022091D6548FDF769FC6A4620216348CE
:1068C00005F070FC69460880A04203D100201CBD81
:1068D000401C01D00B201CBD05201CBD0EB55E4820
:1068E000032101700021417002228270C1700122D7
:1068F0000271417101910090062069460881684645
:10690000FFF755F80EBD55481321008866DF704724
:106910000EB551480321017000214170022282709E
:10692000C1700121017141714D4901910090062012
:10693000694608816846FFF73AF80EBD10B5494828
:10694000006806F0BEFB40480124047001F0F1FF2E
:10695000FFF7FCFDFFF7C2FF0021022002F0C1FE9D
:1069600041480460FFF77EFA03F0E0F8002805D004
:106970003E48006806F0A5FB03F082FA10BDFEB5A4
:1069800006000D4601D0202D01D00720FEBD0022BB
:106990001146104605F006FC6946088001200007F4
:1069A000406901A91238C0B205F070FC0400EDD1B5
:1069B0000198284A0368190C91420AD19FB26A468D
:1069C0002021001D05F0EEFB69460880B84202D187
:1069D00005E05B1C01D00B20FEBD0520FEBD01992A
:1069E0002A46091D304608F017FE002800D00B2467
:1069F0002046FEBD0EB518480321017000214170EC
:106A000004228270C17001220271417101910090D3
:106A10000620694608816846FEF7C9FF0EBD0EB51F
:106A20000D48032101700021417004228270C17061
:106A3000012202714271019100900620694608818D
:106A40006846FEF7B4FF0EBDB8200020382D0020A8
:106A50000000DE45DE450000FC2B00200620002063
:106A600007690100882000206C20002024200020DD
:106A700002461F20012907D0062901D9491EC9B2A3
:106A8000C90700D01E2070471C32D0B27047F8B53D
:106A900004460846F74908F0A1FE0D4606463C218B
:106AA000284608F09BFE2171E1210901284608F0E3
:106AB00095FE054608463C2108F090FE6071A571E0
:106AC0007D200001B5B220800FE0002F26D0642188
:106AD000304608F083FE002901D0B0071ED0FF2009
:106AE0006E30281A761C85B226802088FF21064643
:106AF000913108F073FE0F0013D06421304608F086
:106B00006DFE002901D0B0070BD0FF206E30A842E7
:106B1000DBD90020FF27A07091371DE0FF206F30E8
:106B2000DFE7FF206F30F2E720883946064608F09D
:106B300055FE002927D06421304608F04FFE002979
:106B400001D0B0071FD00020A178FFF791FF281ACD
:106B500085B2A078401CA07020883946064608F00F
:106B60003DFE002911D06421304608F037FE00298F
:106B700001D0B00709D00020A178FFF779FFA84223
:106B8000D2D9E570F8BD0120DEE70120F4E710B5A9
:106B9000B84908F023FE072108F020FE481D072110
:106BA00008F01CFE084610BD10B5B348C16810308F
:106BB000FFF76DFFB04810308178491C8170C178B3
:106BC000491CC17010BD70B5FFF7EEFF04460025EB
:106BD00049E0284603F008FD0068A179C001C00E15
:106BE00088423ED1284603F0FFFC00680003810E76
:106BF0006079814235D1A048C068FFF7C8FF0646DA
:106C0000284603F0F1FC00680121B140084040062D
:106C100023D1284603F0E8FC0068E1788000C00E2C
:106C200088421ED1284603F0DFFC016840688908CD
:106C300080070843A178000F884212D1284603F04C
:106C4000D3FC01684068090A000608437D21800ED4
:106C5000090140182188884203D100210F2002F049
:106C600040FD6D1CEDB203F0B3FCA842B1D870BD7D
:106C7000F8B503F0AAFC0646FFF796FF0546306814
:106C80007168020E08021043000E012829D17A4CC7
:106C9000E068FFF77CFF0246A8790027002804D1AE
:106CA0006979002901D12760676001239340316829
:106CB000DAB2114215D00A02120E824211D80A0429
:106CC000120E82420DD33C2250436A79090E80187D
:106CD00008F084FD002905D003F0FDFD6168401A2D
:106CE0002060F8BD03CE020C080410432168000C9C
:106CF000884203D90021112002F0F3FC276003F041
:106D0000EAFD6060F8BD10B55B4CE068401CE060D7
:106D100003F038FCE1210901E06808F05FFD00297B
:106D200008D1564856490088884203D200210820DD
:106D300002F0D7FC3C21E06808F050FD0C0001D0C7
:106D40001E2C16D1FFF750FD142805D102F0ABFE22
:106D5000002801D1FEF7BBF9002C0AD101F0C3FBDA
:106D6000002806D0FFF72FFFFFF782FF002001F079
:106D70004CFD10BD10B540487D2109011030018047
:106D800000218170C1708171417101713A4C3D4A9D
:106D9000E1600121083806F010F9002804D0FF2135
:106DA00039A21C31FDF70EFA01210022C903A068A7
:106DB00006F04AF9002804D0FF2133A21E31FDF766
:106DC00001FA10BDF8B5044681060005800E3C228C
:106DD0005043890E4118E003E122C00E12015043D6
:106DE00045187D20A70E00013818FF21002691319B
:106DF000009008F0F3FC002913D06421009808F0FB
:106E0000EDFC002901D0B8070BD00023A0021949DE
:106E1000C00E4843494240194518A001040F641EA2
:106E200009E00123F2E7F1B21846FFF721FE11490C
:106E300048434519761CB442F5D8002414E07D205F
:106E40000001FF2120189131064608F0C7FC0029F7
:106E50000ED06421304608F0C1FC002901D0A00703
:106E600006D012482D18641CA742E8D82846F8BD61
:106E70000F48F7E780510100BC200020522000207D
:106E80008C0A0000076D01002E2E5C536F75726333
:106E9000655C7372635C62645F77616C6C5F636C8A
:106EA0006F636B5F74696D65722E63008033E101FF
:106EB0000085E201F8B5044681060005800E3C22FB
:106EC0005043890E4118E003E122C00E12015043E5
:106ED00045187D20A70E00013818FF2100269131AA
:106EE000009008F07BFC002913D06421009808F082
:106EF00075FC002901D0B8070BD00023A0027C4903
:106F0000C00E4843494240194518A001040F641EB1
:106F100009E00123F2E7F1B21846FFF7A9FD744931
:106F200048434519761CB442F5D8002414E07D206E
:106F30000001FF2120189131064608F04FFC00297E
:106F400018D06421304608F049FC002901D0A00780
:106F500010D068482D18641CA742E8D8664CE5603C
:106F6000A06806F0AEF801210022C903A06806F06F
:106F70006BF8F8BD6148EDE7FEB5614D0220287061
:106F800000266E700420A870EE7003F021FB8100D3
:106F90004018287100242CE0204603F025FBA100B6
:106FA000611840684F197871204603F01DFB0146B7
:106FB00000684968000E09020843B871204603F0D2
:106FC00013FB014600684968000C09040843F87186
:106FD000204603F009FB014600684968000A0906DB
:106FE00008433872204603F0FFFA0068641C787288
:106FF000E4B203F0EDFAA042CED8019600952879CC
:107000006946401D08816846FEF7D1FCFEBD3A483E
:10701000C068704710B5384CE060A06806F051F8C1
:1070200001210022C903A06806F00EF810BD10B5BA
:10703000FFF7BAFD00887D210901884201D10020B7
:1070400010BD012010BD3EB52D4C02202070002542
:1070500065700720A070E57004202071FFF7A4FD83
:107060000279B10992068901920E11433F229201E1
:10707000914342799206120D11431F22120391434C
:107080008279D206D20B11431F2252049143C27857
:10709000D206920A11430F2292059143827800880A
:1070A00092051143032289018006920789098018FD
:1070B0000143080E6071080CA071080AE07121728A
:1070C0000195009420796946401D08816846FEF7C5
:1070D0006EFC3EBD10B50848806805F0F2FF002840
:1070E00004D0FF21074ADD31FDF76CF810BD704771
:1070F000805101008033E101BC2000200085E201C5
:10710000FC2B0020886E0100002208B511461046B5
:1071100001F050F800287ED0002001F0B3F8694655
:107120000F2000F0CDF9002803D1DAA1BD20FDF732
:1071300056F968460078332803D0D6A1BE20FDF763
:107140004EF90021202000F0D1F9002803D1D1A16F
:10715000C020FDF744F90021212000F0C7F90028E4
:1071600003D1CCA1C120FDF73AF90021222000F083
:10717000BDF9002803D1C7A1C220FDF730F90021D5
:10718000232000F0B3F9002803D1C2A1C320FDF7EA
:1071900026F90021242000F0A9F9002803D1BDA17F
:1071A000C420FDF71CF90021252000F09FF90028DC
:1071B00003D1B8A1C520FDF712F9042000F0AAFD03
:1071C000002803D1B3A1C620FDF709F9072000F07C
:1071D000E7FA002803D1AFA1C920FDF700F902208A
:1071E00000F092FA002803D1AAA1CA20FDF7F7F80F
:1071F000052000F0EFF9002803D1A6A1CC20FDF76F
:10720000EEF8012000F0E4FA012000F0F9FA00287D
:1072100005D1A0A100E00FE0CE20FDF7E0F80220AC
:1072200000F078FD002000F008FC002000F0CAFC0F
:10723000002001F03FF8012008BD70B59C490126EF
:1072400004209B4C74310860091F08609849103174
:107250000860091F08602060954D78352860FF2080
:10726000913000F099FF9348206028609248866032
:10727000C82000F091FFFFF747FF70BD10B5002058
:1072800001F000F800F067FC002804D1FF2081A184
:107290007F30FDF7A4F80021202000F027F9002816
:1072A00004D1FF207BA18030FDF799F80021212037
:1072B00000F01CF9002804D1FF2076A18130FDF7F1
:1072C0008EF80021222000F011F9002804D1FF20BF
:1072D00070A18230FDF783F80021232000F006F929
:1072E000002804D1FF206BA18330FDF778F800213E
:1072F000242000F0FBF8002804D1FF2065A1843091
:10730000FDF76DF80021252000F0F0F8002804D1E9
:10731000FF2060A18530FDF762F8042000F0FAFC40
:10732000002804D1FF205BA18630FDF758F800202B
:1073300000F0C0FF10BD70B504460D46002000F0FF
:10734000A1FF042C02D0052C17D10AE0202000F068
:1073500074FB022000F094FB042000F09EFB05204B
:1073600009E0202000F069FB032000F089FB0E20DB
:1073700000F093FB1E2000F099FB012D02D130207C
:1073800000F071FB0124002000F094FF204670BD46
:1073900010B50446002000F075FF012000F0F1FB5D
:1073A000002C01D0802000E0002000F034FB002001
:1073B00000F080FF01210520FFF7BDFF10BD10B5D3
:1073C0000446002000F05EFF002C13D0212000F0C6
:1073D00087FC002000F091FC002000F009FC002058
:1073E00000F01EFC012000F0CCFB402000F001FB6F
:1073F0002A2003E0002000F0FCFA802000F0E2FBED
:10740000002000F057FF10BD10B5002000F03AFF3B
:10741000002000F079F9002000F04CFF10BD10B5FD
:10742000002000F02FFF022000F06EF9002000F095
:1074300041FF10BD7CB50546002000F023FF00246D
:107440006846047001A9402000F00FFE684600F075
:1074500039FE68460079012802D12020694608706B
:1074600068460078154E810889006846017006E07C
:1074700006206043801900F07BFD641CE4B268467E
:1074800000788442F4D3684600782870002000F029
:1074900011FF7CBD2E2E5C536F757263655C737239
:1074A000635C62645F68616C5F6163632E630000AC
:1074B000000700500102000000050050582D002078
:1074C00010B580221043FE4A0C4610700221FD4B7D
:1074D000FD4800F0A5FE002803D1FCA13920FCF7EF
:1074E0007EFFF84840782070012010BD10B50222C0
:1074F000FF4C2270FF4B00221A70F14AF14B1070C2
:1075000051702178F04800F08BFE002803D1EFA1E4
:107510005220FCF764FF012010BD10B501460F207A
:10752000FFF7CEFF002800D0012010BD10B50146A6
:107530000720FFF7C5FF002800D0012010BD38B597
:1075400005460C4669460720FFF7BAFF002811D010
:1075500000200121802D0ED0402D16D0202D18D0D6
:10756000102D1AD0082D1CD0042D1ED0022D20D095
:10757000012D26D038BD6A461278D309DB0124E0FC
:10758000217000E02070012038BD6B461A7840233E
:1075900012E06B461A7820230EE06B461A7810230F
:1075A0000AE06B461A78082306E06B461A78042333
:1075B00002E06B461A7802231A406B461A70E1D03B
:1075C000DEE76A461278D307DB0F6A461370002B9A
:1075D000D8D0D5E738B5044669462020FFF770FFBC
:1075E00000280ED06846007821010007000F0143F3
:1075F000C9B2684601702020FFF778FF002800D04C
:10760000012038BD38B5044669461F20FFF758FFF2
:10761000002810D068460078BF210840A10101432E
:10762000E0010843C1B2684601701F20FFF75EFF0A
:10763000002800D0012038BD38B5044669461F2017
:10764000FFF73EFF00280ED068460078E1014006B3
:10765000400E0143C9B2684601701F20FFF746FF84
:10766000002800D0012038BD1CB50446694608201A
:10767000FFF726FF002833D001A90920FFF720FFDC
:1076800000282DD0694608790978000208430009CE
:10769000208069460A20FFF713FF002820D001A9A7
:1076A0000B20FFF70DFF00281AD0694608790978EA
:1076B000000208430009608069460C20FFF700FFC4
:1076C00000280DD001A90D20FFF7FAFE002807D0F1
:1076D000694608790978000208430009A080012062
:1076E0001CBD1CB5044601A90C20FFF7E9FE0028CB
:1076F00009D069460D20FFF7E3FE002803D0684655
:107700000078207001201CBD1CB50446694620206D
:10771000FFF7D6FE002819D001A92320FFF7D0FEDD
:10772000002813D06846017873480A0905D1027809
:10773000120912010A4369460A70002C07D0F7218A
:107740000822012C14D0022C09D000201CBD69464F
:10775000097801700807000F6946087010E0684654
:1077600003780B40037003790B401343037107E068
:10777000684603780B401343037002790A40027194
:10778000684601782020FFF7B1FE0028DED0684669
:1077900001792320FFF7AAFE0028D7D001201CBDC5
:1077A00038B5044669462020FFF78AFE00280ED02F
:1077B000684600786107C008C000490F0143684669
:1077C00001702020FFF792FE002800D0012038BD74
:1077D00038B5044669462320FFF772FE00280ED014
:1077E00068460178CF20014020010843C1B26846B5
:1077F00001702320FFF77AFE002800D0012038BD59
:1078000038B5044669462320FFF75AFE00280ED0FB
:1078100068460078E1014006400E0143C9B268465F
:1078200001702320FFF762FE002800D0012038BD40
:1078300038B5044669462320FFF742FE00280ED0E3
:1078400068460178BF200140A0010843C1B26846E4
:1078500001702320FFF74AFE002800D0012038BD28
:1078600038B5044669462320FFF72AFE00280ED0CB
:1078700068460178F920014060000843C1B26846BB
:1078800001702320FFF732FE002800D0012038BD10
:1078900038B5044669462120FFF712FE00280ED0B5
:1078A00068460178FB200140A0000843C1B2684649
:1078B00001702120FFF71AFE002800D0012038BDFA
:1078C000D5200020DD200020003000402E2E5C530B
:1078D0006F757263655C7372635C62645F6C69731D
:1078E0003364685F6472697665722E63000000001D
:1078F000E6200020E5200020D420002038B50446F2
:1079000069462120FFF7DCFD0028D8D068460078C2
:10791000400840002043C1B2684601702120FFF7B3
:10792000E5FD0028CBD00120C9E738B504466946FB
:107930002120FFF7C5FD0028C1D068460178FD2051
:10794000014060000843C1B2684601702120FFF782
:10795000CDFD0028B3D00120B1E738B50446694613
:107960002120FFF7ADFD0028A9D068460078A101CD
:107970008006800E0143C9B2684601702120FFF7DE
:10798000B5FD00289BD0012099E738B504460328AF
:1079900001D9002093E769462120FFF791FD0028D7
:1079A0008DD068460078CF21084021010143C9B23B
:1079B000684601702120FFF799FD0028EAD00120D8
:1079C0007DE738B5044669462120FFF779FD002898
:1079D0000ED068460178F7200140E0000843C1B2AC
:1079E000684601702120FFF781FD002800D00120AA
:1079F00065E738B5044669462220FFF761FD002897
:107A000008D06846047021462220FFF76FFD002849
:107A100000D0012053E738B5044669462520FFF71A
:107A20004FFD002808D06846047021462520FFF746
:107A30005DFD002800D0012041E738B504466946C5
:107A40003820FFF73DFD00280CD0684600788109FA
:107A500089012143684601703820FFF747FD00285F
:107A600000D001202BE710B57F2801D9002010BDE0
:107A700001463A20FFF73AFD0028F8D0012010BD5A
:107A800010B57F2801D9002010BD01463B20FFF72B
:107A90002DFD0028F8D0012010BD10B501463C2076
:107AA000FFF724FD002800D0012010BD10B50146CD
:107AB0003D20FFF71BFD002800D0012010BD38B588
:107AC000044669463920FFF7FBFC002840D0684691
:107AD00000784106490E68460170480601D400202E
:107AE00034E0880619D508070BD5480701D52C20A6
:107AF0002CE0880701D52A2028E0C80729D02920B2
:107B000024E0480701D5242020E0880701D5222061
:107B10001CE0C8071DD0212018E008070BD5480736
:107B200001D51C2012E0880701D51A200EE0C807F5
:107B30000FD019200AE0480701D5142006E0880775
:107B400001D5122002E0C80703D0112020700120C7
:107B5000B5E60020B3E608B569462420FFF7B0FC7F
:107B600000280DD0684600784106490E8020014368
:107B7000684601702420FFF7B9FC002800D00120DE
:107B800008BD38B5044669462420FFF799FC002853
:107B90000ED068460178F7200140E0000843C1B2EA
:107BA000684601702420FFF7A1FC002800D00120C6
:107BB00085E608B569463120FFF782FC002800D031
:107BC000012008BD38B5044669463020FFF778FC2F
:107BD00000280CD0684601784020014021436846C7
:107BE00001703020FFF782FC002800D0012066E6FB
:107BF00038B5044669463020FFF762FC00280ED0F5
:107C000068460078A1018006800E0143C9B268462B
:107C100001703020FFF76AFC002800D001204EE6FA
:107C20007CB5044669463020FFF74AFC002838D06E
:107C300001A92420FFF744FC002832D0BF214025B1
:107C4000FB20012C04D0022C0AD0002C13D019E008
:107C50006B461A780A402A431A701979014008E0E5
:107C60006B461A780A402A431A7019790140042099
:107C70000143197106E06A4613780B4013701179BD
:107C800001401171684601783020FFF72FFC002871
:107C900007D0684601792420FFF728FC002800D08F
:107CA00001207CBD38B5044669463120FFF708FC49
:107CB000002814D0694608784006400E087048280D
:107CC0000BD006DC412808D0422806D0442805D134
:107CD00003E0502801D0602800D120700120EEE59B
:107CE00010B57F2801D9002010BD01463220FFF7D2
:107CF000FDFB0028F8D0012010BD10B57F2801D968
:107D0000002010BD01463320FFF7F0FB0028F8D01B
:107D1000012010BD38B5BF24042809D04025002813
:107D200023D001283CD0022857D003287BD077E00D
:107D300069462E20FFF7C4FB002872D06846007801
:107D4000C106C90E684601702E20FFF7CFFB002840
:107D500067D069462420FFF7B3FB002861D068464E
:107D6000017821400170242056E069462420FFF765
:107D7000A7FB002855D068460178214029430170AF
:107D80002420FFF7B3FB00284BD069462E20FFF7D5
:107D900097FB002845D068460078C106C90E38E038
:107DA00069462420FFF78CFB00283AD0684601780A
:107DB0002140294301702C462420FFF797FB00281F
:107DC0002FD069462E20FFF77BFB002829D068467C
:107DD00000782146C006C00E1AE069462420FFF74D
:107DE0006FFB00281DD068460178214029430170AF
:107DF0002420FFF77BFB002813D069462E20FFF7D5
:107E00005FFB00280DD068460078C006C00E8021B8
:107E10000143684601702E20FFF768FB002800D060
:107E200001204CE5FFE769462420FFF749FB0028C5
:107E3000F7D0684601782140294301702420FFF7DC
:107E400055FB0028EDD069462E20FFF739FB0028AE
:107E5000E7D068460078C006C00EC021D8E738B524
:107E6000044669462E20FFF72BFB00280ED06846FB
:107E70000178DF20014060010843C1B2684601700B
:107E80002E20FFF733FB002800D0012017E538B57E
:107E900004461F2801D9002011E569462E20FFF76E
:107EA0000FFB0028F8D068460078410949012143BA
:107EB000684601702E20FFF719FB0028ECD0012046
:107EC000FDE410B501462720FFF7FAFA002800D09C
:107ED000012010BD38B505460C4669462720FFF73E
:107EE000EFFA002814D000210122102D23D008DC45
:107EF000012D34D0022D2AD0042D24D0082D06D1F6
:107F00001DE0202D13D0402D0DD0802D01D000205C
:107F1000D5E468460078C309DB0124E0227000E064
:107F200021700120CBE46B461878402312E06B46A9
:107F3000187820230EE06B46187810230AE06B4671
:107F40001878082306E06B461878042302E06B4695
:107F50001878022318406B461870E1D0DEE76846B7
:107F60000078C307DB0F68460370002BD8D0D5E735
:107F70001CB504468349E820087007216B46814AF6
:107F8000814800F04DF9002803D180498048FCF772
:107F900026FA68468178427808060014104320804B
:107FA00068460179C278080600141043608068466C
:107FB00082794179100600140843A08001201CBD7D
:107FC00010B501463120FFF77BFA002800D00120D0
:107FD00010BD38B505460C4669463120FFF770FAEA
:107FE00000280FD000200121402D0CD0202D13D0CF
:107FF000102D15D0082D17D0042D19D0022D1BD00F
:10800000012D21D05BE46B461A78402317E02170E4
:1080100000E02070012052E46B461A7820230EE025
:108020006B461A7810230AE06B461A78082306E09C
:108030006B461A78042302E06B461A7802231A4032
:108040006B461A70E5D0E2E76A461278D307DB0F79
:108050006A461370DDD0DAE710B501462F20FFF72E
:108060002FFA002800D0012010BD38B505460C4677
:1080700069462F20FFF724FA002807D000200121AD
:10808000802D04D0402D0CD0202D12D017E46A464C
:108090001278D309DB0110E0217000E0207001208C
:1080A0000DE46B461A7840231A406B461A70F5D0DF
:1080B000F2E76A461278D307DB0F6A461370002B8B
:1080C000ECD0E9E738B5044669462F20FFF7F8F908
:1080D000002806D069460878C006C00E08702070D7
:1080E000012021E438B5044669462320FFF7E8F96A
:1080F00000280DD068460078400840002043C1B2F7
:10810000684601702320FFF7F1F9002800D0012014
:108110000AE410B50120FFF775FA002804D11C48C5
:108120001A49F830FCF75BF947212020FFF7DEF908
:10813000002804D116481549FB30FCF750F90021FE
:108140002120FFF7D3F9002803D110491148FCF78B
:1081500046F900212220FFF7C9F9002804D10D4873
:108160000A49801CFCF73BF908212320FFF7BEF9E0
:10817000002804D1074805490E30FCF730F90120EA
:1081800010BD0000D520002000300040CC78010058
:10819000B1050000B106000070B50446044D03E0CF
:1081A000641E2846FBF7D2FF002CF9D170BD0000F9
:1081B000E7030000F0B5044605234A481B020125E9
:1081C000002C01D048480CE01D26C418A6601C26CF
:1081D000E660042626610324444F0826BE60444E10
:1081E00034600124A407C3185C62002906D0012969
:1081F00010D0022910D0032910D0002115239B0193
:10820000002A00D02943C21851610022FF21093100
:108210000A50F0BD0221F1E70421EFE70621EDE766
:10822000F0B506468C460025964603202F490822C5
:108230002F46CA60F41D0915F93471181AE0724608
:10824000D25DCA610326360300E06D1CA268002AD5
:1082500001D1B542F9D3B54205D10121814023486E
:1082600081600020F0BD0022A2608A693E467F1C2A
:10827000BFB29A556745E2D3012181401B48816016
:108280000120F0BD0121194B8A079A60154A002888
:1082900001D0154A09E017480160001F0160154B25
:1082A0000020643B1860181F0160052000021018B0
:1082B000016070470B49002801D00B4908E00D4AC6
:1082C0000220343A506310630A4A743A1061D06055
:1082D0000522002012028918086004499005C86030
:1082E0007047000000300040004000400005005092
:1082F000E820002074070050FF4988807047FE493D
:1083000048617047FC498861704710B5FA4BFB4CD7
:108310003033596880072140C00A0143596010BDBD
:1083200010B5F54B782430335968E44300072140F9
:10833000400E0143596010BDEF4880887047EE48F9
:1083400040697047EC488069704710B5EA4C207866
:1083500000280AD0E06904F0B4FE002803D0E8A2A7
:108360009F21FBF72FFF0020207010BD10B5E24CBD
:10837000207800280CD10022E949E06904F064FE6D
:10838000002803D0DEA2AE21FBF71CFF01202070E5
:1083900010BD10B5D848C18803890A46994200D853
:1083A000194681814489A14200D8214681819142A8
:1083B00001D1002010BD994201D1012010BD022041
:1083C00010BDF8B506460068022803D0CCA1C7202E
:1083D000FCF705F87268002A5BDDC74CA1882046CF
:1083E0002030002902D143785B1C4370437801257B
:1083F000002B00D145705018A08002F06CFA716813
:10840000401802F065FAB068002802DD6169401882
:1084100060613069002802DDA1694018A061F06840
:10842000002804D0012806D002280BD107E0E088FC
:10843000401CE08006E02089401C208102E0608929
:10844000401C6081FFF7A5FFAB4BAC4E3033596841
:1084500080073140C00A0143B24800260140A0888D
:108460000005400B0143596002F035FA074602F05F
:10847000B5F9874202D3A07800280BD002F02BFA7E
:10848000054602F0ABF9854200D2A670002000F04C
:10849000D1FDF8BDA5700021132001F022F9F5E708
:1084A00010B504460068012804D0FF2094A10330D1
:1084B000FBF795FF90496068C870204600F0C1FF47
:1084C000002000F0B7FD10BD10B50446006802287A
:1084D00002D12046FFF775FF2068012802D120460F
:1084E000FFF7DEFF10BD84484078704710B5824921
:1084F0000020487005F0E5FD10BD10B5FEF787FDC2
:1085000000217D227C4CD2000B4606F0F2FFE16296
:10851000A06210BDF8B5006841048E0D4100C40F83
:1085200000024F0EC50D002F00DC2327002E00DCBB
:108530004D26002D00DCAF25012C02D0002C00D0F0
:1085400001246D484078002801D0FFF7CFFF3B465B
:10855000324629461920009405F081FD002804D0F8
:10856000FF2067A1A530FBF73AFF63480121417066
:10857000FFF7C3FF00216C4805F0B2FD002804D0CE
:10858000FF205FA1AB30FBF72AFFFEF748FF00207A
:10859000F8BD594810B520304078002803D100F0CC
:1085A00002FF00F05EFE544824304088002801D1CC
:1085B00000F0F4FE5D4800684088002801D101F019
:1085C000D8FE02F0A7F8FFF7A5FF10BD10B500F028
:1085D000EAFE00F0E3FE01F0CCFE00F042FE464869
:1085E000002181808161416141810181C180084612
:1085F00002F06EF900F07CF900F05AF9012010BD8C
:10860000F0B585B0002402A8FEF714FF3A4D39E01A
:10861000A00732D1687800282FD020460621484391
:1086200043490A5E40180221415ED610CF10042152
:10863000415EC81003903046394670437943411873
:1086400003984043081801F0A7F9A96A8446272334
:10865000C918E86A00225041A962E86200910190BD
:10866000634639463046039A05F043FD002804D09E
:108670002B2023A10001FBF7B2FE641C2869E4B2A1
:10868000401C28616846007A8442C1D305B0F0BD21
:10869000F1B5194E82B0B0883546303500900028CB
:1086A0007ED00A21B06907F0A3F8020C002109046A
:1086B00000041143070C4C0768682968C0083F0490
:1086C000640F89B2C0000F4304431A49706907F070
:1086D0008FF8390C80B209040843084900270C4080
:1086E00002998907C90A0C430E490C4000990905F3
:1086F000490B0C43210E1FE0F0200020FFFFE7FF95
:108700002E2E5C536F757263655C7372635C62647A
:108710005F737465705F636F756E7465722E63004E
:10872000D72300007F00F8FFC984010090210020BA
:10873000582D0020102700006C602C462860103C4B
:108740006078C20057480368D2185170627869682F
:108750000368D200090CD2189170627869680368C6
:10876000D200090AD218D17062780368D200696811
:10877000D21811716A6829681202090E11436278D1
:108780000368D200D21851716A6829681204090C72
:10879000114362780368D200D21891716A6800E0D0
:1087A00016E029681206090A114362780368D200AC
:1087B000D218D17162780068D2002968101801724D
:1087C0006078082804D100F049FB002800D16770C8
:1087D0006A686968520D521C530528680022B280ED
:1087E000B261726172813281C902F280C90A2E4A75
:1087F0001943114082B2C808110CC0000904782244
:10880000D243104029606860FEBDFEB5FEF7CCF98A
:108810000546FFF7BEFD0646FFF76FFEA879002765
:10882000224C002808D16879002805D12879002831
:1088300002D102F04DF8A770E08886420FD91B4A9A
:10884000782330325168DB4310680B40C709490672
:108850003943090F491C0907490E0B435360E0785F
:1088600001280CD12078002809D1E16AA06A0023F0
:10887000019100901A461946184605F03AFC6879AD
:108880000F2106F0ABFF002902D13046FFF700FFB1
:1088900001F0E9FCFEBD0549887070470348807807
:1088A00070470000382100207F00E0FFF02000200A
:1088B00038B5012424076169206929394143F94801
:1088C00001606169226929395143416000200090AB
:1088D000606969462938C0B203F0D8FC0098006886
:1088E000401C04D060692938C0B203F0A4FD38BD33
:1088F00038B5012424076169206938394143E948C2
:1089000008380160616922693839514341600020AB
:108910000090606969463838C0B203F0B7FC00982F
:108920000068401C04D060693838C0B203F083FD91
:1089300038BD10B5FFF7DCFFFFF7BAFF01F01FFDF0
:1089400010BD10B501210907096989B206F046FF7B
:1089500010BD70B5D34C012560682D07002802D0EA
:108960002068002809D1686929692938484360606E
:10897000686929692938484320606068FFF7E1FF8A
:10898000296989B248436168884217D00846FFF7D1
:10899000D8FF296989B248436168081A80102C21E0
:1089A00006F01CFF002909D0686929692938484365
:1089B00060606869296929384843206060680168F7
:1089C000491C02D14168491C15D0FFF7BAFFC0B25B
:1089D00003F045FC6068FFF7B4FF296989B248439A
:1089E0006060FFF7AEFF05462068FFF7AAFF8542EB
:1089F00001D16068206070BD70B5AA4C0125083CAB
:108A000060682D07002802D02068002809D1686915
:108A100029693838484360606869296938384843AB
:108A200020606068FFF78DFF296989B2484361685B
:108A3000884217D00846FFF784FF296989B2484366
:108A40006168081A80104C2106F0C8FE002909D080
:108A50006869296938384843606068692969383825
:108A60004843206060680168491C02D14168491C84
:108A700015D0FFF766FFC0B203F0F1FB6068FFF7A7
:108A800060FF296989B248436060FFF75AFF0546D5
:108A90002068FFF756FF854201D16068206070BDF5
:108AA000804801684068814201D100207047012060
:108AB00070477D484088002800D00120704770B57D
:108AC000784D2868FFF73DFF044628685830FFF7C7
:108AD00038FF8442286801D12C3070BDFFF731FF88
:108AE000401C0124240761691A39884206D228688B
:108AF000FFF727FF2169401C89B203E02069616903
:108B000080B22939484370BD70B5664D68688430BD
:108B1000FFF717FF06466868FFF713FF01242407D5
:108B200086425AD068685830FFF70BFF06466868DF
:108B3000FFF707FF864250D16868FFF702FF6169BF
:108B4000401C1A3988422AD26868FFF7FAFE401C96
:108B5000C0B203F070FC6868FFF7F3FE2169401CA7
:108B600089B248432968884237D86868FFF7E9FE28
:108B70002169401C89B24843216989B2411828689B
:108B800081422AD9FFF7DDFE6169401A1B3001D00E
:108B900028681BE02069616980B229391BE060699F
:108BA0002938C0B203F047FC206981B260692938D6
:108BB00041432868814210D821696369226989B2DA
:108BC000293B594392B28918814206D9FFF7B9FE71
:108BD0002169401C89B2484328606868FFF7B1FEEC
:108BE000064668685830FFF7ACFE8642686801D1D7
:108BF0002C3070BDFFF7A5FE6169401C1A39884210
:108C000006D26868FFF79DFE2169401C89B203E027
:108C10002069616980B22939484370BD214808380C
:108C200001684068814201D10020704701207047EF
:108C30001E490020497800290CD01D490A6849685E
:108C4000D20C49031143174A090D303AD288914298
:108C500000D001207047154901204978012900D82A
:108C60000020704770B50F4D083D2868FFF769FE7A
:108C7000044628689830FFF764FE8442286801D1D2
:108C80004C3070BDFFF75DFE401C01242407616974
:108C9000293988420ED22868FFF753FE2169401C0B
:108CA00089B20BE060210020142100201021002057
:108CB000202100202069616980B23839484370BDA5
:108CC00070B5FB4D6868E430FFF73BFE0646686808
:108CD000FFF737FE0124240786425AD0686898308F
:108CE000FFF72FFE06466868FFF72BFE864250D13D
:108CF0006868FFF726FE6169401C293988422AD23C
:108D00006868FFF71EFE401CC0B203F094FB686861
:108D1000FFF717FE2169401C89B248432968884241
:108D200037D86868FFF70DFE2169401C89B24843B7
:108D3000216989B24118286881422AD9FFF701FECA
:108D40006169401A2A3001D028681BE020696169F6
:108D500080B238391BE060693838C0B203F06BFB71
:108D6000206981B26069383841432868814210D84F
:108D700021696369226989B2383B594392B28918E3
:108D8000814206D9FFF7DDFD2169401C89B24843C5
:108D900028606868FFF7D5FD064668689830FFF7D9
:108DA000D0FD8642686801D14C3070BDFFF7C9FD27
:108DB0006169401C2939884206D26868FFF7C1FD05
:108DC0002169401C89B203E02069616980B23839A9
:108DD000484370BD70B500281AD0002918D04A78D1
:108DE0000524D200121D04700025D3050226DB0DD8
:108DF000457086701C0AC47003714B881B0A43714E
:108E00004B8883710B78C37149780172501D70BD16
:108E10000020C04370BD70B500281CD000291AD0B6
:108E20004A8805249200121D92B204700025D305D1
:108E30000326DB0D457086701C0AC47003710B8815
:108E40001B0A43710B8883714B881B0AC3714988C5
:108E50000172501D70BD0020C04370BD70B5002868
:108E600002D0082801D9092070BD914C9149283CB5
:108E7000A068FFF7AFFFC01CC117890F0818800357
:108E80008B4D020C6868A16803F0D7F9002801D067
:108E9000012070BDFFF714FF686086490020864AF4
:108EA0004870864B50681840C008C000002111600F
:108EB0005060084670BD10B57D4C283C20790028D4
:108EC0000DD105210022C903E06904F0BDF8002896
:108ED00003D07BA28249FBF775F90120207110BDF8
:108EE0003EB5754C7F4D20686168C20C4803104345
:108EF000000D60D0FFF723FA7B4906F079FC226869
:108F000080B2120C120402432260FFF71BFA0A21FE
:108F100006F06EFC020C00210904114300044A070C
:108F2000030C61682068C908520FC9001B0480B295
:108F300011431843616020605E48AB684278090EB7
:108F4000D200D218517042786168AB68D200090C27
:108F5000D218917042786168AB68D200090AD218C1
:108F6000D1704278AB68D2006168D2181171626822
:108F700021681202090E11434278AB68D200D21860
:108F80005171626821681204090C11434278AB6880
:108F9000D200D2189171626821681206090A114341
:108FA0004278AB68D200D218D1714078AA68C0006C
:108FB0002168801801723F49A868FFF70BFF4B49F1
:108FC0000191A9680091694608816846FCF7EFFCA9
:108FD000002801D000203EBD03CCC20C4803104342
:108FE000000DE88001203EBD3EB5314C08342068BC
:108FF000C178027909025118491D89B22C2908D873
:109000000278052A05D14278002A02D18278032A03
:1090100003D0FFF754FD206008E0344A009001922D
:1090200068460181FCF7C3FC002801D000203EBD4A
:1090300001203EBDFEB52E48006801285CD1294CB8
:109040002078002856D1A069002804D024481CA10B
:109050006A38FBF7C4F9E0780526244F012500287B
:109060004BD1FFF71DFD00280FD1FFF722FD00288F
:109070000BD101F071FA002807D1FFF7CFFD0028CE
:1090800003D1FFF7E8FD002837D009480021083850
:109090000670417007228270C170017100900197C3
:1090A00068460681FCF783FC002823D106207FE078
:1090B0005821002010210020202100207F00E0FF07
:1090C0002E2E5C536F757263655C7372635C6264B1
:1090D0005F73796E635F646174612E6300000000EA
:1090E000250500003021002010270000D19201004A
:1090F0006C200020FFF7DFFEFEBDFFF7D1FC00284B
:1091000006D0FFF771FF0028F4D0A6612570FEBDE0
:10911000FFF7CFFC00280FD0FC49E068FFF77BFE8B
:109120000197E1680091694608816846FCF73FFCB9
:109130000028DFD104203BE001F00EFA002805D022
:1091400001F009FA0028D5D0A561DFE7FFF766FD39
:10915000002805D000F0FCF80028CBD0032027E041
:10916000FFF779FD00280AD101E0022020E0E8485D
:109170000078002808D0FFF75BFD002804D0FFF737
:10918000AFFE0028F1D1B5E7E0780028BFD0E14874
:1091900000210670417008228270C1700171009038
:1091A000019768460681FCF702FC0028A2D107203F
:1091B000A061ABE710B5D74C1034002803D0FFF7FF
:1091C0007EFC206010BDD34821682038426991425E
:1091D00003D041610021817010BD8178491CC9B262
:1091E00081700429EBD210BD10B5FDF7DDFC0188BC
:1091F0000322490252038918C44A3F2413884904B0
:109200006402490CA3431943FF231180E1339943BE
:1092100083781B07DB0D19431180C0784909490188
:10922000C006C00E014311800020508010BD10B553
:10923000B84C0834002803D0FFF714FD206010BD9F
:10924000B448216820380269914203D001610021AD
:10925000417010BD4178491CC9B241700429EBD25C
:1092600010BD70B5FDF7A0FC0546AB4C002020609A
:10927000606068790F2106F0B1FAA9798900401879
:109280004105002003C470BDEBE710B5FDF78CFC71
:10929000A24AC3785188DB0649094901DB0E19430C
:1092A000FF235180E133994383781B07DB0D19437A
:1092B00051800088032340025B03C0184004400C27
:1092C0003F235B029943084350800020507010BD3B
:1092D00070B5904C0025203C2570012814D0FFF774
:1092E000EAFDA069022804D0032804D0052809D18A
:1092F00005E0E58006E00020FFF799FF02E000208E
:10930000FFF758FFA56170BDA36906F00BFC081CB0
:1093100005080D1114181B1C01F04EF813E0FFF79F
:10932000B4FFFFF79EFF0EE00120FFF780FF0AE089
:10933000FFF75AFF07E00120FFF73CFF03E00120A1
:10934000E07000E0E5700120A561FFF773FE70BDDD
:109350003EB5704C08342068C17802790902511872
:10936000491D89B24C2908D80278052A05D14278CE
:10937000002A02D18278022A03D0FFF773FC206012
:1093800008E0674A0090019268460181FCF70FFBF4
:10939000002801D000203EBD01203EBD24E75D49EC
:1093A0002039C870704710B5FDF7FEFB5B4AC378E3
:1093B0005188DB0649094901DB0E1943FF2351801F
:1093C000E133994383781B07DB0D194351800088F3
:1093D000032340025B03C0184004400C3F235B02A0
:1093E0009943084350800020507010BD70B500288C
:1093F00002D0082801D9092070BD464C4349203CC1
:10940000E068FFF708FDC01CC117890F081880032A
:109410002546020C30356868E16802F00EFF00282E
:1094200001D0012070BDFFF76FFB68603749002055
:10943000488070BD374918310A6802604968416048
:10944000704770B5054680683C2106F0D1F92F4C75
:10945000064622880F235104880ED20580069B05FC
:10946000120F9843920510431F2252048902904321
:10947000890A0843FDF7A6FC3C2106F0AFF9311A32
:109480002848418023496A6818310A60AB684B60FC
:109490000168120709090901120F1143016062886E
:1094A0000B0E521C1B4992B262802039CD6892008B
:1094B0005219537163880268CD689B00120C5B19C6
:1094C0009A7163880268CD689B00120A5B19DA7191
:1094D0006288C9689200006851180872608808287C
:1094E00002D3C0B2FFF782FF70BD10B5FEF751FF87
:1094F000FFF7CEF800F08FFF04484088C0B2FFF7B6
:1095000075FF06484078FFF7A9FC10BD1421002024
:109510002C2100205021002020210020102100209B
:10952000D1920100282100207CB5002001252D07C3
:10953000019068693838C4B227E001A9204602F0DA
:10954000A5FE01980068009068460078FF2802D0C8
:10955000052815D10CE068464078FF2810D16846F0
:109560008078FF280CD16846C078FF280BD007E030
:1095700068464078002803D168468078022802D0E7
:10958000204602F06CFE641CE4B268692938A042EF
:10959000D3D87CBD7CB5002001252D0701906869DA
:1095A0002938C4B227E001A9204602F06FFE0198D5
:1095B0000068009068460078FF2802D0052815D181
:1095C0000CE068464078FF2810D168468078FF2874
:1095D0000CD16846C078FF280BD007E06846407879
:1095E000002803D168468078032802D0204602F084
:1095F00036FE641CE4B268691A38A042D3D87CBD38
:10960000002065E610B50D49002008710120FFF724
:1096100011FD7AE7094810B5094A00211C3003F012
:10962000CCFC002803D0074A0749FAF7CBFD6CE7CA
:1096300002490870704701480078704730210020C7
:1096400005960100C09001001605000010B501F05C
:1096500042F9044601F0C2F884423FD801F0BEF856
:10966000044601F038F964214843214606F0B6F873
:10967000C0B20A2802D20322122103E0142805D224
:10968000032213211420FDF7A7F810BD1E2802D2D3
:1096900003221421F6E7282802D203221521F1E73C
:1096A000322802D203221621ECE73C2802D2032200
:1096B0001721E7E7462802D203221821E2E75028C3
:1096C00002D203221921DDE75A2802D203221A21ED
:1096D000D8E7642802D203221B21D3E703221C21EE
:1096E000D0E710B5034606F01DFA16270C10272701
:1096F000141A202E3264686C7082282A7638474FFC
:109700005A2700221F21012062E00122202102208D
:1097100020E000220F21052031E0022122E0062274
:109720002121104604E003211CE00622222107200B
:10973000FDF752F80028F6D110BD062153E00622AD
:10974000262110204AE001222721082040E00322A0
:1097500028210920FDF740F803E0002904D0032266
:1097600003E0012102203FE001220D211220FDF73C
:1097700033F80028F5D110BD03221E211320FDF778
:109780002BF80028C9D110BD00F06AFD002803D0D5
:1097900003220D2114201BE0FFF758FF10BD00F03D
:1097A0005FFD002801D0002000E0012000F027F834
:1097B00010BD032223210A20BAE7022224210B2014
:1097C000DDE7032223210A2002E0012224210B20CD
:1097D000FDF702F810BD032225211120FCF7FCFF44
:1097E0000028F7D00321012000F01DF910BD012150
:1097F000F9E710B500F03FF9FCF7A8FE10BD10B571
:10980000002806D0064B01221D211420FCF7D3FFAF
:1098100010BD01220E211420FCF7DEFF10BD000058
:10982000CD0C000010B50068002802D0012828D116
:109830002AE0FBF7D7FC0446142105F0CFFF494985
:10984000401C0A78C0B282421BD00870142C02D28D
:109850000022052112E0282C02D2002206210DE070
:109860003C2C02D20022072108E0502C02D2002218
:10987000082103E0642C05D2002209210420FCF712
:10988000ABFF10BD642CFCD100226421F6E7354803
:109890000078810040183C21081AC0B27047314955
:1098A000002801D0002008704868022802D02D4806
:1098B000001DB7E770472C4801690902C90F0BD09A
:1098C000002100690002C00F08D00020002909D043
:1098D000002805D0002070470121F2E70120F5E7BC
:1098E000012070470220704710B517280CD11D4A7F
:1098F00000231370FFF7DFFF5060022805D01948DE
:109900005360001DFFF78EFF10BDFCF76DFF0428AC
:10991000FAD1FCF71BFE10BD00B5172803D1FFF7E5
:10992000CAFF1049486000BD032110480904C16105
:10993000C161704710B5FFF7BEFF0A4902284860B1
:1099400002D0081DFFF76EFF032008490004C8611C
:1099500010BD00B5FFF7AFFF022801D0012000BD08
:10996000002000BD7021002000050050400700507D
:1099700030B5084D07E00C78030A6040491C00062A
:10998000C00D285A58401346521E92B2002BF2D1F5
:1099900030BD00003EFC0100024600200121890785
:1099A00000E089089142FCD807E04318934202D8AE
:1099B000D21A4B001818400889080029F5D17047C1
:1099C00070B53F4C002261882388994205D36260BC
:1099D0002280628000F06FF870BD006800250128C9
:1099E00003D0022807D062600EE088073549000FD7
:1099F0000D58103105E0C8073249400F10390D5895
:109A00000831085800280BD000F055F82C4A294698
:109A1000121DA06803F018FB6088401C608070BDB8
:109A200000F044F8F2E7F8B5254C06460F4600254D
:109A3000A06803F046FB00F03EF8002060806660FE
:109A4000012E0ED0022E10D0606000F02FF860883A
:109A50001B4A401C6080121D2946A06803F0F4FADE
:109A6000F8BDB8002080174803E078002080154832
:109A700010380568E9E710B5114CA06803F021FB28
:109A800000F019F8002060602080608010BD0C4854
:109A900010B50D4A0021083003F08FFA10BD0B49B4
:109AA0000320486070470648406870470120084915
:109AB000400488607047012005494004C860704731
:109AC0007821002050FE0100C1990100400700509C
:109AD0000005005010B500F052FB10BDFC48C178E5
