:020000040001F9
:10400000A03D0020899701009B9701009D9701002A
:1040100000000000000000000000000000000000A0
:104020000000000000000000000000009F97010059
:104030000000000000000000A1970100A39701000C
:10404000A5970100A5970100A5970100A59701007C
:10405000A597010000000000FDB001008D4D01009A
:10406000A5970100A5970100A597010071490100DE
:10407000A5970100A5970100A5970100A59701004C
:10408000A5970100F9B60100A5970100A5970100C9
:104090000FB701003DAE0100E9AE0100A597010098
:1040A000A5970100A5970100000000000000000096
:1040B0000000000000000000000000000000000000
:1040C00000F002F800F032F80CA030C808382418CC
:1040D0002D18A246671EAB4654465D46AC4201D140
:1040E00000F024F87E460F3E0FCCB6460126334240
:1040F00000D0FB1AA246AB463343184748AB00003A
:1041000068AB00000023002400250026103A01D3EC
:1041100078C1FBD8520700D330C100D50B6070477F
:104120001FB5C046C0461FBD10B510BD0AF000FB4C
:104130001146FFF7F5FF00F03EFC0AF018FB03B450
:10414000FFF7F2FF03BC0AF01DFB0000401E00BF9A
:1041500000BF00BF00BF00BF00BF00BF00BF00BF67
:1041600000BF00BF00BFF1D170470000401E00BF7C
:1041700000BF00BF00BF00BF00BF00BF00BF00BF47
:1041800000BF00BF00BFF1D17047000070B5054609
:104190000C46164602E00FCC0FC5103E102EFAD288
:1041A000082E02D303CC03C5083E042E07D301CC4E
:1041B00001C5361F03E021782970641C6D1C761E32
:1041C000F9D270BD0123F94CDB04E36006F0C8FBB3
:1041D000F849F748C860BFF3408FFEE70A4601463A
:1041E000F548FFF7EFFFF1B596B0FC2010A9087273
:1041F000F2480224C4603C2168460AF030F90120EC
:10420000694600944871088116A8039012A804908A
:1042100000208883089088828884054604460646E4
:104220000B9013A861DF002828D0E548816A456A11
:104230008CB2032615AFF2002846214609F0C2FFD2
:104240000321891B761E76B27854002EF3DA0420FF
:1042500010A9119708802004000E21020843694626
:1042600088870FA80C900021684605F066FF00289B
:1042700012D0FF21D3A2C731FFF7A4FF13AFB819A3
:1042800040780021F20009F08DFF761C05430C43B5
:1042900076B2062EF3DBCCE717B0F0BDF0B589B0EF
:1042A000142168460AF0DBF8002069460870019086
:1042B0000872C24C0390E0680326502702250028AC
:1042C00006D0012805D002282DD0032822D133E0C2
:1042D000E56005A808F036F8002802D0B9A2DE2172
:1042E0001FE06846007E002803D108A80078002857
:1042F00008D06846057205A803900420FFF773FFF5
:10430000E56000E0E66068460782142141820120F2
:1043100006F0B4FD684663DF002819D0FF21A9A28A
:104320000931FFF74FFF0520FFF75DFF6846078261
:1043300028214182E660EAE70520FFF754FF1921B2
:10434000890168460182B42141820220E660DFE7EC
:1043500009B0F0BDA14A0320D0611061D060906027
:104360009E49403908624862C8624863C863486130
:10437000506350608862886201218C48C905816061
:10438000C910816049108160491081608912816083
:1043900049008160890081608900816089008160B5
:1043A000202181600906816009138160C911816043
:1043B0008160704708B58A4B00938A4B0B2210210D
:1043C000002007F0C7F9002804D0FF217DA2383172
:1043D000FFF7F8FE08BD10B501F012FF002803D06A
:1043E000FF2178A251312AE07F4A01217F4807F05E
:1043F00002FA002803D0FF2172A256311FE07C4A46
:1044000000217C4807F0F7F9002803D0FF216DA2B6
:104410005B3114E06948784A0021103007F0EBF96D
:10442000002803D0FF2167A2613108E003F09EFE5F
:1044300004F0C9F8002804D0FF2162A26631FFF71A
:10444000C1FE10BD10B504786C48214605F06BFB29
:1044500000280AD0082808D06949884205D069494F
:10446000884202D057A2684910E05448002C02D07C
:104470000021816010BD8168491C81600329F9DD3C
:104480001521408866DF83214EA2C900FFF79AFEFE
:1044900010B59AB04021684609F0E1FF5BA168467B
:1044A00005F04CFA5CA108A805F048FA5CA102A846
:1044B00005F044FA5CA106A805F040FA002018A90E
:1044C000087001200007406919A90F38C0B206F032
:1044D000FBFA04F09BF8010004A81DD0199A0021F2
:1044E00010AB545C5C54491CC9B22029F9D319465D
:1044F00005F024FA01200146103108A801770020B8
:10450000014608A84177684605F0E8FB002805D079
:104510002CA24749FFF756FE46A1E9E71AB010BDA5
:10452000434928A23131FFF74DFEF8B503884526EF
:10453000444D454AF6430021204C192B33D00BDC67
:10454000424F102B1CD0112B2ED0132B2AD12246D8
:10455000143260886FDF0CE01A2B26D0392B01D083
:10456000552B1FD11170002003F0C7FC1321608868
:1045700066DF002816D0244912A2EB39FFF722FE8D
:10458000334A1378012B65D00221E1608088608076
:1045900074DF608873DFA5804B21012249043868ED
:1045A00007F070F9F8BDABE05BE0B6E00005005045
:1045B0000400FA0500ED00E0EFBEADDE00200020B3
:1045C000800000102E2E5C536F757263655C7372F1
:1045D000635C6D61696E2E6300000000400700504F
:1045E000DD4A01001025002079700100DC20002048
:1045F00025700100E8200020515501008C2B00207F
:1046000003300000013400000C040000536D61729F
:104610007420436172650000312E302E3900000095
:10462000534D412D30340000312E302E3200000029
:104630001A0200003031323334353637383961628E
:1046400063646500FF0F00000C2100205C20002047
:1046500068210020FF481170FF49C860BFF3408FF8
:10466000FEE70D461170002003F047FC0020C04318
:10467000608001F0C2FD012801D101F085FC38689D
:1046800007F03DF9F5480178002902D0057001F0E6
:10469000D1FD00F0ADFD002801D000F04BFF01F08E
:1046A00040FB002819D004F089FE002815D004F042
:1046B0008DFE002811D0002004F07CFE002001F0C7
:1046C00033FB0420205EB04207DA04F07FFE0228AC
:1046D0000CD000210D2003F0B0FD2078002807D079
:1046E000257007F005FE07F058FF13E00121F1E700
:1046F00007F047FD0028F6D02F21D94A09013DE7F0
:1047000011708079002800D04CE7E068042801D1BE
:104710000320E060FFF7C2FD44E70627C75704F017
:1047200055FED04800680128F6D10420205EA8423A
:1047300001D1A78009E0032109F0D4FE450003213F
:10474000384609F0CFFE2818A08004F037FE002874
:10475000E2D10420205EB042DEDD012004F02AFE1A
:1047600020E710B504460088102802D0112802D096
:1047700004E0032000E0002006F080FB2146BA4858
:1047800000F01BFC204607F08DFC204605F045FE9E
:10479000B5482146183805F0DBF82046FFF7C5FE7E
:1047A00010BD08B5B14BB0490093B14B50229C39B4
:1047B0000D2006F071FB002803D0A94AAD49FFF790
:1047C00001FD08BD10B5042804D0AA49A44A14313B
:1047D000FFF7F8FC00F012FD002805D0A6480121E3
:1047E00001701321408866DF10BD704770B5A34883
:1047F00002680121D2071BD0016084046569383D3D
:1048000003E0E8B206F049F96D1C60691838A84267
:10481000F7D86569183D07E060690F38A84202D0F3
:10482000E8B206F03AF96D1C60690E38A842F3D878
:104830000124934DA402EC60FF20913002F0C2F9F4
:10484000AC6070BD00208F4A022183009B18196064
:10485000401C2028F9D3704710B5FFF77BFD03F00B
:10486000BAFE00F0BBF9FFF7A5FD874A1421082026
:1048700006F076FD002803D0794A8C21FFF7A2FCD0
:1048800000F004FB00F018FB02F0E0F810BD00B5EA
:1048900087B004F0EDFBFFF79EFD734902204C3911
:1048A00006F093FC002803D072496D4A76314BE044
:1048B00001F04CFF00220120000743696946133BC9
:1048C0000B7040691438487070480190704802902D
:1048D0008A70684607F067FD002803D06549604A82
:1048E000613131E0FFF75DFF00F001F90520FFF7CE
:1048F0007AFC00F033F91C21684609F0B0FD05216F
:104900000904019149100020029100900322694698
:104910000A73C88101220A7405905E4806906846B1
:1049200005F021FD002803D052494D4AE3390BE040
:1049300000F042F9584A0521012006F089FA0028C2
:1049400004D04C49464A6E31FFF73CFC002006F08B
:1049500095FA00F005FE01F09AFC002806D0002030
:1049600001F065FC02F0CCF807B000BD0120F7E7CC
:104970004A49002008604A4901204860494900042A
:104980008860494940110860704710B500F026F969
:104990000120454AC102803A1160454A434991606D
:1049A000434A0821403211603E4A010451603C49AB
:1049B000086030BF10BDFFF745FFFFF7E6FF314944
:1049C0003C481C3108602E4C8020A060FFF744FF5B
:1049D00001252D05E560FF20F53002F0F3F8EE002B
:1049E000E660FF20F53002F0EDF82027E760FF20B9
:1049F000F53002F0E7F8A560A660A76003F0FBFEC3
:104A0000FFF7F4FEFFF743FF05F002FE00280DD18B
:104A100004F0B0FA01F008FC002807D004F0D5FB40
:104A200004F034FC04F07DFC02F0C5FA02F03FFD16
:104A300002F090FD03F026FB03F05AFB02F0C6FCE7
:104A400002F0A6F9FFF72AFC06F002FB04F01AFBBD
:104A500032E000000400FA0500ED00E088200020AC
:104A6000C445010040200020A42B0020CF4A0100B3
:104A700063470100450300000020002000040040BF
:104A80000005005000070050C0230020EB47010044
:104A9000C54701002145010067AD010040B100405C
:104AA00000B0004000B3004080E100E0FF0F0000D4
:104AB00000B500400102000006F0DAFC04F0E6FA5E
:104AC0003DDF0028C4D06E4A6E49FFF77BFB10B56E
:104AD00000216D4A084606F056FC10BD1CB5019138
:104AE00000906A4A0821684606F04DFC1CBD0EB5D0
:104AF000694611200872624906225C3102A86CDF07
:104B0000002803D0FF215E4A793124E0092080018A
:104B100068DF002803D0FF21594A7C311BE00021C7
:104B2000FF20009141306A4601911080FF209130B2
:104B300050809180D08068466ADF002803D0FF2132
:104B40004F4A863107E00320C04367DF002804D0C6
:104B5000FF214B4A8931FFF735FB0EBD08B5002018
:104B60000090FC2168460170012001462031684612
:104B7000417000200146684681706946444804F04F
:104B800079FE002803D0FF213D4AD9310FE000F023
:104B900046F841483F4941604049016001463C4870
:104BA000243000F092FA002803D0354A3C49FFF740
:104BB00009FBFFF76DFC08BD37491E200839088046
:104BC000887801221043E12210400C30DF2210408F
:104BD00088700720C8701020087170473149012083
:104BE0008861314900224A60830798604A607047B3
:104BF00010B5002904D02DA275210020FFF7E2FA9C
:104C000006F05EF910BD0246082905D0FF2132A248
:104C100016310020FFF7D6FA11685068084700B532
:104C200085B01421684609F01AFC002168460091FD
:104C3000017102916421017301200146103168461F
:104C400041730120014610316846817300200146FE
:104C50006846C173012001461031684601740C4852
:104C600069460C3004F040FF002804D0FF21044ABC
:104C7000F231FFF7A7FA234800F010F905B000BDA4
:104C8000C4450100F7030000F14B0100074C01008F
:104C9000802B0020DB5B01001C2000202F5D010029
:104CA0002902000000050040000100402E2E5C6E2D
:104CB000726635313832325C496E636C7564655C9E
:104CC000626C655C626C655F737461636B5F686185
:104CD0006E646C65722E68002E2E5C6E72663531C5
:104CE0003832325C496E636C7564655C6170705F0C
:104CF000636F6D6D6F6E5C6170705F74696D65720E
:104D00002E680000454401009549884201D3642083
:104D1000704793493239884201D95F2070479049E2
:104D20006439884201D95A2070478D4996398842A2
:104D300001D950207047AF210901884201D946208E
:104D400070478749FA39884201D93C207047854924
:104D5000884201D93220704782493239884201D9CC
:104D6000282070477F496439884201D91E20704746
:104D70007C499639884201D9142070477949C8394D
:104D8000884201D90A2070470120704770B57648E3
:104D900001680024754D00291DD00460A868744A7C
:104DA00001215160E12109014843724909F090FB5A
:104DB000714A80B25080FFF7A7FF10705268002A36
:104DC00009D001216C4806F0DEFA002803D06BA25E
:104DD000E021FFF7F7F92C6070BD644901200860FD
:104DE000614A0021116062490860704770B505464C
:104DF000FFF7F3FF0A2001F0E5FE5B4C02E00A201A
:104E000001F0E0FE20680028F9D00020206057481B
:104E10008068574A01215160E12109014843554901
:104E200009F056FB288070BD5B49012048605B4853
:104E300001680902090A02071143016058498020EC
:104E400008607047F1B55448002747605449012570
:104E5000802080310860444C2760454E7560FFF724
:104E6000BCFF0A2001F0AEFE20680028F9D02760C0
:104E70003E4880687560E121090148433D4909F0D9
:104E800027FB00990880FFF7CFFFF8BD3749454859
:104E9000486035490020086070479EE710B5364AE3
:104EA00050605088FFF730FF10705268002A02D01F
:104EB00001213148904710BD10B52F484088002887
:104EC00003D12D48801CFFF791FF2849002008607E
:104ED000FFF7AAFF2848344A0121083006F08BFC6E
:104EE000002804D0FF2125A27531FFF76BF910BD12
:104EF0002E48807C7047014610B51F48002280680C
:104F000006F0C0FC002804D0FF211CA28831FFF766
:104F100059F910BD10B51848806806F0F0FC00285B
:104F200004D0FF2115A29131FFF74CF910BD70B5E7
:104F300001200024C003FFF7DEFF0F4D1C4E6888E0
:104F4000B04201D3012406E030BF06F091FA03F02D
:104F50009CFA0028F3D1FFF7DDFF204670BD00006A
:104F6000B80B00008C0A0000007100400075004082
:104F700000700040FF030000242000202E2E5C5310
:104F80006F757263655C7372635C62645F626174A7
:104F9000746572792E6300000073004004E400E041
:104FA00000E100E0028000009B4E01008C2B0020FD
:104FB000980800008C4B07C3704710B50B88012B75
:104FC0002ED0102B16D00022112B1AD0502B10D11E
:104FD000891D0B88048AA34202D10C8B022C17D0A6
:104FE0008288934205D18369002B02D00A8B1A3143
:104FF000984710BD89888182C0690028F9D0804710
:1050000010BD0021C9438182827500F090FE10BD61
:10501000498B012901D0827510BD0121817510BD18
:1050200071480268002AFAD081684068904710BD34
:1050300070B500240546601C90B00007000F08A959
:10504000103008940870601C0007000F1030487082
:105050008878F9263040801C88701C2101A809F04E
:10506000FEF96946087910210843694608710294DF
:1050700008A80494059407940690287808A98871D4
:10508000032069468884112000940870487088784D
:10509000E7213040801C0840012630436946887073
:1050A00014210AA809F0DBF909A80A9068460B90B8
:1050B00069460E8614204C8688862B4668880C33F9
:1050C0000AAA01A9A2DF10B070BD30B5474B044653
:1050D0000D460FCB85B003936B4607C30020C0433A
:1050E000A0826868A0612868E0610020A075214660
:1050F000684652DF002815D1217868468174012165
:105100000182A21C04A90120A0DF00280AD129469F
:105110002046FFF78DFF002804D12946204600F0E5
:105120001FF8002805B030BD1FB5837D002B05D0CA
:105130001388142B04D9072004B010BD0820FBE706
:105140000023009301930293039384896B461C8090
:105150000391029201219970808A6946A6DFEBE7EC
:1051600070B58EB005461C21684609F078F968468E
:1051700001780820014368460170002401940394DB
:10518000049405940694297808A881700221684641
:105190000184601C0107090F1031684607940177EC
:1051A00001200146103168464177817FF920014096
:1051B000891CE7200140012631436846817714218C
:1051C00009A809F04CF908A8099007A80A906846B0
:1051D00086851421C485018668882B1D09AA694625
:1051E000A2DF0EB070BD0000C42B002034E8010027
:1051F000FF4800787047FE4908707047FD49FE4A35
:1052000009880120914200D100207047F7B582B093
:1052100002980C461546002804D1FF20F7A1D03093
:10522000FEF7DCFF042C04D0FF20F4A1D130FEF700
:10523000D5FFEF4C2646A0683036002804D002285F
:1052400004D001280CD00DE0A5600BE0012D09D1A0
:10525000B088012806D102980068A06101200FE003
:10526000022D0CD0002069460880A06802280AD0D0
:10527000002806D002980568002D49D150E0022090
:10528000E06005B0F0BDDA481430C1780129F8D1EA
:105290000288807801282DD00023D549AB203831F1
:1052A0000870684600791025000900012843DF25B1
:1052B000284001256B405B01184383069B0E68461E
:1052C00003714B7000274F8050BA8F80C88008222E
:1052D000684602806A46D348FFF726FF00280BD0B5
:1052E000D149884215D1C249D04814310222FFF772
:1052F00061FEC6E70123D0E7BD48A7601430C77040
:10530000E0680128BDD1A569002DBAD0E760A06092
:105310007AE00020B649A0601431E060C870B0E7C0
:105320008720B6A18000FEF759FF6DE0B049082044
:1053300040316A461080012715E068890028A0D016
:105340002868002803D1ADA1B948FEF747FF688956
:105350001421142800D801466A46118029892A6838
:105360000227081A81186A46AE48FFF7DDFE0028BA
:105370000ED0AD4988424BD1AC4829460122FFF7F7
:1053800019FE01212A468904606A06F07BFA78E753
:10539000002F39D0012F04D0022F0AD0032F33D190
:1053A0002AE0B08801282FD10020B08020646064FA
:1053B0002AE0694668890988401A0004000C68815F
:1053C00022D100273A4639463846FFF7F3FDA76059
:1053D0000121E5612A468904606A06F053FAE06813
:1053E000022811D182481430C07801280CD1022043
:1053F000A0600020E06038E77D481430C1780129C2
:1054000002D10021A160C170B088012895D18DE73B
:1054100000273A4639463846FFF7CCFDA760696851
:10542000002902D0AF7300208847E0680228AED17F
:10543000E760A06019E738B504000D4604D1FF20ED
:105440006EA1B730FEF7CAFE012D08D0022D05D19E
:105450000222009404216846FFF7D8FE38BD00946C
:105460006089002803D06248406A06F048FA0122A9
:10547000F0E770B5040024D05D4DAB2040352870B6
:10548000002068702289100AA870EA700020216844
:1054900003F00AF8010A2971554968714888020A1F
:1054A000AA71E87122896281A081401C4880284647
:1054B00001211038818004602046FFF7BCFF0020E6
:1054C00070BD072070BD70B50446807B00281BD0DE
:1054D0006089002809D1E07B032806D2401CE073D4
:1054E0002046FFF7C6FF00280ED000252A46294691
:1054F0002846FFF75FFD3E488560C560A57361687B
:10550000002901D00020884770BD0021016070474C
:1055100010B5002809D0012806D136483649008840
:10552000884201D0132166DF10BD00F02DFD00F090
:10553000F7FE10BD01F0ECFC01F0BDFA05F00EFA2B
:10554000012039DF3C493B48C860BFF3408FFEE78C
:1055500027490120087027481321008866DF70471B
:1055600010B5364800218173C1732148344A243074
:1055700006F041F9002804D0FF2120A22331FEF7D4
:1055800021FE1B482F4A0021283006F034F900285C
:1055900004D0FF2119A22631FEF714FE14482A4A2E
:1055A00000212C3006F027F9002804D0FF2113A297
:1055B0002931FEF707FE002010BD70B50C4D0E46D8
:1055C000E969002960D0898981425DD1686A06F065
:1055D00096F90024002E39D0E869C17B032941D314
:1055E000224621462046FFF7E5FCAC60EC6044E033
:1055F0003020002002200020FFFF00002E2E5C53F0
:105600006F757263655C7372635C62645F636F6D18
:105610006D756E69636174655F70726F746F636FCF
:105620006C2E6300A42B00200330000037540100CF
:10563000310200000400FA0500ED00E0982C002083
:10564000C75401000B5501001155010022462146A7
:105650002046FFF7AFFCE86984734168002913D046
:10566000012010E0491CC173FFF703FF00280BD095
:10567000224621462046FFF79DFCE8698473416875
:10568000002901D00020884770BDF8B5040006D07D
:10569000FA4F0026B87B002803D00420F8BD07206D
:1056A000F8BD0120B873F64DAB2028706E702289CA
:1056B000100AA870EA700020216802F0F5FE010AC5
:1056C00029712A466871403A5188080AA871E9711F
:1056D00063687B6023683B6023893B8123897B81EE
:1056E000FE73B981491C51802946012210398A80F4
:1056F0000F6038461146FFF79EFE0020F8BD704748
:10570000F8B50025062812D004DC002809D00128AD
:1057100004D106E0092816D00A2828D007252846F3
:10572000F8BD002AFBD1002002F032FAF7E7012A87
:10573000F5D10978D348012902D000210170EEE7A4
:1057400001210170EFE70C2AE9D18878CA780002BC
:1057500010434A781204024308780406144303F005
:105760003CFEA042DBD0204603F034FED7E70A2AF5
:10577000D5D1087800908878CA78000612040243D0
:1057800008794C790002104304438879CA790002F1
:105790000243087A4F7A03024E781F43104601F005
:1057A000BDFAB9493846484301F0BBFA0A206043C4
:1057B00001F0BAFA009801F0BAFA304601F0C2FAE4
:1057C000ADE7F0B50346002585B00C461046052B25
:1057D0007BD006DC012B0DD0022B30D0032B06D161
:1057E00078E0102B72D0202B71D0212B70D00725A0
:1057F000284646E5042A6CD100F0D2FEA178E6786E
:1058000009020E436178C07809040E432178090625
:105810000E43B102C90E884205D0002003F0DAFD24
:10582000002001F0B2FD304601F010F800F0FCFC61
:105830000028DDD001F069FB00287DD0D8E70521E4
:1058400008F046FE00295FD1C0B20090082801D9B7
:105850000820009003F043FC002630E0B00032182E
:10586000A05C0021121994460291039052780B0615
:10587000170A3B43120611431843624602910390F4
:1058800092780023170C1B043B4312041143184366
:10589000624602910390D2780023170E1B02120277
:1058A0003B431143184362460291039012793046FC
:1058B0001143029102A903F023FC761CF6B2009872
:1058C0008642CBD303F044FC92E708E01AE03BE0C9
:1058D0004CE019E0002A17D101F037F888E7042AD4
:1058E00012D1A178E078627809020143207812048D
:1058F0000A430006104300D1634803F0F4FC03F0B0
:10590000FBFC75E7042A01D0092571E7002000900F
:10591000E0780090A17809020843009061780904BA
:10592000084300902178090608430090684603F078
:1059300076FC03F07EFC00E003E001F061F8002853
:10594000C2D001F038FB53E7012ABDD10878040723
:10595000240F022CB8D8204603F034FD002C03D0CD
:10596000012003F027FD43E70020FAE7082AABD126
:10597000002000900190E079002101910090A2792F
:105980001302DA171843114301910090627912044F
:10599000D317104319430191009022791206D317AF
:1059A0001043194301910090E27868461143019138
:1059B000A2781202114301916278120411430191FD
:1059C000227812061143019103F078FB7AE710B5B3
:1059D000012000F02CFC002003F0E4FC002003F088
:1059E000F9FC01F095FA03F0D4FC01F001FB10BDC5
:1059F0003EB5224A0123C83A137000235370022493
:105A00009470D3701471507191710720694601939D
:105A1000009208816846FFF738FE3EBD3EB501247E
:105A2000012818D0112815D114480021C838047055
:105A3000417012228270C17004220271447184711B
:105A4000C47104720191009009206946088168467A
:105A5000FFF71BFE3EBD02F09AFB0546012002F057
:105A600093FBFFF745FA282810D201210846FFF7DB
:105A7000BFFF284602F088FB3EBD0000982C0020A6
:105A8000702000200C210020102700000021084673
:105A9000FFF7AEFFFC4805210470FC480022C90353
:105AA000006805F0EFFEE7E7F7B50D4600280AD0DD
:105AB000002D08D0F44902780B69411C002B04D05A
:105AC000012B74D129E00720FEBD032A04D0062A49
:105AD0000FD0012A2ED06AE0CA788C7811022143B7
:105AE00049BACA058378411DD20D184600F08AF9DB
:105AF0005DE00526841C0DE06078A1780002401866
:105B000087B23946204602F0EFFFE419E41CF01991
:105B1000C01C86B2A81BEFD549E0042A1BD004DCC8
:105B2000012A07D0022A42D108E0052A20D0FF2A04
:105B30003DD12AE08078FFF771FF38E0CA788C7891
:105B40001102214349BACA058378411DD20D184676
:105B5000FFF737FE2BE0CA788C781102214349BA4F
:105B6000CA058378411DD20D184600F016F91EE0D3
:105B7000CA788C781102214349BACA058378411D3D
:105B8000D20D1846FFF7BCFD11E0012D0FD1C078F2
:105B9000012804D0022805D0032808D10CE00122F6
:105BA000114601E001220221032000F01EFB0298B1
:105BB000002101600846FEBD01220321F4E7B24A3C
:105BC00010B51432917010800120D070022110465F
:105BD000FFF731FC002010BD7047FEB5AA4C0F4600
:105BE0001646A06A05F003FF002802D1A06A05F05E
:105BF00086FEA748226A0146083100250091002A46
:105C000012D0012A44D0022A0DD178786A46C10602
:105C1000107108D58006C10FF879BA7900021043D7
:105C200040BAFFF7CAFCFEBD3978AB29FBD1054667
:105C30003246394608F0B4FBA680698848BA083075
:105C4000801B00B2E08000281FDC68786B46C2062B
:105C5000187103D58006C10FE888E1E7022000260D
:105C60002062A680A88849BA8AB240BA009900F09A
:105C700020F9002802D02662E88833E0E888012174
:105C800040BAFFF79CFF68883CE00120206240E0BA
:105C90007F49A088019008183246394608F080FBF9
:105CA00001988019A080E088801B00B2E080002865
:105CB0002FDC774E6A4670781071C10604D58006D5
:105CC000C10F2562F088ABE702202062A5807188B1
:105CD000B0884ABA40BA009900F0EBF800280BD01F
:105CE0002562F088002140BAFFF769FF0021694A68
:105CF000084605F048FBFEBDF088012140BAFFF7D9
:105D00005EFF7088604A41BA20320098FFF7CCFEEF
:105D1000FEBD5D4A012120328904A06A05F0B2FD72
:105D2000FEBD59484078704757494870704770B574
:105D30000024204622462146FFF73CF9524D2869AF
:105D4000012800D168702C61AC615148AC601038FA
:105D5000EC608473C473E869002805D084734168DB
:105D6000002901D0002088472C624748AC80EC8095
:105D7000143004804480686A05F039FE002802D19E
:105D8000686A05F0BCFDA86A05F031FE002802D162
:105D9000A86A05F0B4FD002070BD10B500242028CD
:105DA0001FD008DC012811D0022812D0032810D0FF
:105DB000042808D112E0212816D0302817D0312825
:105DC00018D0412819D00724204610BD00210520F5
:105DD00015E002F0ECFB00F0D7F8F5E70021062013
:105DE0000DE0002107200AE00021082007E0002143
:105DF000092004E000210A2001E000210B2002F02C
:105E00001CFAE1E7F7B5204C05460027E06A0E468C
:105E1000012D06D0032D01D105F071FD032D31D1E7
:105E20001DE005F06CFD0298202815D1002E13D03E
:105E3000FFF75EF814280FD320223146164808F0E9
:105E4000AFFA0F2100224904E06A05F01BFD002192
:105E5000012002F0F2F915E000F062FA12E0029877
:105E6000202807D1002E05D02021304600F085FAE9
:105E7000070013D000F0D1FA4B2101224904E06A57
:105E800005F000FD3846FEBD302000201020002027
:105E9000A82C0020D95B01000C2D002003F0DFF8B6
:105EA000002801D102F0D9FE00F0A2FA0120206101
:105EB000E8E710B50446002002F0F6FAA04201D14E
:105EC000002010BD0B2010BD0EB522490968012924
:105ED00011D1214907220A7000224A7001238B70D8
:105EE000CA700B71487100910620019269460881C1
:105EF0006846FFF7CAFB0EBD10B504290BD1006838
:105F0000012809D0022806D100F077F901280BD02A
:105F10000220FFF7D9FF10BD0120FFF7D5FF0021B8
:105F2000112002F08AF910BD00F010FA10BD10B572
:105F3000042907D10068012805D0022802D11220C7
:105F4000FFF7C2FF10BD1120FFF7BEFF02F0EDF911
:105F500010BD000040200020D02B002070B5002193
:105F6000AB4BAC4C01220546CD40ED07ED0F5D5C1F
:105F7000164602D0AE40E66001E0AE40A660491C85
:105F8000C9B20E29EFD370BD10B5A34CE06805F07F
:105F9000B6FCFF20A0600020A0801120207000200F
:105FA000FFF7DCFF10BD70B59B4DAB68132B7AD0AB
:105FB0000CDC08F031FC133F34383B3F4245484B82
:105FC0004E55585B5E61646E7275A3001D2B26D022
:105FD00008DC143B08F020FC096A6D7073767B7E48
:105FE00081849200222B7ED008DC1E2B0DD01F2B2B
:105FF0000ED0202B10D0212B68D143E0232B0ED0C4
:10600000242B42D0642B79D126E0814C7E3C01E0E8
:106010007F4C7A3C022169E07D4C0E3401E07C4CDF
:1060200026340C2162E07A4C3E34FAE7784C563440
:1060300005215BE0764C763CECE7754C723CE9E779
:10604000734C6E3CE6E7724C6A3CE3E7704C663C8E
:10605000E0E76F4C623CDDE76D4C803C012145E0A0
:106060006B4C323CD6E76A4C2E3CD3E7684C2A3C5A
:10607000D0E7674C263CCDE7654C223CCAE7644C30
:106080001E3CC7E7624C1A3CC4E7614C163CC1E7B2
:1060900009E05F4C083C042128E05D4C123CB9E764
:1060A0005B4C5E3CB6E75A4C5A3CB3E7584C563C06
:1060B000B0E7574C523CADE7554C4E3CAAE7544C28
:1060C0004A3CA7E7524C463CA4E70CE016E0504C93
:1060D000423C9FE74E4C3E3C9CE74D4C3A3C99E796
:1060E0004B4C363C96E74A4C0E3C0321002C05D025
:1060F000A8886A88904204D3002A02D0FFF744FFA0
:1061000070BD08F0E5F94800205AFFF727FFA8887E
:10611000401CA88070BDF8B507463F4C0020A08009
:10612000A7600D461646E06805F061FC002802D124
:10613000E06805F0E4FB29460C2268045143000C9A
:1061400089B2132F28D00DDC3B4608F065FB1325E0
:1061500027272925252525252525252525252538D4
:1061600025252C001D2F19D003DC143F082F1AD829
:1061700012E0222F25D008DC1E2F0DD01F2F0BD0B0
:10618000202F0BD0212F0ED106E0232F06D0242F55
:1061900002D0642F07D105E0608004E0618002E056
:1061A000A8000FE06580A068FF2807D00020FFF757
:1061B000FAFE00223146E06805F064FBF8BDA80055
:1061C000EAE768002818E7E770B50C46154612495B
:1061D0001A460B78984206D8087029462046FFF7E1
:1061E0009AFF012070BD002070BD082803D00A2846
:1061F00001D00A4BE8E70A4BFCE7074800787047F4
:10620000054810B5074A01210C3005F0F4FA10BD1D
:10621000C4E801000005005078200020333300005E
:106220009A190000A75F01008648407870478549A9
:10623000487070471CB500221146104604F0D0FB90
:106240006946012408802407606901A91238C0B298
:1062500004F03AFC002819D160691238C0B204F089
:106260001CFC019808227849001D04F004FC002859
:106270000CD16A462021744804F0B2FB69460880BC
:1062800072494118019804F0F1FB00281CBD1CB5AF
:1062900000221146104604F0A3FB69460880012045
:1062A0000007406901A91238C0B204F00DFC0028B3
:1062B00015D10199664B0868020C9A4210D184B23C
:1062C0002022091D6048FDF761FF6A4620215E48D3
:1062D00004F086FB69460880A04203D100201CBD63
:1062E000401C01D00B201CBD05201CBD0EB559481B
:1062F000032101700021417002228270C1700122CD
:10630000027141710191009006206946088168463A
:10631000FFF7BBF90EBD50481321008866DF7047B8
:106320000EB54C4803210170002141700222827099
:10633000C17001210171417148490191009006200D
:10634000694608816846FFF7A0F90EBD10B54448BC
:10635000006805F0D4FA3B480124047001F097F876
:10636000FFF712FEFFF7C2FF0021022001F065FFD8
:106370003C480460FFF72BFB10BDFEB506000D4640
:1063800001D0202D01D00720FEBD0022114610466D
:1063900004F026FB6946088001200007406901A936
:1063A0001238C0B204F090FB0400EDD10198284AE5
:1063B0000368190C91420AD19FB26A462021001D40
:1063C00004F00EFB69460880B84202D105E05B1C70
:1063D00001D00B20FEBD0520FEBD01992A46091DF6
:1063E000304607F093FF002800D00B242046FEBD66
:1063F0000EB51848032101700021417004228270FB
:10640000C17001220271417101910090062069461C
:1064100008816846FFF739F90EBD0EB50D48032116
:1064200001700021417004228270C170012202714A
:106430004271019100900620694608816846FFF785
:1064400024F90EBD882000200C2D00200000DE4520
:10645000DE450000D02B0020022000201763010041
:106460005C2000204020002002461F20012907D088
:10647000062901D9491EC9B2C90700D01E2070479C
:106480001C32D0B27047F8B504460846FF4908F000
:106490001FF80D4606463C21284608F019F82171E0
:1064A000E1210901284608F013F8054608463C2179
:1064B00008F00EF86071A5717D200001B5B2208052
:1064C0000FE0002F26D06421304608F001F80029A3
:1064D00001D0B0071ED0FF206E30281A761C85B27E
:1064E00026802088FF210646913107F0F1FF0F003A
:1064F00013D06421304607F0EBFF002901D0B0072C
:106500000BD0FF206E30A842DBD90020FF27A070FF
:1065100091371DE0FF206F30DFE7FF206F30F2E79B
:1065200020883946064607F0D3FF002927D064218A
:10653000304607F0CDFF002901D0B0071FD0002062
:10654000A178FFF791FF281A85B2A078401CA070AF
:1065500020883946064607F0BBFF002911D0642188
:10656000304607F0B5FF002901D0B00709D0002060
:10657000A178FFF779FFA842D2D9E570F8BD0120D4
:10658000DEE70120F4E710B5C04907F0A1FF0721BD
:1065900007F09EFF481D072107F09AFF084610BD2F
:1065A00010B5BB48C1681030FFF76DFFB848103018
:1065B0008178491C8170C178491CC17010BD70B5CB
:1065C000FFF7EEFF0446002549E0284602F090FD63
:1065D0000068A179C001C00E88423ED1284602F071
:1065E00087FD00680003810E6079814235D1A8489B
:1065F000C068FFF7C8FF0646284602F079FD00682C
:106600000121B1400840400623D1284602F070FD28
:106610000068E1788000C00E88421ED1284602F052
:1066200067FD01684068890880070843A178000F6A
:10663000884212D1284602F05BFD01684068090AD1
:10664000000608437D21800E0901401821888842F8
:1066500003D100210C2001F0F0FD6D1CEDB202F021
:106660003BFDA842B1D870BDF8B502F032FD064638
:10667000FFF796FF054630687168020E0802104366
:10668000000E012829D1824CE068FFF77CFF02460A
:10669000A8790027002804D16979002901D1276051
:1066A0006760012393403168DAB2114215D00A02C3
:1066B000120E824211D80A04120E82420DD33C22DD
:1066C00050436A79090E801807F002FF002905D0AF
:1066D00002F083FE6168401A2060F8BD03CE020C10
:1066E000080410432168000C884203D900210E20C1
:1066F00001F0A3FD276002F070FE6060F8BD10B5E8
:10670000634CE068401CE06002F0C0FC3C21E068A3
:1067100007F0DEFE0C0001D01E2C16D1FFF76DFD38
:10672000112805D101F05BFF002801D1FEF755FBD0
:10673000002C0AD100F0E9FB002806D0FFF73FFF4C
:10674000FFF792FF002000F0DAFD10BD10B55048B1
:106750007D2109011030018000218170C17081719B
:10676000417101714A4C4B4AE1600121083805F042
:1067700042F8002804D0FF2147A21531FDF722FD81
:1067800001210022C903A06805F07CF8002804D08C
:10679000FF2141A21731FDF715FD10BDF8B50446E4
:1067A00081060005800E3C225043890E4118E0030B
:1067B000E122C00E1201504345187D20A70E0001B2
:1067C0003818FF2100269131009007F081FE002942
:1067D00013D06421009807F07BFE002901D0B80790
:1067E0000BD00023A0022949C00E4843494240195A
:1067F0004518A001040F641E09E00123F2E7F1B27D
:106800001846FFF731FE214948434519761CB4422A
:10681000F5D8002414E07D200001FF2120189131DB
:10682000064607F055FE00290ED06421304607F0D9
:106830004FFE002901D0A00706D020482D18641C67
:10684000A742E8D82846F8BD1D48F7E7F8B5044642
:1068500081060005800E3C225043890E4118E0035A
:10686000E122C00E1201504345187D20A70E000101
:106870003818FF2100269131009007F029FE0029E9
:1068800030D06421009807F023FE1BE08051010006
:106890008C200020FF6601002E2E5C536F75726302
:1068A000655C7372635C62645F77616C6C5F636C80
:1068B0006F636B5F74696D65722E63008033E101F5
:1068C0000085E201002901D0B8070BD00023A00207
:1068D0005849C00E4843494240194518A001040FC9
:1068E000641E09E00123F2E7F1B21846FFF7BCFD90
:1068F000504948434519761CB442F5D8002414E0A9
:106900007D200001FF2120189131064607F0E0FDAF
:10691000002918D06421304607F0DAFD002901D0A3
:10692000A00710D044482D18641CA742E8D8434C57
:10693000E560A06804F0E3FF01210022C903A0681C
:1069400004F0A0FFF8BD3E48EDE7FEB53D4D022046
:10695000287000266E700420A870EE7002F0BCFB58
:1069600081004018287100242CE0204602F0C0FB72
:10697000A100611840684F197871204602F0B8FBF9
:10698000014600684968000E09020843B8712046B4
:1069900002F0AEFB014600684968000C0904084398
:1069A000F871204602F0A4FB014600684968000A1D
:1069B000090608433872204602F09AFB0068641CFE
:1069C0007872E4B202F088FBA042CED8019600951E
:1069D00028796946401D08816846FEF756FEFEBDCF
:1069E0001648C068704710B5144CE060A06804F009
:1069F00086FF01210022C903A06804F043FF10BDF7
:106A000010B5FFF7CDFD00887D210901884201D135
:106A1000002010BD012010BD10B50848806804F0AA
:106A20006EFF002804D0FF21074AB231FDF7CAFBF0
:106A300010BD7047805101008033E1018C2000209F
:106A40000085E201D02B00209868010070B5524902
:106A500001260420504C10310860091F0860091FEE
:106A60000860091F086020604B4D783528607D2044
:106A7000C00000F0A7F849482060286048488660B8
:106A8000C82000F09FF800221146104600F0A8F838
:106A900000280FD0002000F009F902F006FDF228CE
:106AA00003D040A1EE20FDF799FB02F04CFE002040
:106AB00000F014F970BD10B5002000F0F7F802F0F6
:106AC00028FE002000F00AF910BD10B5002000F0EB
:106AD000EDF8002000F002F910BD10B5002000F024
:106AE000E5F8002000F0FAF810BD10B5002000F025
:106AF000DDF8002002F010FE002000F0EFF810BDDD
:106B000010B5002000F0D2F8012002F005FE0020B0
:106B100000F0E4F810BD10B5002000F0C7F8012423
:106B2000002000F0DBF8204610BD10B50446002020
:106B300000F0BCF8204600F004F8002000F0CEF889
:106B400010BDF1B5002482B0254602F0C4FC400718
:106B50001FD51B4E2025684602F031FD684601888E
:106B60000E2041436846018042880E204243684619
:106B7000428083880E204343684683802046062750
:106B8000784331528019641C4280E4B28380AC4265
:106B9000E1D302980570FEBD00070050010200001D
:106BA000000500502E2E5C536F757263655C737226
:106BB000635C62645F68616C5F6163632E630000A5
:106BC0002C2D002070B50446044D03E0641E2846B9
:106BD000FDF7BCFA002CF9D170BD0000E7030000FE
:106BE00070B505460524484824020123002D01D034
:106BF00046480AE004260519AE600326EE60022628
:106C00002E61434DAE60434D2B600125AD07041945
:106C10006562002906D0012910D0022910D003296D
:106C200010D000211524A401002A00D01943021914
:106C300051610022FF2109310A5070BD0221F1E7A4
:106C40000421EFE70621EDE7F0B506468C46002566
:106C5000964601202E4902222F46CA60F41D0915CE
:106C6000F93471181AE07246D25DCA610326360300
:106C700000E06D1CA268002A01D1B542F9D3B542EB
:106C800005D101218140224881600020F0BD002211
:106C9000A2608A693E467F1CBFB29A556745E2D31F
:106CA000012181401A4881600120F0BD0121184B6B
:106CB0008A079A60144A002801D0144A09E016484D
:106CC0000160001F0160144B0020083B1860181F72
:106CD0000160052000021018016070470A4A002870
:106CE00001D00A4A06E00C49022010390861C86048
:106CF00088604860052100200902511808600120C1
:106D000003498007C86070470030004000400040E1
:106D100000050050B820002010070050FF49C8802F
:106D20007047FE4948617047FC498861704710B55B
:106D3000FA4BFB4C4033596880072140C00A01439D
:106D4000596010BD10B5F54B782440335968E443C1
:106D500000072140400E0143596010BDEF48C08834
:106D60007047EE4840697047EC488069704710B53D
:106D7000EA4C207800280AD0E06904F0C0FD002821
:106D800003D0E8A29F21FDF71DFA0020207010BD5E
:106D900010B5E24C207800280CD10022E949E069C6
:106DA00004F070FD002803D0DEA2AE21FDF70AFA40
:106DB0000120207010BD10B5D848018943890A46CA
:106DC000994200D81946C1818489A14200D8214640
:106DD000C181914201D1002010BD994201D1012011
:106DE00010BD022010BDF8B506460068022803D089
:106DF000CCA1C720FDF7F2F97268002A5BDDC74C11
:106E0000E18820462030002902D143785B1C437082
:106E100043780125002B00D145705018E08002F026
:106E2000DCFA7168401802F0D5FAB068002802DD7B
:106E30006169401860613069002802DDA16940186D
:106E4000A061F068002804D0012806D002280BD1E8
:106E500007E02089401C208106E06089401C608199
:106E600002E0A089401CA081FFF7A5FFAB4BAC4E10
:106E70004033596880073140C00A0143B2480026B8
:106E80000140E0880005400B0143596002F0A5FA7B
:106E9000074602F025FA874202D3A07800280BD0DB
:106EA00002F09BFA054602F01BFA854200D2A6705A
:106EB000002000F06DFEF8BDA5700021102001F04B
:106EC000BCF9F5E710B504460068012804D0FF209E
:106ED00094A10330FDF782F990496068C87020469C
:106EE00001F05DF8002000F053FE10BD10B504461F
:106EF0000068022802D12046FFF775FF20680128AC
:106F000002D12046FFF7DEFF10BD8448407870476D
:106F100010B582490020487005F04DFF10BD10B536
:106F2000FFF75EFD00217D227C4CD2000B4607F06E
:106F30005AF96163206310BDF8B5006841048E0DF5
:106F40004100C40F00024F0EC50D002F00DC1927B1
:106F5000002E00DC4126002D00DCAA25012C02D0E9
:106F6000002C00D001246D484078002801D0FFF7A4
:106F7000CFFF3B46324629461920009405F0E9FE32
:106F8000002804D0FF2067A1A530FDF727F963484A
:106F900001214170FFF7C3FF00216C4805F01AFF83
:106FA000002804D0FF205FA1AB30FDF717F9FFF7F1
:106FB000A7FD0020F8BD594810B5203040780028C2
:106FC00003D100F09EFF00F0FAFE544824304088C0
:106FD000002801D100F090FF5D480068408800283B
:106FE00001D101F046FF02F017F9FFF7A5FF10BD30
:106FF00010B500F086FF00F07FFF01F03AFF00F0CF
:10700000DEFE46480021C18081614161818141816C
:107010000181084602F0DEF900F018FA00F0F6F9F6
:10702000012010BD38B53D4C2079032817D0042825
:1070300004D301220E210320FFF7D7F8207902257F
:1070400002280FD0032815D0042805D3414A009503
:107050000421684604F097F90020207138BD012210
:107060000D21E8E7FFF7C9F8012803D001200090BF
:10707000394AEDE70095FBE7F0B587B0002502A897
:10708000FFF753FD9AE0284606214843334E074652
:107090000390305E052107F025FA04B2BF190220E3
:1070A0000597385E052107F01DFA06B20420385E08
:1070B000052107F017FA404207B2204631466043E7
:1070C0007143411838467843081801F001FA134912
:1070D0000346886BC96B019100903A4631462046C1
:1070E00005F0ABFC002803D00EA11D48FDF776F893
:1070F0000A4C0A23A16BE06BC91800225041A1631E
:10710000E063A80755D16078002852D0134803994E
:10711000405EC01003900221059823E0C0200020AB
:10712000FFFFE7FF2E2E5C536F757263655C737211
:10713000635C62645F737465705F636F756E7465C2
:10714000722E6300D72300007F00F8FFED6E010070
:10715000742100202F5F0100F95E01002C2D00201A
:10716000A2020000415EC91004910421415E03980F
:10717000CF100499404349434118384678430818D2
:1071800001F0A6F90346206B2722616B82180026C6
:10719000714122636163009201913A460499039818
:1071A00005F021FE002804D02B2090490001FDF7B6
:1071B00015F86D1C2069EDB2401C20616846007A0C
:1071C000854200D25FE707B0F0BDF1B5884E82B0CE
:1071D000F088354640350090002873D00A21B06908
:1071E00007F080F9020C0021090400041143070C88
:1071F0004C0768682968C0083F04640F89B2C00062
:107200000F4304437B49706907F06CF9390C80B275
:1072100009040843784900270C4002998907C90AE4
:107220000C4376490C4000990905490B0C436C60EE
:10723000210E2C462860203C6078C200704803680C
:10724000D2185170627869680368D200090CD218AC
:107250009170627869680368D200090AD218D17007
:1072600062780368D2006968D21811716A68296867
:107270001202090E114362780368D200D2185171CC
:107280006A6829681204090C114362780368D20005
:10729000D21891716A6829681206090A1143627846
:1072A000D2000368D218D17162780068D2002968D0
:1072B000101801726078082804D100F07DFB0028C6
:1072C00000D167706A686968520D521C53052868BE
:1072D0000022F280B2617261B2817281C902328190
:1072E000C90A484A1943114082B2C808110CC000AB
:1072F00009047822D243104029606860FEBDFEB5C3
:10730000FFF74EF90546FFF756FD0646FFF707FE65
:10731000A8790027364C002808D16879002805D1C3
:107320002879002802D102F055F8A77020898642FA
:107330000FD92F4A782340325168DB4310680B4045
:10734000C70949063943090F491C0907490E0B4370
:107350005360E07801280CD12078002809D1616BB6
:10736000206B0023019100901A461946184605F03B
:107370003AFD68790F2107F0ABF8002902D13046B9
:10738000FFF723FF01F000FDFEBD1949887070472B
:1073900017488078704770B5154C01252079ED03AA
:1073A000401CC2B222712046806A012A09D0022AFA
:1073B00001D0032A09D304F0A2FA00222946A06AC8
:1073C00001E00022294604F05DFA70BD10B564208A
:1073D00005F060FA00210C4805F083FA002804D07B
:1073E0006F200249C000FCF7F9FE10BD24710100B6
:1073F000C020002010270000FFFFE7FF7F00F8FFFC
:10740000182100207F00E0FF9773010038B50124A8
:1074100024076169206929394143F948016061699C
:107420002269293951434160002000906069694612
:107430002938C0B203F048FB00980068401C04D013
:1074400060692938C0B203F014FC38BD38B5012496
:1074500024076169206938394143E94808380160E7
:1074600061692269383951434160002000906069A8
:1074700069463838C0B203F027FB00980068401C0A
:1074800004D060693838C0B203F0F3FB38BD10B5E2
:10749000FFF7DCFFFFF7BAFF01F0F1FC10BD10B5FC
:1074A00001210907096989B207F012F810BD70B50A
:1074B000D34C012560682D07002802D020680028E1
:1074C00009D1686929692938484360606869296970
:1074D0002938484320606068FFF7E1FF296989B2D5
:1074E00048436168884217D00846FFF7D8FF2969EA
:1074F00089B248436168081A80102C2106F0E8FF21
:10750000002909D068692969293848436060686999
:10751000296929384843206060680168491C02D104
:107520004168491C15D0FFF7BAFFC0B203F0B5FAA5
:107530006068FFF7B4FF296989B248436060FFF7CC
:10754000AEFF05462068FFF7AAFF854201D16068BB
:10755000206070BD70B5AA4C0125083C60682D07FD
:10756000002802D02068002809D1686929693838C4
:10757000484360606869296938384843206060681A
:10758000FFF78DFF296989B248436168884217D0A7
:107590000846FFF784FF296989B248436168081AE1
:1075A00080104C2106F094FF002909D068692969F0
:1075B0003838484360606869296938384843206032
:1075C00060680168491C02D14168491C15D0FFF769
:1075D00066FFC0B203F061FA6068FFF760FF2969D7
:1075E00089B248436060FFF75AFF05462068FFF7FD
:1075F00056FF854201D16068206070BD80480168F7
:107600004068814201D100207047012070477D48C9
:107610004088002800D00120704770B5784D286858
:10762000FFF73DFF044628685830FFF738FF8442D3
:10763000286801D12C3070BDFFF731FF401C0124B8
:10764000240761691A39884206D22868FFF727FFA4
:107650002169401C89B203E02069616980B229393F
:10766000484370BD70B5664D68688430FFF717FFFA
:1076700006466868FFF713FF0124240786425AD0A4
:1076800068685830FFF70BFF06466868FFF707FF8A
:10769000864250D16868FFF702FF6169401C1A39C1
:1076A00088422AD26868FFF7FAFE401CC0B203F095
:1076B000E0FA6868FFF7F3FE2169401C89B248438D
:1076C0002968884237D86868FFF7E9FE2169401CBD
:1076D00089B24843216989B24118286881422AD970
:1076E000FFF7DDFE6169401A1B3001D028681BE0FE
:1076F0002069616980B229391BE060692938C0B20C
:1077000003F0B7FA206981B26069293841432868DB
:10771000814210D821696369226989B2293B5943A2
:1077200092B28918814206D9FFF7B9FE2169401C3F
:1077300089B2484328606868FFF7B1FE064668686A
:107740005830FFF7ACFE8642686801D12C3070BD1E
:10775000FFF7A5FE6169401C1A39884206D26868A5
:10776000FFF79DFE2169401C89B203E02069616931
:1077700080B22939484370BD214808380168406803
:10778000814201D100207047012070471E4900202E
:10779000497800290CD01D490A684968D20C490370
:1077A0001143174A090D303AD288914200D0012086
:1077B0007047154901204978012900D800207047F9
:1077C00070B50F4D083D2868FFF769FE044628682C
:1077D0009830FFF764FE8442286801D14C3070BDB8
:1077E000FFF75DFE401C01242407616929398842A6
:1077F0000ED22868FFF753FE2169401C89B20BE0C6
:1078000040210020E4200020E02000200021002072
:107810002069616980B23839484370BD70B5FB4D4D
:107820006868E430FFF73BFE06466868FFF737FEFE
:107830000124240786425AD068689830FFF72FFE4B
:1078400006466868FFF72BFE864250D16868FFF74E
:1078500026FE6169401C293988422AD26868FFF7F0
:107860001EFE401CC0B203F004FA6868FFF717FE62
:107870002169401C89B248432968884237D8686822
:10788000FFF70DFE2169401C89B24843216989B286
:107890004118286881422AD9FFF701FE6169401A20
:1078A0002A3001D028681BE02069616980B238392C
:1078B0001BE060693838C0B203F0DBF9206981B29F
:1078C0006069383841432868814210D8216963696A
:1078D000226989B2383B594392B28918814206D94C
:1078E000FFF7DDFD2169401C89B2484328606868C4
:1078F000FFF7D5FD064668689830FFF7D0FD864251
:10790000686801D14C3070BDFFF7C9FD6169401C4A
:107910002939884206D26868FFF7C1FD2169401CF9
:1079200089B203E02069616980B23839484370BD8B
:1079300070B500281AD0002918D04A780524D20042
:10794000121D04700025D3050226DB0D45708670DC
:107950001C0AC47003714B881B0A43714B888371E6
:107960000B78C37149780172501D70BD0020C0436F
:1079700070BD70B500281CD000291AD04A88052493
:107980009200121D92B204700025D3050326DB0D70
:10799000457086701C0AC47003710B881B0A437102
:1079A0000B8883714B881B0AC37149880172501D73
:1079B00070BD0020C04370BD70B5002802D00828FB
:1079C00001D9092070BD914C9149283CA068FFF76E
:1079D000AFFFC01CC117890F081880038B4D020C24
:1079E0006868A16803F047F8002801D0012070BD45
:1079F000FFF714FF686086490020864A4870864B6E
:107A000050681840C008C00000211160506008464E
:107A100070BD10B57D4C283C207900280DD1052182
:107A20000022C903E06903F02DFF002803D07BA2E8
:107A30008249FCF7C7FB0120207110BD3EB5754C93
:107A40007F4D20686168C20C48031043000D60D070
:107A5000FFF787F97B4906F045FD226880B2120CDA
:107A6000120402432260FFF77FF90A2106F03AFD73
:107A7000020C00210904114300044A07030C616849
:107A80002068C908520FC9001B0480B21143184373
:107A9000616020605E48AB684278090ED200D2185F
:107AA000517042786168AB68D200090CD2189170AD
:107AB00042786168AB68D200090AD218D170427866
:107AC000AB68D2006168D218117162682168120235
:107AD000090E11434278AB68D200D2185171626826
:107AE00021681204090C11434278AB68D200D21805
:107AF0009171626821681206090A11434278AB68E5
:107B0000D200D218D1714078AA68C00021688018CC
:107B100001723F49A868FFF70BFF4B490191A96823
:107B20000091694608816846FDF7AFFD002801D045
:107B300000203EBD03CCC20C48031043000DE8807A
:107B400001203EBD3EB5314C08342068C178027931
:107B500009025118491D89B22C2908D80278052A32
:107B600005D14278002A02D18278032A03D0FFF798
:107B700054FD206008E0344A00900192684601817B
:107B8000FDF783FD002801D000203EBD01203EBD51
:107B9000FEB52E48006801285CD1294C20780028C9
:107BA00056D1A069002804D024481CA16238FCF7F3
:107BB00015FBE0780526244F012500284BD1FFF75F
:107BC0001DFD00280FD1FFF722FD00280BD101F089
:107BD00046FA002807D1FFF7CFFD002803D1FFF7B1
:107BE000E8FD002837D009480021083806704170A8
:107BF00007228270C170017100900197684606816A
:107C0000FDF743FD002823D106207FE03821002026
:107C1000E0200020002100207F00E0FF2E2E5C539A
:107C20006F757263655C7372635C62645F73796EB7
:107C3000635F646174612E6300000000160500003C
:107C400010210020102700002D7E01004020002080
:107C5000FFF7DFFEFEBDFFF7D1FC002806D0FFF7DF
:107C600071FF0028F4D0A6612570FEBDFFF7CFFCA0
:107C700000280FD0FC49E068FFF77BFE0197E16820
:107C80000091694608816846FDF7FFFC0028DFD1B6
:107C900004203BE001F0E3F9002805D001F0DEF913
:107CA0000028D5D0A561DFE7FFF766FD002805D0E5
:107CB00000F0FCF80028CBD0032027E0FFF779FD87
:107CC00000280AD101E0022020E0E84800780028DE
:107CD00008D0FFF75BFD002804D0FFF7AFFE0028B7
:107CE000F1D1B5E7E0780028BFD0E1480021067067
:107CF000417008228270C17001710090019768463E
:107D00000681FDF7C2FC0028A2D10720A061ABE7E5
:107D100010B5D74C1034002803D0FFF77EFC20604C
:107D200010BDD348216820384269914203D0416197
:107D30000021817010BD8178491CC9B2817004296D
:107D4000EBD210BD10B5FEF72BFC018803224902CF
:107D500052038918C44A3F24138849046402490C19
:107D6000A3431943FF231180E133994383781B0711
:107D7000DB0D19431180C07849094901C006C00EC6
:107D8000014311800020508010BD10B5B84C08345C
:107D9000002803D0FFF714FD206010BDB44821680F
:107DA00020380269914203D001610021417010BD69
:107DB0004178491CC9B241700429EBD210BD70B59D
:107DC000FEF7EEFB0546AB4C002020606060687952
:107DD0000F2106F07DFBA97989004018410500209C
:107DE00003C470BDEBE710B5FEF7DAFBA24AC37817
:107DF0005188DB0649094901DB0E1943FF235180F5
:107E0000E133994383781B07DB0D194351800088C8
:107E1000032340025B03C0184004400C3F235B0275
:107E20009943084350800020507010BD70B5904CAD
:107E30000025203C2570012814D0FFF7EAFDA06939
:107E4000022804D0032804D0052809D105E0E580E4
:107E500006E00020FFF799FF02E00020FFF758FF3F
:107E6000A56170BDA36906F0D7FC081C05080D11BB
:107E700014181B1C01F021F813E0FFF7B4FFFFF703
:107E80009EFF0EE00120FFF780FF0AE0FFF75AFF98
:107E900007E00120FFF73CFF03E00120E07000E075
:107EA000E5700120A561FFF773FE70BD3EB5704C13
:107EB00008342068C178027909025118491D89B235
:107EC0004C2908D80278052A05D14278002A02D127
:107ED0008278022A03D0FFF773FC206008E0674A2B
:107EE0000090019268460181FDF7CFFB002801D088
:107EF00000203EBD01203EBD24E75D492039C87009
:107F0000704710B5FEF74CFB5B4AC3785188DB061F
:107F100049094901DB0E1943FF235180E13399439D
:107F200083781B07DB0D194351800088032340022F
:107F30005B03C0184004400C3F235B029943084395
:107F400050800020507010BD70B5002802D0082865
:107F500001D9092070BD464C4349203CE068FFF739
:107F600008FDC01CC117890F081880032546020CA4
:107F700030356868E16802F07EFD002801D00120FC
:107F800070BDFFF76FFB686037490020488070BD07
:107F9000374918310A68026049684160704770B516
:107FA000054680683C2106F09DFA2F4C0646228843
:107FB0000F235104880ED20580069B05120F9843AB
:107FC000920510431F22520489029043890A0843F4
:107FD000FEF7E4FB3C2106F07BFA311A2848418089
:107FE00023496A6818310A60AB684B600168120760
:107FF00009090901120F1143016062880B0E521C1E
:108000001B4992B262802039CD6892005219537197
:1080100063880268CD689B00120C5B199A716388B3
:108020000268CD689B00120A5B19DA716288C96820
:1080300092000068511808726088082802D3C0B204
:10804000FFF782FF70BD10B5FEF7B5FEFFF7BDF874
:1080500000F062FF04484088C0B2FFF775FF064891
:108060004078FFF7A9FC10BDE42000200C2100207F
:108070003021002000210020E02000202D7E010082
:10808000082100207CB5002001252D07019068699A
:108090003838C4B227E001A9204602F015FD019846
:1080A0000068009068460078FF2802D0052815D1A6
:1080B0000CE068464078FF2810D168468078FF2899
:1080C0000CD16846C078FF280BD007E0684640789E
:1080D000002803D168468078022802D0204602F0AA
:1080E000DCFC641CE4B268692938A042D3D87CBDAA
:1080F0007CB5002001252D07019068692938C4B29C
:1081000027E001A9204602F0DFFC019800680090FA
:1081100068460078FF2802D0052815D10CE0684693
:108120004078FF2810D168468078FF280CD1684637
:10813000C078FF280BD007E068464078002803D1BC
:1081400068468078032802D0204602F0A6FC641C12
:10815000E4B268691A38A042D3D87CBD10B50D4985
:10816000002008710120FFF713FD7CE7094810B5D6
:10817000094A00211C3003F03EFB002803D0074AC7
:108180000749FCF71FF86EE702490870704701487D
:1081900000787047102100205D8101001C7C0100E7
:1081A0000705000010B501F018F9044601F098F831
:1081B00084423FD801F094F8044601F00EF964219E
:1081C0004843214606F084F9C0B20A2802D20322AD
:1081D000122103E0142805D2032213211120FEF7F7
:1081E00004F810BD1E2802D203221421F6E7282825
:1081F00002D203221521F1E7322802D203221621EE
:10820000ECE73C2802D203221721E7E7462802D2F6
:1082100003221821E2E7502802D203221921DDE7C8
:108220005A2802D203221A21D8E7642802D2032254
:108230001B21D3E703221C21D0E710B5034606F02B
:10824000EBFA13380B0F3838151E4E585C606F244C
:1082500026662A394144380000221F21012053E0BC
:10826000012220210220FDF7C0FF19E006220F2184
:108270000520FDF7BAFF00281BD0062137E00222B7
:108280002121062019E0022131E0062149E00622E1
:108290001F210D203EE0002904D003220E2103E01F
:1082A000012124E003220C210F20FDF79EFF00286E
:1082B000F6D110BD03221E211020FDF796FF0028E5
:1082C000E1D110BDFFF76EFF10BD00F0FFFC0028EC
:1082D00001D0002000E0012000F02DF810BD0322A5
:1082E00022210720FDF781FF0028F7D0032102207B
:1082F00018E0022223210820DFE7032222210720A1
:1083000002E0012223210820FDF76FFF10BD0322A8
:1083100024210E20FDF769FF0028F7D0032100E09B
:108320000121012000F01BF910BD10B500F03FF94C
:10833000FDF72AFE10BD10B5002806D0064B01221D
:108340001D211120FDF740FF10BD01220E2111203B
:10835000FDF74BFF10BD0000CD0C000010B500680C
:10836000002802D0012828D12AE0FCF7C1FD0446EC
:10837000142106F0ADF84949401C0A78C0B2824287
:108380001BD00870142C02D20022052112E0282CE8
:1083900002D2002206210DE03C2C02D2002207214D
:1083A00008E0502C02D20022082103E0642C05D200
:1083B000002209210420FDF718FF10BD642CFCD118
:1083C00000226421F6E735480078810040183C21FE
:1083D000081AC0B270473149002801D00020087047
:1083E0004868022802D02D48001DB7E770472C4886
:1083F00001690903C90F0BD000210069C002C00F39
:1084000008D00020002909D0002805D0002070479E
:108410000121F2E70120F5E70120704702207047B3
:1084200010B513280CD11D4A00231370FFF7DFFF8E
:108430005060022805D019485360001DFFF78EFFD9
:1084400010BDFDF7DAFE0428FAD1FDF79DFD10BD41
:1084500000B5142803D1FFF7CAFF1049486000BDDA
:10846000032110480904C1600161704710B5FFF78E
:10847000BEFF0A490228486002D0081DFFF76EFFC0
:10848000032008490004C86010BD00B5FFF7AFFF26
:10849000022801D0012000BD002000BD5021002095
:1084A000000500504007005030B5084D07E00C783B
:1084B000030A6040491C0006C00D285A5840134664
:1084C000521E92B2002BF2D130BD000024E901000F
:1084D000024600200121890700E089089142FCD86A
:1084E00007E04318934202D8D21A4B0018184008EC
:1084F00089080029F5D1704770B53F4C002261888A
:108500002388994205D362602280628000F06FF870
:1085100070BD00680025012803D0022807D06260E2
:108520000EE088073549000F0D58103105E0C807E7
:108530003249400F10390D580831085800280BD027
:1085400000F055F82C4A2946121DA06803F09AF94C
:108550006088401C608070BD00F044F8F2E7F8B518
:10856000254C06460F460025A06803F0C8F900F028
:108570003EF8002060806660012E0ED0022E10D0E2
:10858000606000F02FF860881B4A401C6080121D5C
:108590002946A06803F076F9F8BDB8002080174896
:1085A00003E078002080154810380568E9E710B529
:1085B000114CA06803F0A3F900F019F800206060E6
:1085C0002080608010BD0C4810B50D4A0021083095
:1085D00003F011F910BD0B490320486170470648AC
:1085E00040687047012008494005886070470120B5
:1085F00005494005C86070475821002034EB010050
:10860000F9840100400700500005005008B5012022
:108610000007406969460F38C0B202F055FA009968
:10862000012020310978002900D0002008BD38B58C
:1086300004466846FEF779FAFE480188091221705F
:108640000188617041880912A1704188E1708188B8
:10865000091221718088607138BD38B50125002468
:108660006846FEF762FA6846007801E0641CE4B2EE
:108670008442FBD9284638BDF8B50120EE4CC00530
:10868000E060C010E0604010E0604010E0608012E8
:10869000E0604000E0608600E6600701E76080017E
:1086A000E0602020E0600006E0600013E060C5119B
:1086B000E560E5607D20C000FEF784FA6803A060F5
:1086C000C010A0604010A0604010A0608012A060A8
:1086D0004000A060A660A7608001A0602020A0608C
:1086E0000006A0600013A060A560A560F8BDF8B505
:1086F0000120D14CC005A060C010A0604010A06057
:108700004010A0608012A0604000A0608600A660BB
:108710000701A7608001A0602020A0600006A06083
:108720000013A060C511A560A5608001E060502025
:10873000FEF748FA6803A060C010E0605020FEF722
:1087400041FAA802A0604010E0605020FEF73AFA1B
:108750006802A0604010E0605020FEF733FA280263
:10876000A0608012E0605020FEF72CFAA810A060F4
:108770004000E0605020FEF725FA6810A060E66037
:108780005020FEF71FFAA660E7605020FEF71AFAA5
:10879000A7606801E0605020FEF714FA6801A0604D
:1087A0002020E0605020FEF70DFA2020A060000697
:1087B000E0605020FEF706FAE804A0600013E060D5
:1087C0005020FEF7FFF9E801A060E5605020FEF7B9
:1087D000F9F9A560E5605020FEF7F4F9A560F8BD51
:1087E00070B50125944C6D05A560FF209130FEF712
:1087F000E9F9E56070BD38B5FFF779FFFFF7F0FFE5
:10880000FFF704FF00281FD1FFF727FF002808D03B
:108810000124894DA402EC60FF209130FEF7D2F9CB
:10882000AC600020012424070090606969460F387D
:10883000C0B202F049F900980068401C04D0606999
:108840000F38C0B202F029F938BD10B500F0D5F9E3
:1088500010BD70B50125784C6D05A560FF20F53081
:10886000FEF7B0F9E56070BD10B5744C21780029B1
:1088700003D0FCF70AFF0020207010BD012801D1B1
:108880006E490870704770B56D4C049D21700021D1
:108890006170A270190AE1702371002103E06A5C23
:1088A00066187271491C9942F9DB664904605B1DC8
:1088B0004160038170BDF8B50178012000070125F2
:1088C0005E4E07290FD00A290CD1406969460F383E
:1088D000C0B202F0F9F8009800212030009002F0B8
:1088E000C5F8B570F8BD406908240F38C0B26946B4
:1088F00002F0EAF854492246009802F0BCF875707C
:10890000F8BD08B50A20694608704C4900208870F7
:108910004E4A0121684602F036FD002804D0FF21AE
:108920004BA24731FBF74EFC08BD00B5434885B06C
:108930000078002816D001200007406901A90F38EF
:10894000C0B202F0C1F8019B0C22203301930093C6
:108950000123062102A8FFF796FF02A8FFF784FF74
:1089600005B000BD0021424A084602F00CFD002877
:10897000F6D0FF2136A25631FBF724FCF0E738B5DC
:1089800005460C460720694608702C4900204870AF
:108990002E4A0121684602F0F6FC002804D0FF218F
:1089A0002BA26031FBF70EFC0020274A04E02918B7
:1089B000CB78411C13540846A042F8DB38BD00B503
:1089C0001E4885B00178002916D04078002813D0C1
:1089D00001200007406904A90F38C0B202F074F802
:1089E000049B009320230922062101A8FFF74BFFD7
:1089F00001A8FFF739FFB3E700211E4A084602F03D
:108A0000C2FC0028ACD0FF2111A27131FBF7DAFBC8
:108A1000A6E71FB5094A1278002A2DD00B46009010
:108A20000222062101A8FFF72EFF01A8FFF71CFF75
:108A30001FBD00002C2D00200005005064210020E7
:108A4000D02B00207D8801006C2E0020B78801000B
:108A50002E2E5C536F757263655C7372635C626427
:108A60005F666163746F72795F746573742E6300FF
:108A70002B890100BF8901004E4A02F084FC0028C6
:108A8000D6D0FF214C4A7E31FBF79CFBD0E700B5E6
:108A90004A4887B0007800280DD004A8FFF7C7FD2A
:108AA00004AB009306230E22194601A8FFF7EBFE44
:108AB00001A8FFF7D9FE07B000BD4048C1780029E2
:108AC00001D10121C170704710B53C490020C87028
:108AD0003B4A014602F057FC002804D0FF21364AE9
:108AE0009931FBF76FFB10BD70B50378334E044628
:108AF0000D46102B02D0F078002821D005F08CFE16
:108B000012200A20202021242E4220273720142042
:108B1000204D5020274AE01C02F035FC00280FD0E1
:108B2000FF21254ABA3109E00021264A084602F011
:108B30002AFC002804D0FF211F4ABE31FBF742FB6C
:108B400070BDFFF799FD70BDFFF783FE70BDFFF7A5
:108B50005DFD0028FAD1FFF7D4FE70BDFFF756FD8A
:108B60000028FAD129B22046FFF709FF70BD002185
:108B7000154A084602F007FC0028F7D0FF210E4AEC
:108B8000D131DBE70021114A084602F0FCFB002846
:108B9000ECD0FF21084AD531D0E7FFF78EFF70BD3A
:108BA000FEF7E5F8FDF738FF09490120C86030718C
:108BB00070BD0000138A0100508A0100642100206A
:108BC0004B8801008F8A01002B890100BF890100B9
:108BD0000005005001200B49C00748600A494020A9
:108BE000086030BF084980310860704710B5FDF754
:108BF0007CFF06490120086010BD10B5FDF775FF28
:108C000031DF10BD0063004000E100E000050040DE
:108C1000F748038B0146838314310246438BC38399
:108C20002032086810607047F14820307047F048E3
:108C30001C30704710B5EE490523886849684088A4
:108C400000248000001D80B20B70C2054C70D20D54
:108C50008B70130ACB700A7110BDE54810B5203037
:108C6000006801072ED0E24914310860E048828B89
:108C70000283C28B428383685A88521C92B25A8004
:108C80000B68446892001B0E1219537183680A68BE
:108C90005B8844689B00120C1B199A7183680A68F0
:108CA0005B8844689B00120A1B19DA71826840686D
:108CB00052880968920010180172FFF7BBFF00206C
:108CC000FEF766FF10BDCA4908707047C8480078B3
:108CD000704710B5C64C0F23E060A0689B05018863
:108CE0004A04900EC9058006090F98438905084378
:108CF0001F21490488439102890A0843FDF74EFD6C
:108D00003C2105F0E5FB2178012251402170A26849
:108D100053885B1C5380E3681B1A20461430438041
:108D200003681B091B010B430360190E528863681B
:108D30009200D2185171A26801685288636892004B
:108D4000090CD2189171A268016852886368920078
:108D5000090AD218D171A16862684988006889003F
:108D6000891808720020FEF713FF10BD10B5A04847
:108D700080684088142806D8FDF732FE3C2105F0B3
:108D8000A7FBFFF7A6FF10BD7CB5994C2078002803
:108D90000DD0FDF725FE3C2105F09AFBE168401A55
:108DA0002D210901884223DBFFF7E0FF7CBDFDF7A1
:108DB000F7FB8079162801D20428F7D86846FFF718
:108DC000E7F800980128F1D1FDF70AFE0199401A51
:108DD000E121C9008842E9DDA06840881428E5D86F
:108DE0003C21019805F07EFB0A38FFF772FF7CBD3D
:108DF0006846FFF7CDF800980025032815D12069B3
:108E0000002802D100F0E9FA206100F0E6FA2169B9
:108E10001431884207D8FDF7E3FD0199401A4B2130
:108E2000C9008842E3DDFFF7A1FF25617CBD10B5D5
:108E3000FDF7B6FB018803224902520389184A0450
:108E40006B493F24896864020B88520CA3431A4380
:108E5000FF230A80E1339A4383781B07DB0D1A4313
:108E60000A80C07852095201C006C00E02430A802F
:108E700010BD5F480021806801804180D7E738B588
:108E8000FFF7F7FF5A4900201431086014390870C1
:108E9000C860086101242407009060696946193898
:108EA000C0B201F011FE00980068401C04D0606957
:108EB0001938C0B201F0DDFE38BD70B54C4881688C
:108EC00046784A88921B4A80012118E0721845684A
:108ED000920054198B0064795D196C714468491CC7
:108EE0001D191419A479AC714468C9B21D1914195B
:108EF000E479EC7144681B191219127A1A728268AB
:108F000052888A42E2D280684088002803D1FFF765
:108F10007FFEFFF78CFF70BD7CB5354DA86840889B
:108F2000002825D0840005216846241D01700023F7
:108F30004370E2058170D20D8280686801704370D1
:108F40008170110AC17002710422401DA96805F0E8
:108F500027FA0834A005020E01200007406969685D
:108F60001938C0B201F0B8FD002801D000207CBD46
:108F700001207CBDF8B501252D0768691C4C193806
:108F8000C0B26A46616801F0F1FD61680422491DC2
:108F9000A06805F005FA204618304088002821D046
:108FA000A2686368508821468000C0184079143157
:108FB000000208605688B600F618B6793043000201
:108FC00008605688B600F618F6793043000208604B
:108FD00052889200D218127A10430860000700D01D
:108FE0000120207068691938C0B201F056FDF8BD43
:108FF0006C21002030B51C4C85B0A068052240884B
:10900000002381006846091D02734373CD058273F6
:10901000ED0D05826068491D0270437082702A0A56
:10902000C2700571A26813881B0A4371138883718B
:1090300053881B0AC371528802720C4A0090019235
:1090400068460181FCF721FB002802D0002005B012
:1090500030BDA068408860700120F8E7CAE7024888
:1090600080684088704700006C2100202D7E010040
:109070000C48002101600D480B4A4260C16001218B
:109080008160704707490120086070470848006800
:10909000C00702D00849074808607047014900200E
:1090A0000860704700000140FFFF590000050140C3
:1090B000000401403546526E00060140002805D0EC
:1090C000CD4905C84A610861002070470020C043AF
:1090D0007047C94810307047C74800787047082863
:1090E00002D90020C0437047C34908700020704770
:1090F000082801D300207047C049C00040187047BD
:109100000022D243082808D2002906D0BB4AC0005A
:10911000801806C906C0002070471046704710B579
:10912000B54C94B0207800904022B44901A8FBF7D8
:109130002DF86169206911900120129100074069A2
:1091400013221038C0B2694601F0C6FC14B010BD3D
:1091500010B596B013206946012408702407606991
:109160006A461038C0B201A901F026FD002814D1CA
:10917000A14901980978C0B2884206D1C20002A96B
:109180009E4805F0C3F800281AD09B48082212A96F
:10919000103005F0BBF8002812D000201490606950
:1091A00014A91038C0B201F08FFC1521149801F0F9
:1091B00004FD002806D060691038C0B201F059FDE6
:1091C00016B010BDFFF7ABFFFAE730B595B013202E
:1091D000694608700120000740696A461038C0B22D
:1091E00001A901F0E9FC844C002809D00025257074
:1091F0004021824805F033F92561656115B030BD25
:1092000001982070402202A97C48FAF7BFFF139909
:10921000129861612061F1E777480C3070470028AF
:1092200004D075490068C860002070470020C04322
:1092300070473EB5012069460870040760696A46B8
:109240001138C0B201A901F0B7FC002809D1684665
:109250000078012805D1684801990C3000688842DF
:1092600010D0606902A91138C0B201F02DFC0321B1
:10927000029801F0A2FC002805D060691138C0B244
:1092800001F0F7FC3EBD00F0ABF83EBD08B5012093
:10929000694608700007406957491138C0B26A46EC
:1092A0000C3101F089FC002803D1684600780128C0
:1092B00015D051497F220C310868120619239043BA
:1092C0001B064F4AC01810404122520180184D4AD7
:1092D0001040552212048018D2031043086008BDC4
:1092E00045484068704744494A68904202D0486007
:1092F000012048700020704738B53F4C6078002846
:109300000ED001252D07686969461638C0B201F0F4
:10931000DBFB68691638C0B201F0ABFC002060705E
:1093200038BD08B501206946087000074069324918
:109330001638C0B26A46091D01F03EFC2E490028CD
:1093400006D168460078012802D14868002801D17A
:109350002D48486008BD10B5012109074A69163A31
:10936000824208D1486924491638C0B20122091D39
:1093700001F0B2FB10BD4A69113A824202D100F0FD
:109380002FF810BD496910398142FAD1FFF7C7FEA5
:1093900010BD19480021024601700C3211601A49B3
:1093A000416070471449891C088070471248801C2E
:1093B000008870471049891C087070470E48801C4F
:1093C000007870470C49891C487070470A48801C17
:1093D0004078704708498860704707488068704740
:1093E00010B501200007406903491138C0B20122BD
:1093F0000C3101F071FB10BD90210020E82E0020FF
:109400001F80FFFFFF7F00FF10270000028810056C
:109410001305000D002B05DA01231B03181AC043A6
:10942000401C00B2920B05D0012A05D0022A00D1BF
:1094300088807047088070474880704710B5CD4AD3
:109440000B2313700C4650700321CB4BCB48FDF718
:10945000FBFBC9498978217010BD10B5C84C0322A7
:109460002270C84B00221A70C24A0A23137050702F
:109470009170C14B2178C148FDF7E6FB10BD08B5DE
:1094800000216846017069460020FFF7D7FF684653
:10949000007808BD08B500216846017069460120C2
:1094A000FFF7CCFF6846007808BD08B50021684684
:1094B000017069460220FFF7C1FF6846007808BDC9
:1094C00008B500216846017069460320FFF7B6FF22
:1094D0006846007808BD08B569460B20FFF7AEFF67
:1094E0006846007808BD38B5044600256846057012
:1094F000258069461420FFF7A1FF68460078208088
:109500006846057069461520FFF798FF68460078A1
:10951000218800020143218038BDF8B505460C467C
:10952000164669460E20FFF789FF6B46187828809B
:1095300069460F20FFF782FF6B46197828880902D9
:109540000843288069461020FFF778FF6B4618789B
:10955000208069461120FFF771FF6B46197820883B
:1095600009020843208069461220FFF767FF6B4617
:109570001878308069461320FFF760FF6B46197832
:109580003088090208433080F8BDF8B506460C461D
:10959000154669460820FFF751FF6846007830708D
:1095A00069460920FFF74AFF68460078207069463F
:1095B0000A20FFF743FF684600782870F8BDF8B529
:1095C00005466C4A0D20107007216B4B6B48FDF768
:1095D0003BFB694C0646A07862780102114368465D
:1095E00001802946FFF712FF2079E278010211433A
:1095F000684601802946FFF709FFA07962790102D8
:109600001143684601802946FFF700FF3046F8BD48
:109610000020704738B5044615460022684602709F
:10962000C9B22020FFF719FF00212120FFF715FF05
:1096300029462020FFF711FF69462720FFF7FEFE8D
:1096400068460178FD2001406000401C0843C1B21B
:109650002720FFF702FF38BD38B504461546002223
:1096600068460270C9B22320FFF7F7FE00212420CC
:10967000FFF7F3FEE9B22520FFF7EFFE00212620D9
:10968000FFF7EBFE69462720FFF7D8FE6846017812
:10969000F7200140E000001D0843C1B22720FFF77A
:1096A000DCFE38BD10B50C468007800F91000843E2
:1096B000C1B22820FFF7D1FE21462920FFF7CDFEB9
:1096C00010BD38B5044600216846017069462C205B
:1096D000FFF7B4FE68460078A1078006800E090EE9
:1096E00001432C20FFF7B9FE38BD38B504460021F0
:1096F0006846017069462C20FFF7A0FE6846007896
:109700006107C008C000490F01432C20FFF7A5FEE8
:1097100038BD52211F20A0E638B504460021684616
:10972000017069462D20FFF789FE684600786100C8
:10973000800880000143C9B22D20FFF78EFE38BD9E
:1097400084212A2089E610B5FFF7E3FF01220021DA
:109750001046FFF75FFF002260210220FFF7A2FF03
:109760000120FFF7AEFF0320FFF7BFFF0120FFF747
:10977000D3FF10BDA4200020AC200020003000400A
:10978000B5200020B42000200A4802680F210A43B7
:1097900002600948804709480047FEE7FEE7FEE708
:1097A000FEE7FEE7FEE7000005480649044A064BCF
:1097B0007047000024050040D5970100C14001001A
:1097C000A0370020A03D0020A037002023492248D8
:1097D0000860704710B500F01DF8002805D0214939
:1097E0001F484860C813204988612048016AC9B2EF
:1097F00001290ED1416A09070BD1816A0906090FB7
:10980000042906D1C06A0006000F02D118490120C0
:10981000886010BD1548016AC9B2012917D1416A93
:10982000090714D1816A09060A0F03D1C26A120618
:10983000120F0ED0090F012903D1C26A1206120FAE
:1098400007D0032903D1C06A0006000F01D0002011
:1098500070470120704700000024F400A821002078
:10986000DFFF07C000050040006C0040C00F00F0A3
:109870000006004038B504460D4601216846817057
:1098800029490180224669460120A0DF002803D132
:109890002946204600F00BF838BD03B581B0012100
:1098A0006A461180408802AB0021A4DF0EBDF0B5EE
:1098B0008FB006460D461C21684604F0D0FD684670
:1098C000017802200143684601700024019403944A
:1098D00004940594012708A80694877013496846E4
:1098E0000184079469780177A9784177807FF9210D
:1098F0000840801CE72108404108490068468177FC
:10990000142109A804F0ABFD08A8099007A80A9043
:1099100068468785C48507860D953088B31C09AADB
:109920006946A2DF0FB0F0BD04180000072A00004E
:109930000A780270497841700220704770B5044679
:109940000D46084604F00AFD2080656070BD0000E9
:1099500038B50B88102B1AD00022112B1AD0502B9F
:1099600017D1C37C002B14D0891D0B880489A34216
:109970000FD10B8B022B0CD1CB7E8C7E1B02234391
:10998000DC07E40F0123002C09D0037508E0898867
:10999000018238BD0021C9430182027538BD0275BC
:1099A0000468002CFAD0CC7E8D7E21022943C907A1
:1099B000C90F01D0009200E0009302686946904709
:1099C00038BDF0B50546C07C002493B00E46002893
:1099D0000CD0012001461031684603940173717B5D
:1099E0004173817BF9221140891C81731C2104A8D9
:1099F00004F035FD6946087C022108436946087475
:109A0000102102460A43EB7CEF21002B01D10840D4
:109A1000024668460274059407940894E87C00287E
:109A200000D003A8099001270A9468468771574A15
:109A300082800094B27B0270F27B42708078F922BF
:109A40001040801CE72210404108490068468170A0
:109A5000317B017214210BA804F001FD01A80B90C9
:109A600068460C908786C486078702A80F90A8894D
:109A70002B1D0BAA04A9A2DF002833D1B06800284F
:109A80002ED068468771424981800094317C0170F4
:109A900000200146684641708078F9210840801C0A
:109AA000E7210840410849006846817011A8B16863
:109AB000FFF73EFF064614210BA804F0D0FC01A8D6
:109AC0000B9068460C908686C486068711A80F9076
:109AD0002A46A8880E320BA9A3DF002802D100E095
