:020000040001F9
:10400000B83F0020F99B01000B9C01000D9C0100B2
:1040100000000000000000000000000000000000A0
:104020000000000000000000000000000F9C0100E4
:104030000000000000000000119C0100139C010022
:10404000159C0100159C0100159C0100159C0100A8
:10405000159C01000000000079BB01001150010017
:10406000159C0100159C0100159C0100074C0100E6
:10407000159C0100159C0100159C0100159C010078
:10408000159C010075C10100159C0100159C0100E3
:104090008BC10100B9B8010065B90100159C010090
:1040A000159C0100159C01000000000000000000AC
:1040B0000000000000000000000000000000000000
:1040C00000F002F800F032F80CA030C808382418CC
:1040D0002D18A246671EAB4654465D46AC4201D140
:1040E00000F024F87E460F3E0FCCB6460126334240
:1040F00000D0FB1AA246AB4633431847E4B5000094
:1041000004B600000023002400250026103A01D345
:1041100078C1FBD8520700D330C100D50B6070477F
:104120001FB5C046C0461FBD10B510BD0BF02EF820
:104130001146FFF7F5FF00F089FD0BF046F803B4D8
:10414000FFF7F2FF03BC0BF04BF80000401E00BF6E
:1041500000BF00BF00BF00BF00BF00BF00BF00BF67
:1041600000BF00BF00BFF1D170470000401E00BF7C
:1041700000BF00BF00BF00BF00BF00BF00BF00BF47
:1041800000BF00BF00BFF1D17047000070B5054609
:104190000C46164602E00FCC0FC5103E102EFAD288
:1041A000082E02D303CC03C5083E042E07D301CC4E
:1041B00001C5361F03E021782970641C6D1C761E32
:1041C000F9D270BD0123FB4CDB04E36007F006F974
:1041D000FA49F948C860BFF3408FFEE710B5F84CC4
:1041E000A06908F042F9002802D1A06908F0C5F8DA
:1041F000032100220904A06908F082F80120207040
:1042000010BD10B5EE4CA06908F0B7F80020207082
:1042100010BD10B5EA48002101704278012A08D18A
:10422000417005F0FFFA022804D000210D2004F0AF
:10423000D4F910BD0121F9E710B5642002F092FE17
:10424000E04806F037FA002802D0DFA2D52106E0C8
:10425000DC4806F039FA002803D0DBA2D821FFF7AA
:10426000B1FF10BD10B5D6490978012917D0817862
:10427000012915D0042912D1007800280FD105F0AA
:10428000E4FA00280BD004F04DFF002807D102F01B
:1042900030F9112803D10021062004F09EF910BD49
:1042A00000780028FBD105F0CAFA0028F7D004F006
:1042B00039FF0028F3D102F01CF91128EFD10021B9
:1042C0000520EAE710B50168002907D0012904D0CC
:1042D000022902D10830FFF7C5FF10BDB8490122FD
:1042E000C8781043C870C14389070DD08007F4D443
:1042F000B448B349008920316EDF0028EDD0FF219A
:10430000B1A23831FFF75EFF0021B54A084607F039
:1043100078FD10BDFF21ACA25731FFF753FF10B558
:10432000A74986B0091DAF4852DF002803D0FF21FE
:10433000A5A2623134E004ACA11CAB4852DF0028D6
:1043400003D0FF21A0A265312AE0A11CA74852DFBB
:10435000002803D0FF219CA2683121E0A11CA448C1
:1043600052DF002803D0FF2197A26B3118E0002014
:10437000029003909F4800909F48019069469148A1
:1043800006F049F9002803D0FF218FA2763107E01B
:104390008C4806F0E5F9002804D0FF218AA2833179
:1043A000FFF710FF06B010BD0A4601469348FFF71D
:1043B00009FF11B58B4991B0487B0A7B010211437B
:1043C000684601807E4902240A7982700C613C2192
:1043D00001A80AF072FD01226846019442728281AE
:1043E00011A80490002168460184099102850B9070
:1043F00001A806F0E0FB002804D0C32172A28900C6
:10440000FFF7E0FE12B010BDF0B589B01421684688
:104410000AF053FD00206946087001900872684C4C
:1044200003902069032650270225002806D0012882
:1044300005D002282ED0032823D134E0256105A819
:1044400008F0BEFC002803D0FF215FA2E7311FE087
:104450006846007E002803D108A80078002808D00C
:104460006846057205A803900420FFF7A2FF2561A6
:1044700000E026616846078214214182012007F08E
:104480003BFA684663DF002819D021214EA20901BA
:10449000FFF798FE0520FFF78CFF6846078228216A
:1044A00041822661EAE70520FFF783FF1921890190
:1044B00068460182B421418202202661DFE709B00B
:1044C000F0BD4F4A0320D0611061D06090604C492C
:1044D000403908624862C8624863C86348615063F3
:1044E00050608862886201213248C9058160C91024
:1044F00081604910816049108160891281604900A2
:10450000816089008160890081608900816020214B
:1045100081600906816009138160C9118160816031
:10452000704708B5374B0093374B0B221021002002
:1045300007F04EFE002803D023A23449FFF742FEC5
:1045400008BD10B504F04CFA10BD10B51C4CE06964
:1045500007F013FFE12100224904E06907F0D0FED3
:1045600010BD10B5164CE06907F007FF05210022C9
:104570000904E06907F0C4FE10BD10B504F04CFA60
:10458000002801D0FFF7E1FF10BD10B501F0B4FF26
:10459000002803D01D490CA2473173E01C4A0121B9
:1045A0001C4807F066FE002836D0184906A24C3198
:1045B00068E00000000500500400FA0500ED00E08E
:1045C00000200020F42B00202E2E5C536F757263A8
:1045D000655C7372635C6D61696E2E630000000040
:1045E00039420100B0F50100C0F50100D0F501002D
:1045F000E0F50100C542010015430100EFBEADDE4C
:10460000400700501B4D0100402500203F020000E4
:1046100019740100E4200020FA4A0021FA4807F04A
:1046200028FE002803D02921F84A09012AE0F84A87
:104630000021F84807F01DFE002802D0F34AF64991
:1046400020E0F448F54A0021083007F012FE002867
:1046500003D0F149ED4A491D14E0EE48F04A00212B
:10466000001D07F006FE002803D01521E74A490186
:1046700008E003F04BFF04F076F9002804D0E64987
:10468000E24A0F31FFF79EFD10BD10B50478E548F2
:10469000214605F080FC00280AD0082808D0E2490D
:1046A000884205D0E149884202D0D84AE04911E069
:1046B000D8481438002C02D00021C16010BDC16858
:1046C000491CC1600329F9DD1521C08866DFD8497E
:1046D000CE4A0C31FFF776FD10B59AB040216846FE
:1046E0000AF0EBFBD3A1684605F060FBD4A108A853
:1046F00005F05CFBD4A102A805F058FBD4A106A8E4
:1047000005F054FB002018A908700120000740693B
:1047100019A90F38C0B206F015FF04F06CF90100BA
:1047200004A81ED0199A002110AB545C5C54491C9B
:10473000C9B22029F9D3194605F038FB01200146FA
:10474000103108A801770020014608A84177684683
:1047500005F0FCFC002806D01B21AC4A4901FFF7FC
:1047600031FDBDA1E8E71AB010BDAB49A74AFC3145
:10477000FFF728FDF8B5A74C03884526BA4DBB4A7C
:10478000F6430021143C172B39D00DDCB84F102B09
:1047900020D0112B3BD0122B31D0132B2FD12246FE
:1047A0002032E0886FDF0EE0192B71D01A2B70D009
:1047B000392B01D0552B22D11170002003F06DFD53
:1047C0001321E08866DF002819D009218F4AC9012A
:1047D000FFF7F8FCA74A1378012B11D00E46E170C1
:1047E000022121618088E08074DFE08873DF258109
:1047F00066704B2101224904386807F081FDF8BD3D
:1048000011709E499C48C860BFF3408FFEE70D467B
:104810001170002003F041FD0020C043E08001F052
:1048200068FE012801D101F02BFD386807F0A5FDD5
:1048300093480178002902D0057001F077FE00F05E
:1048400031FE002801D000F0CFFF01F09CFB0028D2
:1048500017D004F0DFFF002813D004F0E3FF002896
:104860000FD0002004F0D2FF002001F090FB04F0F4
:1048700059FC002805D10820205EB04201DA012051
:104880006070A078002805D0A57008F06FFA08E0E5
:1048900016E021E008F0B3F9002802D05B4A79491C
:1048A00096E708F0B8FB05F05DFF002803D07549D6
:1048B000564A891D8CE7FFF7A7FDFFF78FFCF8BD6F
:1048C000117080790028FAD12069042801D10320D1
:1048D0002061FFF799FDF8BD0627C75704F0A2FF36
:1048E000694800680128F6D10820205EA84201D15D
:1048F000278109E003210AF023FB45000321384604
:104900000AF01EFB2818208104F084FF0028E2D161
:104910000820205EB042DEDD012004F077FFF8BD04
:1049200010B504460088102802D0112802D004E0F7
:10493000032000E0002006F0DFFF3A48214638302F
:1049400005F0FCFD37482146183000F090FC204669
:1049500008F0E6F8204606F09EFA2146314805F0B8
:104960002FFA2046FFF706FF10BD08B5474B2D492B
:104970000093474B502284390D2006F0CBFF0028CE
:1049800004D04049214A6131FFF71CFC08BD10B535
:10499000042804D03B491D4A7531FFF713FC00F091
:1049A00087FD002806D01B4801211438817013218F
:1049B000C08866DF10BD10B504460146194838307E
:1049C00005F0B4FD23680AF055FC03111103110032
:1049D000104902221439C8781043C870C0438007B8
:1049E00004D100212B4A084607F00BFA10BD70B520
:1049F000294802680121D20767D0016084046569F3
:104A0000383D4FE0C5730100F0200020C84501008B
:104A100005580100142000209602000043450100C3
:104A200013420100BC2B00200330000001340000C1
:104A300073050000536D617274204361726500005C
:104A4000332E302E34000000534D412D3034000001
:104A5000312E302E320000003031323334353637CB
:104A60003839616263646500FF0F00001421002083
:104A700068200020702100200400FA0500ED00E00D
:104A800094200020440400004C2000200D4D010023
:104A9000214901003942010000040040E8B206F05B
:104AA0003AFD6D1C60691838A842F7D86569183D51
:104AB00007E060690F38A84202D0E8B206F02BFD8B
:104AC0006D1C60690E38A842F3D80124FD4DA40284
:104AD000EC60FF20913002F045FAAC6070BD002020
:104AE000F94A022183009B181960401C2028F9D341
:104AF000704710B5FFF7E5FC03F03DFF00F090F9BB
:104B0000FFF70FFDF14A1421082007F067F900288C
:104B100004D0FF21EE4A9231FFF754FB00F0F8FA7F
:104B200000F00CFB02F062F910BD00B587B004F094
:104B3000CBFCFFF72AFDE749022007F084F80028A4
:104B400002D0E34AE4494AE001F088FF0022012054
:104B5000000743696946133B0B704069143848707D
:104B6000DE480190DE4802908A70684608F059F9E4
:104B7000002803D0D849D64A153930E0FFF7F5FEB2
:104B800000F0D4F800F008F90520FFF712FC1C2112
:104B900068460AF092F905210904019149100020A4
:104BA00002910090032269460A73C88101220A74A7
:104BB0000590CC480690684606F013F9002802D00C
:104BC000C34AC9490BE000F019F9C84A0521012080
:104BD00006F07CFE002804D0BF49BD4A0839FFF723
:104BE000F1FA002006F088FE00F014FE01F0CBFC84
:104BF000002806D0002001F096FC02F051F907B021
:104C000000BD0120F7E7BA4900200860B94901203A
:104C10004860B94900048860B8494011086070478D
:104C200010B500F0FDF80120B44AC102803A1160CD
:104C3000B44AB3499160B34A082140321160AE4A88
:104C400001045160AB49086030BF10BDFFF747FF5A
:104C5000FFF7E6FF9C49AC481C310860994C802066
:104C6000A060FFF746FF0125AD04E560FF26F5369D
:104C7000304602F077F9A560304602F073F96D0115
:104C8000E560304602F06EF9A560304602F06AF940
:104C9000ED13E560304602F065F9A56003F0B1FF61
:104CA000FFF7A5FEFFF741FF06F0F0F900280DD150
:104CB00004F08CFB01F034FC002807D004F0B1FCB8
:104CC00004F010FD04F059FD02F045FB02F0BFFDB9
:104CD00002F010FE03F0A6FB03F0DAFB02F046FD43
:104CE00002F026FAFFF790FB06F0F0FEFFF745FC16
:104CF00004F0F4FB07F0FAF804F0F4FB3DDF0028C1
:104D0000F8D07549724A3C31FFF75CFA10B50021C2
:104D10007E4A084607F075F810BD1CB50191009059
:104D20007B4A0821684607F06CF81CBD0EB51120BF
:104D300069460872042277A102A86CDF002803D01C
:104D40005721634AC90024E00920800168DF002858
:104D500003D06D495E4ABA311BE00021FF2000916B
:104D600041306A4601911080FF209130508091803F
:104D7000D08068466ADF002803D06349544AC431B2
:104D800007E00320C04367DF002804D05921504AC0
:104D9000C900FFF717FA0EBD08B5FFF7C0FA0020EB
:104DA0000090FC21684601700120014620316846D0
:104DB00041700020014668468170464869462830A7
:104DC00004F090FF002803D04749414A8B3910E096
:104DD00000F047F85248514941605249016001468C
:104DE0003C484C3000F0CBFA002804D03E49384A09
:104DF0003A39FFF7E7F9FFF76FFC08BD48491E2075
:104E000008390880887801221043E12210400C30D4
:104E1000DF22104088700720C8701020087170478A
:104E2000414901208861414900224A608307986016
:104E30004A60704710B5002904D03DA275210020BA
:104E4000FFF7C0F906F07AFD10BD0246082905D02B
:104E5000FF2142A216310020FFF7B4F91168506813
:104E6000084700B585B0142168460AF026F80021ED
:104E7000684600910171029164210173012001468D
:104E80001031684641730120014610316846817334
:104E9000002001466846C173012001461031684672
:104EA00001740C486946343005F056F8002804D0E7
:104EB0000D49074A7239FFF785F9334800F030F998
:104EC00005B000BD0005005000070050F023002091
:104ED000C8450100882B002022050000B7490100C9
:104EE0008F4901006B470100A9030000E3B70100EF
:104EF00040B1004000B0004000B3004080E100E05D
:104F0000FF0F000000B5004001020000354E010017
:104F10004B4E0100534D3034000000003D5E010057
:104F200028200020975F010000050040000100409C
:104F30002E2E5C6E726635313832325C496E636C8F
:104F40007564655C626C655C626C655F73746163FB
:104F50006B5F68616E646C65722E68002E2E5C6EED
:104F6000726635313832325C496E636C7564655CEB
:104F70006170705F636F6D6D6F6E5C6170705F7498
:104F8000696D65722E6800008B460100A049884259
:104F900001D3642070479E493239884201D95F208D
:104FA00070479B496439884201D95A207047984913
:104FB0009639884201D950207047AF2109018842B3
:104FC00001D9462070479249FA39884201D93C20DC
:104FD00070479049884201D9322070478D49323953
:104FE000884201D9282070478A496439884201D90A
:104FF0001E20704787499639884201D9142070478E
:105000008449C839884201D90A2070470120704775
:1050100070B5814801680024804D00291DD00460CE
:10502000A8687F4A01215160E121090148437D4977
:1050300009F07CFF7C4A80B25080FFF7A7FF107018
:105040005268002A09D00121774806F0DAFE0028CC
:1050500003D076A2E321FFF7B5F82C6070BD6F494D
:10506000012008606C4A002111606D49086070479A
:1050700070B50546FFF7F3FF0A2001F073FF664C99
:1050800002E00A2001F06EFF20680028F9D000201D
:10509000206062488068624A01215160E121090173
:1050A0004843604909F042FF288070BD66490120ED
:1050B0004860664801680902090A02071143016055
:1050C0006349802008607047F1B55F48002747605A
:1050D0005F4901258020803108604F4C2760504E89
:1050E0007560FFF7BCFF0A2001F03CFF2068002834
:1050F000F9D02760494880687560E121090148437B
:10510000484909F013FF00990880FFF7CFFFF8BD69
:1051100042495048486040490020086070479EE777
:1051200010B5414A50605088FFF730FF1070526848
:10513000002A02D001213C48904710BD10B53A48E2
:105140004088002803D13848801CFFF791FF33497D
:1051500000200860FFF7AAFF33483F4A01210830CA
:1051600007F087F8002804D0FF2130A27831FFF73C
:1051700029F810BD3948807C7047014610B52A488F
:105180000022806807F0BCF8002804D0FF2127A285
:105190008B31FFF717F810BD10B52348806807F072
:1051A000ECF8002804D0FF2120A29431FFF70AF880
:1051B00010BD70B501200024C003FFF7DEFF1A4DBB
:1051C000274E6888B04201D3012406E030BF06F0C4
:1051D0008DFE03F02AFB0028F3D1FFF7DDFF204608
:1051E00070BD0EB51F4802210170002141700922D7
:1051F0008270C170012202710B4A127842710191D2
:105200000090062069460881684600F098FB0EBDB4
:10521000B80B00008C0A00000071004000750040CF
:1052200000700040FF030000302000202E2E5C5351
:105230006F757263655C7372635C62645F626174F4
:10524000746572792E6300000073004004E400E08E
:1052500000E100E0028000001F510100BC2B002093
:1052600098080000142C00208C4B07C3704710B521
:105270000B88012B2ED0102B16D00022112B1AD008
:10528000502B10D1891D0B88048AA34202D10C8BAC
:10529000022C17D08288934205D18369002B02D05B
:1052A0000A8B1A31984710BD89888182C06900280D
:1052B000F9D0804710BD0021C9438182827500F07A
:1052C0006AFE10BD498B012901D0827510BD0121F4
:1052D000817510BD71480268002AFAD08168406863
:1052E000904710BD70B500240546601C90B00007C3
:1052F000000F08A9103008940870601C0007000F08
:10530000103048708878F9263040801C88701C2145
:1053100001A809F0D2FD69460879102108436946C1
:105320000871029408A804940594079406902878BC
:1053300008A98871032069468884112000940870A8
:1053400048708878E7213040801C084001263043AF
:105350006946887014210AA809F0AFFD09A80A90CF
:1053600068460B9069460E8614204C8688862B462C
:1053700068880C330AAA01A9A2DF10B070BD30B54D
:10538000474B04460D460FCB85B003936B4607C3CE
:105390000020C043A0826868A0612868E061002006
:1053A000A0752146684652DF002815D1217868464D
:1053B000817401210182A21C04A90120A0DF002820
:1053C0000AD129462046FFF78DFF002804D129463F
:1053D000204600F01FF8002805B030BD1FB5837DC2
:1053E000002B05D01388142B04D9072004B010BD5E
:1053F0000820FBE700230093019302930393848921
:105400006B461C800391029201219970808A694643
:10541000A6DFEBE770B58EB005461C21684609F0A3
:105420004CFD68460178082001436846017000245D
:1054300001940394049405940694297808A8817033
:10544000022168460184601C0107090F103168467B
:105450000794017701200146103168464177817F2A
:10546000F9200140891CE7200140012631436846AC
:105470008177142109A809F020FD08A8099007A840
:105480000A90684686851421C485018668882B1D8C
:1054900009AA6946A2DF0EB070BD0000082C0020EA
:1054A00090F20100FF4800787047FE49087070478D
:1054B000FD49FE4A09880120914200D10020704731
:1054C000F7B582B002980C461546002804D1FF209B
:1054D000F7A1D230FEF768FF042C04D0FF20F4A11E
:1054E000D330FEF761FFEF4C2646A0683036002827
:1054F00004D0022804D001280CD00DE0A5600BE0F8
:10550000012D09D1B088012806D102980068A06158
:1055100001200FE0022D0CD0002069460880A06811
:1055200002280AD0002806D002980568002D49D12B
:1055300050E00220E06005B0F0BDDA481430C178D8
:105540000129F8D10288807801282DD00023D5497F
:10555000AB20383108706846007910250009000139
:105560002843DF25284001256B405B011843830653
:105570009B0E684603714B7000274F8050BA8F8096
:10558000C8800822684602806A46D348FFF726FF93
:1055900000280BD0D149884215D1C249D0481431D6
:1055A0000222FFF761FEC6E70123D0E7BD48A760EE
:1055B0001430C770E0680128BDD1A569002DBAD0AC
:1055C000E760A0607AE00020B649A0601431E06096
:1055D000C870B0E7B6A1C348FEF7E6FE6EE0B14979
:1055E000082040316A461080012716E068890028AB
:1055F000A1D02868002804D1BA48ADA11530FEF723
:10560000D3FE68891421142800D801466A46118007
:1056100029892A680227081A81186A46AE48FFF7C6
:10562000DDFE00280ED0AD4988424BD1AC4829465A
:105630000122FFF719FE01212A468904606A06F05B
:105640005FFE78E7002F39D0012F04D0022F0AD057
:10565000032F33D12AE0B08801282FD10020B08059
:10566000206460642AE0694668890988401A000459
:10567000000C688122D100273A4639463846FFF7A8
:10568000F3FDA7600121E5612A468904606A06F0FE
:1056900037FEE068022811D182481430C078012812
:1056A0000CD10220A0600020E06038E77D48143073
:1056B000C178012902D10021A160C170B088012800
:1056C00094D18CE700273A4639463846FFF7CCFD9F
:1056D000A7606968002902D0AF7300208847E0689E
:1056E0000228AED1E760A06019E738B504000D4686
:1056F00004D1FF206EA1B930FEF756FE012D08D06F
:10570000022D05D10222009404216846FFF7D8FE3D
:1057100038BD00946089002803D06248406A06F0D2
:105720002CFE0122F0E770B5040024D05D4DAB20C3
:1057300040352870002068702289100AA870EA702D
:105740000020216803F080F8010A29715549687129
:105750004888020AAA71E87122896281A081401CEE
:105760004880284601211038818004602046FFF7D8
:10577000BCFF002070BD072070BD70B50446807B63
:1057800000281BD06089002809D1E07B032806D2BD
:10579000401CE0732046FFF7C6FF00280ED000250E
:1057A0002A4629462846FFF75FFD3E488560C560CA
:1057B000A5736168002901D00020884770BD0021D1
:1057C0000160704710B5002809D0012806D136487D
:1057D00036490088884201D0132166DF10BD00F0F1
:1057E0004FFD00F019FF10BD01F062FD01F033FB29
:1057F00005F0F2FD012039DF3C493B48C860BFF3AA
:10580000408FFEE7274901200870274813210088B0
:1058100066DF704710B5364800218173C173214897
:10582000344A243006F025FD002804D0FF2120A2B0
:105830002531FEF7C7FC1B482F4A0021283006F00F
:1058400018FD002804D0FF2119A22831FEF7BAFC68
:1058500014482A4A00212C3006F00BFD002804D001
:10586000FF2113A22B31FEF7ADFC002010BD70B557
:105870000C4D0E46E969002960D0898981425DD1CD
:10588000686A06F07AFD0024002E39D0E869C17BF1
:10589000032941D3224621462046FFF7E5FCAC60B0
:1058A000EC6044E03C20002006200020FFFF0000C8
:1058B0002E2E5C536F757263655C7372635C6264F9
:1058C0005F636F6D6D756E69636174655F70726F34
:1058D000746F636F6C2E6300D42B002003300000C4
:1058E000EB5601001E0200000400FA0500ED00E086
:1058F000DC2C00207B570100BF570100C557010079
:10590000224621462046FFF7AFFCE86984734168D0
:10591000002913D0012010E0491CC173FFF703FFD9
:1059200000280BD0224621462046FFF79DFCE8695F
:1059300084734168002901D00020884770BDF8B504
:10594000040006D0FB4F0026B87B002803D00420BB
:10595000F8BD0720F8BD0120B873F74DAB202870C3
:105960006E702289100AA870EA700020216802F087
:105970006BFF010A29712A466871403A5188080A6A
:10598000A871E97163687B6023683B6023893B8170
:1059900023897B81FE73B981491C518029460122EC
:1059A00010398A800F6038461146FFF79EFE0020AE
:1059B000F8BD7047F8B50025062812D004DC002891
:1059C00009D0012804D106E0092816D00A2828D0D9
:1059D00007252846F8BD002AFBD1002002F0A8FACE
:1059E000F7E7012AF5D10978D448012902D000212E
:1059F0000170EEE701210170EFE70C2AE9D1887808
:105A0000CA78000210434A78120402430878040658
:105A1000144303F00EFFA042DBD0204603F006FF44
:105A2000D7E70A2AD5D1087800908878CA78000686
:105A30001204024308794C79000210430443887928
:105A4000CA7900020243087A4F7A03024E781F4354
:105A5000104601F033FBBA493846484301F031FBA8
:105A60000A20604301F030FB009801F030FB304623
:105A700001F038FBADE7F0B50346002585B00C46D4
:105A80001046082B7ED006DC09F0F4FB0711143910
:105A900086118B9E1100212B75D004DC102B73D046
:105AA000202B04D1BBE0262B6FD0272B6ED00725EF
:105AB000284640E5042A6AD100F0FAFEA178E6788B
:105AC00009020E436178C07809040E432178090663
:105AD0000E43B102C90E884205D0002003F0A6FE95
:105AE000002001F022FE304601F038F800F018FDE9
:105AF0000028DDD001F0D9FB00286FD0D8E70521C0
:105B000009F014FA00296CD1C0B20090082801D91C
:105B10000820009003F00FFD002630E0B00032189E
:105B2000A05C0021121994460291039052780B0652
:105B3000170A3B4312061143184362460291039031
:105B400092780023170C1B043B43120411431843A3
:105B5000624602910390D2780023170E1B021202B4
:105B60003B43114318436246029103901279304639
:105B70001143029102A903F0EFFC761CF6B20098E3
:105B8000864205E025E05CE029E08BE091E028E03A
:105B9000C4D303F009FD8BE7002A22D101F05DF8A0
:105BA00086E7042A1DD1A178E078627809020143D2
:105BB000207812040A430006104300D1604803F025
:105BC000BEFD03F0C5FD73E7002A97D101F0ACF8E4
:105BD0006EE7002A92D1FFF704FB69E71CE0042A74
:105BE00001D0092564E700200090E0780090A178BA
:105BF0000902084300906178090408430090217865
:105C0000090608430090684603F035FD03F03DFDAA
:105C100001F07EF80028BED001F09DFB48E7012A84
:105C2000B9D108780407240F022CB4D8204603F019
:105C3000F5FD002C03D0012003F0E8FD38E700203B
:105C4000FAE7082AA7D1002000900190E07900210E
:105C500001910090A2791302DA17184311430191C0
:105C6000009062791204D3171043194301910090F8
:105C700022791206D3171043194301910090E2785C
:105C8000684611430191A278120211430191627892
:105C9000120411430191227812061143019103F07D
:105CA00039FC76E70878002800D0012003F0C4FD15
:105CB000FEE60878002800D0012003F0C3FDF7E6D7
:105CC00010B5012000F02FFC002003F097FD00200C
:105CD00003F0ACFD01F0ECFA03F087FD01F058FB96
:105CE00010BD3EB5134A0123C83A13700023537008
:105CF00002249470D3701471507191710720694619
:105D00000193009208816846FFF719FE3EBDF7B582
:105D10000D46002816D0002D14D00278411C042A0C
:105D200037D011DC012A16D0022A25D0032A73D1DC
:105D300015E00000DC2C00207C2000201421002035
:105D4000102700000720FEBD052A2FD0062A50D0BC
:105D5000FF2A61D137E0807800F0DDF95CE0CA7895
:105D60008C781102214349BACA058378411DD20DAE
:105D7000184600F07BF94FE0CA788C781102214375
:105D800049BACA058378411DD20D1846FFF773FE44
:105D900042E0CA788C781102214349BACA05837857
:105DA000411DD20D184600F02CF935E0CA788C78E8
:105DB0001102214349BACA058378411DD20D184604
:105DC000FFF7F8FD28E0012D26D1C078012804D086
:105DD000022805D003281FD105E00122114604E066
:105DE0000122022101E001220321032000F079FBBE
:105DF00012E00526841C0DE06078A17800024018AE
:105E000087B23946204603F0A0F8E419E41CF019E3
:105E1000C01C86B2A81BEFD502980021016008467D
:105E2000FEBD10B5E04A917010800120D0700221B3
:105E30001046FFF75AFC002010BD7047FEB5DA4C43
:105E40000F46143C1646A06A06F00FFB002802D14C
:105E5000A06A06F092FAD548226A01460831002568
:105E60000091002A12D0012A44D0022A0DD178785C
:105E70006A46C106107108D58006C10FF879BA7953
:105E80000002104340BAFFF7F2FCFEBD3978AB299F
:105E9000FBD105463246394608F0B0FFA680698836
:105EA00048BA0830801B00B2E08000281FDC687808
:105EB0006B46C206187103D58006C10FE888E1E77A
:105EC000022000262062A680A88849BA8AB240BA79
:105ED000009900F05EF9002802D02662E88833E0DD
:105EE000E888012140BAFFF79CFF68883CE0012068
:105EF000206240E0AD49A08801900818324639463A
:105F000008F07CFF01988019A080E088801B00B217
:105F1000E08000282FDCA54E6A4670781071C1061B
:105F200004D58006C10F2562F088ABE7022020620D
:105F3000A5807188B0884ABA40BA009900F029F962
:105F400000280BD02562F088002140BAFFF769FFD6
:105F50000021974A084605F054FFFEBDF088012154
:105F600040BAFFF75EFF70888F4A41BA0C32009842
:105F7000FFF7CDFEFEBD8C4A01210C328904A06AD8
:105F800006F0BEF9FEBD884814384078704786494F
:105F900014394870704770B50024204622462146C7
:105FA000FFF762F9804D143D2869012800D168701F
:105FB0002C61AC617D48AC601038EC608473C473B4
:105FC000E869002805D084734168002901D00020C9
:105FD00088472C62AC807448EC8004804480686AF6
:105FE00006F043FA002802D1686A06F0C6F9A86AEA
:105FF00006F03BFA002802D1A86A06F0BEF900209C
:1060000070BD10B5002420281FD008DC012811D055
:10601000022812D0032810D0042808D112E0212829
:1060200016D0302817D0312818D0412819D007248D
:10603000204610BD0021052015E002F088FC00F08C
:106040001FF9F5E7002106200DE0002107200AE0F6
:106050000021082007E00021092004E000210A2097
:1060600001E000210B2002F0B8FAE1E7F7B54E4C51
:106070000546143C0027E06A0E46012D08D0032D8A
:1060800001D106F07AF9032D20D0062D41D13CE054
:1060900006F073F90298202815D1002E13D0FFF7CF
:1060A00069F80A280FD320223146424808F0A6FE9C
:1060B0000F2100224904E06A06F022F900210120A4
:1060C00002F08BFA25E000F0A7FA22E002982028DF
:1060D00007D1002E05D02021304600F0D4FA070069
:1060E00008D000F020FB4B2101224904E06A06F0B1
:1060F00007F90EE003F0DFF9002801D102F0D9FF23
:1061000000F0FCFA0120206103E02B4813210088F5
:1061100066DF3846FEBD3EB50124012818D011289F
:1061200015D122480021D8380470417012228270A3
:10613000C1700422027144718471C47104720191AE
:1061400000900920694608816846FFF7F8FB3EBDCC
:1061500002F0EEF90546012002F0E7F9FFF70AF830
:10616000142807D201210846FFF7BBFD284602F09C
:10617000DCF93EBD00210846FFF7B3FD0A480521C2
:10618000143804700D480022C903006806F0B8F8FE
:106190003EBD10B50446002002F056FBA04201D1DE
:1061A000002010BD0B2010BD50200020EC2C002042
:1061B0003B5E0100502D002006200020142000200E
:1061C0000EB522490968012911D1214907220A7017
:1061D00000224A7001238B70CA700B7148710091C4
:1061E00006200192694608816846FFF7A8FB0EBDAC
:1061F00010B504290BD10068012809D0022806D166
:1062000000F077F901280BD00220FFF7D9FF10BD6D
:106210000120FFF7D5FF0021112002F0DEF910BDAB
:1062200000F010FA10BD10B5042907D1006801284C
:1062300005D0022802D11220FFF7C2FF10BD1120A5
:10624000FFF7BEFF02F041FA10BD00004C20002015
:10625000142C002070B50021AB4BAC4C012205463C
:10626000CD40ED07ED0F5D5C164602D0AE40E66016
:1062700001E0AE40A660491CC9B20E29EFD370BD43
:1062800010B5A34CE06806F078F8FF20A06000206D
:10629000A080112020700020FFF7DCFF10BD70B53A
:1062A0009B4DAB68132B7AD00CDC08F0E3FF133F57
:1062B00034383B3F4245484B4E55585B5E61646EF7
:1062C0007275A3001D2B26D008DC143B08F0D2FF0A
:1062D000096A6D7073767B7E81849200222B7ED05A
:1062E00008DC1E2B0DD01F2B0ED0202B10D0212B05
:1062F00068D143E0232B0ED0242B42D0642B79D1DC
:1063000026E0814C7E3C01E07F4C7A3C022169E032
:106310007D4C0E3401E07C4C26340C2162E07A4C3A
:106320003E34FAE7784C563405215BE0764C763CF7
:10633000ECE7754C723CE9E7734C6E3CE6E7724C57
:106340006A3CE3E7704C663CE0E76F4C623CDDE79B
:106350006D4C803C012145E06B4C323CD6E76A4CE9
:106360002E3CD3E7684C2A3CD0E7674C263CCDE76F
:10637000654C223CCAE7644C1E3CC7E7624C1A3CA1
:10638000C4E7614C163CC1E709E05F4C083C0421BE
:1063900028E05D4C123CB9E75B4C5E3CB6E75A4CDA
:1063A0005A3CB3E7584C563CB0E7574C523CADE72B
:1063B000554C4E3CAAE7544C4A3CA7E7524C463C4D
:1063C000A4E70CE016E0504C423C9FE74E4C3E3CAC
:1063D0009CE74D4C3A3C99E74B4C363C96E74A4C8F
:1063E0000E3C0321002C05D0A8886A88904204D373
:1063F000002A02D0FFF744FF70BD08F097FD480067
:10640000205AFFF727FFA888401CA88070BDF8B568
:1064100007463F4C0020A080A7600D461646E06866
:1064200006F023F8002802D1E06805F0A6FF29460F
:106430000C2268045143000C89B2132F28D00DDCC4
:106440003B4608F017FF1325272729252525252555
:10645000252525252525253825252C001D2F19D056
:1064600003DC143F082F1AD812E0222F25D008DCB5
:106470001E2F0DD01F2F0BD0202F0BD0212F0ED170
:1064800006E0232F06D0242F02D0642F07D105E089
:10649000608004E0618002E0A8000FE06580A068F1
:1064A000FF2807D00020FFF7FAFE00223146E068FF
:1064B00005F026FFF8BDA800EAE768002818E7E71E
:1064C00070B50C46154612491A460B78984206D804
:1064D000087029462046FFF79AFF012070BD002072
:1064E00070BD082803D00A2801D00A4BE8E70A4B00
:1064F000FCE7074800787047054810B5074A0121B6
:106500000C3005F0B6FE10BD20F301000005005070
:1065100084200020333300009A1900009F6201009C
:106520008B48407870478A49487070471CB50022F4
:106530001146104604F092FF6946012408802407A2
:10654000606901A91238C0B204F0FCFF002819D11B
:1065500060691238C0B204F0DEFF019808227D495C
:10656000001D04F0C6FF00280CD16A46202179489E
:1065700004F074FF6946088077494118019804F0D7
:10658000B3FF00281CBD1CB500221146104604F0C4
:1065900065FF6946088001200007406901A912389B
:1065A000C0B204F0CFFF002815D101996B4B0868E9
:1065B000020C9A4210D184B22022091D6548FDF7D1
:1065C000E5FD6A462021634804F048FF69460880DB
:1065D000A04203D100201CBD401C01D00B201CBDDB
:1065E00005201CBD0EB55E480321017000214170DD
:1065F00002228270C17001220271417101910090EA
:106600000620694608816846FFF799F90EBD55488E
:106610001321008866DF70470EB5514803210170D1
:106620000021417002228270C1700121017141710B
:106630004D49019100900620694608816846FFF7A0
:106640007EF90EBD10B54948006805F096FE404839
:106650000124047001F0EBF8FFF712FEFFF7C2FF10
:106660000021022001F0B9FF41480460FFF728FB38
:1066700002F0D2F9002805D03E48006805F07DFE02
:1066800002F076FB10BDFEB506000D4601D0202DB0
:1066900001D00720FEBD00221146104604F0DEFEA8
:1066A0006946088001200007406901A91238C0B27C
:1066B00004F048FF0400EDD10198284A0368190C42
:1066C00091420AD19FB26A462021001D04F0C6FE05
:1066D00069460880B84202D105E05B1C01D00B205E
:1066E000FEBD0520FEBD01992A46091D304608F071
:1066F0003BFB002800D00B242046FEBD0EB51848F9
:10670000032101700021417004228270C1700122B6
:106710000271417101910090062069460881684626
:10672000FFF70DF90EBD0EB50D48032101700021D4
:10673000417004228270C170012202714271019184
:1067400000900620694608816846FFF7F8F80EBDFC
:1067500094200020502D00200000DE45DE45000082
:10676000142C0020062000200F6601006820002065
:106770004C2000201C20002002461F20012907D0A9
:10678000062901D9491EC9B2C90700D01E20704789
:106790001C32D0B27047F8B504460846FF4908F0ED
:1067A000C5FB0D4606463C21284608F0BFFB21717B
:1067B000E1210901284608F0B9FB054608463C21BD
:1067C00008F0B4FB6071A5717D200001B5B2208096
:1067D0000FE0002F26D06421304608F0A7FB0029E7
:1067E00001D0B0071ED0FF206E30281A761C85B26B
:1067F00026802088FF210646913108F097FB0F0084
:1068000013D06421304608F091FB002901D0B00775
:106810000BD0FF206E30A842DBD90020FF27A070EC
:1068200091371DE0FF206F30DFE7FF206F30F2E788
:1068300020883946064608F079FB002927D06421D4
:10684000304608F073FB002901D0B0071FD00020AC
:10685000A178FFF791FF281A85B2A078401CA0709C
:1068600020883946064608F061FB002911D06421D2
:10687000304608F05BFB002901D0B00709D00020AA
:10688000A178FFF779FFA842D2D9E570F8BD0120C1
:10689000DEE70120F4E710B5C04908F047FB072107
:1068A00008F044FB481D072108F040FB084610BDD6
:1068B00010B5BB48C1681030FFF76DFFB848103005
:1068C0008178491C8170C178491CC17010BD70B5B8
:1068D000FFF7EEFF0446002549E0284602F034FEAB
:1068E0000068A179C001C00E88423ED1284602F05E
:1068F0002BFE00680003810E6079814235D1A848E3
:10690000C068FFF7C8FF0646284602F01DFE006873
:106910000121B1400840400623D1284602F014FE70
:106920000068E1788000C00E88421ED1284602F03F
:106930000BFE01684068890880070843A178000FB2
:10694000884212D1284602F0FFFD01684068090A1A
:10695000000608437D21800E0901401821888842E5
:1069600003D100210C2001F038FE6D1CEDB202F0C5
:10697000DFFDA842B1D870BDF8B502F0D6FD0646DD
:10698000FFF796FF054630687168020E0802104353
:10699000000E012829D1824CE068FFF77CFF0246F7
:1069A000A8790027002804D16979002901D127603E
:1069B0006760012393403168DAB2114215D00A02B0
:1069C000120E824211D80A04120E82420DD33C22CA
:1069D00050436A79090E801808F0A8FA002905D0FA
:1069E00002F027FF6168401A2060F8BD03CE020C58
:1069F000080410432168000C884203D900210E20AE
:106A000001F0EBFD276002F014FF6060F8BD10B5E7
:106A1000634CE068401CE06002F064FD3C21E068EB
:106A200008F084FA0C0001D01E2C16D1FFF761FD8E
:106A3000112805D101F0A3FF002801D1FEF70FFBBB
:106A4000002C0AD100F031FC002806D0FFF73FFFF0
:106A5000FFF792FF002000F022FE10BD10B5504855
:106A60007D2109011030018000218170C170817188
:106A7000417101714A4C4B4AE1600121083805F02F
:106A8000F8FB002804D0FF2147A21531FDF79AFB3F
:106A900001210022C903A06805F032FC002804D0BF
:106AA000FF2141A21731FDF78DFB10BDF8B504465B
:106AB00081060005800E3C225043890E4118E003F8
:106AC000E122C00E1201504345187D20A70E00019F
:106AD0003818FF2100269131009008F027FA00298C
:106AE00013D06421009808F021FA002901D0B807DA
:106AF0000BD00023A0022949C00E48434942401947
:106B00004518A001040F641E09E00123F2E7F1B269
:106B10001846FFF731FE214948434519761CB44217
:106B2000F5D8002414E07D200001FF2120189131C8
:106B3000064608F0FBF900290ED06421304608F023
:106B4000F5F9002901D0A00706D020482D18641CB3
:106B5000A742E8D82846F8BD1D48F7E7F8B504462F
:106B600081060005800E3C225043890E4118E00347
:106B7000E122C00E1201504345187D20A70E0001EE
:106B80003818FF2100269131009008F0CFF9002934
:106B900030D06421009808F0C9F91BE08051010051
:106BA000982000200F6A01002E2E5C536F757263CF
:106BB000655C7372635C62645F77616C6C5F636C6D
:106BC0006F636B5F74696D65722E63008033E101E2
:106BD0000085E201002901D0B8070BD00023A002F4
:106BE0007C49C00E4843494240194518A001040F92
:106BF000641E09E00123F2E7F1B21846FFF7BCFD7D
:106C0000744948434519761CB442F5D8002414E071
:106C10007D200001FF2120189131064608F086F9F9
:106C2000002918D06421304608F080F9002901D0ED
:106C3000A00710D068482D18641CA742E8D8674CFC
:106C4000E560A06805F099FB01210022C903A06856
:106C500005F056FBF8BD6248EDE7FEB5614D022038
:106C6000287000266E700420A870EE7002F060FCA0
:106C700081004018287100242CE0204602F064FCBA
:106C8000A100611840684F197871204602F05CFC41
:106C9000014600684968000E09020843B8712046A1
:106CA00002F052FC014600684968000C09040843E0
:106CB000F871204602F048FC014600684968000A65
:106CC000090608433872204602F03EFC0068641C46
:106CD0007872E4B202F02CFCA042CED80196009566
:106CE00028796946401D08816846FEF728FEFEBDEA
:106CF0003A48C068704710B5384CE060A06805F0AD
:106D00003CFB01210022C903A06805F0F9FA10BD7F
:106D100010B5FFF7CDFD00887D210901884201D122
:106D2000002010BD012010BD3EB52E4C0220207069
:106D3000002565700720A070E57004202071FFF722
:106D4000B7FD0279B10992068901920E11433F22E3
:106D50009201914342799206120D11431F221203B0
:106D600091438279D206D20B11431F2252049143E0
:106D7000C278D206920A11430F229205914382787B
:106D80000088920511430322890180069207890930
:106D900080180143080E6071080CA071080AE071A8
:106DA00021720195009420796946401D088168464A
:106DB000FEF7C5FD3EBD10B50848806805F0DDFA58
:106DC000002804D0FF21084AD631FDF7FBF910BD99
:106DD00070470000805101008033E10198200020BD
:106DE0000085E201142C0020A86B010070B5524907
:106DF00001260420504C10310860091F0860091F4B
:106E00000860091F086020604B4D783528607D20A0
:106E1000C00000F0A7F84948206028604848866014
:106E2000C82000F09FF800221146104600F0A8F894
:106E300000280FD0002000F009F902F06EFDF228C2
:106E400003D040A1EE20FDF7AFFA02F0B4FE00201F
:106E500000F014F970BD10B5002000F0F7F802F052
:106E600090FE002000F00AF910BD10B5002000F0DF
:106E7000EDF8002000F002F910BD10B5002000F080
:106E8000E5F8002000F0FAF810BD10B5002000F081
:106E9000DDF8002002F078FE002000F0EFF810BDD1
:106EA00010B5002000F0D2F8012002F06DFE0020A5
:106EB00000F0E4F810BD10B5002000F0C7F8012480
:106EC000002000F0DBF8204610BD10B5044600207D
:106ED00000F0BCF8204600F004F8002000F0CEF8E6
:106EE00010BDF1B5002482B0254602F02CFD40070C
:106EF0001FD51B4E2025684602F099FD6846018883
:106F00000E2041436846018042880E204243684675
:106F1000428083880E2043436846838020460627AC
:106F2000784331528019641C4280E4B28380AC42C1
:106F3000E1D302980570FEBD000700500102000079
:106F4000000500502E2E5C536F757263655C737282
:106F5000635C62645F68616C5F6163632E63000001
:106F6000702D002070B50446044D03E0641E2846D1
:106F7000FDF7ECF8002CF9D170BD0000E70300002C
:106F800070B505460524484824020123002D01D090
:106F900046480AE004260519AE600326EE60022684
:106FA0002E61434DAE60434D2B600125AD070419A2
:106FB0006562002906D0012910D0022910D00329CA
:106FC00010D000211524A401002A00D01943021971
:106FD00051610022FF2109310A5070BD0221F1E701
:106FE0000421EFE70621EDE7F0B506468C460025C3
:106FF000964601202E4902222F46CA60F41D09152B
:10700000F93471181AE07246D25DCA61032636035C
:1070100000E06D1CA268002A01D1B542F9D3B54247
:1070200005D101218140224881600020F0BD00226D
:10703000A2608A693E467F1CBFB29A556745E2D37B
:10704000012181401A4881600120F0BD0121184BC7
:107050008A079A60144A002801D0144A09E01648A9
:107060000160001F0160144B0020083B1860181FCE
:107070000160052000021018016070470A4A0028CC
:1070800001D00A4A06E00C49022010390861C860A4
:10709000886048600521002009025118086001201D
:1070A00003498007C860704700300040004000403E
:1070B00000050050C420002010070050FF49C88080
:1070C0007047FE4948617047FC498861704710B5B8
:1070D000FA4BFB4C4033596880072140C00A0143FA
:1070E000596010BD10B5F54B782440335968E4431E
:1070F00000072140400E0143596010BDEF48C08891
:107100007047EE4840697047EC488069704710B599
:10711000EA4C207800280AD0E06905F02EF9002812
:1071200003D0E8A29F21FDF74DF80020207010BD8C
:1071300010B5E24C207800280CD10022E949E06922
:1071400005F0DEF8002803D0DEA2AE21FDF73AF804
:107150000120207010BD10B5D848018943890A4626
:10716000994200D81946C1818489A14200D821469C
:10717000C181914201D1002010BD994201D101206D
:1071800010BD022010BDF8B506460068022803D0E5
:10719000CCA1C720FDF708F97268002A5BDDC74C57
:1071A000E18820462030002902D143785B1C4370DF
:1071B00043780125002B00D145705018E08002F083
:1071C00038FB7168401802F031FBB068002802DD1E
:1071D0006169401860613069002802DDA1694018CA
:1071E000A061F068002804D0012806D002280BD145
:1071F00007E02089401C208106E06089401C6081F6
:1072000002E0A089401CA081FFF7A5FFAB4BAC4E6C
:107210004033596880073140C00A0143B248002614
:107220000140E0880005400B0143596002F001FB7A
:10723000074602F081FA874202D3A07800280BD0DB
:1072400002F0F7FA054602F077FA854200D2A670FE
:10725000002000F06DFEF8BDA5700021102001F0A7
:10726000BCF9F5E710B504460068012804D0FF20FA
:1072700094A10330FDF798F890496068C8702046E3
:1072800001F05DF8002000F053FE10BD10B504467B
:107290000068022802D12046FFF775FF2068012808
:1072A00002D12046FFF7DEFF10BD844840787047CA
:1072B00010B582490020487006F0BBFA10BD10B529
:1072C000FFF716FD00217D227C4CD2000B4607F013
:1072D000B8FC6163206310BDF8B5006841048E0DF1
:1072E0004100C40F00024F0EC50D002F00DC19270E
:1072F000002E00DC4126002D00DCAA25012C02D046
:10730000002C00D001246D484078002801D0FFF700
:10731000CFFF3B46324629461920009406F057FA23
:10732000002804D0FF2067A1A530FDF73DF8634891
:1073300001214170FFF7C3FF00216C4806F088FA75
:10734000002804D0FF205FA1AB30FDF72DF8FFF738
:10735000A7FD0020F8BD594810B52030407800281E
:1073600003D100F09EFF00F0FAFE5448243040881C
:10737000002801D100F090FF5D4800684088002897
:1073800001D101F0A2FF02F073F9FFF7A5FF10BDD4
:1073900010B500F086FF00F07FFF01F096FF00F0CF
:1073A000DEFE46480021C1808161416181814181C9
:1073B0000181084602F03AFA00F018FA00F0F6F9F6
:1073C000012010BD38B53D4C2079032817D0042882
:1073D00004D301220E211120FFF783F82079022522
:1073E00002280FD0032815D0042805D3414A009560
:1073F0000421684604F005FD0020207138BD0122FB
:107400000D21E8E7FFF775F8012803D0012000906F
:10741000394AEDE70095FBE7F0B587B0002502A8F3
:10742000FFF753FD9AE0284606214843334E0746AE
:107430000390305E052107F083FD04B2BF190220DE
:107440000597385E052107F07BFD06B20420385E03
:10745000052107F075FD404207B2204631466043E2
:107460007143411838467843081801F001FA13496E
:107470000346886BC96B019100903A46314620461D
:1074800006F019F8002803D00EA11D48FCF78CFF68
:107490000A4C0A23A16BE06BC91800225041A1637A
:1074A000E063A80755D16078002852D013480399AB
:1074B000405EC01003900221059823E0C820002000
:1074C000FFFFE7FF2E2E5C536F757263655C73726E
:1074D000635C62645F737465705F636F756E74651F
:1074E000722E6300D72300007F00F8FF8D72010029
:1074F0007C21002027620100F1610100702D002035
:10750000A2020000415EC91004910421415E03986B
:10751000CF1004994043494341183846784308182E
:1075200001F0A6F90346206B2722616B8218002622
:10753000714122636163009201913A460499039874
:1075400006F08FF9002804D02B2090490001FCF7A9
:107550002BFF6D1C2069EDB2401C20616846007A4B
:10756000854200D25FE707B0F0BDF1B5884E82B02A
:10757000F088354640350090002873D00A21B06964
:1075800007F0DEFC020C0021090400041143070C83
:107590004C0768682968C0083F04640F89B2C000BE
:1075A0000F4304437B49706907F0CAFC390C80B271
:1075B00009040843784900270C4002998907C90A41
:1075C0000C4376490C4000990905490B0C436C604B
:1075D000210E2C462860203C6078C2007048036869
:1075E000D2185170627869680368D200090CD21809
:1075F0009170627869680368D200090AD218D17064
:1076000062780368D2006968D21811716A682968C3
:107610001202090E114362780368D200D218517128
:107620006A6829681204090C114362780368D20061
:10763000D21891716A6829681206090A11436278A2
:10764000D2000368D218D17162780068D20029682C
:10765000101801726078082804D100F07DFB002822
:1076600000D167706A686968520D521C530528681A
:107670000022F280B2617261B2817281C9023281EC
:10768000C90A484A1943114082B2C808110CC00007
:1076900009047822D243104029606860FEBDFEB51F
:1076A000FFF706F90546FFF756FD0646FFF707FE0A
:1076B000A8790027364C002808D16879002805D120
:1076C0002879002802D102F0B1F8A77020898642FB
:1076D0000FD92F4A782340325168DB4310680B40A2
:1076E000C70949063943090F491C0907490E0B43CD
:1076F0005360E07801280CD12078002809D1616B13
:10770000206B0023019100901A461946184606F096
:10771000A8F868790F2107F009FC002902D130464A
:10772000FFF723FF01F05CFDFEBD1949887070472B
:1077300017488078704770B5154C01252079ED0306
:10774000401CC2B222712046806A012A09D0022A56
:1077500001D0032A09D304F010FE00222946A06AB2
:1077600001E00022294604F0CBFD70BD10B5642075
:1077700005F0CEFD00210C4805F0F1FD002804D0F5
:107780006F200249C000FCF70FFE10BDC474010059
:10779000C820002010270000FFFFE7FF7F00F8FF50
:1077A000202100207F00E0FF3777010038B5012459
:1077B00024076169206929394143F94801606169F9
:1077C000226929395143416000200090606969466F
:1077D0002938C0B203F0B6FE00980068401C04D0FF
:1077E00060692938C0B203F082FF38BD38B5012482
:1077F00024076169206938394143E9480838016044
:107800006169226938395143416000200090606904
:1078100069463838C0B203F095FE00980068401CF5
:1078200004D060693838C0B203F061FF38BD10B5CC
:10783000FFF7DCFFFFF7BAFF01F04DFD10BD10B5FB
:1078400001210907096989B207F070FB10BD70B505
:10785000D34C012560682D07002802D0206800283D
:1078600009D16869296929384843606068692969CC
:107870002938484320606068FFF7E1FF296989B231
:1078800048436168884217D00846FFF7D8FF296946
:1078900089B248436168081A80102C2107F046FB22
:1078A000002909D0686929692938484360606869F6
:1078B000296929384843206060680168491C02D161
:1078C0004168491C15D0FFF7BAFFC0B203F023FE90
:1078D0006068FFF7B4FF296989B248436060FFF729
:1078E000AEFF05462068FFF7AAFF854201D1606818
:1078F000206070BD70B5AA4C0125083C60682D075A
:10790000002802D02068002809D168692969383820
:107910004843606068692969383848432060606876
:10792000FFF78DFF296989B248436168884217D003
:107930000846FFF784FF296989B248436168081A3D
:1079400080104C2107F0F2FA002909D068692969F2
:10795000383848436060686929693838484320608E
:1079600060680168491C02D14168491C15D0FFF7C5
:1079700066FFC0B203F0CFFD6068FFF760FF2969C2
:1079800089B248436060FFF75AFF05462068FFF759
:1079900056FF854201D16068206070BD8048016853
:1079A0004068814201D100207047012070477D4826
:1079B0004088002800D00120704770B5784D2868B5
:1079C000FFF73DFF044628685830FFF738FF844230
:1079D000286801D12C3070BDFFF731FF401C012415
:1079E000240761691A39884206D22868FFF727FF01
:1079F0002169401C89B203E02069616980B229399C
:107A0000484370BD70B5664D68688430FFF717FF56
:107A100006466868FFF713FF0124240786425AD000
:107A200068685830FFF70BFF06466868FFF707FFE6
:107A3000864250D16868FFF702FF6169401C1A391D
:107A400088422AD26868FFF7FAFE401CC0B203F0F1
:107A50004EFE6868FFF7F3FE2169401C89B2484377
:107A60002968884237D86868FFF7E9FE2169401C19
:107A700089B24843216989B24118286881422AD9CC
:107A8000FFF7DDFE6169401A1B3001D028681BE05A
:107A90002069616980B229391BE060692938C0B268
:107AA00003F025FE206981B26069293841432868C6
:107AB000814210D821696369226989B2293B5943FF
:107AC00092B28918814206D9FFF7B9FE2169401C9C
:107AD00089B2484328606868FFF7B1FE06466868C7
:107AE0005830FFF7ACFE8642686801D12C3070BD7B
:107AF000FFF7A5FE6169401C1A39884206D2686802
:107B0000FFF79DFE2169401C89B203E0206961698D
:107B100080B22939484370BD21480838016840685F
:107B2000814201D100207047012070471E4900208A
:107B3000497800290CD01D490A684968D20C4903CC
:107B40001143174A090D303AD288914200D00120E2
:107B50007047154901204978012900D80020704755
:107B600070B50F4D083D2868FFF769FE0446286888
:107B70009830FFF764FE8442286801D14C3070BD14
:107B8000FFF75DFE401C0124240761692939884202
:107B90000ED22868FFF753FE2169401C89B20BE022
:107BA00048210020EC200020E820002008210020AF
:107BB0002069616980B23839484370BD70B5FB4DAA
:107BC0006868E430FFF73BFE06466868FFF737FE5B
:107BD0000124240786425AD068689830FFF72FFEA8
:107BE00006466868FFF72BFE864250D16868FFF7AB
:107BF00026FE6169401C293988422AD26868FFF74D
:107C00001EFE401CC0B203F072FD6868FFF717FE4D
:107C10002169401C89B248432968884237D868687E
:107C2000FFF70DFE2169401C89B24843216989B2E2
:107C30004118286881422AD9FFF701FE6169401A7C
:107C40002A3001D028681BE02069616980B2383988
:107C50001BE060693838C0B203F049FD206981B289
:107C60006069383841432868814210D821696369C6
:107C7000226989B2383B594392B28918814206D9A8
:107C8000FFF7DDFD2169401C89B248432860686820
:107C9000FFF7D5FD064668689830FFF7D0FD8642AD
:107CA000686801D14C3070BDFFF7C9FD6169401CA7
:107CB0002939884206D26868FFF7C1FD2169401C56
:107CC00089B203E02069616980B23839484370BDE8
:107CD00070B500281AD0002918D04A780524D2009F
:107CE000121D04700025D3050226DB0D4570867039
:107CF0001C0AC47003714B881B0A43714B88837143
:107D00000B78C37149780172501D70BD0020C043CB
:107D100070BD70B500281CD000291AD04A880524EF
:107D20009200121D92B204700025D3050326DB0DCC
:107D3000457086701C0AC47003710B881B0A43715E
:107D40000B8883714B881B0AC37149880172501DCF
:107D500070BD0020C04370BD70B5002802D0082857
:107D600001D9092070BD914C9149283CA068FFF7CA
:107D7000AFFFC01CC117890F081880038B4D020C80
:107D80006868A16803F0B5FB002801D0012070BD30
:107D9000FFF714FF686086490020864A4870864BCA
:107DA00050681840C008C0000021116050600846AB
:107DB00070BD10B57D4C283C207900280DD10521DF
:107DC0000022C903E06904F09BFA002803D07BA2DB
:107DD0008249FCF7F7F90120207110BD3EB5754CC2
:107DE0007F4D20686168C20C48031043000D60D0CD
:107DF000FFF787F97B4907F0A3F8226880B2120CDD
:107E0000120402432260FFF77FF90A2107F098F875
:107E1000020C00210904114300044A07030C6168A5
:107E20002068C908520FC9001B0480B211431843CF
:107E3000616020605E48AB684278090ED200D218BB
:107E4000517042786168AB68D200090CD218917009
:107E500042786168AB68D200090AD218D1704278C2
:107E6000AB68D2006168D218117162682168120291
:107E7000090E11434278AB68D200D2185171626882
:107E800021681204090C11434278AB68D200D21861
:107E90009171626821681206090A11434278AB6841
:107EA000D200D218D1714078AA68C0002168801829
:107EB00001723F49A868FFF70BFF4B490191A96880
:107EC0000091694608816846FDF739FD002801D018
:107ED00000203EBD03CCC20C48031043000DE880D7
:107EE00001203EBD3EB5314C08342068C17802798E
:107EF00009025118491D89B22C2908D80278052A8F
:107F000005D14278002A02D18278032A03D0FFF7F4
:107F100054FD206008E0344A0090019268460181D7
:107F2000FDF70DFD002801D000203EBD01203EBD23
:107F3000FEB52E48006801285CD1294C2078002825
:107F400056D1A069002804D024481CA16A38FCF747
:107F50002BFAE0780526244F012500284BD1FFF7A6
:107F60001DFD00280FD1FFF722FD00280BD101F0E5
:107F7000A2FA002807D1FFF7CFFD002803D1FFF7B1
:107F8000E8FD002837D00948002108380670417004
:107F900007228270C17001710090019768460681C6
:107FA000FDF7CDFC002823D106207FE040210020F2
:107FB000E8200020082100207F00E0FF2E2E5C53E7
:107FC0006F757263655C7372635C62645F73796E14
:107FD000635F646174612E63000000001F05000090
:107FE0001821002010270000CD8101004C20002026
:107FF000FFF7DFFEFEBDFFF7D1FC002806D0FFF73C
:1080000071FF0028F4D0A6612570FEBDFFF7CFFCFC
:1080100000280FD0FC49E068FFF77BFE0197E1687C
:108020000091694608816846FDF789FC0028DFD188
:1080300004203BE001F03FFA002805D001F03AFAB5
:108040000028D5D0A561DFE7FFF766FD002805D041
:1080500000F0FCF80028CBD0032027E0FFF779FDE3
:1080600000280AD101E0022020E0E848007800283A
:1080700008D0FFF75BFD002804D0FFF7AFFE002813
:10808000F1D1B5E7E0780028BFD0E14800210670C3
:10809000417008228270C17001710090019768469A
:1080A0000681FDF74CFC0028A2D10720A061ABE7B8
:1080B00010B5D74C1034002803D0FFF77EFC2060A9
:1080C00010BDD348216820384269914203D04161F4
:1080D0000021817010BD8178491CC9B281700429CA
:1080E000EBD210BD10B5FEF7E3FB01880322490275
:1080F00052038918C44A3F24138849046402490C76
:10810000A3431943FF231180E133994383781B076D
:10811000DB0D19431180C07849094901C006C00E22
:10812000014311800020508010BD10B5B84C0834B8
:10813000002803D0FFF714FD206010BDB44821686B
:1081400020380269914203D001610021417010BDC5
:108150004178491CC9B241700429EBD210BD70B5F9
:10816000FEF7A6FB0546AB4C0020206060606879F6
:108170000F2106F0DBFEA979890040184105002097
:1081800003C470BDEBE710B5FEF792FBA24AC378BB
:108190005188DB0649094901DB0E1943FF23518051
:1081A000E133994383781B07DB0D19435180008825
:1081B000032340025B03C0184004400C3F235B02D2
:1081C0009943084350800020507010BD70B5904C0A
:1081D0000025203C2570012814D0FFF7EAFDA06996
:1081E000022804D0032804D0052809D105E0E58041
:1081F00006E00020FFF799FF02E00020FFF758FF9C
:10820000A56170BDA36907F035F8081C05080D11BC
:1082100014181B1C01F07DF813E0FFF7B4FFFFF703
:108220009EFF0EE00120FFF780FF0AE0FFF75AFFF4
:1082300007E00120FFF73CFF03E00120E07000E0D1
:10824000E5700120A561FFF773FE70BD3EB5704C6F
:1082500008342068C178027909025118491D89B291
:108260004C2908D80278052A05D14278002A02D183
:108270008278022A03D0FFF773FC206008E0674A87
:108280000090019268460181FDF759FB002801D05A
:1082900000203EBD01203EBD24E75D492039C87065
:1082A000704710B5FEF704FB5B4AC3785188DB06C4
:1082B00049094901DB0E1943FF235180E1339943FA
:1082C00083781B07DB0D194351800088032340028C
:1082D0005B03C0184004400C3F235B0299430843F2
:1082E00050800020507010BD70B5002802D00828C2
:1082F00001D9092070BD464C4349203CE068FFF796
:1083000008FDC01CC117890F081880032546020C00
:1083100030356868E16803F0ECF8002801D00120EE
:1083200070BDFFF76FFB686037490020488070BD63
:10833000374918310A68026049684160704770B572
:10834000054680683C2106F0FBFD2F4C064622883E
:108350000F235104880ED20580069B05120F984307
:10836000920510431F22520489029043890A084350
:10837000FEF79CFB3C2106F0D9FD311A28484180CC
:1083800023496A6818310A60AB684B6001681207BC
:1083900009090901120F1143016062880B0E521C7A
:1083A0001B4992B262802039CD68920052195371F4
:1083B00063880268CD689B00120C5B199A71638810
:1083C0000268CD689B00120A5B19DA716288C9687D
:1083D00092000068511808726088082802D3C0B261
:1083E000FFF782FF70BD10B5FEF7B5FEFFF7BDF8D1
:1083F00000F0BEFF04484088C0B2FFF775FF064892
:108400004078FFF7A9FC10BDEC20002014210020CB
:108410003821002008210020E8200020CD81010023
:10842000102100207CB5002001252D0701906869EE
:108430003838C4B227E001A9204603F083F8019838
:108440000068009068460078FF2802D0052815D102
:108450000CE068464078FF2810D168468078FF28F5
:108460000CD16846C078FF280BD007E068464078FA
:10847000002803D168468078022802D0204603F005
:108480004AF8641CE4B268692938A042D3D87CBD9C
:108490007CB5002001252D07019068692938C4B2F8
:1084A00027E001A9204603F04DF8019800680090EC
:1084B00068460078FF2802D0052815D10CE06846F0
:1084C0004078FF2810D168468078FF280CD1684694
:1084D000C078FF280BD007E068464078002803D119
:1084E00068468078032802D0204603F014F8641C04
:1084F000E4B268691A38A042D3D87CBD10B50E49E1
:10850000002008710120FFF713FD7CE70A4810B531
:108510000A4A00211C3003F0ACFE002804D051218F
:10852000074A0901FBF74EFE6DE7034908707047E3
:10853000014800787047000018210020FD840100E8
:10854000BC7F010010B501F074F9044601F0F4F8A5
:1085500084423FD801F0F0F8044601F06AF9642142
:108560004843214606F0E2FCC0B20A2802D20322A8
:10857000122103E0142805D2032213211120FDF754
:10858000B0FF10BD1E2802D203221421F6E72828CE
:1085900002D203221521F1E7322802D2032216214A
:1085A000ECE73C2802D203221721E7E7462802D253
:1085B00003221821E2E7502802D203221921DDE725
:1085C0005A2802D203221A21D8E7642802D20322B1
:1085D0001B21D3E703221C21D0E710B5034606F088
:1085E00049FE13380B0F3838151E4E585C606F2447
:1085F00026662A394144380000221F21012053E019
:10860000012220210220FDF76CFF19E006220F2134
:108610000520FDF766FF00281BD0062137E0022267
:108620002121062019E0022131E0062149E006223D
:108630001F210D203EE0002904D003220E2103E07B
:10864000012124E003220C210F20FDF74AFF00281E
:10865000F6D110BD03221E211020FDF742FF002895
:10866000E1D110BDFFF76EFF10BD00F05BFD0028EB
:1086700001D0002000E0012000F02DF810BD032201
:1086800022210720FDF72DFF0028F7D0032102202B
:1086900018E0022223210820DFE7032222210720FD
:1086A00002E0012223210820FDF71BFF10BD032259
:1086B00024210E20FDF715FF0028F7D0032100E04C
:1086C0000121012000F01BF910BD10B500F03FF9A9
:1086D000FDF7D6FD10BD10B5002806D0064B0122CF
:1086E0001D211120FDF7ECFE10BD01220E211120ED
:1086F000FDF7F7FE10BD0000CD0C000010B50068BE
:10870000002802D0012828D12AE0FCF733FD0446D6
:10871000142106F00BFC4949401C0A78C0B2824281
:108720001BD00870142C02D20022052112E0282C44
:1087300002D2002206210DE03C2C02D200220721A9
:1087400008E0502C02D20022082103E0642C05D25C
:10875000002209210420FDF7C4FE10BD642CFCD1C9
:1087600000226421F6E735480078810040183C215A
:10877000081AC0B270473149002801D000200870A3
:108780004868022802D02D48001DB7E770472C48E2
:1087900001690903C90F0BD000210069C002C00F95
:1087A00008D00020002909D0002805D000207047FB
:1087B0000121F2E70120F5E7012070470220704710
:1087C00010B513280CD11D4A00231370FFF7DFFFEB
:1087D0005060022805D019485360001DFFF78EFF36
:1087E00010BDFDF786FE0428FAD1FDF749FD10BD46
:1087F00000B5142803D1FFF7CAFF1049486000BD37
:10880000032110480904C1600161704710B5FFF7EA
:10881000BEFF0A490228486002D0081DFFF76EFF1C
:10882000032008490004C86010BD00B5FFF7AFFF82
:10883000022801D0012000BD002000BD58210020E9
:10884000000500504007005030B5084D07E00C7897
:10885000030A6040491C0006C00D285A58401346C0
:10886000521E92B2002BF2D130BD000080F3010005
:10887000024600200121890700E089089142FCD8C6
:1088800007E04318934202D8D21A4B001818400848
:1088900089080029F5D1704770B53F4C00226188E6
:1088A0002388994205D362602280628000F06FF8CD
:1088B00070BD00680025012803D0022807D062603F
:1088C0000EE088073549000F0D58103105E0C80744
:1088D0003249400F10390D580831085800280BD084
:1088E00000F055F82C4A2946121DA06803F008FD37
:1088F0006088401C608070BD00F044F8F2E7F8B575
:10890000254C06460F460025A06803F036FD00F012
:108910003EF8002060806660012E0ED0022E10D03E
:10892000606000F02FF860881B4A401C6080121DB8
:108930002946A06803F0E4FCF8BDB8002080174881
:1089400003E078002080154810380568E9E710B585
:10895000114CA06803F011FD00F019F800206060D0
:108960002080608010BD0C4810B50D4A00210830F1
:1089700003F07FFC10BD0B49032048617047064897
:108980004068704701200849400588607047012011
:1089900005494005C86070476021002090F501003E
:1089A00099880100400700500005005010B500F004
:1089B00050FB10BDF848C178002901D10121C170D8
:1089C000704710B5F4490020C870F44A014603F01E
:1089D00018FA002803D0F2A25821FBF7F3FB10BDD0
:1089E00010B5FEF794FBFEF7E6F9F5490120C860E3
:1089F000E949087110BD08B50120000740696946C2
:108A00000F38C0B202F09EFD009901202031097894
:108A1000002900D0002008BD08B5012000074069EA
:108A200069460F38C0B202F08DFD00990120203157
:108A3000097CFF2900D0002008BD38B504466846EF
:108A4000FEF743FADF48018809122170018861703E
:108A500041880912A1704188E17081880912217151
:108A60008088607138BD38B5012500246846FEF75E
:108A70002CFA6846007801E0641CE4B28442FBD919
:108A8000284638BDF8B50120CD4CC005E060C010C7
:108A9000E0604010E0604010E0608012E060400064
:108AA000E0608600E6600701E7608001E06020206A
:108AB000E0600006E0600013E060C511E560E5607D
:108AC0007D200001FEF74EFA6803A060C010A06090
:108AD0004010A0604010A0608012A0604000A06024
:108AE000A660A7608001A0602020A0600006A060B2
:108AF0000013A060A560A560F8BDF8B50120B04CDA
:108B0000C005A060C010A0604010A0604010A06030
:108B10008012A0604000A0608600A6600701A760E8
:108B20008001A0602020A0600006A0600013A0606B
:108B3000C511A560A5608001E0605020FEF712FA23
:108B40006803A060C010E0605020FEF70BFAA80296
:108B5000A0604010E0605020FEF704FA6802A060B8
:108B60004010E0605020FEF7FDF92802A06080125E
:108B7000E0605020FEF7F6F9A810A0604000E06029
:108B80005020FEF7EFF96810A060E6605020FEF775
:108B9000E9F9A660E7605020FEF7E4F9A7606801F4
:108BA000E0605020FEF7DEF96801A0602020E06060
:108BB0005020FEF7D7F92020A0600006E06050208A
:108BC000FEF7D0F9E804A0600013E0605020FEF743
:108BD000C9F9E801A060E5605020FEF7C3F9A5607F
:108BE000E5605020FEF7BEF9A560F8BD70B501251F
:108BF000734C6D05A5607D20C000FEF7B3F9E560FC
:108C000070BD38B5FFF73EFFFFF7F0FFFFF7F3FE4B
:108C100000281FD1FFF727FF002808D00124684D46
:108C2000A402EC60FF209130FEF79CF9AC600020BC
:108C3000012424070090606969460F38C0B202F031
:108C400081FC00980068401C04D060690F38C0B2F5
:108C500002F061FC38BD70B50125594C6D05A56069
:108C6000FF20F530FEF77EF9E56070BD10B54A4C87
:108C70002178002903D0FCF762FE0020207010BD8F
:108C8000012801D144490870704770B54E4C049DCD
:108C9000217000216170A270190AE1702371002116
:108CA00003E06A5C66187271491C9942F9DB474916
:108CB00004605B1D4160038170BDF8B5007801243C
:108CC000354D2607072813D00A281FD0AA2826D0FA
:108CD000BB280CD1706969460F38C0B202F032FC73
:108CE000009830300021009002F0FEFBAC70F8BD1F
:108CF000706908270F38C0B2694602F023FC344976
:108D00003A46009802F0F5FB6C70F8BD7069694650
:108D10000F38C0B202F016FC00982030E2E770690C
:108D200069460F38C0B202F00DFC00983030009058
:108D30000068401C04D070690F38C0B202F0EBFB31
:108D4000AC70FBF70EFCF8BD08B5AA2069460870A8
:108D50001149002088701F4A0121684603F051F82C
:108D6000002804D0FF210EA28C31FBF72BFA08BD9E
:108D700008B5BB2069460870074900208870154A6D
:108D80000121684603F03DF8002804D0FF2104A229
:108D90009531FBF717FA08BD6C210020AD89010061
:108DA0002E2E5C536F757263655C7372635C6264D4
:108DB0005F666163746F72795F746573742E6300AC
:108DC00000050050702D0020142C0020818C010023
:108DD000B02E0020BB8C010008B50A20694608703F
:108DE000894900208870894A0121684603F009F802
:108DF0000028D0D0FF21864A9F31FBF7E3F9CAE76C
:108E000000B5814885B00078002816D00120000701
:108E1000406901A90F38C0B202F094FB019B0C22FB
:108E20002033019300930123062102A8FFF72DFFB1
:108E300002A8FFF71BFF05B000BD0021754A0846D8
:108E400002F0DFFF0028F6D0FF21714AAE31FBF7B8
:108E5000B9F9F0E738B505460C46072069460870B1
:108E6000694900204870694A0121684602F0C9FF3B
:108E7000002804D0FF21664AB831FBF7A3F900208F
:108E8000654A04E02918CB78411C13540846A042D7
:108E9000F8DB38BD00B55C4885B00178002916D0F4
:108EA0004078002813D001200007406904A90F383A
:108EB000C0B202F047FB049B009320230922062145
:108EC00001A8FFF7E2FE01A8FFF7D0FEB3E70021FB
:108ED000524A084602F095FF0028ACD0FF214C4AC8
:108EE000C931FBF76FF9A6E71FB5474A1278002A88
:108EF0000AD00B4600900222062101A8FFF7C5FE0A
:108F000001A8FFF7B3FE1FBD454A02F07AFF002813
:108F1000F9D0FF213E4AD631FBF754F91FBD00B509
:108F2000394887B0007800280DD004A8FFF785FDE8
:108F300004AB009306230E22194601A8FFF7A5FEF5
:108F400001A8FFF793FE07B000BD70B50378044693
:108F50000D46102B03D02C48C078002820D006F0F6
:108F600089F9121F0A1F1F1F20232D411F26361F9C
:108F7000131F1F4C4F1F2A4AE01C02F042FF00281B
:108F80000ED0234A274909E00021274A084602F06B
:108F900038FF002804D023491D4A091DFBF712F9A8
:108FA00070BDFFF76FFD70BDFFF755FE70BDFFF799
:108FB00022FD0028FAD1FFF70FFF70BDFFF71BFD60
:108FC0000028FAD129B22046FFF744FF70BD0021E6
:108FD000104A084602F015FF0028F7D011490C4A44
:108FE0001731DBE700210D4A084602F00AFF00288E
:108FF000ECD00C49064A1B31D0E7FFF7DBFC70BD13
:10900000FFF7A2FE70BD00006C210020BB8C0100A8
:10901000A08D0100018E0100B02E0020958E010070
:10902000E98E0100FF0100001F8F010001200B49A4
:10903000C00748600A494020086030BF08498031B5
:109040000860704710B5FDF720FF06490120086051
:1090500010BD10B5FDF719FF31DF10BD00630040F2
:1090600000E100E000050040F748038B01468383E0
:1090700014310246438BC383203208681060704766
:10908000F14820307047F0481C30704710B5EE4969
:10909000052388684968408800248000001D80B24C
:1090A0000B70C2054C70D20D8B70130ACB700A7115
:1090B00010BDE54810B52030006801072ED0E24908
:1090C00014310860E048828B0283C28B428383683C
:1090D0005A88521C92B25A800B68446892001B0E48
:1090E0001219537183680A685B8844689B00120CEC
:1090F0001B199A7183680A685B8844689B00120A8E
:109100001B19DA7182684068528809689200101849
:109110000172FFF7BBFF0020FEF70AFF10BDCA492E
:1091200008707047C8480078704710B5C64C0F23C8
:10913000E060A0689B0501884A04900EC90580067E
:10914000090F9843890508431F2149048843910268
:10915000890A0843FDF7AAFC3C2105F0E7FE2178C7
:10916000012251402170A26853885B1C5380E36840
:109170001B1A20461430438003681B091B010B4354
:109180000360190E528863689200D2185171A26868
:109190000168528863689200090CD2189171A26824
:1091A0000168528863689200090AD218D171A168D7
:1091B0006268498800688900891808720020FEF7F3
:1091C000B7FE10BD10B5A04880684088142806D8A6
:1091D000FDF78EFD3C2105F0A9FEFFF7A6FF10BDAF
:1091E0007CB5994C207800280DD0FDF781FD3C21FD
:1091F00005F09CFEE168401A2D210901884223DB1D
:10920000FFF7E0FF7CBDFDF753FB8079162801D204
:109210000428F7D86846FFF78BF800980128F1D1A9
:10922000FDF766FD0199401AE121C9008842E9DD98
:10923000A06840881428E5D83C21019805F080FEFC
:109240000A38FFF772FF7CBD6846FFF771F8009897
:109250000025032815D12069002802D100F0E9FA81
:10926000206100F0E6FA21691431884207D8FDF741
:109270003FFD0199401A4B21C9008842E3DDFFF709
:10928000A1FF25617CBD10B5FDF712FB018803220B
:109290004902520389184A046B493F2489686402D1
:1092A0000B88520CA3431A43FF230A80E1339A43ED
:1092B00083781B07DB0D1A430A80C07852095201DC
:1092C000C006C00E02430A8010BD5F4800218068BE
:1092D00001804180D7E738B5FFF7F7FF5A490020F2
:1092E0001431086014390870C8600861012424072B
:1092F0000090606969461938C0B202F023F90098FD
:109300000068401C04D060691938C0B202F0EFF95F
:1093100038BD70B54C48816846784A88921B4A80AF
:10932000012118E072184568920054198B00647985
:109330005D196C714468491C1D191419A479AC712C
:109340004468C9B21D191419E479EC7144681B19F9
:109350001219127A1A72826852888A42E2D280689E
:109360004088002803D1FFF77FFEFFF78CFF70BD18
:109370007CB5354DA8684088002825D0840005219B
:109380006846241D017000234370E2058170D20DF0
:1093900082806868017043708170110AC170027127
:1093A0000422401DA96805F029FD0834A005020E1D
:1093B00001200007406969681938C0B202F0CAF894
:1093C000002801D000207CBD01207CBDF8B501251E
:1093D0002D0768691C4C1938C0B26A46616802F0F2
:1093E00003F961680422491DA06805F007FD2046C5
:1093F00018304088002821D0A26863685088214630
:109400008000C01840791431000208605688B60008
:10941000F618B6793043000208605688B600F61890
:10942000F67930430002086052889200D218127A0E
:1094300010430860000700D00120207068691938C7
:10944000C0B202F068F8F8BD7421002030B51C4CA1
:1094500085B0A06805224088002381006846091D68
:1094600002734373CD058273ED0D05826068491D5B
:109470000270437082702A0AC2700571A268138854
:109480001B0A43711388837153881B0AC371528866
:1094900002720C4A0090019268460181FCF74FFA73
:1094A000002802D0002005B030BDA0684088607060
:1094B0000120F8E7CAE7024880684088704700004A
:1094C00074210020CD8101000C48002101600D486D
:1094D0000B4A4260C1600121816070470749012049
:1094E0000860704708480068C00702D0084907486C
:1094F0000860704701490020086070470000014083
:10950000FFFF590000050140000401403546526E3E
:1095100000060140002805D0D34905C8CA6188610A
:10952000002070470020C0437047CF481830704774
:10953000CD4800787047082802D90020C043704702
:10954000C949087000207047082801D300207047DF
:10955000C649C000401870470022D243082808D2EC
:10956000002906D0C14AC000801806C906C00020E4
:1095700070471046704710B5BB4C94B020780090EF
:109580004022BA4901A8FAF701FEE169A0691190E9
:10959000012012910007406913221038C0B26946B9
:1095A00001F0D8FF14B010BD10B596B01320694675
:1095B00001240870240760696A461038C0B201A906
:1095C00002F038F8002814D1A74901980978C0B2F0
:1095D000884206D1C20002A9A44805F0C5FB0028B4
:1095E0001AD0A148082212A9183005F0BDFB0028A6
:1095F00012D000201490606914A91038C0B201F094
:10960000A1FF1521149802F016F8002806D0606911
:109610001038C0B202F06BF816B010BDFFF7ABFF08
:10962000FAE730B595B013206946087001200007AD
:1096300040696A461038C0B201A901F0FBFF8A4CAC
:10964000002809D0002525704021884805F035FC08
:10965000A561E56115B030BD01982070402202A9D6
:109660008248FAF793FD13991298E161A061F1E73E
:109670007D4810307047002804D07B49006808619D
:10968000002070470020C04370473EB50120694666
:109690000870040760696A461138C0B201A901F078
:1096A000C9FF002809D168460078012805D16E4815
:1096B000019910300068884210D0606902A9113801
:1096C000C0B201F03FFF0321029801F0B4FF00286F
:1096D00005D060691138C0B202F009F83EBD00F053
:1096E000B7F83EBD08B5012069460870000740691B
:1096F0005D491138C0B26A46103101F09BFF002865
:1097000003D168460078012815D057497F221031CF
:1097100008681206192390431B06554AC0181040CA
:10972000412252018018534A1040552212048018D9
:10973000D2031043086008BD4B48806870474A490F
:109740008A68904202D088600120487000207047EB
:1097500038B5454C607800280ED001252D07686982
:1097600069461638C0B201F0EDFE68691638C0B21D
:1097700001F0BDFF0020607038BD08B501206946CA
:1097800008700007406938491638C0B26A46083187
:1097900001F050FF3449002806D1684600780128BE
:1097A00002D18868002801D13348886008BD10B50F
:1097B000012109074A69163A824208D148692A49B3
:1097C0001638C0B20122083101F0C4FE10BD4A694A
:1097D000113A824202D100F03BF810BD49691039BC
:1097E0008142FAD1FFF7C7FE10BD1F480021024693
:1097F0000170103211602049816070471A49091DBB
:10980000088070471848001D008870471649091DD8
:10981000087070471448001D007870471249091DF0
:10982000487070471048001D407870470E49C86066
:1098300070470D48C06870470B49887070470A48E8
:10984000807870470849C87070470748C0787047EB
:1098500010B501200007406903491138C0B2012248
:10986000103101F077FE10BD98210020302F00202C
:109870001F80FFFFFF7F00FF1027000002881005F8
:109880001305000D002B05DA01231B03181AC04332
:10989000401C00B2920B05D0012A05D0022A00D14B
:1098A00088807047088070474880704710B5CD4A5F
:1098B0000B2313700C4650700321CB4BCB48FDF7A4
:1098C00093FBC9498978217010BD10B5C84C03229B
:1098D0002270C84B00221A70C24A0A2313705070BB
:1098E0009170C14B2178C148FDF77EFB10BD08B5D2
:1098F00000216846017069460020FFF7D7FF6846DF
:10990000007808BD08B5002168460170694601204D
:10991000FFF7CCFF6846007808BD08B5002168460F
:10992000017069460220FFF7C1FF6846007808BD54
:1099300008B500216846017069460320FFF7B6FFAD
:109940006846007808BD08B569460B20FFF7AEFFF2
:109950006846007808BD38B504460025684605709D
:10996000258069461420FFF7A1FF68460078208013
:109970006846057069461520FFF798FF684600782D
:10998000218800020143218038BDF8B505460C4608
:10999000164669460E20FFF789FF6B461878288027
:1099A00069460F20FFF782FF6B4619782888090265
:1099B0000843288069461020FFF778FF6B46187827
:1099C000208069461120FFF771FF6B4619782088C7
:1099D00009020843208069461220FFF767FF6B46A3
:1099E0001878308069461320FFF760FF6B461978BE
:1099F0003088090208433080F8BDF8B506460C46A9
:109A0000154669460820FFF751FF68460078307018
:109A100069460920FFF74AFF6846007820706946CA
:109A20000A20FFF743FF684600782870F8BDF8B5B4
:109A300005466C4A0D20107007216B4B6B48FDF7F3
:109A4000D3FA694C0646A078627801021143684651
:109A500001802946FFF712FF2079E27801021143C5
:109A6000684601802946FFF709FFA0796279010263
:109A70001143684601802946FFF700FF3046F8BDD4
:109A80000020704738B5044615460022684602702B
:109A9000C9B22020FFF719FF00212120FFF715FF91
:109AA00029462020FFF711FF69462720FFF7FEFE19
:109AB00068460178FD2001406000401C0843C1B2A7
:109AC0002720FFF702FF38BD38B5044615460022AF
:109AD00068460270C9B22320FFF7F7FE0021242058
