:020000040001F9
:10400000383E0020E19B0100F39B0100F59B01007D
:1040100000000000000000000000000000000000A0
:10402000000000000000000000000000F79B0100FD
:104030000000000000000000F99B0100FB9B010054
:10404000FD9B0100FD9B0100FD9B0100FD9B01000C
:10405000FD9B01000000000061BB01003550010024
:10406000FD9B0100FD9B0100FD9B01001D4C01001B
:10407000FD9B0100FD9B0100FD9B0100FD9B0100DC
:10408000FD9B01005DC10100FD9B0100FD9B010046
:1040900073C10100A1B801004DB90100FD9B0100F1
:1040A000FD9B0100FD9B01000000000000000000DE
:1040B0000000000000000000000000000000000000
:1040C00000F002F800F032F80CA030C808382418CC
:1040D0002D18A246671EAB4654465D46AC4201D140
:1040E00000F024F87E460F3E0FCCB6460126334240
:1040F00000D0FB1AA246AB463343184724B0000059
:1041000044B000000023002400250026103A01D30B
:1041100078C1FBD8520700D330C100D50B6070477F
:104120001FB5C046C0461FBD10B510BD0AF0C6FD84
:104130001146FFF7F5FF00F094FD0AF0DEFD03B431
:10414000FFF7F2FF03BC0AF0E3FD0000401E00BFD2
:1041500000BF00BF00BF00BF00BF00BF00BF00BF67
:1041600000BF00BF00BFF1D170470000401E00BF7C
:1041700000BF00BF00BF00BF00BF00BF00BF00BF47
:1041800000BF00BF00BFF1D17047000070B5054609
:104190000C46164602E00FCC0FC5103E102EFAD288
:1041A000082E02D303CC03C5083E042E07D301CC4E
:1041B00001C5361F03E021782970641C6D1C761E32
:1041C000F9D270BD0123FE4C1B03E36007F0FAF83F
:1041D000FD49FC48C860BFF3408FFEE710B5FB4CBB
:1041E000206A08F036F9002802D1206A08F0B9F8F0
:1041F000032100220904206A08F076F801202070CB
:1042000010BD10B5F14C206A08F0ABF8002020700A
:1042100010BD10B5ED48002101704278012A08D187
:10422000417005F0F3FA022804D000210D2004F0BB
:10423000CCF910BD0121F9E710B5642002F028FF88
:10424000E34806F02BFA002802D0E2A2D52106E0CE
:10425000DF4806F02DFA002803D0DEA2D821FFF7B0
:10426000B1FF10BD10B5D9490978012917D081785F
:10427000012915D0042912D1007800280FD105F0AA
:10428000D8FA00280BD004F041FF002807D102F033
:10429000C4F9112803D10021062004F096F910BDBD
:1042A00000780028FBD105F0BEFA0028F7D004F012
:1042B0002DFF0028F3D102F0B0F91128EFD1002131
:1042C0000520EAE710B50168002907D0012904D0CC
:1042D000022902D10830FFF7C5FF10BDBB490122FA
:1042E000C8781043C870C14389070DD08007F4D443
:1042F000B748B649008928316EDF0028EDD0FF218C
:10430000B4A23831FFF75EFF0021B84A084607F033
:104310006CFD10BDFF21AFA25731FFF753FF10B561
:10432000AA4986B0091DB24852DF002803D0FF21F8
:10433000A8A2623134E004ACA11CAE4852DF0028D0
:1043400003D0FF21A3A265312AE0A11CAA4852DFB5
:10435000002803D0FF219FA2683121E0A11CA748BB
:1043600052DF002803D0FF219AA26B3118E0002011
:1043700002900390A2480090A24801906946944898
:1043800006F03DF9002803D0FF2192A2763107E024
:104390008F4806F0D9F9002804D0FF218DA283317F
:1043A000FFF710FF06B010BD0A4601469648FFF71A
:1043B00009FF11B58E4991B0487B0A7B0102114378
:1043C00068460180814902240A7982700C613C218F
:1043D00001A80AF00AFB0122684601944272828118
:1043E00011A80490002168460184099102850B9070
:1043F00001A806F0D4FB002804D0C32175A28900CF
:10440000FFF7E0FE12B010BDF0B589B01421684688
:104410000AF0EBFA002069460870019008726B4CB4
:1044200003902069032650270225002806D0012882
:1044300005D002282ED0032823D134E0256105A819
:1044400008F0B2FC002803D0FF2162A2E7311FE090
:104450006846007E002803D108A80078002808D00C
:104460006846057205A803900420FFF7A2FF2561A6
:1044700000E026616846078214214182012007F08E
:104480002FFA684663DF002819D0212151A20901C3
:10449000FFF798FE0520FFF78CFF6846078228216A
:1044A00041822661EAE70520FFF783FF1921890190
:1044B00068460182B421418202202661DFE709B00B
:1044C000F0BD524903208862C862086348620862EE
:1044D0008861C8614D4A40321062506290605060FD
:1044E000C863D060106101213548890281604900AC
:1044F000816049008160C91081604910816040215C
:104500008160802181604904816049008160C91116
:1045100081604910816089108160090181604900D2
:104520008160704708B53A4B00933A4B0B2210213B
:10453000002007F041FE002803D026A23649FFF7ED
:1045400041FE08BD10B504F043FA10BD10B51F4C74
:10455000606A07F006FFE12100224904606A07F063
:10456000C3FE10BD10B5194C606A07F0FAFE0521B4
:1045700000220904606A07F0B7FE10BD10B504F010
:1045800039FA002801D0FFF7E1FF10BD0F4810B540
:10459000224A0021143007F060FE002803D00521D4
:1045A0000CA2C9017CE009481D4A0021183007F01F
:1045B00054FE002836D0184906A2433170E00000AE
:1045C000000500500400FA0500ED00E00020002086
:1045D000DC2B00202E2E5C536F757263655C73724A
:1045E000635C6D61696E2E6300000000394201005A
:1045F000E0F00100F0F0010000F1010010F1010015
:10460000C542010015430100EFBEADDE00070050BA
:104610002F4D0100282500203F0200006F6201009D
:10462000B162010001F0FCFF002802D0F74AF8490E
:1046300036E0F84A0121F84807F00FFE002803D0C1
:10464000F349F24A491D2BE0F44A0021F44807F0EF
:1046500004FE002803D0EE49EC4A103120E0F04877
:10466000F04A0021083007F0F8FD002803D0E8499F
:10467000E64A153114E0EA48EB4A0021001D07F034
:10468000ECFD002803D01521E04A490108E003F0C1
:1046900035FF04F060F9002804D0DD49DB4A1F3102
:1046A000FFF790FD10BD10B50478E048214605F0F5
:1046B00066FC00280AD0082808D0DD49884205D0C9
:1046C000DC49884202D0D14ADB4911E0D4481C3889
:1046D000002C02D00021C16010BDC168491CC1601E
:1046E0000329F9DD1521C08866DFD349C74A0C319B
:1046F000FFF768FD10B59AB0402168460AF075F9D9
:10470000CEA1684605F046FBCFA108A805F042FB04
:10471000CFA102A805F03EFBCFA106A805F03AFB09
:10472000002018A9087001200007406919A90F3856
:10473000C0B206F0FBFE04F04CF9010004A81ED044
:10474000199A002110AB545C5C54491CC9B2202951
:10475000F9D3194605F01EFB01200146103108A8C7
:1047600001770020014608A84177684605F0E2FC81
:10477000002806D01B21A54A4901FFF723FDB8A157
:10478000E8E71AB010BDA14AB949FFF71BFDF8B51B
:10479000A34C01884526B74DB74AF64300231C3C7D
:1047A000172936D00EDCB54F102921D0112931D070
:1047B00012292ED013292CD1224628320021E0883C
:1047C0006FDF0EE019297FD01A2977D0392901D05F
:1047D00055291ED11370002003F057FD1321E088E6
:1047E00066DF002815D00921884AC901FFF7EAFCD5
:1047F000E3700221216180881E46E08074DFE0883A
:1048000073DF258166704B2101224904386807F067
:104810006BFDF8BD1D461370002003F036FD00202F
:10482000C043E08001F0F9FE012801D101F0BCFD98
:10483000386807F096FD92480178002902D005708B
:1048400001F008FF00F040FE002801D000F0DEFF7C
:1048500001F0ABFB002817D004F0D0FF002813D0E4
:1048600004F0D4FF00280FD0002004F0C3FF002084
:1048700001F09FFB04F04AFC002805D10820205ECF
:10488000B04201DA01206070A078002803D0A57042
:1048900008F060FA07E008F0A6F9002803D0744990
:1048A0005A4AB231A2E708F0AAFB05F04FFF0028F0
:1048B00005D06F49554AB83198E705E010E0FFF799
:1048C000A3FDFFF78BFCF8BD137080790028FAD1A7
:1048D0002069042801D103202061FFF795FDF8BD70
:1048E0000627C75704F092FF664800680128F6D1F2
:1048F0000820205EA84201D1278109E003210AF0A7
:10490000B7F84500032138460AF0B2F8281820818C
:1049100004F074FF0028E2D10820205EB042DEDD02
:10492000012004F067FFF8BD10B504460088102888
:1049300002D0112802D004E0032000E0002006F09D
:10494000CFFF3A482146383005F0ECFD3748214684
:10495000183000F09EFC204608F0D6F8204606F0FD
:104960008EFA2146314805F01FFA2046FFF70FFF67
:1049700010BD08B5444B2D490093444B5022843957
:104980000D2006F0BBFF002804D02B491F4ACE396A
:10499000FFF718FC08BD10B5042804D026491B4AAF
:1049A000BA39FFF70FFC00F095FD002806D01C482F
:1049B00001211C3881701321C08866DF10BD10B53D
:1049C000044601461948383005F0A4FD23680AF072
:1049D000E9F9031111031100114902221C39C878A9
:1049E0001043C870C043800704D10021284A0846FC
:1049F00007F0FBF910BD70B5264802680121D20707
:104A000061D0016084046569383D49E0D445010006
:104A100086020000ED7401000C21002029580100DD
:104A20001C2000204545010013420100A42B00205A
:104A3000033000000134000073050000536D617203
:104A40007420436172650000332E302E3400000064
:104A5000534D412D30320000312E302E31000000F8
:104A6000303132333435363738396162636465004A
:104A700092030000FF0F00002C210020882000205E
:104A8000B82000206C200020214D010029490100A0
:104A90003942010000040040E8B206F030FD6D1C10
:104AA00060691838A842F7D86569183D07E0606961
:104AB0000F38A84202D0E8B206F021FD6D1C6069F3
:104AC0000E38A842F3D80124FF4D2405EC60FF20E6
:104AD000913002F0DDFAAC6070BD0020FB4A02218B
:104AE00083009B181960401C2028F9D3704710B52B
:104AF000FFF7E7FC03F037FF00F09DF9FFF712FD29
:104B0000F34A1421082007F05DF9002804D0FF21A2
:104B1000F04A9231FFF756FB00F00CFB00F020FB4F
:104B200002F0F8F910BD00B587B004F0C1FCFFF742
:104B30002DFDE949022007F07AF8002802D0E54A65
:104B4000E6495AE002F01EF8002001231B075A69CB
:104B50006946133A0A705A69143A4A70E049019159
:104B6000E049029169468870684608F04EF90028CD
:104B700003D0DA49D74A15393FE0FFF7FAFE00F0D3
:104B8000DFF800F013F90520FFF713FC1C2168463D
:104B900009F02BFF05210904019149100020029121
:104BA0000090032269460A73C88101220A740590A5
:104BB000CD480690684606F008F9002802D0C54A9C
:104BC000CA491AE000F025F9C94A0521012006F07A
:104BD00071FE002803D0C149BE4A08390DE000200B
:104BE00006F07EFE0023C34A0221C34806F01DFFE3
:104BF000002804D0B949B74A2031FFF7E3FA00F0A2
:104C00001BFE01F054FD002806D0002001F01FFD1E
:104C100002F0DBF907B000BD0120F7E7B74900203B
:104C20000860B74901204860B64900048860B64969
:104C300040110860704710B500F0FDF80120B24A3D
:104C4000C102803A1160B24AB0499160B04A08216D
:104C500040321160AB4A01045160A949086030BF7D
:104C600010BDFFF73AFFFFF7E6FF9849A948343136
:104C700008600120944C4003A060FFF738FF012535
:104C80006D02E560FF26F536304602F001FAA560B8
:104C9000304602F0FDF96D00E560304602F0F8F9AB
:104CA000A560304602F0F4F9AD10E560304602F040
:104CB000EFF9A56003F098FFFFF79DFEFFF733FFC4
:104CC00006F0D8F900280DD104F074FB01F0BCFC0B
:104CD000002807D004F099FC04F0F8FC04F041FD32
:104CE00002F0CDFB02F0ABFD02F0FCFD03F092FB05
:104CF00003F0C6FB02F0B0FAFFF786FB06F0DAFE1F
:104D0000FFF73CFC04F0DEFB07F0E4F804F0DEFB08
:104D10003DDF0028F8D071496E4A3C31FFF752FA66
:104D200010B500217C4A084607F05FF810BD1CB59D
:104D300001910090794A0821684607F056F81CBD99
:104D40000EB5112069460872042275A102A86CDF15
:104D5000002803D057215F4AC90024E009208001C0
:104D600068DF002803D06B495A4ABA311BE00021A2
:104D7000FF20009141306A4601911080FF20913060
:104D800050809180D08068466ADF002803D0614956
:104D9000504AC43107E00320C04367DF002804D035
:104DA00059214C4AC900FFF70DFA0EBD08B5FFF7AF
:104DB000B6FA00200090FC216846017001200146EF
:104DC00020316846417000200146684681704248A3
:104DD0006946283004F07AFF002803D043493D4A51
:104DE0008B3911E000F048F843484F4908384160DA
:104DF0004E490160014638484C3000F0D2FA002894
:104E000004D03A49334A3A39FFF7DCF9FFF772FC2C
:104E100008BD39491E2010390880887801221043C6
:104E2000E12210400C30DF22104088700720C8704B
:104E30001020087170473E49012088613D490022D9
:104E40004A60830798604A60704710B5002904D013
:104E500039A275210020FFF7B5F906F063FD10BDFA
:104E60000246082905D0FF213EA216310020FFF797
:104E7000A9F911685068084700B585B01421684643
:104E800009F0B3FD0021684600910171029164218F
:104E9000017301200146103168464173012001462B
:104EA000103168468173002001466846C1730120B5
:104EB000014610316846017407486946343005F0F0
:104EC0003FF8002868D063E000050050000700505C
:104ED000D8230020D4450100702B002022050000BB
:104EE000BF4901009749010087470100A90300005D
:104EF000CBB70100660600003820002040B100401A
:104F000000B0004000B3004080E100E0FF0F00006F
:104F100000B50040010200004B4E0100614E01004F
:104F2000534D303200000000615E0100BB5F0100A4
:104F300000050040000100402E2E5C6E7266353187
:104F40003832325C496E636C7564655C626C655CBA
:104F5000626C655F737461636B5F68616E646C65DE
:104F6000722E68002E2E5C6E726635313832325CDD
:104F7000496E636C7564655C6170705F636F6D6DC5
:104F80006F6E5C6170705F74696D65722E68000091
:104F9000044A0549FFF716F9044800F0D3F805B0B4
:104FA00000BD0000D445010037030000A746010002
:104FB000A049884201D3642070479E493239884213
:104FC00001D95F2070479B496439884201D95A2032
:104FD000704798499639884201D950207047AF21CF
:104FE0000901884201D9462070479249FA3988421E
:104FF00001D93C2070479049884201D9322070473E
:105000008D493239884201D9282070478A4964394C
:10501000884201D91E20704787499639884201D9B4
:10502000142070478449C839884201D90A20704742
:105030000120704770B5814801680024804D002927
:105040001DD00460A8687F4A01215160E121090157
:1050500048437D4909F002FD7C4A80B25080FFF749
:10506000A7FF10705268002A09D00121774806F086
:10507000BCFE002803D076A2E321FFF7A3F82C6042
:1050800070BD6F49012008606C4A002111606D49B4
:105090000860704770B50546FFF7F3FF0A2001F07E
:1050A000F7FF664C02E00A2001F0F2FF20680028BA
:1050B000F9D00020206062488068624A0121516076
:1050C000E12109014843604909F0C8FC288070BD0E
:1050D000664901204860664801680902090A02071A
:1050E000114301606349802008607047F1B55F4853
:1050F000002747605F4901258020803108604F4CC0
:105100002760504E7560FFF7BCFF0A2001F0C0FF1A
:1051100020680028F9D02760494880687560E1213F
:1051200009014843484909F099FC00990880FFF7B4
:10513000CFFFF8BD42495048486040490020086010
:1051400070479EE710B5414A50605088FFF730FF26
:1051500010705268002A02D001213C48904710BDCF
:1051600010B53A484088002803D13848801CFFF722
:1051700091FF334900200860FFF7AAFF33483F4AF8
:105180000121083007F069F8002804D0FF2130A27F
:105190007831FFF717F810BD3948807C7047014619
:1051A00010B52A480022806807F09EF8002804D035
:1051B000FF2127A28B31FFF705F810BD10B523485A
:1051C000806807F0CEF8002804D0FF2120A2943197
:1051D000FEF7F8FF10BD70B501200024C003FFF7F3
:1051E000DEFF1A4D274E6888B04201D3012406E045
:1051F00030BF06F06FFE03F010FB0028F3D1FFF77D
:10520000DDFF204670BD0EB51F4802210170002150
:10521000417009228270C170012202710B4A12781A
:10522000427101910090062069460881684600F0AD
:1052300098FB0EBDB80B00008C0A00000071004006
:105240000075004000700040FF0300005020002067
:105250002E2E5C536F757263655C7372635C62645F
:105260005F626174746572792E63000000730040A0
:1052700004E400E000E100E00240000043510100CE
:10528000A42B002098080000FC2B00208C4B07C3A7
:10529000704710B50B88012B2ED0102B16D0002292
:1052A000112B1AD0502B10D1891D0B88048AA342D0
:1052B00002D10C8B022C17D08288934205D18369CE
:1052C000002B02D00A8B1A31984710BD8988818241
:1052D000C0690028F9D0804710BD0021C9438182F0
:1052E000827500F06AFE10BD498B012901D08275DC
:1052F00010BD0121817510BD71480268002AFAD0E5
:1053000081684068904710BD70B500240546601C58
:1053100090B00007000F08A9103008940870601CB6
:105320000007000F103048708878F9263040801C44
:1053300088701C2101A809F058FB694608791021E2
:10534000084369460871029408A8049405940794D8
:105350000690287808A9887103206946888411205E
:105360000094087048708878E7213040801C08401D
:10537000012630436946887014210AA809F035FBDC
:1053800009A80A9068460B9069460E8614204C8640
:1053900088862B4668880C330AAA01A9A2DF10B0C0
:1053A00070BD30B5474B04460D460FCB85B0039317
:1053B0006B4607C30020C043A0826868A0612868CC
:1053C000E0610020A0752146684652DF002815D113
:1053D00021786846817401210182A21C04A9012060
:1053E000A0DF00280AD129462046FFF78DFF0028BC
:1053F00004D12946204600F01FF8002805B030BD32
:105400001FB5837D002B05D01388142B04D90720EA
:1054100004B010BD0820FBE7002300930193029322
:10542000039384896B461C80039102920121997039
:10543000808A6946A6DFEBE770B58EB005461C2171
:10544000684609F0D2FA68460178082001436846A8
:10545000017000240194039404940594069429781F
:1054600008A88170022168460184601C0107090FA9
:1054700010316846079401770120014610316846D3
:105480004177817FF9200140891CE72001400126F6
:10549000314368468177142109A809F0A6FA08A8C3
:1054A000099007A80A90684686851421C48501865C
:1054B00068882B1D09AA6946A2DF0EB070BD0000E6
:1054C000F02B0020C0ED0100FF4800787047FE4936
:1054D00008707047FD49FE4A09880120914200D1B9
:1054E00000207047F7B582B002980C461546002898
:1054F00004D1FF20F7A1D230FEF756FF042C04D0D0
:10550000FF20F4A1D330FEF74FFFEF4C2646A068F2
:105510003036002804D0022804D001280CD00DE039
:10552000A5600BE0012D09D1B088012806D10298B1
:105530000068A06101200FE0022D0CD00020694618
:105540000880A06802280AD0002806D002980568C2
:10555000002D49D150E00220E06005B0F0BDDA48EE
:105560001430C1780129F8D10288807801282DD023
:105570000023D549AB2038310870684600791025E2
:10558000000900012843DF25284001256B405B010D
:10559000184383069B0E684603714B7000274F80AB
:1055A00050BA8F80C8800822684602806A46D34875
:1055B000FFF726FF00280BD0D149884215D1C249F8
:1055C000D04814310222FFF761FEC6E70123D0E77D
:1055D000BD48A7601430C770E0680128BDD1A56937
:1055E000002DBAD0E760A0607AE00020B649A06044
:1055F0001431E060C870B0E7B6A1C348FEF7D4FE2E
:105600006EE0B149082040316A461080012716E05B
:1056100068890028A1D02868002804D1BA48ADA123
:105620001530FEF7C1FE68891421142800D8014600
:105630006A46118029892A680227081A81186A4651
:10564000AE48FFF7DDFE00280ED0AD4988424BD1B1
:10565000AC4829460122FFF719FE01212A46890498
:10566000606A06F041FE78E7002F39D0012F04D0A0
:10567000022F0AD0032F33D12AE0B08801282FD17E
:105680000020B080206460642AE069466889098847
:10569000401A0004000C688122D100273A4639469E
:1056A0003846FFF7F3FDA7600121E5612A4689042A
:1056B000606A06F019FEE068022811D182481430B1
:1056C000C07801280CD10220A0600020E06038E7FB
:1056D0007D481430C178012902D10021A160C17038
:1056E000B088012894D18CE700273A4639463846DD
:1056F000FFF7CCFDA7606968002902D0AF730020D6
:105700008847E0680228AED1E760A06019E738B5A5
:1057100004000D4604D1FF206EA1B930FEF744FE0F
:10572000012D08D0022D05D10222009404216846E3
:10573000FFF7D8FE38BD00946089002803D0624886
:10574000406A06F00EFE0122F0E770B5040024D096
:105750005D4DAB2040352870002068702289100A0A
:10576000A870EA700020216803F066F8010A297128
:10577000554968714888020AAA71E87122896281D4
:10578000A081401C48802846012110388180046097
:105790002046FFF7BCFF002070BD072070BD70B52C
:1057A0000446807B00281BD06089002809D1E07B5B
:1057B000032806D2401CE0732046FFF7C6FF0028EE
:1057C0000ED000252A4629462846FFF75FFD3E48B1
:1057D0008560C560A5736168002901D000208847F5
:1057E00070BD00210160704710B5002809D0012864
:1057F00006D1364836490088884201D0132166DF39
:1058000010BD00F0D1FD00F09BFF10BD01F0E4FDE4
:1058100001F0B6FB05F0D4FD012039DF3C493B48DF
:10582000C860BFF3408FFEE7274901200870274872
:105830001321008866DF704710B536480021817358
:10584000C1732148344A243006F007FD002804D0F3
:10585000FF2120A22531FEF7B5FC1B482F4A00216D
:10586000283006F0FAFC002804D0FF2119A22831C4
:10587000FEF7A8FC14482A4A00212C3006F0EDFC63
:10588000002804D0FF2113A22B31FEF79BFC00203F
:1058900010BD70B50C4D0E46E969002960D08989AC
:1058A00081425DD1686A06F05CFD0024002E39D08B
:1058B000E869C17B032941D3224621462046FFF7F0
:1058C000E5FCAC60EC6044E05C2000200620002099
:1058D000FFFF00002E2E5C536F757263655C737260
:1058E000635C62645F636F6D6D756E69636174653F
:1058F0005F70726F746F636F6C2E6300BC2B00203F
:10590000033000000F5701001E0200000400FA05DA
:1059100000ED00E0C42C00209F570100E357010078
:10592000E9570100224621462046FFF7AFFCE8690F
:1059300084734168002913D0012010E0491CC17311
:10594000FFF703FF00280BD0224621462046FFF731
:105950009DFCE86984734168002901D000208847D4
:1059600070BDF8B5040006D0FB4F0026B87B0028B8
:1059700003D00420F8BD0720F8BD0120B873F74D0F
:10598000AB2028706E702289100AA870EA7000207F
:10599000216802F051FF010A29712A466871403AD4
:1059A0005188080AA871E97163687B6023683B60CD
:1059B00023893B8123897B81FE73B981491C5180F6
:1059C0002946012210398A800F6038461146FFF7B8
:1059D0009EFE0020F8BD7047F8B50025062812D0BD
:1059E00004DC002809D0012804D106E0092816D0DB
:1059F0000A2828D007252846F8BD002AFBD1002018
:105A000002F08EFAF7E7012AF5D10978D448012986
:105A100002D000210170EEE701210170EFE70C2AAE
:105A2000E9D18878CA78000210434A781204024308
:105A300008780406144303F0F0FEA042DBD02046B1
:105A400003F0E8FED7E70A2AD5D1087800908878D5
:105A5000CA7800061204024308794C790002104308
:105A600004438879CA7900020243087A4F7A030214
:105A70004E781F43104601F0B5FBBA4938464843FB
:105A800001F0B3FB0A20604301F0B2FB009801F083
:105A9000B2FB304601F0BAFBADE7F0B50346002596
:105AA00085B00C461046082B7ED006DC09F07AF94A
:105AB0000711143986118B9E1100212B75D004DC3F
:105AC000102B73D0202B04D1BBE0262B6FD0272BBB
:105AD0006ED00725284640E5042A6AD100F07CFFF5
:105AE000A178E67809020E436178C07809040E4374
:105AF000217809060E43B102C90E884205D0002064
:105B000003F088FE002001F03CFE304601F0BAF8B8
:105B100000F09AFD0028DDD001F05BFC00286FD07A
:105B2000D8E7052108F09AFF00296CD1C0B2009097
:105B3000082801D90820009003F0F1FC002630E08D
:105B4000B0003218A05C0021121994460291039013
:105B500052780B06170A3B4312061143184362465C
:105B60000291039092780023170C1B043B4312040C
:105B700011431843624602910390D2780023170E16
:105B80001B0212023B4311431843624602910390E9
:105B9000127930461143029102A903F0D1FC761C20
:105BA000F6B20098864205E025E05CE029E08BE053
:105BB00091E028E0C4D303F0EBFC8BE7002A22D16C
:105BC00001F0DFF886E7042A1DD1A178E078627839
:105BD00009020143207812040A430006104300D151
:105BE000604803F0A0FD03F0A7FD73E7002A97D1FA
:105BF00001F02EF96EE7002A92D1FFF704FB69E766
:105C00001CE0042A01D0092564E700200090E07818
:105C10000090A178090208430090617809040843C4
:105C200000902178090608430090684603F017FDAC
:105C300003F01FFD01F000F90028BED001F01FFCA9
:105C400048E7012AB9D108780407240F022CB4D8F8
:105C5000204603F0D7FD002C03D0012003F0CAFD3D
:105C600038E70020FAE7082AA7D100200090019029
:105C7000E079002101910090A2791302DA1718430C
:105C800011430191009062791204D3171043194314
:105C90000191009022791206D31710431943019104
:105CA0000090E278684611430191A27812021143F4
:105CB0000191627812041143019122781206114376
:105CC000019103F01BFC76E70878002800D0012042
:105CD00003F0A6FDFEE60878002800D0012003F0BE
:105CE000A5FDF7E610B5012000F0B1FC002003F09F
:105CF00079FD002003F08EFD01F06EFB03F069FDDD
:105D000001F0DAFB10BD3EB5134A0123C83A137007
:105D10000023537002249470D370147150719171E8
:105D2000072069460193009208816846FFF719FE33
:105D30003EBDF7B50D46002816D0002D14D00278D0
:105D4000411C042A37D011DC012A16D0022A25D0A2
:105D5000032A73D115E00000C42C00209C200020F1
:105D60002C210020102700000720FEBD052A2FD07F
:105D7000062A50D0FF2A61D137E0807800F0DDF9A3
:105D80005CE0CA788C781102214349BACA0583784D
:105D9000411DD20D184600F07BF94FE0CA788C788F
:105DA0001102214349BACA058378411DD20D184614
:105DB000FFF773FE42E0CA788C781102214349BA9A
:105DC000CA058378411DD20D184600F02CF935E044
:105DD000CA788C781102214349BACA058378411DDB
:105DE000D20D1846FFF7F8FD28E0012D26D1C07826
:105DF000012804D0022805D003281FD105E0012284
:105E0000114604E00122022101E0012203210320C6
:105E100000F0FBFB12E00526841C0DE06078A17801
:105E20000002401887B23946204603F083F8E4198F
:105E3000E41CF019C01C86B2A81BEFD50298002103
:105E400001600846FEBD10B5E04A91701080012047
:105E5000D07002211046FFF75AFC002010BD704799
:105E6000FEB5DA4C0F46143C1646A06A06F0F1FA6D
:105E7000002802D1A06A06F074FAD548226A0146C9
:105E8000083100250091002A12D0012A44D0022AAC
:105E90000DD178786A46C106107108D58006C10F09
:105EA000F879BA790002104340BAFFF7F2FCFEBD60
:105EB0003978AB29FBD105463246394608F036FD24
:105EC000A680698848BA0830801B00B2E0800028AC
:105ED0001FDC68786B46C206187103D58006C10FB7
:105EE000E888E1E7022000262062A680A88849BA57
:105EF0008AB240BA009900F05EF9002802D026620A
:105F0000E88833E0E888012140BAFFF79CFF688801
:105F10003CE00120206240E0AD49A08801900818D3
:105F20003246394608F002FD01988019A080E088C9
:105F3000801B00B2E08000282FDCA54E6A467078F6
:105F40001071C10604D58006C10F2562F088ABE749
:105F500002202062A5807188B0884ABA40BA0099B0
:105F600000F029F900280BD02562F088002140BA02
:105F7000FFF769FF0021974A084605F036FFFEBD8E
:105F8000F088012140BAFFF75EFF70888F4A41BA5E
:105F90000C320098FFF7CDFEFEBD8C4A01210C3279
:105FA0008904A06A06F0A0F9FEBD8848143840783C
:105FB0007047864914394870704770B500242046F0
:105FC00022462146FFF762F9804D143D28690128D9
:105FD00000D168702C61AC617D48AC601038EC6019
:105FE0008473C473E869002805D08473416800296C
:105FF00001D0002088472C62AC807448EC8004807B
:106000004480686A06F025FA002802D1686A06F022
:10601000A8F9A86A06F01DFA002802D1A86A06F0BD
:10602000A0F9002070BD10B5002420281FD008DC86
:10603000012811D0022812D0032810D0042808D13A
:1060400012E0212816D0302817D0312818D0412846
:1060500019D00724204610BD0021052015E002F0CC
:106060006EFC00F0A1F9F5E7002106200DE000210B
:1060700007200AE00021082007E00021092004E0B1
:1060800000210A2001E000210B2002F09EFAE1E746
:10609000F7B54E4C0546143C0027E06A0E46012D2C
:1060A00008D0032D01D106F05CF9032D20D0062D78
:1060B00041D13CE006F055F90298202815D1002E78
:1060C00013D0FFF769F80A280FD32022314642483F
:1060D00008F02CFC0F2100224904E06A06F004F9C4
:1060E0000021012002F071FA25E000F029FB22E0F6
:1060F0000298202807D1002E05D02021304600F03C
:1061000056FB070008D000F0A2FB4B2101224904F6
:10611000E06A06F0E9F80EE003F0C1F9002801D1C9
:1061200002F0BBFF00F07EFB0120206103E02B4862
:106130001321008866DF3846FEBD3EB501240128E4
:1061400018D0112815D122480021D8380470417088
:1061500012228270C1700422027144718471C47170
:106160000472019100900920694608816846FFF792
:10617000F8FB3EBD02F0D4F90546012002F0CDF94E
:10618000FFF70AF8142807D201210846FFF7BBFDE4
:10619000284602F0C2F93EBD00210846FFF7B3FDD4
:1061A0000A480521143804700D480022C90300680C
:1061B00006F09AF83EBD10B50446002002F03CFB04
:1061C000A04201D1002010BD0B2010BD7020002086
:1061D000D42C00205F5E0100382D00200620002016
:1061E0001C2000200EB55D490968012911D15C49C8
:1061F00007220A7000224A7001238B70CA700B714B
:106200004871009106200192694608816846FFF7AF
:10621000A8FB0EBD10B504290BD10068012809D0D8
:10622000022806D100F0F9F901280BD00220FFF76F
:10623000D9FF10BD0120FFF7D5FF0021112002F08A
:10624000C4F910BD00F092FA10BD10B5042907D1B1
:106250000068012805D0022802D11220FFF7C2FFF2
:1062600010BD1120FFF7BEFF02F027FA10BD08B5E0
:1062700000213C48009102693B48920216D4027802
:10628000521CD2B20270042A08D902220092017074
:10629000364A0421684605F0A8FD08BD34480121AE
:1062A00000228903006806F01FF808BD0122EDE70F
:1062B00008B500212B48009102692B48920016D4A2
:1062C0004278521CD2B24270042A08D902220092AB
:1062D0004170284A0421684605F087FD08BD26481C
:1062E000012100228903006805F0FEFF08BD01229C
:1062F000EDE710B5152815D11A480069800211D4B0
:106300001B4C206806F0A5F8002802D1206806F092
:1063100028F80020144902460870012189032068EA
:1063200005F0E2FF10BD10B51D2815D10D4800691C
:10633000800011D4104C206806F08BF8002802D1A0
:10634000206806F00EF80020074902464870012137
:106350008903206805F0C8FF10BD00006C200020F4
:10636000FC2B002000050050A42000201562010035
:10637000142000204B6201001820002070B500217D
:10638000AB4BAC4C01220546CD40ED07ED0F5D5CFB
:10639000164602D0AE40E66001E0AE40A660491C61
:1063A000C9B20E29EFD370BD10B5A34CE06805F05B
:1063B000D8FFFF20A0600020A080112020700020C6
:1063C000FFF7DCFF10BD70B59B4DAB68132B7AD087
:1063D0000CDC08F0E7FC133F34383B3F4245484BA8
:1063E0004E55585B5E61646E7275A3001D2B26D0FE
:1063F00008DC143B08F0D6FC096A6D7073767B7E6E
:1064000081849200222B7ED008DC1E2B0DD01F2B06
:106410000ED0202B10D0212B68D143E0232B0ED09F
:10642000242B42D0642B79D126E0814C7E3C01E0C4
:106430007F4C7A3C022169E07D4C0E3401E07C4CBB
:1064400026340C2162E07A4C3E34FAE7784C56341C
:1064500005215BE0764C763CECE7754C723CE9E755
:10646000734C6E3CE6E7724C6A3CE3E7704C663C6A
:10647000E0E76F4C623CDDE76D4C803C012145E07C
:106480006B4C323CD6E76A4C2E3CD3E7684C2A3C36
:10649000D0E7674C263CCDE7654C223CCAE7644C0C
:1064A0001E3CC7E7624C1A3CC4E7614C163CC1E78E
:1064B00009E05F4C083C042128E05D4C123CB9E740
:1064C0005B4C5E3CB6E75A4C5A3CB3E7584C563CE2
:1064D000B0E7574C523CADE7554C4E3CAAE7544C04
:1064E0004A3CA7E7524C463CA4E70CE016E0504C6F
:1064F000423C9FE74E4C3E3C9CE74D4C3A3C99E772
:106500004B4C363C96E74A4C0E3C0321002C05D000
:10651000A8886A88904204D3002A02D0FFF744FF7B
:1065200070BD08F09BFA4800205AFFF727FFA888A3
:10653000401CA88070BDF8B507463F4C0020A080E5
:10654000A7600D461646E06805F083FF002802D1DB
:10655000E06805F006FF29460C2268045143000C50
:1065600089B2132F28D00DDC3B4608F01BFC132505
:1065700027272925252525252525252525252538B0
:1065800025252C001D2F19D003DC143F082F1AD805
:1065900012E0222F25D008DC1E2F0DD01F2F0BD08C
:1065A000202F0BD0212F0ED106E0232F06D0242F31
:1065B00002D0642F07D105E0608004E0618002E032
:1065C000A8000FE06580A068FF2807D00020FFF733
:1065D000FAFE00223146E06805F086FEF8BDA8000C
:1065E000EAE768002818E7E770B50C461546124937
:1065F0001A460B78984206D8087029462046FFF7BD
:106600009AFF012070BD002070BD082803D00A2821
:1066100001D00A4BE8E70A4BFCE7074800787047CF
:10662000054810B5074A01210C3005F016FE10BDD3
:1066300050EE010000050050A82000203333000078
:106640009A190000C76301008B48407870478A4957
:10665000487070471CB500221146104604F0F2FE47
:106660006946012408802407606901A91238C0B274
:1066700004F05CFF002819D160691238C0B204F040
:106680003EFF019808227D49001D04F026FF0028E6
:106690000CD16A462021794804F0D4FE694608806E
:1066A00077494118019804F013FF00281CBD1CB560
:1066B00000221146104604F0C5FE694608800120FC
:1066C0000007406901A91238C0B204F02FFF00286A
:1066D00015D101996B4B0868020C9A4210D184B213
:1066E0002022091D6548FDF751FD6A4620216348B7
:1066F00004F0A8FE69460880A04203D100201CBD1A
:10670000401C01D00B201CBD05201CBD0EB55E48F1
:10671000032101700021417002228270C1700122A8
:106720000271417101910090062069460881684616
:10673000FFF717F90EBD55481321008866DF704733
:106740000EB5514803210170002141700222827070
:10675000C1700121017141714D49019100900620E4
:10676000694608816846FFF7FCF80EBD10B5494838
:10677000006805F0F6FD40480124047001F04FF870
:10678000FFF712FEFFF7C2FF0021022001F01DFFFC
:1067900041480460FFF7A6FA02F02CF9002805D062
:1067A0003E48006805F0DDFD02F0D5FA10BDFEB5EB
:1067B00006000D4601D0202D01D00720FEBD00228D
:1067C0001146104604F03EFE69460880012000078D
:1067D000406901A91238C0B204F0A8FE0400EDD14E
:1067E0000198284A0368190C91420AD19FB26A465F
:1067F0002021001D04F026FE69460880B84202D11F
:1068000005E05B1C01D00B20FEBD0520FEBD0199FB
:106810002A46091D304608F03FF8002800D00B2416
:106820002046FEBD0EB518480321017000214170BD
:1068300004228270C17001220271417101910090A5
:106840000620694608816846FFF78BF80EBD0EB535
:106850000D48032101700021417004228270C17033
:10686000012202714271019100900620694608815F
:106870006846FFF776F80EBDB8200020382D0020BE
:106880000000DE45DE450000FC2B00200620002035
:1068900037670100882000206C2000202420002081
:1068A00002461F20012907D0062901D9491EC9B275
:1068B000C90700D01E2070471C32D0B27047F8B50F
:1068C00004460846FF4908F0C9F80D4606463C2133
:1068D000284608F0C3F82171E1210901284608F093
:1068E000BDF8054608463C2108F0B8F86071A5716E
:1068F0007D200001B5B220800FE0002F26D064215A
:10690000304608F0ABF8002901D0B0071ED0FF20B8
:106910006E30281A761C85B226802088FF21064614
:10692000913108F09BF80F0013D06421304608F035
:1069300095F8002901D0B0070BD0FF206E30A84297
:10694000DBD90020FF27A07091371DE0FF206F30BA
:10695000DFE7FF206F30F2E720883946064608F06F
:106960007DF8002927D06421304608F077F8002907
:1069700001D0B0071FD00020A178FFF791FF281A9F
:1069800085B2A078401CA07020883946064608F0E1
:1069900065F8002911D06421304608F05FF800291D
:1069A00001D0B00709D00020A178FFF779FFA842F5
:1069B000D2D9E570F8BD0120DEE70120F4E710B57B
:1069C000C04908F04BF8072108F048F8481D072196
:1069D00008F044F8084610BD10B5BB48C168103037
:1069E000FFF76DFFB84810308178491C8170C1787D
:1069F000491CC17010BD70B5FFF7EEFF04460025BD
:106A000049E0284602F094FD0068A179C001C00E5B
:106A100088423ED1284602F08BFD00680003810EBB
:106A20006079814235D1A848C068FFF7C8FF0646A3
:106A3000284602F07DFD00680121B1400840400673
:106A400023D1284602F074FD0068E1788000C00E72
:106A500088421ED1284602F06BFD01684068890813
:106A600080070843A178000F884212D1284602F01F
:106A70005FFD01684068090A000608437D21800E19
:106A8000090140182188884203D100210C2001F01F
:106A90009CFD6D1CEDB202F03FFDA842B1D870BD67
:106AA000F8B502F036FD0646FFF796FF054630685A
:106AB0007168020E08021043000E012829D1824C91
:106AC000E068FFF77CFF0246A8790027002804D180
:106AD0006979002901D127606760012393403168FB
:106AE000DAB2114215D00A02120E824211D80A04FB
:106AF000120E82420DD33C2250436A79090E80184F
:106B000007F0ACFF002905D002F087FE6168401A4B
:106B10002060F8BD03CE020C080410432168000C6D
:106B2000884203D900210E2001F04FFD276002F0BA
:106B300074FE6060F8BD10B5634CE068401CE06016
:106B400002F0C4FC3C21E06807F088FF0C0001D093
:106B50001E2C16D1FFF761FD112805D101F007FFAA
:106B6000002801D1FEF78DFA002C0AD100F031FC8B
:106B7000002806D0FFF73FFFFFF792FF002000F04C
:106B8000BAFD10BD10B550487D21090110300180BB
:106B900000218170C1708171417101714A4C4B4A71
:106BA000E1600121083805F058FB002804D0FF21DE
:106BB00047A21531FDF706FB01210022C903A06899
:106BC00005F092FB002804D0FF2141A21731FDF708
:106BD000F9FA10BDF8B5044681060005800E3C2286
:106BE0005043890E4118E003E122C00E12015043C8
:106BF00045187D20A70E00013818FF21002691318D
:106C0000009007F02BFF002913D06421009807F0B3
:106C100025FF002901D0B8070BD00023A002294985
:106C2000C00E4843494240194518A001040F641E94
:106C300009E00123F2E7F1B21846FFF731FE2149DE
:106C400048434519761CB442F5D8002414E07D2051
:106C50000001FF2120189131064607F0FFFE0029B0
:106C60000ED06421304607F0F9FE002901D0A007BC
:106C700006D020482D18641CA742E8D82846F8BD45
:106C80001D48F7E7F8B5044681060005800E3C2252
:106C90005043890E4118E003E122C00E1201504317
:106CA00045187D20A70E00013818FF2100269131DC
:106CB000009007F0D3FE002930D06421009807F03F
:106CC000CDFE1BE080510100BC200020376B01008D
:106CD0002E2E5C536F757263655C7372635C6264C5
:106CE0005F77616C6C5F636C6F636B5F74696D651C
:106CF000722E63008033E1010085E201002901D09A
:106D0000B8070BD00023A0027C49C00E484349427B
:106D100040194518A001040F641E09E00123F2E7A1
:106D2000F1B21846FFF7BCFD744948434519761C7B
:106D3000B442F5D8002414E07D200001FF21201882
:106D40009131064607F08AFE002918D064213046AA
:106D500007F084FE002901D0A00710D068482D1844
:106D6000641CA742E8D8674CE560A06805F0F9FA12
:106D700001210022C903A06805F0B6FAF8BD6248F7
:106D8000EDE7FEB5614D0220287000266E700420EC
:106D9000A870EE7002F0C0FB81004018287100243A
:106DA0002CE0204602F0C4FBA100611840684F1996
:106DB0007871204602F0BCFB014600684968000E6D
:106DC00009020843B871204602F0B2FB0146006890
:106DD0004968000C09040843F871204602F0A8FB3A
:106DE000014600684968000A0906084338722046CF
:106DF00002F09EFB0068641C7872E4B202F08CFB27
:106E0000A042CED80196009528796946401D088198
:106E10006846FEF7A6FDFEBD3A48C068704710B54B
:106E2000384CE060A06805F09CFA01210022C903FB
:106E3000A06805F059FA10BD10B5FFF7CDFD008828
:106E40007D210901884201D1002010BD012010BD23
:106E50003EB52E4C02202070002565700720A070E2
:106E6000E57004202071FFF7B7FD0279B1099206A1
:106E70008901920E11433F22920191434279920679
:106E8000120D11431F22120391438279D206D20BB5
:106E900011431F2252049143C278D206920A114331
:106EA0000F229205914382780088920511430322B4
:106EB000890180069207890980180143080E6071D4
:106EC000080CA071080AE0712172019500942079E4
:106ED0006946401D08816846FEF743FD3EBD10B57A
:106EE0000848806805F03DFA002804D0FF21084AD0
:106EF000D631FDF767F910BD7047000080510100E1
:106F00008033E101BC2000200085E201FC2B002041
:106F1000D06C010070B5534A042052490C32106005
:106F2000121F10600A1D106008604E4C78342060FB
:106F30004C4D103528607D20C00000F0A9F84A486B
:106F400020602860494980078860C82000F0A0F8C8
:106F500000221146104600F0A9F800280FD00020AA
:106F600000F009F902F0CDFCF22803D040A1EE2098
:106F7000FDF71AFA02F013FE002000F015F970BDBB
:106F800010B5002000F0F7F802F0EFFD002000F04F
:106F90000BF910BD10B5002000F0EDF8002000F056
:106FA00003F910BD10B5002000F0E5F8002000F056
:106FB000FBF810BD10B5002000F0DDF8002002F055
:106FC000D7FD002000F0F0F810BD10B5002000F053
:106FD000D2F8012002F0CCFD002000F0E5F810BD51
:106FE00010B5002000F0C7F80124002000F0DCF804
:106FF000204610BD10B50446002000F0BCF8204625
:1070000000F004F8002000F0CFF810BDF1B5002426
:1070100082B0254602F08BFC40071FD51B4E202571
:10702000684602F0F8FC684601880E204143684635
:10703000018042880E2042436846428083880E20A9
:10704000434368468380204606277843315280199F
:10705000641C4280E4B28380AC42E1D302980570A4
:10706000FEBD0000000700500102000000050050B6
:107070002E2E5C536F757263655C7372635C626421
:107080005F68616C5F6163632E630000582D0020B0
:1070900070B50446044D03E0641E2846FDF756F81B
:1070A000002CF9D170BD0000E7030000F0B50446E4
:1070B00005264748002536020123002C01D045480B
:1070C00009E003278419A7600227E7602361424C87
:1070D000A360424C25600124A4078619746200292C
:1070E00006D001290FD002290FD003290FD000218B
:1070F0001524A401002A00D0194302195161FF216F
:1071000009310D50F0BD0221F2E70421F0E706211C
:10711000EEE7F0B5002596468C462F4A064601213B
:107120002F462846D160F41D1115F93471181AE064
:107130007246D25DCA610326360300E06D1CA26868
:10714000002A01D1B542F9D3B54205D101218140D0
:10715000214881600020F0BD0022A2608A693E467D
:107160007F1CBFB29A556745E2D3012181401A487E
:1071700081600120F0BD10B50121174B10229A60EB
:10718000134A002801D0134A09E0154B14480C3368
:1071900019601B1F19600023041D23600160052076
:1071A00000021018016010BD094A002801D0094AE8
:1071B00005E00B490220C86088604860086005212E
:1071C000002009025118086003491020C860704768
:1071D000003000400040004000050050E820002042
:1071E00000070050FF4988807047FE49486170479A
:1071F000FC498861704710B5FA4BFB4C3033596835
:1072000080072140C00A0143596010BD10B5F54BFD
:10721000782430335968E44300072140400E01438D
:10722000596010BDEF4880887047EE48406970474C
:10723000EC488069704710B5EA4C207800280AD0E5
:10724000E06905F08EF8002803D0E8A29F21FCF742
:10725000B9FF0020207010BD10B5E24C2078002846
:107260000CD10022E949E06905F03EF8002803D07E
:10727000DEA2AE21FCF7A6FF0120207010BD10B5E4
:10728000D848C18803890A46994200D819468181A5
:107290004489A14200D821468181914201D1002038
:1072A00010BD994201D1012010BD022010BDF8B5DA
:1072B00006460068022803D0CCA1C720FDF774F869
:1072C0007268002A5BDDC74CA18820462030002967
:1072D00002D143785B1C437043780125002B00D119
:1072E00045705018A08002F098FA7168401802F0BA
:1072F00091FAB068002802DD616940186061306968
:10730000002802DDA1694018A061F068002804D0BF
:10731000012806D002280BD107E0E088401CE0805D
:1073200006E02089401C208102E06089401C6081C9
:10733000FFF7A5FFAB4BAC4E3033596880073140A7
:10734000C00A0143B24800260140A0880005400B56
:107350000143596002F061FA074602F0E1F9874201
:1073600002D3A07800280BD002F057FA054602F0AD
:10737000D7F9854200D2A670002000F0D1FDF8BDFB
:10738000A5700021102001F020F9F5E710B50446A2
:107390000068012804D0FF2094A10330FDF704F811
:1073A00090496068C870204600F0C1FF002000F0DE
:1073B000B7FD10BD10B504460068022802D1204672
:1073C000FFF775FF2068012802D12046FFF7DEFF96
:1073D00010BD84484078704710B58249002048703D
:1073E00005F0BFFF10BD10B5FFF716FD00217D228F
:1073F0007C4CD2000B4607F0BCF9E162A06210BDE4
:10740000F8B5006841048E0D4100C40F00024F0E14
:10741000C50D002F00DC1927002E00DC4126002DB1
:1074200000DCAA25012C02D0002C00D001246D48DC
:107430004078002801D0FFF7CFFF3B46324629466F
:107440001920009405F05BFF002804D0FF2067A1FD
:10745000A530FCF7A9FF634801214170FFF7C3FF86
:1074600000216C4805F08CFF002804D0FF205FA1AC
:10747000AB30FCF799FFFFF7A8FD0020F8BD594895
:1074800010B520304078002803D100F002FF00F052
:107490005EFE544824304088002801D100F0F4FEFC
:1074A0005D4800684088002801D101F002FF02F029
:1074B000D3F8FFF7A5FF10BD10B500F0EAFE00F00D
:1074C000E3FE01F0F6FE00F042FE46480021818016
:1074D0008161416141810181C180084602F09AF9D0
:1074E00000F07CF900F05AF9012010BDF0B585B02C
:1074F000002402A8FFF77EFD3A4D39E0A00732D103
:10750000687800282FD020460621484343490A5E68
:1075100040180221415ED610CF100421415EC810F0
:1075200003903046394670437943411803984043ED
:10753000081801F095F9A96A84462723C918E86A52
:1075400000225041A962E8620091019063463946E9
:107550003046039A05F01DFF002804D02B2023A1FC
:107560000001FCF721FF641C2869E4B2401C28617B
:107570006846007A8442C1D305B0F0BDF1B5194E1A
:1075800082B0B08835463035009000287ED00A2180
:10759000B06907F06DFA020C0021090400041143E0
:1075A000070C4C0768682968C0083F04640F89B25B
:1075B000C0000F4304431A49706907F059FA390CA7
:1075C00080B209040843084900270C400299890742
:1075D000C90A0C430E490C4000990905490B0C439C
:1075E000210E1FE0F0200020FFFFE7FF2E2E5C534E
:1075F0006F757263655C7372635C62645F737465FC
:10760000705F636F756E7465722E6300D723000020
:107610007F00F8FFB573010090210020582D002055
:10762000102700006C602C462860103C6078C20077
:1076300057480368D2185170627869680368D200AD
:10764000090CD2189170627869680368D200090A3F
:10765000D218D17062780368D2006968D2181171AB
:107660006A6829681202090E114362780368D20021
:10767000D21851716A6829681204090C11436278A2
:107680000368D200D21891716A6800E016E0296898
:107690001206090A114362780368D200D218D17128
:1076A00062780068D2002968101801726078082892
:1076B00004D100F049FB002800D167706A6869684E
:1076C000520D521C530528680022B280B2617261CB
:1076D00072813281C902F280C90A2E4A19431140CF
:1076E00082B2C808110CC00009047822D2431040AD
:1076F00029606860FEBDFEB5FFF76EF90546FFF72D
:10770000BEFD0646FFF76FFEA8790027224C002831
:1077100008D16879002805D12879002802D102F023
:1077200079F8A770E08886420FD91B4A7823303257
:107730005168DB4310680B40C70949063943090FFC
:10774000491C0907490E0B435360E07801280CD10E
:107750002078002809D1E16AA06A002301910090F5
:107760001A461946184605F014FE68790F2107F0ED
:1077700075F9002902D13046FFF700FF01F024FD22
:10778000FEBD054988707047034880787047000047
:10779000382100207F00E0FFF020002038B50124D0
:1077A00024076169206929394143F9480160616909
:1077B000226929395143416000200090606969467F
:1077C0002938C0B203F0B2FE00980068401C04D013
:1077D00060692938C0B203F07EFF38BD38B5012496
:1077E00024076169206938394143E9480838016054
:1077F0006169226938395143416000200090606915
:1078000069463838C0B203F091FE00980068401C09
:1078100004D060693838C0B203F05DFF38BD10B5E0
:10782000FFF7DCFFFFF7BAFF01F049FD10BD10B50F
:1078300001210907096989B207F010F910BD70B577
:10784000D34C012560682D07002802D0206800284D
:1078500009D16869296929384843606068692969DC
:107860002938484320606068FFF7E1FF296989B241
:1078700048436168884217D00846FFF7D8FF296956
:1078800089B248436168081A80102C2107F0E6F895
:10789000002909D068692969293848436060686906
:1078A000296929384843206060680168491C02D171
:1078B0004168491C15D0FFF7BAFFC0B203F01FFEA4
:1078C0006068FFF7B4FF296989B248436060FFF739
:1078D000AEFF05462068FFF7AAFF854201D1606828
:1078E000206070BD70B5AA4C0125083C60682D076A
:1078F000002802D02068002809D168692969383831
:107900004843606068692969383848432060606886
:10791000FFF78DFF296989B248436168884217D013
:107920000846FFF784FF296989B248436168081A4D
:1079300080104C2107F092F8002909D06869296964
:10794000383848436060686929693838484320609E
:1079500060680168491C02D14168491C15D0FFF7D5
:1079600066FFC0B203F0CBFD6068FFF760FF2969D6
:1079700089B248436060FFF75AFF05462068FFF769
:1079800056FF854201D16068206070BD8048016863
:107990004068814201D100207047012070477D4836
:1079A0004088002800D00120704770B5784D2868C5
:1079B000FFF73DFF044628685830FFF738FF844240
:1079C000286801D12C3070BDFFF731FF401C012425
:1079D000240761691A39884206D22868FFF727FF11
:1079E0002169401C89B203E02069616980B22939AC
:1079F000484370BD70B5664D68688430FFF717FF67
:107A000006466868FFF713FF0124240786425AD010
:107A100068685830FFF70BFF06466868FFF707FFF6
:107A2000864250D16868FFF702FF6169401C1A392D
:107A300088422AD26868FFF7FAFE401CC0B203F001
:107A40004AFE6868FFF7F3FE2169401C89B248438B
:107A50002968884237D86868FFF7E9FE2169401C29
:107A600089B24843216989B24118286881422AD9DC
:107A7000FFF7DDFE6169401A1B3001D028681BE06A
:107A80002069616980B229391BE060692938C0B278
:107A900003F021FE206981B26069293841432868DA
:107AA000814210D821696369226989B2293B59430F
:107AB00092B28918814206D9FFF7B9FE2169401CAC
:107AC00089B2484328606868FFF7B1FE06466868D7
:107AD0005830FFF7ACFE8642686801D12C3070BD8B
:107AE000FFF7A5FE6169401C1A39884206D2686812
:107AF000FFF79DFE2169401C89B203E0206961699E
:107B000080B22939484370BD21480838016840686F
:107B1000814201D100207047012070471E4900209A
:107B2000497800290CD01D490A684968D20C4903DC
:107B30001143174A090D303AD288914200D00120F2
:107B40007047154901204978012900D80020704765
:107B500070B50F4D083D2868FFF769FE0446286898
:107B60009830FFF764FE8442286801D14C3070BD24
:107B7000FFF75DFE401C0124240761692939884212
:107B80000ED22868FFF753FE2169401C89B20BE032
:107B9000602100201421002010210020202100203D
:107BA0002069616980B23839484370BD70B5FB4DBA
:107BB0006868E430FFF73BFE06466868FFF737FE6B
:107BC0000124240786425AD068689830FFF72FFEB8
:107BD00006466868FFF72BFE864250D16868FFF7BB
:107BE00026FE6169401C293988422AD26868FFF75D
:107BF0001EFE401CC0B203F06EFD6868FFF717FE62
:107C00002169401C89B248432968884237D868688E
:107C1000FFF70DFE2169401C89B24843216989B2F2
:107C20004118286881422AD9FFF701FE6169401A8C
:107C30002A3001D028681BE02069616980B2383998
:107C40001BE060693838C0B203F045FD206981B29D
:107C50006069383841432868814210D821696369D6
:107C6000226989B2383B594392B28918814206D9B8
:107C7000FFF7DDFD2169401C89B248432860686830
:107C8000FFF7D5FD064668689830FFF7D0FD8642BD
:107C9000686801D14C3070BDFFF7C9FD6169401CB7
:107CA0002939884206D26868FFF7C1FD2169401C66
:107CB00089B203E02069616980B23839484370BDF8
:107CC00070B500281AD0002918D04A780524D200AF
:107CD000121D04700025D3050226DB0D4570867049
:107CE0001C0AC47003714B881B0A43714B88837153
:107CF0000B78C37149780172501D70BD0020C043DC
:107D000070BD70B500281CD000291AD04A880524FF
:107D10009200121D92B204700025D3050326DB0DDC
:107D2000457086701C0AC47003710B881B0A43716E
:107D30000B8883714B881B0AC37149880172501DDF
:107D400070BD0020C04370BD70B5002802D0082867
:107D500001D9092070BD914C9149283CA068FFF7DA
:107D6000AFFFC01CC117890F081880038B4D020C90
:107D70006868A16803F0B1FB002801D0012070BD44
:107D8000FFF714FF686086490020864A4870864BDA
:107D900050681840C008C0000021116050600846BB
:107DA00070BD10B57D4C283C207900280DD10521EF
:107DB0000022C903E06904F097FA002803D07BA2EF
:107DC0008249FCF7FFF90120207110BD3EB5754CCA
:107DD0007F4D20686168C20C48031043000D60D0DD
:107DE000FFF723FA7B4906F043FE226880B2120CAB
:107DF000120402432260FFF71BFA0A2106F038FE44
:107E0000020C00210904114300044A07030C6168B5
:107E10002068C908520FC9001B0480B211431843DF
:107E2000616020605E48AB684278090ED200D218CB
:107E3000517042786168AB68D200090CD218917019
:107E400042786168AB68D200090AD218D1704278D2
:107E5000AB68D2006168D2181171626821681202A1
:107E6000090E11434278AB68D200D2185171626892
:107E700021681204090C11434278AB68D200D21871
:107E80009171626821681206090A11434278AB6851
:107E9000D200D218D1714078AA68C0002168801839
:107EA00001723F49A868FFF70BFF4B490191A96890
:107EB0000091694608816846FDF753FD002801D00E
:107EC00000203EBD03CCC20C48031043000DE880E7
:107ED00001203EBD3EB5314C08342068C17802799E
:107EE00009025118491D89B22C2908D80278052A9F
:107EF00005D14278002A02D18278032A03D0FFF705
:107F000054FD206008E0344A0090019268460181E7
:107F1000FDF727FD002801D000203EBD01203EBD19
:107F2000FEB52E48006801285CD1294C2078002835
:107F300056D1A069002804D024481CA16A38FCF757
:107F400033FAE0780526244F012500284BD1FFF7AE
:107F50001DFD00280FD1FFF722FD00280BD101F0F5
:107F60009EFA002807D1FFF7CFFD002803D1FFF7C5
:107F7000E8FD002837D00948002108380670417014
:107F800007228270C17001710090019768460681D6
:107F9000FDF7E7FC002823D106207FE058210020D0
:107FA00010210020202100207F00E0FF2E2E5C53B6
:107FB0006F757263655C7372635C62645F73796E24
:107FC000635F646174612E63000000001F050000A0
:107FD0003021002010270000BD8101006C2000200E
:107FE000FFF7DFFEFEBDFFF7D1FC002806D0FFF74C
:107FF00071FF0028F4D0A6612570FEBDFFF7CFFC0D
:1080000000280FD0FC49E068FFF77BFE0197E1688C
:108010000091694608816846FDF7A3FC0028DFD17E
:1080200004203BE001F03BFA002805D001F036FACD
:108030000028D5D0A561DFE7FFF766FD002805D051
:1080400000F0FCF80028CBD0032027E0FFF779FDF3
:1080500000280AD101E0022020E0E848007800284A
:1080600008D0FFF75BFD002804D0FFF7AFFE002823
:10807000F1D1B5E7E0780028BFD0E14800210670D3
:10808000417008228270C1700171009001976846AA
:108090000681FDF766FC0028A2D10720A061ABE7AE
:1080A00010B5D74C1034002803D0FFF77EFC2060B9
:1080B00010BDD348216820384269914203D0416104
:1080C0000021817010BD8178491CC9B281700429DA
:1080D000EBD210BD10B5FEF77FFC018803224902E8
:1080E00052038918C44A3F24138849046402490C86
:1080F000A3431943FF231180E133994383781B077E
:10810000DB0D19431180C07849094901C006C00E32
:10811000014311800020508010BD10B5B84C0834C8
:10812000002803D0FFF714FD206010BDB44821687B
:1081300020380269914203D001610021417010BDD5
:108140004178491CC9B241700429EBD210BD70B509
:10815000FEF742FC0546AB4C002020606060687969
:108160000F2106F07BFCA979890040184105002009
:1081700003C470BDEBE710B5FEF72EFCA24AC3782E
:108180005188DB0649094901DB0E1943FF23518061
:10819000E133994383781B07DB0D19435180008835
:1081A000032340025B03C0184004400C3F235B02E2
:1081B0009943084350800020507010BD70B5904C1A
:1081C0000025203C2570012814D0FFF7EAFDA069A6
:1081D000022804D0032804D0052809D105E0E58051
:1081E00006E00020FFF799FF02E00020FFF758FFAC
:1081F000A56170BDA36906F0D5FD081C05080D1129
:1082000014181B1C01F079F813E0FFF7B4FFFFF717
:108210009EFF0EE00120FFF780FF0AE0FFF75AFF04
:1082200007E00120FFF73CFF03E00120E07000E0E1
:10823000E5700120A561FFF773FE70BD3EB5704C7F
:1082400008342068C178027909025118491D89B2A1
:108250004C2908D80278052A05D14278002A02D193
:108260008278022A03D0FFF773FC206008E0674A97
:108270000090019268460181FDF773FB002801D050
:1082800000203EBD01203EBD24E75D492039C87075
:10829000704710B5FEF7A0FB5B4AC3785188DB0638
:1082A00049094901DB0E1943FF235180E13399430A
:1082B00083781B07DB0D194351800088032340029C
:1082C0005B03C0184004400C3F235B029943084302
:1082D00050800020507010BD70B5002802D00828D2
:1082E00001D9092070BD464C4349203CE068FFF7A6
:1082F00008FDC01CC117890F081880032546020C11
:1083000030356868E16803F0E8F8002801D0012002
:1083100070BDFFF76FFB686037490020488070BD73
:10832000374918310A68026049684160704770B582
:10833000054680683C2106F09BFB2F4C06462288B0
:108340000F235104880ED20580069B05120F984317
:10835000920510431F22520489029043890A084360
:10836000FEF738FC3C2106F079FB311A28484180A1
:1083700023496A6818310A60AB684B6001681207CC
:1083800009090901120F1143016062880B0E521C8A
:108390001B4992B262802039CD6892005219537104
:1083A00063880268CD689B00120C5B199A71638820
:1083B0000268CD689B00120A5B19DA716288C9688D
:1083C00092000068511808726088082802D3C0B271
:1083D000FFF782FF70BD10B5FEF751FFFFF7CEF833
:1083E00000F0BAFF04484088C0B2FFF775FF0648A6
:1083F0004078FFF7A9FC10BD142100202C2100209B
:10840000502100202021002010210020BD810100EA
:10841000282100207CB5002001252D0701906869E6
:108420003838C4B227E001A9204603F07FF801984C
:108430000068009068460078FF2802D0052815D112
:108440000CE068464078FF2810D168468078FF2805
:108450000CD16846C078FF280BD007E0684640780A
:10846000002803D168468078022802D0204603F015
:1084700046F8641CE4B268692938A042D3D87CBDB0
:108480007CB5002001252D07019068692938C4B208
:1084900027E001A9204603F049F801980068009000
:1084A00068460078FF2802D0052815D10CE0684600
:1084B0004078FF2810D168468078FF280CD16846A4
:1084C000C078FF280BD007E068464078002803D129
:1084D00068468078032802D0204603F010F8641C18
:1084E000E4B268691A38A042D3D87CBD10B50E49F1
:1084F000002008710120FFF713FD7CE70A4810B542
:108500000A4A00211C3003F0A8FE002804D05121A3
:10851000074A0901FBF756FE6DE7034908707047EB
:10852000014800787047000030210020ED840100F0
:10853000AC7F010010B501F070F9044601F0F0F8CD
:1085400084423FD801F0ECF8044601F066F964215A
:108550004843214606F082FAC0B20A2802D203221A
:10856000122103E0142805D2032213211120FEF763
:108570004CF810BD1E2802D203221421F6E7282849
:1085800002D203221521F1E7322802D2032216215A
:10859000ECE73C2802D203221721E7E7462802D263
:1085A00003221821E2E7502802D203221921DDE735
:1085B0005A2802D203221A21D8E7642802D20322C1
:1085C0001B21D3E703221C21D0E710B5034606F098
:1085D000E9FB13380B0F3838151E4E585C606F24BA
:1085E00026662A394144380000221F21012053E029
:1085F000012220210220FEF708F819E006220F21AF
:108600000520FEF702F800281BD0062137E00222E1
:108610002121062019E0022131E0062149E006224D
:108620001F210D203EE0002904D003220E2103E08B
:10863000012124E003220C210F20FDF7E6FF002892
:10864000F6D110BD03221E211020FDF7DEFF002809
:10865000E1D110BDFFF76EFF10BD00F057FD0028FF
:1086600001D0002000E0012000F02DF810BD032211
:1086700022210720FDF7C9FF0028F7D0032102209F
:1086800018E0022223210820DFE70322222107200D
:1086900002E0012223210820FDF7B7FF10BD0322CD
:1086A00024210E20FDF7B1FF0028F7D0032100E0C0
:1086B0000121012000F01BF910BD10B500F03FF9B9
:1086C000FDF772FE10BD10B5002806D0064B012242
:1086D0001D211120FDF788FF10BD01220E21112060
:1086E000FDF793FF10BD0000CD0C000010B5006831
:1086F000002802D0012828D12AE0FCF74DFD0446CD
:10870000142106F0ABF94949401C0A78C0B28242F4
:108710001BD00870142C02D20022052112E0282C54
:1087200002D2002206210DE03C2C02D200220721B9
:1087300008E0502C02D20022082103E0642C05D26C
:10874000002209210420FDF760FF10BD642CFCD13C
:1087500000226421F6E735480078810040183C216A
:10876000081AC0B270473149002801D000200870B3
:108770004868022802D02D48001DB7E770472C48F2
:1087800001690903C90F0BD000210069C002C00FA5
:1087900008D00020002909D0002805D0002070470B
:1087A0000121F2E70120F5E7012070470220704720
:1087B00010B513280CD11D4A00231370FFF7DFFFFB
:1087C0005060022805D019485360001DFFF78EFF46
:1087D00010BDFDF722FF0428FAD1FDF7E5FD10BD1D
:1087E00000B5142803D1FFF7CAFF1049486000BD47
:1087F000032110480904C1600161704710B5FFF7FB
:10880000BEFF0A490228486002D0081DFFF76EFF2C
:10881000032008490004C86010BD00B5FFF7AFFF92
:10882000022801D0012000BD002000BD70210020E1
:10883000000500504007005030B5084D07E00C78A7
:10884000030A6040491C0006C00D285A58401346D0
:10885000521E92B2002BF2D130BD0000B0EE0100EA
:10886000024600200121890700E089089142FCD8D6
:1088700007E04318934202D8D21A4B001818400858
:1088800089080029F5D1704770B53F4C00226188F6
:108890002388994205D362602280628000F06FF8DD
:1088A00070BD00680025012803D0022807D062604F
:1088B0000EE088073549000F0D58103105E0C80754
:1088C0003249400F10390D580831085800280BD094
:1088D00000F055F82C4A2946121DA06803F004FD4B
:1088E0006088401C608070BD00F044F8F2E7F8B585
:1088F000254C06460F460025A06803F032FD00F027
:108900003EF8002060806660012E0ED0022E10D04E
:10891000606000F02FF860881B4A401C6080121DC8
:108920002946A06803F0E0FCF8BDB8002080174895
:1089300003E078002080154810380568E9E710B595
:10894000114CA06803F00DFD00F019F800206060E4
:108950002080608010BD0C4810B50D4A0021083001
:1089600003F07BFC10BD0B4903208861704706486B
:1089700040687047012008498005886070470120E1
:1089800005498005C860704778210020C0F00100CB
:1089900089880100400700500005005010B500F024
:1089A0004CFB10BDFF48C178002901D10121C170E5
:1089B000704710B5FB490020C870FB4A014603F020
:1089C00014FA002803D0F9A25821FBF7FBFB10BDD5
:1089D000EFE708B501200007406969460F38C0B2CB
:1089E00002F0A4FD0099012020310978002900D06F
:1089F000002008BD08B501200007406969460F380E
:108A0000C0B202F093FD009901202031097CFF29BA
:108A100000D0002008BD38B504466846FEF7EAFAE3
:108A2000EA480188091221700188617041880912A1
:108A3000A1704188E170818809122171808860717C
:108A400038BD38B5012500246846FEF7D3FA6846DC
:108A5000007801E0641CE4B28442FBD9284638BDAA
:108A6000F8B50120DA4C8002E0604000E060400090
:108A7000E060C010E0604010E0604020E0608020D6
:108A8000E0604504E5608604E660C702E7608002B6
:108A9000E0608010E0600001E0604000E0607D2068
:108AA0000001FEF7F5FAA813A0604000A0604000A6
:108AB000A060C010A0604010A0604020A060802096
:108AC000A060A560A660A7608002A0608010A06082
:108AD0000001A0604000A060F8BDF8B50120BC4CCA
:108AE0008002A0604000A0604000A060C010A060B4
:108AF0004010A0604020A0608020A0604504A560D8
:108B00008604A660C702A7608002A0608010A060F3
:108B10000001A0604000A0608012E0605020FEF7DD
:108B2000B7FAA813A0604000E0605020FEF7B0FA4A
:108B30006813A0604000E0605020FEF7A9FA2813F7
:108B4000A060C010E0605020FEF7A2FAE813A06019
:108B50004010E0605020FEF79BFA2814A0604020EF
:108B6000E0605020FEF794FA4020A0608020E06092
:108B70005020FEF78DFA8020A060E5605020FEF7BF
:108B800087FAA560E6605020FEF782FAA660E760EB
:108B90005020FEF77DFAA760E811E0605020FEF754
:108BA00077FAE811A0608010E0605020FEF770FABC
:108BB0006812A0600001E0605020FEF769FA6811B9
:108BC000A0604000E0605020FEF762FA2811A0602B
:108BD000F8BD70B501257E4CAD05A5607D20C000B7
:108BE000FEF756FAE56070BD38B5FFF739FFFFF7BD
:108BF000F0FFFFF7EEFE00281FD1FFF722FF00284D
:108C000008D00124724DE404EC60FF209130FEF79F
:108C10003FFAAC6000200124240700906069694697
:108C20000F38C0B202F082FC00980068401C04D0EB
:108C300060690F38C0B202F062FC38BD70B5012522
:108C4000634CAD05A560FF20F530FEF721FAE56025
:108C500070BD10B5534C2178002903D0FCF781FE7C
:108C60000020207010BD012801D14E4908707047C6
:108C700070B5584C049D217000216170A270190AD2
:108C8000E1702371002103E06A5C66187271491C6F
:108C90009942F9DB504904605B1D4160038170BD5E
:108CA000F8B5007801243F4D2607072813D00A287D
:108CB0001FD0AA2826D0BB280CD1706969460F386E
:108CC000C0B202F033FC009830300021009002F076
:108CD000FFFBAC70F8BD706908270F38C0B2694659
:108CE00002F024FC3D493A46009802F0F6FB6C7015
:108CF000F8BD706969460F38C0B202F017FC0098E1
:108D00002030E2E7706969460F38C0B202F00EFC0D
:108D10000098303000900068401C04D070690F3813
:108D2000C0B202F0ECFBAC70FBF71CFCF8BD08B560
:108D3000AA20694608701B4900208870284A012132
:108D4000684603F052F8002804D0FF2117A28C31A6
:108D5000FBF738FA08BD08B5BB2069460870114911
:108D6000002088701E4A0121684603F03EF8002862
:108D700004D0FF210DA29531FBF724FA08BD08B5F8
:108D80000A2069460870074900208870144A0121AA
:108D9000684603F02AF8002826D0FF2103A29F315D
:108DA00020E00000842100209D8901002E2E5C53CC
:108DB0006F757263655C7372635C62645F66616346
:108DC000746F72795F746573742E6300582D002080
:108DD00000050050FC2B0020678C0100982E00201D
:108DE000A18C0100FBF7EEF908BD00B5804885B005
:108DF0000078002816D001200007406901A90F382B
:108E0000C0B202F093FB019B0C222033019300932C
:108E10000123062102A8FFF72BFF02A8FFF719FF85
:108E200005B000BD0021734A084602F0DEFF0028AD
:108E3000F6D0FF21704AAE31FBF7C4F9F0E738B540
:108E400005460C46072069460870694900204870AD
:108E50006A4A0121684602F0C8FF002804D0FF21B9
:108E6000654AB831FBF7AEF90020654A04E02918DD
:108E7000CB78411C13540846A042F8DB38BD00B53E
:108E80005B4885B00178002916D04078002813D0BF
:108E900001200007406904A90F38C0B202F046FB68
:108EA000049B009320230922062101A8FFF7E0FE7E
:108EB00001A8FFF7CEFEB3E70021524A084602F0B0
:108EC00094FF0028ACD0FF214B4AC931FBF77AF957
:108ED000A6E71FB5464A1278002A0AD00B46009032
:108EE0000222062101A8FFF7C3FE01A8FFF7B1FE89
:108EF0001FBD454A02F079FF0028F9D0FF213E4A04
:108F0000D631FBF75FF91FBD00B5394887B000784F
:108F100000280DD004A8FFF77EFD04AB00930623C4
:108F20000E22194601A8FFF7A3FE01A8FFF791FE44
:108F300007B000BD70B5037804460D46102B03D072
:108F40002B48C078002820D005F02CFF121F0A1FE4
:108F50001F1F20232D411F26361F131F1F4C4F1F7D
:108F6000294AE01C02F041FF00280ED0224A27497E
:108F700009E00021264A084602F037FF002804D005
:108F800022491D4A091DFBF71DF970BDFFF768FD59
:108F900070BDFFF753FE70BDFFF71BFD0028FAD12F
:108FA000FFF7EDFE70BDFFF714FD0028FAD129B2DE
:108FB0002046FFF744FF70BD00210E4A084602F02C
:108FC00014FF0028F7D011490B4A1731DBE70021C5
:108FD0000C4A084602F009FF0028ECD00B49064A6B
:108FE0001B31D0E7FFF7DEFC70BDFFF7A0FE70BDC0
:108FF00084210020EB8D0100AC8D0100A18C0100CB
:10900000982E00207F8E0100D38E0100FF0100000A
:10901000098F010001200B49C00748600A49402020
:10902000086030BF084980310860704710B5FDF70F
:10903000C1FF06490120086010BD10B5FDF7BAFF59
:1090400031DF10BD0063004000E100E0000500409A
:10905000F748038B0146838314310246438BC38355
:109060002032086810607047F14820307047F0489F
:109070001C30704710B5EE49052388684968408860
:1090800000248000001D80B20B70C2054C70D20D10
:109090008B70130ACB700A7110BDE54810B52030F3
:1090A000006801072ED0E24914310860E048828B45
:1090B0000283C28B428383685A88521C92B25A80C0
:1090C0000B68446892001B0E1219537183680A687A
:1090D0005B8844689B00120C1B199A7183680A68AC
:1090E0005B8844689B00120A1B19DA718268406829
:1090F00052880968920010180172FFF7BBFF002028
:10910000FEF70EFF10BDCA4908707047C8480078C6
:10911000704710B5C64C0F23E060A0689B0501881E
:109120004A04900EC9058006090F98438905084333
:109130001F21490488439102890A0843FDF74AFD2B
:109140003C2105F08BFC2178012251402170A2685E
:1091500053885B1C5380E3681B1A204614304380FD
:1091600003681B091B010B430360190E52886368D7
:109170009200D2185171A268016852886368920007
:10918000090CD2189171A268016852886368920034
:10919000090AD218D171A1686268498800688900FB
:1091A000891808720020FEF7BBFE10BD10B5A0485C
:1091B00080684088142806D8FDF72EFE3C2105F073
:1091C0004DFCFFF7A6FF10BD7CB5994C2078002818
:1091D0000DD0FDF721FE3C2105F040FCE168401A6E
:1091E0002D210901884223DBFFF7E0FF7CBDFDF75D
:1091F000F3FB8079162801D20428F7D86846FFF7D8
:109200008FF800980128F1D1FDF706FE0199401A68
:10921000E121C9008842E9DDA06840881428E5D82A
:109220003C21019805F024FC0A38FFF772FF7CBD51
:109230006846FFF775F800980025032815D12069C6
:10924000002802D100F0E9FA206100F0E6FA216975
:109250001431884207D8FDF7DFFD0199401A4B21F0
:10926000C9008842E3DDFFF7A1FF25617CBD10B591
:10927000FDF7B2FB018803224902520389184A0410
:109280006B493F24896864020B88520CA3431A433C
:10929000FF230A80E1339A4383781B07DB0D1A43CF
:1092A0000A80C07852095201C006C00E02430A80EB
:1092B00010BD5F480021806801804180D7E738B544
:1092C000FFF7F7FF5A49002014310860143908707D
:1092D000C860086101242407009060696946193854
:1092E000C0B202F023F900980068401C04D0606905
:1092F0001938C0B202F0EFF938BD70B54C4881683A
:1093000046784A88921B4A80012118E07218456805
:10931000920054198B0064795D196C714468491C82
:109320001D191419A479AC714468C9B21D19141916
:10933000E479EC7144681B191219127A1A72826866
:1093400052888A42E2D280684088002803D1FFF721
:109350007FFEFFF78CFF70BD7CB5354DA868408857
:10936000002825D0840005216846241D01700023B3
:109370004370E2058170D20D82806868017043708D
:109380008170110AC17002710422401DA96805F0A4
:10939000CDFA0834A005020E012000074069696873
:1093A0001938C0B202F0CAF8002801D000207CBDF4
:1093B00001207CBDF8B501252D0768691C4C1938C2
:1093C000C0B26A46616802F003F961680422491D6F
:1093D000A06805F0ABFA204618304088002821D05C
:1093E000A2686368508821468000C0184079143113
:1093F000000208605688B600F618B67930430002BD
:1094000008605688B600F618F67930430002086006
:1094100052889200D218127A10430860000700D0D8
:109420000120207068691938C0B202F068F8F8BDF0
:109430008821002030B51C4C85B0A06805224088EA
:10944000002381006846091D02734373CD058273B2
:10945000ED0D05826068491D0270437082702A0A12
:10946000C2700571A26813881B0A43711388837147
:1094700053881B0AC371528802720C4A00900192F1
:1094800068460181FCF76DFA002802D0002005B083
:1094900030BDA068408860700120F8E7CAE7024844
:1094A000806840887047000088210020BD8101004D
:1094B0000C48002101600D480B4A4260C160012147
:1094C00081607047074901200860704708480068BC
:1094D000C00702D0084907480860704701490020CA
:1094E0000860704700000140FFFF5900000501407F
:1094F000000401403546526E00060140002805D0A8
:10950000D34905C8CA618861002070470020C04364
:109510007047CF4818307047CD480078704708280A
:1095200002D90020C0437047C94908700020704725
:10953000082801D300207047C649C0004018704772
:109540000022D243082808D2002906D0C14AC00010
:10955000801806C906C0002070471046704710B535
:10956000BB4C94B0207800904022BA4901A8FAF789
:109570000DFEE169A0691190012012910007406978
:1095800013221038C0B2694601F0D8FF14B010BDE4
:1095900010B596B01320694601240870240760694D
:1095A0006A461038C0B201A902F038F8002814D178
:1095B000A74901980978C0B2884206D1C20002A921
:1095C000A44805F069F900281AD0A148082212A978
:1095D000183005F061F9002812D00020149060695D
:1095E00014A91038C0B201F0A1FF1521149802F09F
:1095F00016F8002806D060691038C0B202F06BF887
:1096000016B010BDFFF7ABFFFAE730B595B01320E9
:10961000694608700120000740696A461038C0B2E8
:1096200001A901F0FBFF8A4C002809D00025257014
:109630004021884805F0D9F9A561E56115B030BD34
:1096400001982070402202A98248FAF79FFD1399E1
:109650001298E161A061F1E77D4810307047002861
:1096600004D07B4900680861002070470020C04397
:1096700070473EB5012069460870040760696A4674
:109680001138C0B201A901F0C9FF002809D168460C
:109690000078012805D16E48019910300068884291
:1096A00010D0606902A91138C0B201F03FFF032158
:1096B000029801F0B4FF002805D060691138C0B2EB
:1096C00002F009F83EBD00F0B7F83EBD08B5012034
:1096D00069460870000740695D491138C0B26A46A2
:1096E000103101F09BFF002803D168460078012863
:1096F00015D057497F22103108681206192390436C
:109700001B06554AC0181040412252018018534A86
:109710001040552212048018D2031043086008BD7F
:109720004B48806870474A498A68904202D08860F6
:10973000012048700020704738B5454C60780028FB
:109740000ED001252D07686969461638C0B201F0B0
:10975000EDFE68691638C0B201F0BDFF00206070F0
:1097600038BD08B5012069460870000740693849CE
:109770001638C0B26A46083101F050FF344900285B
:1097800006D168460078012802D18868002801D1F6
:109790003348886008BD10B5012109074A69163AA7
:1097A000824208D148692A491638C0B201220831DC
:1097B00001F0C4FE10BD4A69113A824202D100F0A4
:1097C0003BF810BD496910398142FAD1FFF7C7FE55
:1097D00010BD1F480021024601701032116020495F
:1097E000816070471A49091D088070471848001D9C
:1097F000008870471649091D087070471448001DFD
:10980000007870471249091D487070471048001DC4
:10981000407870470E49C86070470D48C06870476F
:109820000B49887070470A48807870470849C870AB
:1098300070470748C078704710B50120000740699D
:1098400003491138C0B20122103101F077FE10BD7A
:10985000B0210020182F00201F80FFFFFF7F00FF96
:1098600010270000028810051305000D002B05DAF3
:1098700001231B03181AC043401C00B2920B05D0F1
:10988000012A05D0022A00D18880704708807047DD
:109890004880704710B5CD4A0B2313700C465070AA
:1098A0000321CB4BCB48FDF734FCC94989782170A3
:1098B00010BD10B5C84C03222270C84B00221A708C
:1098C000C24A0A23137050709170C14B2178C1486D
:1098D000FDF71FFC10BD08B5002168460170694600
:1098E0000020FFF7D7FF6846007808BD08B50021C3
:1098F0006846017069460120FFF7CCFF6846007892
:1099000008BD08B500216846017069460220FFF7CE
:10991000C1FF6846007808BD08B50021684601709F
:1099200069460320FFF7B6FF6846007808BD08B512
:1099300069460B20FFF7AEFF6846007808BD38B5D2
:109940000446002568460570258069461420FFF707
:10995000A1FF68460078208068460570694615209A
:10996000FFF798FF684600782188000201432180B4
:1099700038BDF8B505460C46164669460E20FFF779
:1099800089FF6B461878288069460F20FFF782FF11
:109990006B461978288809020843288069461020F8
:1099A000FFF778FF6B461878208069461120FFF793
:1099B00071FF6B46197820880902084320806946A8
:1099C0001220FFF767FF6B46187830806946132036
:1099D000FFF760FF6B461978308809020843308032
:1099E000F8BDF8B506460C46154669460820FFF74F
:1099F00051FF68460078307069460920FFF74AFF3A
:109A000068460078207069460A20FFF743FF6846E1
:109A100000782870F8BDF8B505466C4A0D20107026
:109A200007216B4B6B48FDF774FB694C0646A07829
:109A3000627801021143684601802946FFF712FF50
:109A40002079E27801021143684601802946FFF738
:109A500009FFA07962790102114368460180294615
:109A6000FFF700FF3046F8BD0020704738B50446C8
:109A70001546002268460270C9B22020FFF719FF80
:109A800000212120FFF715FF29462020FFF711FFB5
:109A900069462720FFF7FEFE68460178FD20014059
:109AA0006000401C0843C1B22720FFF702FF38BD09
:109AB00038B504461546002268460270C9B2232014
:109AC000FFF7F7FE00212420FFF7F3FEE9B225207F
:109AD000FFF7EFFE00212620FFF7EBFE6946272067
