:020000040001F9
:10400000483E002025AA010037AA010039AA010074
:1040100000000000000000000000000000000000A0
:104020000000000000000000000000003BAA0100AA
:1040300000000000000000003DAA01003FAA0100AE
:1040400041AA010041AA010041AA010041AA0100C0
:1040500041AA01000000000099C90100D14F0100F0
:1040600041AA010041AA010041AA0100F14B01004F
:1040700041AA010041AA010041AA010041AA010090
:1040800041AA010095CF010041AA010041AA010007
:10409000ABCF0100D9C6010085C7010041AA0100CC
:1040A00041AA010041AA0100000000000000000038
:1040B0000000000000000000000000000000000000
:1040C000034885460BF086FB00480047374C01004B
:1040D000483E0020401E00BF00BF00BF00BF00BF21
:1040E00000BF00BF00BF00BF00BF00BF00BFF1D1D5
:1040F00070470000401E00BF00BF00BF00BF00BFF0
:1041000000BF00BF00BF00BF00BF00BF00BFF1D1B4
:10411000704700000123FE4CDB02E36008F06EF8FC
:10412000FD49FC48C860BFF3408FFEE710B5FB4C6B
:10413000206A09F0AAF8002802D1206A09F02DF8B7
:10414000032100220904206A08F0EAFF0120207000
:1041500010BD10B5F14C206A09F01FF80020207046
:1041600010BD10B5ED48002101704278012A08D138
:10417000417006F0C7FB022804D00021102005F092
:10418000CAFA10BD0121F9E710B5642003F0ACFFB5
:10419000E34807F0A1F9002802D0E2A2D52106E009
:1041A000DF4807F0A3F9002803D0DEA2D821FFF7EB
:1041B000B1FF10BD10B5D9490978012921D0817806
:1041C000012915D004292CD006291AD100780028FD
:1041D00017D106F0B0FB002813D006F05FF80028D6
:1041E0000FD102F0A9FA14280BD10021072029E0F1
:1041F0000078002806D0012801D0022801D105F05E
:1042000017FB10BD06F08BFB0028FAD006F046F82D
:104210000028F6D102F090FA1428F2D100210520EE
:1042200010E000780028ECD106F07FFB0028E8D0F1
:1042300006F034F80028E4D102F07EFA1428E0D128
:104240000021062005F067FA10BD10B501680029AD
:1042500007D0012904D0022902D10830FFF7AAFFB4
:1042600010BDAE490122C8781043C870C143890708
:104270000DD08007F4D4AA48A849008928316EDF00
:104280000028EDD0FF21A7A25331FFF743FF002103
:10429000AA4A084608F0C5FC10BDFF21A1A2723150
:1042A000FFF738FF10B59D4986B0091DA44852DFBD
:1042B000002803D0FF219BA27D3134E004ACA11C77
:1042C000A04852DF002803D0FF2196A280312AE0C7
:1042D000A11C9D4852DF002803D0FF2191A2833109
:1042E00021E0A11C994852DF002803D0FF218DA2B4
:1042F000863118E000200290039095480090954880
:1043000001906946864807F099F8002803D0FF21FC
:1043100084A2913107E0824807F035F9002804D0E3
:10432000FF2180A29E31FFF7F5FE06B010BD0A46C0
:1043300001468948FFF7EEFE11B5814991B0487BEF
:104340000A7B0102114368460180744902240A79FC
:1043500082700C613C2101A80BF0DDF90122684656
:1043600001944272828111A8049000216846018460
:10437000099102850B9001A807F02DFB002803D0BE
:1043800068A27649FFF7C6FE12B010BDF0B589B03D
:10439000142168460BF0BFF90020694608700190AF
:1043A00008725E4C039020690326502702250028DE
:1043B00006D0012805D002282DD0032822D133E0D1
:1043C000256105A809F00CFC002802D055A264491B
:1043D0001FE06846007E002803D108A80078002866
:1043E00008D06846057205A803900420FFF7A4FFD3
:1043F000256100E026616846078214214182012080
:1044000008F08AF9684663DF002819D0544945A2AC
:104410002A31FFF77FFE0520FFF78EFF68460782EF
:10442000282141822661EAE70520FFF785FF19214F
:10443000890168460182B421418202202661DFE7BA
:1044400009B0F0BD474A0320D061464940390863AE
:10445000C8628862486250619061C8611060C86338
:1044600088634863D061D061D06010610862012127
:104470002748C9058160CA1282600A1382604A1304
:1044800082608A1382608A1082604A108260802271
:104490008260CA1182600A1282604A1282608A12A5
:1044A0008260816081600911816049008160091327
:1044B0008160704708B52C4B00932C4B0B221021C8
:1044C000002008F095FD002804D0132115A2490111
:1044D000FFF720FE08BD10B505F034FB10BD10B588
:1044E0000E4C606A08F059FEE12100224904606A1E
:1044F00008F016FE10BD10B5084C606A08F04DFEBD
:1045000005210022C903606A08F00AFE10BD000000
:10451000000500500400FA0500ED00E00020002036
:10452000EC2B00202E2E5C536F757263655C7372EA
:10453000635C6D61696E2E630000000089410100BB
:10454000E8FB0100F8FB010008FC010018FC010079
:104550004B4201009B420100EFBEADDE2D03000087
:104560000102000040070050C74C01003825002020
:1045700010B505F0F9FA0028C8D0FFF7B0FFC5E77D
:1045800010B5FF4A0021FF4808F083FD002802D043
:10459000FD4AFE494BE0FB48FD4A0021001D08F0A2
:1045A00078FD002803D0F949F74A891C3FE002F062
:1045B000C6F8002803D0F549F34A891D37E0F54ACB
:1045C0000121F54808F065FD002803D0AB21EE4A33
:1045D00089002CE0EB48F14A0021083008F059FD31
:1045E000002803D0E949E84A163120E0E548EC4AC2
:1045F0000021103008F04DFD002803D0AF21E24A21
:10460000890014E0DF48E74A00210C3008F041FD42
:10461000002803D0DD49DC4A203108E005F011F81C
:1046200005F053FA002804D0D849D74A2531FFF7BE
:1046300071FD6BE710B50478DB48214606F0B5FB49
:1046400000280BD0082809D0D849884206D0D8497C
:10465000884203D0B321CC4AC90010E0C9481438BD
:10466000002C02D00021C16050E7C168491CC16024
:104670000329F9DD1521C08866DFC34ACD49FFF75C
:1046800049FD10B59AB0402168460BF044F8CAA124
:10469000684606F095FACBA108A806F091FACBA1DE
:1046A00002A806F08DFACBA106A806F089FA002030
:1046B00018A9087001200007406919A90F38C0B275
:1046C00007F050FE05F03FFA010004A81ED0199A29
:1046D000002110AB545C5C54491CC9B22029F9D3A9
:1046E000194606F06DFA01200146103108A801773D
:1046F0000020014608A84177684606F031FC0028F2
:1047000006D0A249A04AE031FFF704FDB3A1E8E7D3
:104710001AB0FBE69C4AB549FFF7FCFCF8B5994C8A
:1047200001884526B24DB34AF6430023143C1729AD
:1047300036D00EDCB04F102921D0112931D01229EA
:104740002ED013292CD1224628320021E0886FDF99
:104750000EE0192974D01A2973D0392901D05529AE
:104760001ED11370002004F01EFE1321E08866DFC6
:10477000002815D09D49844AF231FFF7CBFCE37045
:104780000221216180881E46E08074DFE08873DFAB
:10479000258166704B2101224904386808F0C0FC6D
:1047A000F8BD1D461370002004F0FDFD0020C0433D
:1047B000E08001F0C1FF052801D101F06FFE01F09A
:1047C000BBFF012801D101F069FE386808F0E5FC63
:1047D0008A480178002902D0057001F0CBFF00F073
:1047E00041FE002801D000F0DFFF01F03FFC00286F
:1047F00017D006F07FF8002813D006F083F80028C1
:104800000FD0002006F072F8002001F033FC05F014
:1048100045FD002805D10820205EB04201DA0120C4
:104820006070A078002803D0A57009F0AFF909E006
:1048300009F0F5F8002805D06C49534AB6319CE7D9
:104840000FE01AE009F0F7FA06F09FFE002803D007
:1048500066494D4ABC3190E7FFF798FDFFF766FCCB
:10486000F8BD137080790028FAD12069042801D19D
:1048700003202061FFF78AFDF8BD0627C75706F021
:1048800041F85F4800680128F6D10820205EA84260
:1048900001D1278109E003210AF08CFE45000321A4
:1048A00038460AF087FE2818208106F023F80028F1
:1048B000E2D10820205EB042DEDD012006F016F8CD
:1048C000F8BD10B504460088102802D0112802D087
:1048D00004E0032000E0002007F01EFF32482146DC
:1048E000383006F03CFD30482146183000F09FFC7F
:1048F000204609F025F8204607F0DDF921462A4830
:1049000006F068F92046FFF709FFFFE508B53D4BC3
:10491000254900933C4B502284390D2007F00AFFB3
:10492000002804D02349184ADA39FFF7F3FB08BD01
:1049300010B5042804D01F49134AC639FFF7EAFB13
:1049400000F096FD002806D00E4801211438817031
:104950001321C08866DFD9E510B504460146124828
:10496000383006F0F4FC23680AF089FF0358580336
:104970005800044902221439C8781043C87045E031
:10498000636301001420002024450100A1020000FF
:10499000A56301006F85010014210020C5570100A7
:1049A000D744010063410100B42B00200330000014
:1049B00001340000A40500004C6F75697320506934
:1049C0006F6E0000312E332E3000000050494F4EE4
:1049D00000000000312E302E300000003031323324
:1049E000343536373839616263646500B3030000DB
:1049F000FF0F00003821002088200020B820002070
:104A00006C200020B94C0100C3480100C04380075E
:104A100004D10021F84A084608F003F976E570B59C
:104A2000F64802680121D2071BD001608404656941
:104A3000383D03E0E8B207F07EFC6D1C6069183871
:104A4000A842F7D86569183D07E060690F38A842A9
:104A500002D0E8B207F06FFC6D1C60690E38A84206
:104A6000F3D80124E64DE405EC60FF20913003F01B
:104A70003BFBAC6070BD0020E24A022183009B1822
:104A80001960401C2028F9D37047FEB50024254644
:104A9000684661DF00281BD0DB48816A446A8DB21A
:104AA0002046294605F04AFFFFF7CCFC05F015F833
:104AB00000F08DF9FFF7FEFCD44A1421082008F01D
:104AC0009DF8002812D0FF21D14AAD31FFF722FB1B
:104AD00000266F46B81940780021F2000AF0E1FD87
:104AE00004430D43761C062EF4DBD9E700F0F0FA00
:104AF00000F004FB02F049FBFEBD00B587B005F0F5
:104B000051FDFFF73DFDC349022007F0ACFF00282F
:104B100002D0BF4AC0495AE002F0D4F80020012375
:104B20001B075A696946133A0A705A69143A4A705F
:104B3000BA490191BA49029169468870684609F0FC
:104B400080F8002803D0B449B14A15393FE0FFF797
:104B5000DDFE00F0C1F800F0F5F80520FFF7ECFBF2
:104B60001C2168460AF0D7FD05210904019149106E
:104B7000002002910090032269460A73C881012235
:104B80000A740590A7480690684607F03AF800288E
:104B900002D09F4AA4491AE000F007F9A34A052170
:104BA000012007F0A3FD002803D09B49984A08394B
:104BB0000DE0002007F0B0FD00239D4A02219D4832
:104BC00007F04FFE002804D09349914A2031FFF7A7
:104BD000A1FA00F0FFFD01F0FAFD002806D0002048
:104BE00001F0C5FD02F0C3FB07B000BD0120F7E7EF
:104BF00091490020086091490120486090490004D3
:104C00008860904940110860704710B500F0DFF8E7
:104C100001208C4AC102803A11608C4A8A49916015
:104C20008A4A082140321160854A01045160834953
:104C3000086030BF6AE4FFF71EFFFFF7E6FF714927
:104C400083485C3108606E49C0058860FFF71DFF2E
:104C500005F07BF8FFF7E3FEFFF74FFF07F026F9BB
:104C600000280DD105F023FC01F07EFD002807D0BF
:104C700005F046FD05F0A6FD05F0EFFD03F040FC54
:104C800003F06BFE03F0BCFE04F065FC04F099FC3D
:104C900003F023FBFFF77AFB07F028FE05F08CFCFE
:104CA00008F034F805F08CFC3DDF0028F8D05A49B4
:104CB000574A3C31FFF72EFA10B50021654A0846E5
:104CC00007F0AFFF22E41CB501910090624A082171
:104CD000684607F0A6FF1CBD0EB511206946087294
:104CE00004225E4902A86CDF002803D05849484AD4
:104CF000D83124E00920800168DF002803D0B721E3
:104D0000434A89001BE00021FF20009141306A46A0
:104D100001911080FF20913050809180D0806846B2
:104D20006ADF002803D04049394AE43907E003200C
:104D3000C04367DF002804D03B49354AE139FFF71B
:104D4000E9F90EBD08B5FFF7ADFA00200090FC218F
:104D500068460170012001462031684641700020FC
:104D60000146684681702B486946283005F0C4FE2C
:104D7000002803D02C49264A8B3911E000F09AF81C
:104D80002C483749083841603649016001462148BE
:104D90004C3000F0D4FA002804D039211C4A090113
:104DA000FFF7B8F9FFF76DFC08BD22491E20103946
:104DB0000880887801221043E12210400C30DF2265
:104DC000104088700720C87010200871704726496D
:104DD00001208861254900224A60830798604A6063
:104DE000704710B5002904D021A275210020FFF7DB
:104DF00091F907F0B3FC1CE4894101000004004074
:104E0000000500500007005080000010E82300203B
:104E100024450100802B002047050000594901006E
:104E20003149010015470100CA03000003C6010013
:104E3000660600003820002040B1004000B000406D
:104E400000B3004080E100E0FF0F000000B500402B
:104E500001020000E34D01009D4E0100CC4901001C
:104E60001D5F01007D600100000500400001004061
:104E70002E2E5C6E726635313832325C496E636C50
:104E80007564655C626C655C626C655F73746163BC
:104E90006B5F68616E646C65722E6800024608295B
:104EA00005D0FF211BA216310020FFF733F911684E
:104EB0005068084700B585B0142168460AF02BFCFD
:104EC0000021684600910171029164210173012063
:104ED0000146103168464173012001461031684691
:104EE0008173002001466846C173012001461031DC
:104EF000684601746946124805F038FF002804D05E
:104F00006B21104AC900FFF705F90F4800F0E8F8D7
:104F100005B000BD2E2E5C6E726635313832325CC3
:104F2000496E636C7564655C6170705F636F6D6D15
:104F30006F6E5C6170705F74696D65722E680000E1
:104F4000B42B00202445010035460100A0498842C9
:104F500001D3642070479E493239884201D95F20CD
:104F600070479B496439884201D95A207047984953
:104F70009639884201D950207047AF2109018842F3
:104F800001D9462070479249FA39884201D93C201C
:104F900070479049884201D9322070478D49323993
:104FA000884201D9282070478A496439884201D94A
:104FB0001E20704787499639884201D914207047CE
:104FC0008449C839884201D90A20704701207047B6
:104FD00070B5814801680024804D00291DD004600F
:104FE000A8687F4A01215160E121090148437D49B8
:104FF0000AF0CAFA7C4A80B25080FFF7A7FF10700F
:105000005268002A09D00121774807F00AFE0028DB
:1050100003D076A2E321FFF77DF82C6070BD6F49C5
:10502000012008606C4A002111606D4908607047DA
:1050300070B50546FFF7F3FF0A2003F055F8664CFC
:1050400002E00A2003F050F820680028F9D0002080
:10505000206062488068624A01215160E1210901B3
:10506000484360490AF090FA288070BD66490120E3
:105070004860664801680902090A02071143016095
:105080006349802008607047F1B55F48002747609A
:105090005F4901258020803108604F4C2760504EC9
:1050A0007560FFF7BCFF0A2003F01EF82068002897
:1050B000F9D02760494880687560E12109014843BB
:1050C00048490AF061FA00990880FFF7CFFFF8BD60
:1050D00042495048486040490020086070479EE7B8
:1050E00010B5414A50605088FFF730FF1070526889
:1050F000002A02D001213C48904710BD10B53A4823
:105100004088002803D13848801CFFF791FF3349BD
:1051100000200860FFF7AAFF33483F4A012108300A
:1051200007F0B7FF002804D0FF2130A27831FEF746
:10513000F1FF10BD3948807C7047014610B52A4800
:105140000022806807F0ECFF002804D0FF2127A28E
:105150008B31FEF7DFFF10BD10B52348806808F0E3
:105160001CF8002804D0FF2120A29431FEF7D2FFC2
:1051700010BD70B501200024C003FFF7DEFF1A4DFB
:10518000274E6888B04201D3012406E030BF07F003
:10519000BDFD04F0FCFB0028F3D1FFF7DDFF204646
:1051A00070BD0EB51F480221017000214170092217
:1051B0008270C170012202710B4A12784271019112
:1051C0000090062069460881684600F098FB0EBDF5
:1051D000B80B00008C0A0000007100400075004010
:1051E00000700040FF030000502000202E2E5C5372
:1051F0006F757263655C7372635C62645F62617435
:10520000746572792E6300000073004004E400E0CE
:1052100000E100E002800000DF500100B42B00201C
:10522000980800000C2C00208C4B07C3704710B569
:105230000B88012B2ED0102B16D00022112B1AD048
:10524000502B10D1891D0B88048AA34202D10C8BEC
:10525000022C17D08288934205D18369002B02D09B
:105260000A8B1A31984710BD89888182C06900284D
:10527000F9D0804710BD0021C9438182827500F0BA
:10528000FDFE10BD498B012901D0827510BD0121A1
:10529000817510BD71480268002AFAD081684068A3
:1052A000904710BD70B500240546601C90B0000703
:1052B000000F08A9103008940870601C0007000F48
:1052C000103048708878F9263040801C88701C2186
:1052D00001A80AF020FA69460879102108436946B6
:1052E0000871029408A804940594079406902878FD
:1052F00008A98871032069468884112000940870E9
:1053000048708878E7213040801C084001263043EF
:105310006946887014210AA80AF0FDF909A80A90C4
:1053200068460B9069460E8614204C8688862B466C
:1053300068880C330AAA01A9A2DF10B070BD30B58D
:10534000474B04460D460FCB85B003936B4607C30E
:105350000020C043A0826868A0612868E061002046
:10536000A0752146684652DF002815D1217868468D
:10537000817401210182A21C04A90120A0DF002860
:105380000AD129462046FFF78DFF002804D129467F
:10539000204600F01FF8002805B030BD1FB5837D02
:1053A000002B05D01388142B04D9072004B010BD9E
:1053B0000820FBE700230093019302930393848961
:1053C0006B461C800391029201219970808A694684
:1053D000A6DFEBE770B58EB005461C2168460AF0E3
:1053E0009AF9684601780820014368460170002454
:1053F00001940394049405940694297808A8817074
:10540000022168460184601C0107090F10316846BB
:105410000794017701200146103168464177817F6A
:10542000F9200140891CE7200140012631436846EC
:105430008177142109A80AF06EF908A8099007A835
:105440000A90684686851421C485018668882B1DCC
:1054500009AA6946A2DF0EB070BD0000002C002032
:10546000B8F80100FF4800787047FE49087070479F
:10547000FD49FE4A09880120914200D10020704771
:10548000F7B582B002980C461546002804D1FF20DB
:10549000F7A1D530FEF74BFF042C04D0FF20F4A178
:1054A000D630FEF744FFEF4C2646A0683036002881
:1054B00004D0022804D001280CD00DE0A5600BE038
:1054C000012D09D1B088012806D102980068A06199
:1054D00001200FE0022D0CD0002069460880A06852
:1054E00002280AD0002806D002980568002D49D16C
:1054F00050E00220E06005B0F0BDDA481430C17819
:105500000129F8D10288807801282DD00023D549BF
:10551000AB20383108706846007910250009000179
:105520002843DF25284001256B405B011843830693
:105530009B0E684603714B7000274F8050BA8F80D6
:10554000C8800822684602806A46D348FFF726FFD3
:1055500000280BD0D149884215D1C249D048143116
:105560000222FFF761FEC6E70123D0E7BD48A7602E
:105570001430C770E0680128BDD1A569002DBAD0EC
:10558000E760A0607AE00020B649A0601431E060D6
:10559000C870B0E7B6A1C348FEF7C9FE6EE0B149D6
:1055A000082040316A461080012716E068890028EB
:1055B000A1D02868002804D1BA48ADA11530FEF763
:1055C000B6FE68891421142800D801466A46118065
:1055D00029892A680227081A81186A46AE48FFF707
:1055E000DDFE00280ED0AD4988424BD1AC4829469B
:1055F0000122FFF719FE01212A468904606A07F09B
:105600008FFD78E7002F39D0012F04D0022F0AD068
:10561000032F33D12AE0B08801282FD10020B08099
:10562000206460642AE0694668890988401A000499
:10563000000C688122D100273A4639463846FFF7E8
:10564000F3FDA7600121E5612A468904606A07F03D
:1056500067FDE068022811D182481430C078012823
:105660000CD10220A0600020E06038E77D481430B3
:10567000C178012902D10021A160C170B088012840
:1056800094D18CE700273A4639463846FFF7CCFDDF
:10569000A7606968002902D0AF7300208847E068DE
:1056A0000228AED1E760A06019E738B504000D46C6
:1056B00004D1FF206EA1BC30FEF739FE012D08D0C9
:1056C000022D05D10222009404216846FFF7D8FE7E
:1056D00038BD00946089002803D06248406A07F012
:1056E0005CFD0122F0E770B5040024D05D4DAB20D5
:1056F00040352870002068702289100AA870EA706E
:105700000020216804F052F9010A29715549687195
:105710004888020AAA71E87122896281A081401C2E
:105720004880284601211038818004602046FFF718
:10573000BCFF002070BD072070BD70B50446807BA3
:1057400000281BD06089002809D1E07B032806D2FD
:10575000401CE0732046FFF7C6FF00280ED000254E
:105760002A4629462846FFF75FFD3E488560C5600A
:10577000A5736168002901D00020884770BD002111
:105780000160704710B5002809D0012806D13648BD
:1057900036490088884201D0132166DF10BD00F031
:1057A0007DFE01F05DF810BD02F057FE01F00EFD28
:1057B00006F022FD012039DF3C493B48C860BFF3B9
:1057C000408FFEE7274901200870274813210088F1
:1057D00066DF704710B5364800218173C1732148D8
:1057E000344A243007F055FC002804D0FF2120A2C1
:1057F0002831FEF78FFC1B482F4A0021283007F084
:1058000048FC002804D0FF2119A22B31FEF782FCAE
:1058100014482A4A00212C3007F03BFC002804D011
:10582000FF2113A22E31FEF775FC002010BD70B5CC
:105830000C4D0E46E969002960D0898981425DD10D
:10584000686A07F0AAFC0024002E39D0E869C17B01
:10585000032941D3224621462046FFF7E5FCAC60F0
:10586000EC6044E05C20002006200020FFFF0000E8
:105870002E2E5C536F757263655C7372635C626439
:105880005F636F6D6D756E69636174655F70726F74
:10589000746F636F6C2E6300CC2B0020033000000C
:1058A000AB560100210200000400FA0500ED00E003
:1058B000D42C00203B5701007F5701008557010081
:1058C000224621462046FFF7AFFCE8698473416811
:1058D000002913D0012010E0491CC173FFF703FF1A
:1058E00000280BD0224621462046FFF79DFCE869A0
:1058F00084734168002901D00020884770BDF8B545
:10590000040006D0FF4F0026B87B002803D00420F7
:10591000F8BD0720F8BD0120B873FB4DAB202870FF
:105920006E702289100AA870EA700020216804F0C5
:105930003DF8010A29712A466871403A5188080ADF
:10594000A871E97163687B6023683B6023893B81B0
:1059500023897B81FE73B981491C5180294601222C
:1059600010398A800F6038461146FFF79EFE0020EE
:10597000F8BD7047F8B50025062812D004DC0028D1
:1059800009D0012804D106E0092816D00A2828D019
:1059900007252846F8BD002AFBD1002003F04EFB66
:1059A000F7E7012AF5D10978D848012902D000216A
:1059B0000170EEE701210170EFE70C2AE9D1887848
:1059C000CA78000210434A78120402430878040699
:1059D000144304F09EFFA042DBD0204604F096FF63
:1059E000D7E70A2AD5D1087800908878CA780006C7
:1059F0001204024308794C79000210430443887969
:105A0000CA7900020243087A4F7A03024E781F4394
:105A1000104602F019FCBE493846484302F017FC14
:105A20000A20604302F016FC009802F016FC304693
:105A300002F01EFCADE700B5B6A103C985B0009029
:105A4000B04801910221C8380170002141700B2239
:105A50008270C170032202716A461278303A427134
:105A60006A469278303A82716A461279303AC27147
:105A70000290039108206A46108202A8FFF73FFFB8
:105A800005B000BDFEB504F05DFF9E4A0223C83A92
:105A90001370002353700B249470D3700625157176
:105AA0000D0A55710E02050E35439171D5710E0424
:105AB000050C354315720D06010A29435172907287
:105AC0006846019300920481FFF719FFFEBDF0B50F
:105AD0000346002585B00C461046102B7ED009DC0D
:105AE00009F0CDFE0D181B408F1894A718AC18B202
:105AF00018B51800272B72D006DC202B70D0212B74
:105B00006FD0262B06D117E1322B6BD0402B6AD0F9
:105B1000412B69D007252846EDE4042A70D100F016
:105B2000EBFFA178E67809020E436178C07809049A
:105B30000E43217809060E43B102C90E884205D0F2
:105B4000002004F0E3FE002002F0A2FE304601F047
:105B500059F900F009FE0028DDD002F07BFC002896
:105B600071D0D8E7052109F00FFD002974D1C0B22A
:105B70000090082801D90820009004F04AFD002672
:105B800038E0B0003218A05C00211219944602914E
:105B9000039052780B06170A3B4312061143184331
:105BA00062460291039092780023170C1B043B433A
:105BB000120411431843624602910390D2780023E5
:105BC000170E1B0212023B43114318436246029117
:105BD000039012791143029102A906E03AE0B2E083
:105BE00058E069E0B6E0BCE0D0E0304604F022FDC9
:105BF000761CF6B200988642C3D304F044FD8AE7CF
:105C00002AE0002A28D101F05FF984E7042A23D191
:105C1000A078E178627800020843237811040143F8
:105C20001806084300D13D4804F0F9FD04F000FED9
:105C300071E7002A95D101F0AEF96CE7002A90D106
:105C4000FFF7AFFA67E722E0FFF7F5FE63E7FFF73C
:105C500019FF60E7042A01D009255CE700200090C5
:105C6000E0780090A1780902084300906178090467
:105C7000084300902178090608430090684604F024
:105C80006AFD04F072FD01F07AF90028B7D002F045
:105C900037FC40E7012AB2D108780407240F022C10
:105CA000ADD8204604F02AFE002C03D0012004F0D9
:105CB0001DFE30E70020FAE7082AA0D1002000905E
:105CC0000190E079002101910090A2791302DA1786
:105CD000184311430191009062791204D3171043C5
:105CE00019430191009022791206D31710431943EA
:105CF00001910090E27811430191A27812021143C0
:105D000001910DE0D42C00209C200020382100209F
:105D100010270000312E332E30000000581B0000E9
:105D200062786846120411430191227812061143E9
:105D3000019104F05DFC60E70878002800D00120A4
:105D400004F0EAFDE7E60878002800D0012004F01E
:105D5000E9FDE0E60878002800D0012004F0E8FD25
:105D6000D9E6042A95D120785A2892D160785B2808
:105D70008FD1A0785C288CD1C8785D2889D100218A
:105D8000092003F0C8FCFEF7B6FBC4E6042A90D154
:105D90002078A5288DD16078B5288AD1A078C5282B
:105DA00087D1C878D52884D1FF49FE48C860BFF3A1
:105DB000408FFEE710B5012000F0D9FC002004F070
:105DC0008DFD002004F0A2FD02F047FB04F07DFDF4
:105DD00002F0B3FB10BD3EB5F44A0123137000235B
:105DE000537002249470D370147150719171072014
:105DF00069460193009208816846FFF780FD3EBD29
:105E0000F7B50D4600280DD0002D0BD00278411CAF
:105E1000042A2ED008DC012A0DD0022A1CD0032A25
:105E20006AD10CE00720FEBD052A2FD0062A50D0EB
:105E3000FF2A61D137E0807800F0EEF95CE0CA78A3
:105E40008C781102214349BACA058378411DD20DCD
:105E5000184600F07DF94FE0CA788C781102214392
:105E600049BACA058378411DD20D1846FFF72FFEA7
:105E700042E0CA788C781102214349BACA05837876
:105E8000411DD20D184600F02FF935E0CA788C7804
:105E90001102214349BACA058378411DD20D184623
:105EA000FFF768FD28E0012D26D1C078012804D035
:105EB000022805D003281FD105E00122114604E085
:105EC0000122022101E001220321032000F02CFC29
:105ED00012E00526841C0DE06078A17800024018CD
:105EE00087B23946204604F0D8F8E419E41CF019CA
:105EF000C01C86B2A81BEFD502980021016008469D
:105F0000FEBD10B5AA4A917010800120D070022108
:105F10001046FFF7CAFB002010BD7047FEB5A44C29
:105F20000F46143C1646A06A07F0AFF9002802D1CC
:105F3000A06A07F032F99D48226AD830014608313C
:105F400000250091002A12D0012A44D0022A0DD146
:105F500078786A46C106107108D58006C10FF879B5
:105F6000BA790002104340BAFFF761FCFEBD3978F0
:105F7000AB29FBD105463246394609F0B3FBA68072
:105F8000698848BA0830801B00B2E08000281FDC16
:105F900068786B46C206187103D58006C10FE88881
:105FA000E1E7022000262062A680A88849BA8AB2CA
:105FB00040BA009900F06CF9002802D02662E88807
:105FC00035E0E888012140BAFFF79BFF68883EE092
:105FD0000120206242E07549A088D831019008185C
:105FE0003246394609F07EFB01988019A080E0888E
:105FF000801B00B2E080002830DC6C4E6A46D83648
:1060000070781071C10604D58006C10F2562F08832
:10601000A9E702202062A5807188B0884ABA40BAF8
:10602000009900F035F900280BD02562F088002196
:1060300040BAFFF766FF00215E4A084606F0F1FD10
:10604000FEBDF088012140BAFFF75BFF7088584A17
:1060500041BA0C320098FFF7D3FEFEBD544A01212D
:106060000C328904A06A07F05BF8FEBD5048143872
:10607000407870474E4914394870704770B5002415
:10608000204622462146FFF7CFF8494D143D2869A6
:10609000012800D168702C61AC614448AC60C83004
:1060A000EC608473C473E869002805D08473416888
:1060B000002901D0002088472C62AC803C48EC804D
:1060C00004804480686A07F0E0F8002802D1686A1A
:1060D00007F063F8A86A07F0D8F8002802D1A86A88
:1060E00007F05BF8002070BD10B50024034620289F
:1060F0001DD005DC09F0C3FB060C0F121215180C9D
:10610000212B17D0302B18D0312B19D041281AD081
:106110000724204610BD0021052016E003F088FB6F
:10612000F7E70021062010E0002107200DE0002104
:106130000A200AE000210B2007E000210C2004E0E7
:1061400000210D2001E000210E2003F0E4FAE0E739
:10615000F7B5174C0546143C0027E06A0E46012DA2
:1061600008D0032D01D107F018F8032D2DD0062DEE
:1061700050D14BE007F011F80298202822D1002ED0
:1061800020D0FEF7D7FF0A281CD3202231460A4828
:1061900009F0A8FA0F2100224904E06A06F0C0FFC6
:1061A00000210BE00400FA0500ED00E00C2C0020BB
:1061B000702000201B5F0100482D0020012003F00B
:1061C000AAFA27E000F04CFB24E00298202807D12F
:1061D000002E05D02021304600F079FB070008D0C2
:1061E00000F0C5FB4B2101224904E06A06F098FF4C
:1061F00010E003F01CFA04F0CDF9002801D104F0FE
:1062000014F800F09FFB0120206103E026481321D1
:10621000008866DF3846FEBD3EB50124012817D050
:10622000112814D12148002104704170122282707B
:10623000C1700422027144718471C47104720191AD
:1062400000900920694608816846FFF758FB3EBD6B
:1062500003F009FA0546012003F002FAFEF76AFF8F
:10626000142807D201210846FFF7B5FD284603F0A0
:10627000F7F93EBD00210846FFF7ADFD0C480521AA
:1062800004700C480022C903006806F049FF3EBDB7
:1062900010B50446002003F089FBA04201D1002084
:1062A00010BD0B2010BD0000062000200C2C00208B
:1062B0005C2000201C2000200EB5654909680129DA
:1062C00011D1644907220A7000224A7001238B70A1
:1062D000CA700B71487100910620019269460881CD
:1062E0006846FFF70CFB0EBD10B5042911D10068FC
:1062F00001280FD002280CD100F01EFA012811D07D
:106300000220FFF7D9FF54480069C00101D504F00D
:1063100018F810BD0120FFF7CFFF0021142003F073
:10632000FAF910BD00F0B2FA10BD10B5042911D170
:10633000006801280FD002280CD11220FFF7BCFF03
:1063400045480069400305D40021092003F0E3F922
:10635000FEF7D1F810BD1120FFF7AEFF03F068FA89
:1063600010BD08B500213C48009102693B4852032A
:1063700016D40278521CD2B20270022A08D9022224
:1063800000920170364A0421684606F04AFC08BDB6
:106390003448012100228903006806F0C1FE08BDCF
:1063A0000122EDE708B500212B48009102692B4836
:1063B000D20116D44278521CD2B24270022A08D9B5
:1063C000022200924170284A0421684606F029FC06
:1063D00008BD2648012100228903006806F0A0FEBE
:1063E00008BD0122EDE710B5122815D11A48006941
:1063F000400311D41B4C206806F047FF002802D14F
:10640000206806F0CAFE00201449024608700121E7
:106410008903206806F084FE10BD10B5182815D138
:106420000D480069C00111D4104C206806F02DFF02
:10643000002802D1206806F0B0FE0020074902467D
:10644000487001218903206806F06AFE10BD000033
:106450006C2000200C2C002000050050A4200020FF
:10646000E9620100142000202B63010018200020A5
:1064700070B50021B64BB74C01220546CD40ED0763
:10648000ED0F5D5C164602D0AE40E66001E0AE4026
:10649000A660491CC9B20F29EFD370BD10B5AE4C30
:1064A000E06806F07AFEFF20A0600020A0801420A3
:1064B00020700020FFF7DCFF10BD70B5A64DAB6863
:1064C000152B6FD00DDC09F0DAF91542373B3E424F
:1064D00045484B4E51585B5E6164677A7E81848784
:1064E000AF00202B25D008DC163B09F0C8F90A7B49
:1064F0007E8386898C8F251B1E9D252B56D008DC1C
:10650000212B4CD0222B4ED0232B71D0242B70D199
:1065100012E0262B4DD0272B4BD0282B4CD0642BB0
:1065200067D126E08A4C8A3C01E0894C863C0221F6
:1065300072E0874C103401E0854C28340C216BE06C
:10654000834C4034FAE7824C5834052164E0804C97
:10655000823CECE77E4C7E3CE9E77D4C7A3CE6E70A
:106560007B4C763CE3E77A4C723CE0E7784C6E3C3F
:10657000DDE7774C8C3C01214EE0754C3E3CD6E784
:10658000734C3A3CD3E7724C363CD0E7704C323C0B
:10659000CDE76F4C2E3CCAE76D4C2A3CC7E76C4CEC
:1065A000263CC4E71BE06A4C223CC0E7684C1E3C1A
:1065B000BDE7674C1A3CBAE7654C163CB7E7644C3C
:1065C000083C042128E0624C123CB0E7604C6A3C75
:1065D000ADE75F4C663CAAE75D4C623CA7E75C4CCC
:1065E0005E3CA4E75A4C5A3CA1E7594C563C9EE706
:1065F0000FE019E0564C523C99E7554C4E3C96E75B
:10660000534C4A3C93E7524C463C90E7504C423C3A
:106610008DE74F4C0E3C0321002C05D0A8886A88DA
:10662000904204D3002A02D0FFF738FF70BD08F073
:10663000ABFF4800205AFFF71BFFA888401CA8802A
:1066400070BDF8B50746444C0020A080A7600E46F8
:106650001546E06806F019FE002802D1E06806F051
:106660009CFD31460C2270045143000C89B2152F59
:1066700031D00EDC3B4609F002F9152E3030322EB7
:106680002E2E2E2E2E2E2E2E2E2E2E412E2E2E2E17
:106690003500202F21D009DC3B46163B09F0EFF8EE
:1066A0000A1B1B1B1B1B1B1B1D1B1B22252F12D078
:1066B00008DC212F0FD0222F0DD0232F20D0242F04
:1066C00010D10AE0262F06D0272F04D0282F02D081
:1066D000642F07D105E0608004E0618002E0B00033
:1066E0000FE06680A068FF2807D00020FFF7E5FED6
:1066F00000222946E06806F013FDF8BDB000EAE785
:1067000070003018E7E770B50C46154612491A4676
:106710000B78984206D8087029462046FFF791FF6B
:10672000012070BD002070BD0B2803D00D2801D0C2
:106730000A4BE8E70A4BFCE7074800787047064831
:1067400010B5084A01210C3006F0A3FC10BD000072
:1067500054F9010000050050A82000203333000048
:106760009A190000BB6401008B48407870478A4941
:10677000487070471CB500221146104605F07EFD9A
:106780006946012408802407606901A91238C0B253
:1067900005F0E8FD002819D160691238C0B205F093
:1067A000CAFD019808227D49001D05F0B2FD0028B0
:1067B0000CD16A462021794805F060FD69460880C1
:1067C00077494118019805F09FFD00281CBD1CB5B4
:1067D00000221146104605F051FD6946088001204F
:1067E0000007406901A91238C0B205F0BBFD0028BE
:1067F00015D101996B4B0868020C9A4210D184B2F2
:106800002022091D654808F06DFF6A462021634873
:1068100005F034FD69460880A04203D100201CBD6C
:10682000401C01D00B201CBD05201CBD0EB55E48D0
:10683000032101700021417002228270C170012287
:1068400002714171019100900620694608816846F5
:10685000FFF755F80EBD55481321008866DF7047D5
:106860000EB551480321017000214170022282704F
:10687000C1700121017141714D49019100900620C3
:10688000694608816846FFF73AF80EBD10B54948D9
:10689000006806F082FC40480124047002F04DF8C4
:1068A000FFF7FCFDFFF7C2FF0021022002F033FFDB
:1068B00041480460FFF77EFA03F056F9002805D03E
:1068C0003E48006806F069FC03F0F8FA10BDFEB51A
:1068D00006000D4601D0202D01D00720FEBD00226C
:1068E0001146104605F0CAFC6946088001200007E1
:1068F000406901A91238C0B205F034FD0400EDD1A1
:106900000198284A0368190C91420AD19FB26A463D
:106910002021001D05F0B2FC69460880B84202D172
:1069200005E05B1C01D00B20FEBD0520FEBD0199DA
:106930002A46091D304608F00FFF002800D00B241E
:106940002046FEBD0EB5184803210170002141709C
:1069500004228270C1700122027141710191009084
:106960000620694608816846FEF7C9FF0EBD0EB5D0
:106970000D48032101700021417004228270C17012
:10698000012202714271019100900620694608813E
:106990006846FEF7B4FF0EBDB8200020482D002049
:1069A0000000DE45DE4500000C2C00200620002003
:1069B00057680100882000206C200020242000203F
:1069C00002461F20012907D0062901D9491EC9B254
:1069D000C90700D01E2070471C32D0B27047F8B5EE
:1069E00004460846F74908F0CFFD0D4606463C210F
:1069F000284608F0C9FD2171E1210901284608F067
:106A0000C3FD054608463C2108F0BEFD6071A57136
:106A10007D200001B5B220800FE0002F26D0642138
:106A2000304608F0B1FD002901D0B0071ED0FF208C
:106A30006E30281A761C85B226802088FF210646F3
:106A4000913108F0A1FD0F0013D06421304608F009
:106A50009BFD002901D0B0070BD0FF206E30A8426B
:106A6000DBD90020FF27A07091371DE0FF206F3099
:106A7000DFE7FF206F30F2E720883946064608F04E
:106A800083FD002927D06421304608F07DFD0029D0
:106A900001D0B0071FD00020A178FFF791FF281A7E
:106AA00085B2A078401CA07020883946064608F0C0
:106AB0006BFD002911D06421304608F065FD0029E6
:106AC00001D0B00709D00020A178FFF779FFA842D4
:106AD000D2D9E570F8BD0120DEE70120F4E710B55A
:106AE000B84908F051FD072108F04EFD481D072167
:106AF00008F04AFD084610BD10B5B348C168103013
:106B0000FFF76DFFB04810308178491C8170C17863
:106B1000491CC17010BD70B5FFF7EEFF044600259B
:106B200049E0284603F07EFD0068A179C001C00E4F
:106B300088423ED1284603F075FD00680003810EAF
:106B40006079814235D1A048C068FFF7C8FF06468A
:106B5000284603F067FD00680121B1400840400667
:106B600023D1284603F05EFD0068E1788000C00E66
:106B700088421ED1284603F055FD01684068890807
:106B800080070843A178000F884212D1284603F0FD
:106B900049FD01684068090A000608437D21800E0E
:106BA000090140182188884203D100210F2002F0FA
:106BB000B2FD6D1CEDB203F029FDA842B1D870BD45
:106BC000F8B503F020FD0646FFF796FF054630684E
:106BD0007168020E08021043000E012829D17A4C78
:106BE000E068FFF77CFF0246A8790027002804D15F
:106BF0006979002901D127606760012393403168DA
:106C0000DAB2114215D00A02120E824211D80A04D9
:106C1000120E82420DD33C2250436A79090E80182D
:106C200008F0B2FC002905D003F073FE6168401A39
:106C30002060F8BD03CE020C080410432168000C4C
:106C4000884203D90021112002F065FD276003F07E
:106C500060FE6060F8BD10B55B4CE068401CE06011
:106C600003F0AEFCE1210901E06808F08DFC002989
:106C700008D1564856490088884203D2002108208E
:106C800002F049FD3C21E06808F07EFC0C0001D0D8
:106C90001E2C16D1FFF750FD142805D102F021FF5C
:106CA000002801D1FEF7BBF9002C0AD101F0D2FB7C
:106CB000002806D0FFF72FFFFFF782FF002001F02A
:106CC000AAFD10BD10B540487D210901103001809A
:106CD00000218170C1708171417101713A4C3D4A4E
:106CE000E1600121083806F0D4F9002804D0FF2122
:106CF00039A21C31FDF70EFA01210022C903A06858
:106D000006F00EFA002804D0FF2133A21E31FDF751
:106D100001FA10BDF8B5044681060005800E3C223C
:106D20005043890E4118E003E122C00E1201504386
:106D300045187D20A70E00013818FF21002691314B
:106D4000009008F021FC002913D06421009808F07D
:106D50001BFC002901D0B8070BD00023A002194961
:106D6000C00E4843494240194518A001040F641E53
:106D700009E00123F2E7F1B21846FFF721FE1149BD
:106D800048434519761CB442F5D8002414E07D2010
:106D90000001FF2120189131064608F0F5FB00297B
:106DA0000ED06421304608F0EFFB002901D0A00787
:106DB00006D012482D18641CA742E8D82846F8BD12
:106DC0000F48F7E780510100BC200020522000202E
:106DD0008C0A0000576C01002E2E5C536F75726395
:106DE000655C7372635C62645F77616C6C5F636C3B
:106DF0006F636B5F74696D65722E63008033E101B0
:106E00000085E201F8B5044681060005800E3C22AB
:106E10005043890E4118E003E122C00E1201504395
:106E200045187D20A70E00013818FF21002691315A
:106E3000009008F0A9FB002913D06421009808F005
:106E4000A3FB002901D0B8070BD00023A0027C4986
:106E5000C00E4843494240194518A001040F641E62
:106E600009E00123F2E7F1B21846FFF7A9FD7449E2
:106E700048434519761CB442F5D8002414E07D201F
:106E80000001FF2120189131064608F07DFB002902
:106E900018D06421304608F077FB002901D0A00704
:106EA00010D068482D18641CA742E8D8664CE560ED
:106EB000A06806F072F901210022C903A06806F05B
:106EC0002FF9F8BD6148EDE7FEB5614D022028704D
:106ED00000266E700420A870EE7003F097FB81000E
:106EE0004018287100242CE0204603F09BFBA100F1
:106EF000611840684F197871204603F093FB0146F2
:106F000000684968000E09020843B871204603F082
:106F100089FB014600684968000C09040843F871C0
:106F2000204603F07FFB014600684968000A090615
:106F300008433872204603F075FB0068641C7872C1
:106F4000E4B203F063FBA042CED801960095287905
:106F50006946401D08816846FEF7D1FCFEBD3A48EF
:106F6000C068704710B5384CE060A06806F015F9AD
:106F700001210022C903A06806F0D2F810BD10B5A7
:106F8000FFF7BAFD00887D210901884201D1002068
:106F900010BD012010BD3EB52D4C022020700025F3
:106FA00065700720A070E57004202071FFF7A4FD34
:106FB0000279B10992068901920E11433F22920192
:106FC000914342799206120D11431F2212039143FD
:106FD0008279D206D20B11431F2252049143C27808
:106FE000D206920A11430F229205914382780088BB
:106FF00092051143032289018006920789098018AE
:107000000143080E6071080CA071080AE07121723A
:107010000195009420796946401D08816846FEF775
:107020006EFC3EBD10B50848806806F0B6F8002832
:1070300004D0FF21074ADD31FDF76CF810BD704721
:10704000805101008033E101BC2000200085E20175
:107050000C2C0020D86D0100002208B51146104606
:1070600001F050F800287ED0002001F0B3F8694606
:107070000F2000F0CDF9002803D1DAA1BD20FDF7E3
:1070800056F968460078332803D0D6A1BE20FDF714
:107090004EF90021202000F0D1F9002803D1D1A120
:1070A000C020FDF744F90021212000F0C7F9002895
:1070B00003D1CCA1C120FDF73AF90021222000F034
:1070C000BDF9002803D1C7A1C220FDF730F9002186
:1070D000232000F0B3F9002803D1C2A1C320FDF79B
:1070E00026F90021242000F0A9F9002803D1BDA130
:1070F000C420FDF71CF90021252000F09FF900288D
:1071000003D1B8A1C520FDF712F9042000F0AAFDB3
:10711000002803D1B3A1C620FDF709F9072000F02C
:10712000E7FA002803D1AFA1C920FDF700F902203A
:1071300000F092FA002803D1AAA1CA20FDF7F7F8BF
:10714000052000F0EFF9002803D1A6A1CC20FDF71F
:10715000EEF8012000F0E4FA012000F0F9FA00282E
:1071600005D1A0A100E00FE0CE20FDF7E0F802205D
:1071700000F078FD002000F008FC002000F0CAFCC0
:10718000002001F03FF8012008BD70B59C490126A0
:1071900004209B4C74310860091F08609849103125
:1071A0000860091F08602060954D78352860FF2031
:1071B000913000F099FF93482060286092488660E3
:1071C000C82000F091FFFFF747FF70BD10B5002009
:1071D00001F000F800F067FC002804D1FF2081A135
:1071E0007F30FDF7A4F80021202000F027F90028C7
:1071F00004D1FF207BA18030FDF799F800212120E8
:1072000000F01CF9002804D1FF2076A18130FDF7A1
:107210008EF80021222000F011F9002804D1FF206F
:1072200070A18230FDF783F80021232000F006F9D9
:10723000002804D1FF206BA18330FDF778F80021EE
:10724000242000F0FBF8002804D1FF2065A1843041
:10725000FDF76DF80021252000F0F0F8002804D19A
:10726000FF2060A18530FDF762F8042000F0FAFCF1
:10727000002804D1FF205BA18630FDF758F80020DC
:1072800000F0C0FF10BD70B504460D46002000F0B0
:10729000A1FF042C02D0052C17D10AE0202000F019
:1072A00074FB022000F094FB042000F09EFB0520FC
:1072B00009E0202000F069FB032000F089FB0E208C
:1072C00000F093FB1E2000F099FB012D02D130202D
:1072D00000F071FB0124002000F094FF204670BDF7
:1072E00010B50446002000F075FF012000F0F1FB0E
:1072F000002C01D0802000E0002000F034FB0020B2
:1073000000F080FF01210520FFF7BDFF10BD10B583
:107310000446002000F05EFF002C13D0212000F076
:1073200087FC002000F091FC002000F009FC002008
:1073300000F01EFC012000F0CCFB402000F001FB1F
:107340002A2003E0002000F0FCFA802000F0E2FB9D
:10735000002000F057FF10BD10B5002000F03AFFEC
:10736000002000F079F9002000F04CFF10BD10B5AE
:10737000002000F02FFF022000F06EF9002000F046
:1073800041FF10BD7CB50546002000F023FF00241E
:107390006846047001A9402000F00FFE684600F026
:1073A00039FE68460079012802D12020694608701C
:1073B00068460078154E810889006846017006E02D
:1073C00006206043801900F07BFD641CE4B268462F
:1073D00000788442F4D3684600782870002000F0DA
:1073E00011FF7CBD2E2E5C536F757263655C7372EA
:1073F000635C62645F68616C5F6163632E6300005D
:10740000000700500102000000050050682D002018
:1074100010B580221043FE4A0C4610700221FD4B2D
:10742000FD4800F0A5FE002803D1FCA13920FCF79F
:107430007EFFF84840782070012010BD10B5022270
:10744000FF4C2270FF4B00221A70F14AF14B107072
:1074500051702178F04800F08BFE002803D1EFA195
:107460005220FCF764FF012010BD10B501460F202B
:10747000FFF7CEFF002800D0012010BD10B5014657
:107480000720FFF7C5FF002800D0012010BD38B548
:1074900005460C4669460720FFF7BAFF002811D0C1
:1074A00000200121802D0ED0402D16D0202D18D087
:1074B000102D1AD0082D1CD0042D1ED0022D20D046
:1074C000012D26D038BD6A461278D309DB0124E0AD
:1074D000217000E02070012038BD6B461A784023EF
:1074E00012E06B461A7820230EE06B461A781023C0
:1074F0000AE06B461A78082306E06B461A780423E4
:1075000002E06B461A7802231A406B461A70E1D0EB
:10751000DEE76A461278D307DB0F6A461370002B4A
:10752000D8D0D5E738B5044669462020FFF770FF6C
:1075300000280ED06846007821010007000F0143A3
:10754000C9B2684601702020FFF778FF002800D0FC
:10755000012038BD38B5044669461F20FFF758FFA3
:10756000002810D068460078BF210840A1010143DF
:10757000E0010843C1B2684601701F20FFF75EFFBB
:10758000002800D0012038BD38B5044669461F20C8
:10759000FFF73EFF00280ED068460078E101400664
:1075A000400E0143C9B2684601701F20FFF746FF35
:1075B000002800D0012038BD1CB5044669460820CB
:1075C000FFF726FF002833D001A90920FFF720FF8D
:1075D00000282DD06946087909780002084300097F
:1075E000208069460A20FFF713FF002820D001A958
:1075F0000B20FFF70DFF00281AD06946087909789B
:10760000000208430009608069460C20FFF700FF74
:1076100000280DD001A90D20FFF7FAFE002807D0A1
:10762000694608790978000208430009A080012012
:107630001CBD1CB5044601A90C20FFF7E9FE00287B
:1076400009D069460D20FFF7E3FE002803D0684605
:107650000078207001201CBD1CB50446694620201E
:10766000FFF7D6FE002819D001A92320FFF7D0FE8E
:10767000002813D06846017873480A0905D10278BA
:10768000120912010A4369460A70002C07D0F7213B
:107690000822012C14D0022C09D000201CBD694600
:1076A000097801700807000F6946087010E0684605
:1076B00003780B40037003790B401343037107E019
:1076C000684603780B401343037002790A40027145
:1076D000684601782020FFF7B1FE0028DED068461A
:1076E00001792320FFF7AAFE0028D7D001201CBD76
:1076F00038B5044669462020FFF78AFE00280ED0E0
:10770000684600786107C008C000490F0143684619
:1077100001702020FFF792FE002800D0012038BD24
:1077200038B5044669462320FFF772FE00280ED0C4
:1077300068460178CF20014020010843C1B2684665
:1077400001702320FFF77AFE002800D0012038BD09
:1077500038B5044669462320FFF75AFE00280ED0AC
:1077600068460078E1014006400E0143C9B2684610
:1077700001702320FFF762FE002800D0012038BDF1
:1077800038B5044669462320FFF742FE00280ED094
:1077900068460178BF200140A0010843C1B2684695
:1077A00001702320FFF74AFE002800D0012038BDD9
:1077B00038B5044669462320FFF72AFE00280ED07C
:1077C00068460178F920014060000843C1B268466C
:1077D00001702320FFF732FE002800D0012038BDC1
:1077E00038B5044669462120FFF712FE00280ED066
:1077F00068460178FB200140A0000843C1B26846FA
:1078000001702120FFF71AFE002800D0012038BDAA
:10781000D5200020DD200020003000402E2E5C53BB
:107820006F757263655C7372635C62645F6C6973CD
:107830003364685F6472697665722E6300000000CD
:10784000E6200020E5200020D420002038B50446A2
:1078500069462120FFF7DCFD0028D8D06846007873
:10786000400840002043C1B2684601702120FFF764
:10787000E5FD0028CBD00120C9E738B504466946AC
:107880002120FFF7C5FD0028C1D068460178FD2002
:10789000014060000843C1B2684601702120FFF733
:1078A000CDFD0028B3D00120B1E738B504466946C4
:1078B0002120FFF7ADFD0028A9D068460078A1017E
:1078C0008006800E0143C9B2684601702120FFF78F
:1078D000B5FD00289BD0012099E738B50446032860
:1078E00001D9002093E769462120FFF791FD002888
:1078F0008DD068460078CF21084021010143C9B2EC
:10790000684601702120FFF799FD0028EAD0012088
:107910007DE738B5044669462120FFF779FD002848
:107920000ED068460178F7200140E0000843C1B25C
:10793000684601702120FFF781FD002800D001205A
:1079400065E738B5044669462220FFF761FD002847
:1079500008D06846047021462220FFF76FFD0028FA
:1079600000D0012053E738B5044669462520FFF7CB
:107970004FFD002808D06846047021462520FFF7F7
:107980005DFD002800D0012041E738B50446694676
:107990003820FFF73DFD00280CD0684600788109AB
:1079A00089012143684601703820FFF747FD002810
:1079B00000D001202BE710B57F2801D9002010BD91
:1079C00001463A20FFF73AFD0028F8D0012010BD0B
:1079D00010B57F2801D9002010BD01463B20FFF7DC
:1079E0002DFD0028F8D0012010BD10B501463C2027
:1079F000FFF724FD002800D0012010BD10B501467E
:107A00003D20FFF71BFD002800D0012010BD38B538
:107A1000044669463920FFF7FBFC002840D0684641
:107A200000784106490E68460170480601D40020DE
:107A300034E0880619D508070BD5480701D52C2056
:107A40002CE0880701D52A2028E0C80729D0292062
:107A500024E0480701D5242020E0880701D5222012
:107A60001CE0C8071DD0212018E008070BD54807E7
:107A700001D51C2012E0880701D51A200EE0C807A6
:107A80000FD019200AE0480701D5142006E0880726
:107A900001D5122002E0C80703D011202070012078
:107AA000B5E60020B3E608B569462420FFF7B0FC30
:107AB00000280DD0684600784106490E8020014319
:107AC000684601702420FFF7B9FC002800D001208F
:107AD00008BD38B5044669462420FFF799FC002804
:107AE0000ED068460178F7200140E0000843C1B29B
:107AF000684601702420FFF7A1FC002800D0012077
:107B000085E608B569463120FFF782FC002800D0E1
:107B1000012008BD38B5044669463020FFF778FCDF
:107B200000280CD068460178402001402143684677
:107B300001703020FFF782FC002800D0012066E6AB
:107B400038B5044669463020FFF762FC00280ED0A5
:107B500068460078A1018006800E0143C9B26846DC
:107B600001703020FFF76AFC002800D001204EE6AB
:107B70007CB5044669463020FFF74AFC002838D01F
:107B800001A92420FFF744FC002832D0BF21402562
:107B9000FB20012C04D0022C0AD0002C13D019E0B9
:107BA0006B461A780A402A431A701979014008E096
:107BB0006B461A780A402A431A701979014004204A
:107BC0000143197106E06A4613780B40137011796E
:107BD00001401171684601783020FFF72FFC002822
:107BE00007D0684601792420FFF728FC002800D040
:107BF00001207CBD38B5044669463120FFF708FCFA
:107C0000002814D0694608784006400E08704828BD
:107C10000BD006DC412808D0422806D0442805D1E4
:107C200003E0502801D0602800D120700120EEE54B
:107C300010B57F2801D9002010BD01463220FFF782
:107C4000FDFB0028F8D0012010BD10B57F2801D918
:107C5000002010BD01463320FFF7F0FB0028F8D0CC
:107C6000012010BD38B5BF24042809D040250028C4
:107C700023D001283CD0022857D003287BD077E0BE
:107C800069462E20FFF7C4FB002872D068460078B2
:107C9000C106C90E684601702E20FFF7CFFB0028F1
:107CA00067D069462420FFF7B3FB002861D06846FF
:107CB000017821400170242056E069462420FFF716
:107CC000A7FB002855D06846017821402943017060
:107CD0002420FFF7B3FB00284BD069462E20FFF786
:107CE00097FB002845D068460078C106C90E38E0E9
:107CF00069462420FFF78CFB00283AD068460178BB
:107D00002140294301702C462420FFF797FB0028CF
:107D10002FD069462E20FFF77BFB002829D068462C
:107D200000782146C006C00E1AE069462420FFF7FD
:107D30006FFB00281DD0684601782140294301705F
:107D40002420FFF77BFB002813D069462E20FFF785
:107D50005FFB00280DD068460078C006C00E802169
:107D60000143684601702E20FFF768FB002800D011
:107D700001204CE5FFE769462420FFF749FB002876
:107D8000F7D0684601782140294301702420FFF78D
:107D900055FB0028EDD069462E20FFF739FB00285F
:107DA000E7D068460078C006C00EC021D8E738B5D5
:107DB000044669462E20FFF72BFB00280ED06846AC
:107DC0000178DF20014060010843C1B268460170BC
:107DD0002E20FFF733FB002800D0012017E538B52F
:107DE00004461F2801D9002011E569462E20FFF71F
:107DF0000FFB0028F8D0684600784109490121436B
:107E0000684601702E20FFF719FB0028ECD00120F6
:107E1000FDE410B501462720FFF7FAFA002800D04C
:107E2000012010BD38B505460C4669462720FFF7EE
:107E3000EFFA002814D000210122102D23D008DCF5
:107E4000012D34D0022D2AD0042D24D0082D06D1A6
:107E50001DE0202D13D0402D0DD0802D01D000200D
:107E6000D5E468460078C309DB0124E0227000E015
:107E700021700120CBE46B461878402312E06B465A
:107E8000187820230EE06B46187810230AE06B4622
:107E90001878082306E06B461878042302E06B4646
:107EA0001878022318406B461870E1D0DEE7684668
:107EB0000078C307DB0F68460370002BD8D0D5E7E6
:107EC0001CB504468349E820087007216B46814AA7
:107ED000814800F04DF9002803D180498048FCF723
:107EE00026FA6846817842780806001410432080FC
:107EF00068460179C278080600141043608068461D
:107F000082794179100600140843A08001201CBD2D
:107F100010B501463120FFF77BFA002800D0012080
:107F200010BD38B505460C4669463120FFF770FA9A
:107F300000280FD000200121402D0CD0202D13D07F
:107F4000102D15D0082D17D0042D19D0022D1BD0BF
:107F5000012D21D05BE46B461A78402317E0217095
:107F600000E02070012052E46B461A7820230EE0D6
:107F70006B461A7810230AE06B461A78082306E04D
:107F80006B461A78042302E06B461A7802231A40E3
:107F90006B461A70E5D0E2E76A461278D307DB0F2A
:107FA0006A461370DDD0DAE710B501462F20FFF7DF
:107FB0002FFA002800D0012010BD38B505460C4628
:107FC00069462F20FFF724FA002807D0002001215E
:107FD000802D04D0402D0CD0202D12D017E46A46FD
:107FE0001278D309DB0110E0217000E0207001203D
:107FF0000DE46B461A7840231A406B461A70F5D090
:10800000F2E76A461278D307DB0F6A461370002B3B
:10801000ECD0E9E738B5044669462F20FFF7F8F9B8
:10802000002806D069460878C006C00E0870207087
:10803000012021E438B5044669462320FFF7E8F91A
:1080400000280DD068460078400840002043C1B2A7
:10805000684601702320FFF7F1F9002800D00120C5
:108060000AE410B50120FFF775FA002804D11C4876
:108070001A49F830FCF75BF947212020FFF7DEF9B9
:10808000002804D116481549FB30FCF750F90021AF
:108090002120FFF7D3F9002803D110491148FCF73C
:1080A00046F900212220FFF7C9F9002804D10D4824
:1080B0000A49801CFCF73BF908212320FFF7BEF991
:1080C000002804D1074805490E30FCF730F901209B
:1080D00010BD0000D5200020003000401C780100B9
:1080E000B1050000B106000070B50446044D03E080
:1080F000641E2846FBF7EEFF002CF9D170BD00008E
:10810000E7030000F0B5044605234A481B02012599
:10811000002C01D048480CE01D26C418A6601C267F
:10812000E660042626610324444F0826BE60444EC0
:1081300034600124A407C3185C62002906D0012919
:1081400010D0022910D0032910D0002115239B0143
:10815000002A00D02943C21851610022FF210931B1
:108160000A50F0BD0221F1E70421EFE70621EDE717
:10817000F0B506468C460025964603202F49082276
:108180002F46CA60F41D0915F93471181AE07246B9
:10819000D25DCA610326360300E06D1CA268002A86
:1081A00001D1B542F9D3B54205D10121814023481F
:1081B00081600020F0BD0022A2608A693E467F1CDB
:1081C000BFB29A556745E2D3012181401B488160C7
:1081D0000120F0BD0121194B8A079A60154A002839
:1081E00001D0154A09E017480160001F0160154BD6
:1081F0000020643B1860181F016005200002101861
:10820000016070470B49002801D00B4908E00D4A76
:108210000220343A506310630A4A743A1061D06005
:108220000522002012028918086004499005C860E0
:108230007047000000300040004000400005005042
:10824000E820002074070050FF49C8807047FE49AD
:10825000C8617047FC490862704710B5FA4BFB4C87
:108260004033596880072140C00A0143596010BD5E
:1082700010B5F54B782440335968E443000721409A
:10828000400E0143596010BDEF48C0887047EE486A
:10829000C0697047EC48006A7047EB498888401C09
:1082A00088807047E8484169491C41617047E64849
:1082B0008169491C8161704710B5E34C2078002822
:1082C0000AD0606A04F069FF002803D0E0A2B3215D
:1082D000FBF720FF0020207010BD10B5DA4C20788D
:1082E00000280CD10022E249606A04F019FF00283E
:1082F00003D0D7A2C221FBF70DFF0120207010BDD3
:1083000010B5D148018943890A46994200D81946D7
:10831000C1818489A14200D82146C181914201D105
:10832000002010BD994201D1012010BD022010BDD6
:10833000F8B506460068022803D0C5A1DB20FBF78C
:10834000F6FF7268002A5BDDBF4CE18820462830CA
:10835000002902D143785B1C437043780125002B30
:1083600000D145705018E08002F0D3FA71684018CF
:1083700002F0CCFAB068002802DDE1694018E06143
:108380003069002802DD216A40182062F068002868
:1083900004D0012806D002280BD107E02089401C18
:1083A000208106E06089401C608102E0A089401CB9
:1083B000A081FFF7A5FFA44BA44E40335968800766
:1083C0003140C00A0143AB4800260140E088000567
:1083D000400B0143596002F09CFA074602F01CFA78
:1083E000874202D3A07800280BD002F092FA05460B
:1083F00002F012FA854200D2A670002000F01EFEA4
:10840000F8BDA5700021132001F085F9F5E710B53E
:1084100004460068012804D0FF208DA11730FBF727
:1084200086FF89496068C870204601F00DF8002079
:1084300000F004FE10BD10B504460068022802D109
:108440002046FFF775FF2068012802D12046FFF77C
:10845000DEFF10BD7C484078704710B57A49002097
:10846000487005F09AFE10BD10B5FEF778FD0021AA
:108470007D22754CD2000B4607F0D6F8E163A0636D
:1084800010BDF8B5006841048E0D4100C40F000214
:108490004F0EC50D002F00DC2327002E00DC4D26DB
:1084A000002D00DCAF25012C02D0002C00D00124CF
:1084B00065484078002801D0FFF7CFFF3B463246A1
:1084C00029461920009405F036FE002804D0FF202C
:1084D0005FA1BA30FBF72BFF5B4801214170FFF72A
:1084E000C3FF0021644805F067FE002804D0FF2088
:1084F00057A1C030FBF71BFFFEF739FF0020F8BD86
:10850000514810B528304078002803D100F04FFFC3
:1085100000F0ABFE4C4830304088002801D100F01C
:1085200041FF564800684088002801D101F03FFF14
:1085300002F00EF9FFF7A5FF10BD10B500F037FFF0
:1085400000F030FF01F033FF00F08FFE3E480021C5
:10855000C1800162C161818141810181084602F0CF
:10856000D5F900F0C9F900F0A7F9012010BDF0B568
:1085700089B0002402A8FEF705FF334D3FE0A007B5
:1085800038D16878002835D02046062148433C4938
:108590000A5E40180221415ED610CF100421415ED0
:1085A000C810079030463946704379434118079800
:1085B0004043081801F00EFA0490A96B2722E86BDB
:1085C000891800235841A963E86300910190394656
:1085D0003046049B079A05F0F8FD002803D01CA143
:1085E0002848FBF7A4FE01F059FE002802D00498A9
:1085F00002F0C2F9641C2869E4B2401C2861684694
:10860000007A8442BBD309B0F0BD30B585B0FEF727
:1086100073FA018803228906920789180F229205AE
:108620009143827800241207920911431F225204B9
:108630009143C278D206920A11431F22120391433A
:108640008279D206D20B1FE0F0200020FFFFE7FF67
:108650002E2E5C536F757263655C7372635C62642B
:108660005F737465705F636F756E7465722E6300FF
:10867000D72300007F00F8FF3784010094210020F9
:10868000682D0020C902000011433F22920191434E
:10869000427900799206120D1143890980068901F9
:1086A000800E0843FEF736FB7C4DA98800290DD0CB
:1086B000012101940091029068690490A8690390D7
:1086C000684600F0C1FE002000F0B8FCAC807349A1
:1086D000AC612C316C61724A08689043086005B047
:1086E00030BDF1B56D4E82B0F08835464035009012
:1086F000002873D00A21306A06F05CFF020C0021CA
:10870000090400041143070C4C0768682968C00875
:108710003F04640F89B2C0000F4304436149F0690C
:1087200006F048FF390C80B2090408435E4900276F
:108730000C4002998907C90A0C435C490C40009916
:108740000905490B0C436C60210E2C462860183C2F
:108750006078C20056480368D21851706278696820
:108760000368D200090CD2189170627869680368B6
:10877000D200090AD218D17062780368D200696801
:10878000D21811716A6829681202090E11436278C1
:108790000368D200D21851716A6829681204090C62
:1087A000114362780368D200D21891716A6829680F
:1087B0001206090A11436278D2000368D218D171F7
:1087C00062780068D2002968101801726078082861
:1087D00004D100F047FB002800D167706A6869681F
:1087E000520D521C530528680022F2803262F26159
:1087F000B2817281C9023281C90A2E4A19431140DD
:1088000082B2C808110CC00009047822D24310407B
:1088100029606860FEBDF8B5FEF76EF90446FFF703
:108820006FFD0646FFF720FEA07900271B4D0028AC
:1088300008D16079002805D12079002802D102F002
:1088400065F8AF70288986420FD9144A78234032E0
:108850005168DB4310680B40C70949063943090FCB
:10886000491C0907490E0B43536060790F2106F03C
:108870008BFE002909D13046FFF733FF01F00EFDD2
:10888000002802D0E878FFF7C0FE01F00AFDF8BD2D
:10889000024988707047014880787047F0200020B6
:1088A000E0FF000010270000FFFFE7FF7F00F8FF58
:1088B000442100207F00E0FF38B5012424076169CE
:1088C000206929394143F9480160616922692939E0
:1088D0005143416000200090606969462938C0B268
:1088E00003F040FD00980068401C04D060692938FE
:1088F000C0B203F00CFE38BD38B50124240761690D
:10890000206938394143E9480838016061692269C2
:108910003839514341600020009060696946383819
:10892000C0B203F01FFD00980068401C04D06069CD
:108930003838C0B203F0EBFD38BD10B5FFF7DCFFEF
:10894000FFF7BAFF01F039FD10BD10B5012109078D
:10895000096989B206F018FE10BD70B5D34C012527
:1089600060682D07002802D02068002809D16869B6
:10897000296929384843606068692969293848436A
:1089800020606068FFF7E1FF296989B248436168A8
:10899000884217D00846FFF7D8FF296989B24843B3
:1089A0006168081A80102C2106F0EEFD002909D01C
:1089B00068692969293848436060686929692938E4
:1089C0004843206060680168491C02D14168491C25
:1089D00015D0FFF7BAFFC0B203F0ADFC6068FFF737
:1089E000B4FF296989B248436060FFF7AEFF0546CE
:1089F0002068FFF7AAFF854201D16068206070BD42
:108A000070B5AA4C0125083C60682D07002802D0EB
:108A10002068002809D168692969383848436060AE
:108A2000686929693838484320606068FFF78DFF1E
:108A3000296989B248436168884217D00846FFF720
:108A400084FF296989B248436168081A80104C2163
:108A500006F09AFD002909D0686929693838484329
:108A60006060686929693838484320606068016837
:108A7000491C02D14168491C15D0FFF766FFC0B2FE
:108A800003F059FC6068FFF760FF296989B2484329
:108A90006060FFF75AFF05462068FFF756FF8542E2
:108AA00001D16068206070BD8048016840688142E3
:108AB00001D100207047012070477D484088002880
:108AC00000D00120704770B5784D2868FFF73DFF52
:108AD000044628685830FFF738FF8442286801D1DF
:108AE0002C3070BDFFF731FF401C01242407616961
:108AF0001A39884206D22868FFF727FF2169401CEF
:108B000089B203E02069616980B22939484370BDA8
:108B100070B5664D68688430FFF717FF06466868D1
:108B2000FFF713FF0124240786425AD068685830A3
:108B3000FFF70BFF06466868FFF707FF864250D134
:108B40006868FFF702FF6169401C1A3988422AD21F
:108B50006868FFF7FAFE401CC0B203F0D8FC6868F2
:108B6000FFF7F3FE2169401C89B248432968884217
:108B700037D86868FFF7E9FE2169401C89B248438D
:108B8000216989B24118286881422AD9FFF7DDFEA0
:108B90006169401A1B3001D028681BE020696169B7
:108BA00080B229391BE060692938C0B203F0AFFCFC
:108BB000206981B26069293841432868814210D810
:108BC00021696369226989B2293B594392B28918A4
:108BD000814206D9FFF7B9FE2169401C89B248439A
:108BE00028606868FFF7B1FE064668685830FFF7EE
:108BF000ACFE8642686801D12C3070BDFFF7A5FE3F
:108C00006169401C1A39884206D26868FFF79DFEE8
:108C10002169401C89B203E02069616980B2293969
:108C2000484370BD2148083801684068814201D13D
:108C300000207047012070471E4900204978002914
:108C40000CD01D490A684968D20C49031143174AE0
:108C5000090D303AD288914200D001207047154961
:108C600001204978012900D80020704770B50F4DC8
:108C7000083D2868FFF769FE044628689830FFF72A
:108C800064FE8442286801D14C3070BDFFF75DFE60
:108C9000401C012424076169293988420ED22868C2
:108CA000FFF753FE2169401C89B20BE06C210020C4
:108CB0002021002018210020302100202069616936
:108CC00080B23839484370BD70B5FB4D6868E430F8
:108CD000FFF73BFE06466868FFF737FE01242407CE
:108CE00086425AD068689830FFF72FFE06466868BB
:108CF000FFF72BFE864250D16868FFF726FE6169B8
:108D0000401C293988422AD26868FFF71EFE401CA1
:108D1000C0B203F0FCFB6868FFF717FE2169401C36
:108D200089B248432968884237D86868FFF70DFE42
:108D30002169401C89B24843216989B241182868D9
:108D400081422AD9FFF701FE6169401A2A3001D019
:108D500028681BE02069616980B238391BE06069CE
:108D60003838C0B203F0D3FB206981B2606938386B
:108D700041432868814210D821696369226989B218
:108D8000383B594392B28918814206D9FFF7DDFD7D
:108D90002169401C89B2484328606868FFF7D5FD07
:108DA000064668689830FFF7D0FD8642686801D1B2
:108DB0004C3070BDFFF7C9FD6169401C29398842FC
:108DC00006D26868FFF7C1FD2169401C89B203E043
:108DD0002069616980B23839484370BD70B5002898
:108DE0001AD0002918D04A780524D200121D047028
:108DF0000025D3050226DB0D457086701C0AC47061
:108E000003714B881B0A43714B8883710B78C371C4
:108E100049780172501D70BD0020C04370BD70B50F
:108E200000281CD000291AD04A8805249200121D5F
:108E300092B204700025D3050326DB0D45708670C1
:108E40001C0AC47003710B881B0A43710B88837161
:108E50004B881B0AC37149880172501D70BD0020E8
:108E6000C04370BD70B5002802D0082801D9092080
:108E700070BD914C9149283CA068FFF7AFFFC01C22
:108E8000C117890F081880038B4D020C6868A16810
:108E900003F03FFA002801D0012070BDFFF714FF56
:108EA000686086490020864A4870864B50681840A2
:108EB000C008C000002111605060084670BD10B5A8
:108EC0007D4C283C207900280DD105210022C903C2
:108ED000E06904F025F9002803D07BA28249FBF762
:108EE00019F90120207110BD3EB5754C7F4D2068E9
:108EF0006168C20C48031043000D60D0FFF7C7F94A
:108F00007B4906F057FB226880B2120C1204024320
:108F10002260FFF7BFF90A2106F04CFB020C00218A
:108F20000904114300044A07030C61682068C9085A
:108F3000520FC9001B0480B21143184361602060C6
:108F40005E48AB684278090ED200D2185170427860
:108F50006168AB68D200090CD218917042786168E0
:108F6000AB68D200090AD218D1704278AB68D2003F
:108F70006168D2181171626821681202090E1143EA
:108F80004278AB68D200D21851716268216812042D
:108F9000090C11434278AB68D200D2189171626813
:108FA00021681206090A11434278AB68D200D21830
:108FB000D1714078AA68C0002168801801723F49C9
:108FC000A868FFF70BFF4B490191A968009169461A
:108FD00008816846FCF793FC002801D000203EBDC4
:108FE00003CCC20C48031043000DE88001203EBDB5
:108FF0003EB5314C08342068C17802790902511815
:10900000491D89B22C2908D80278052A05D1427851
:10901000002A02D18278032A03D0FFF754FD206092
:1090200008E0344A0090019268460181FCF767FC31
:10903000002801D000203EBD01203EBDFEB52E48D7
:10904000006801285CD1294C2078002856D1A069FD
:10905000002804D024481CA16A38FBF768F9E0789E
:109060000526244F012500284BD1FFF71DFD0028C0
:109070000FD1FFF722FD00280BD101F08BFA002859
:1090800007D1FFF7CFFD002803D1FFF7E8FD002847
:1090900037D00948002108380670417007228270D5
:1090A000C17001710090019768460681FCF727FCAA
:1090B000002823D106207FE0642100201821002011
:1090C000302100207F00E0FF2E2E5C536F7572630D
:1090D000655C7372635C62645F73796E635F646125
:1090E00074612E63000000002F0500003C21002069
:1090F00010270000D99201006C200020FFF7DFFE4E
:10910000FEBDFFF7D1FC002806D0FFF771FF002855
:10911000F4D0A6612570FEBDFFF7CFFC00280FD06C
:10912000FC49E068FFF77BFE0197E1680091694622
:1091300008816846FCF7E3FB0028DFD104203BE010
:1091400001F028FA002805D001F023FA0028D5D034
:10915000A561DFE7FFF766FD002805D000F0FCF809
:109160000028CBD0032027E0FFF779FD00280AD1A3
:1091700001E0022020E0E8480078002808D0FFF74E
:109180005BFD002804D0FFF7AFFE0028F1D1B5E762
:10919000E0780028BFD0E148002106704170082225
:1091A0008270C17001710090019768460681FCF7DA
:1091B000A6FB0028A2D10720A061ABE710B5D74CD1
:1091C0001034002803D0FFF77EFC206010BDD34888
:1091D000216820384269914203D0416100218170A9
:1091E00010BD8178491CC9B281700429EBD210BD31
:1091F00010B5FDF781FC018803224902520389184A
:10920000C44A3F24138849046402490CA343194308
:10921000FF231180E133994383781B07DB0D19434A
:109220001180C07849094901C006C00E0143118070
:109230000020508010BD10B5B84C0834002803D071
:10924000FFF714FD206010BDB44821682038026982
:10925000914203D001610021417010BD4178491C49
:10926000C9B241700429EBD210BD70B5FDF744FCC2
:109270000546AB4C00202060606068790F2106F045
:1092800083F9A979890040184105002003C470BD05
:10929000EBE710B5FDF730FCA24AC3785188DB0636
:1092A00049094901DB0E1943FF235180E1339943FA
:1092B00083781B07DB0D194351800088032340028C
:1092C0005B03C0184004400C3F235B0299430843F2
:1092D00050800020507010BD70B5904C0025203C8F
:1092E0002570012814D0FFF7EAFDA069022804D0F8
:1092F000032804D0052809D105E0E58006E0002018
:10930000FFF799FF02E00020FFF758FFA56170BD4D
:10931000A36906F0B4FA081C05080D1114181B1CEB
:1093200001F068F813E0FFF7B4FFFFF79EFF0EE0CF
:109330000120FFF780FF0AE0FFF75AFF07E0012056
:10934000FFF73CFF03E00120E07000E0E570012042
:10935000A561FFF773FE70BD3EB5704C0834206800
:10936000C178027909025118491D89B24C2908D8DF
:109370000278052A05D14278002A02D18278022A91
:1093800003D0FFF773FC206008E0674A0090019269
:1093900068460181FCF7B3FA002801D000203EBDE9
:1093A00001203EBD24E75D492039C870704710B5E3
:1093B000FDF7A2FB5B4AC3785188DB0649094901E6
:1093C000DB0E1943FF235180E133994383781B0758
:1093D000DB0D194351800088032340025B03C01852
:1093E0004004400C3F235B02994308435080002017
:1093F000507010BD70B5002802D0082801D909208E
:1094000070BD464C4349203CE068FFF708FDC01C96
:10941000C117890F081880032546020C303568688B
:10942000E16802F076FF002801D0012070BDFFF74F
:109430006FFB686037490020488070BD3B490A686F
:10944000026049684160704770B5054680683C21FC
:1094500006F0B0F82F4C064622880F235104880EE0
:10946000D20580069B05120F9843920510431F22D8
:10947000520489029043890A0843FDF74BFC3C21C2
:1094800006F082F8311A2A48284A4180696811603A
:10949000AB68536000292DD00B0702681B0F110920
:1094A0000901194301606188491C89B261808B0000
:1094B0001A4902682039CD68120E5B195A71638807
:1094C0000268CD689B00120C5B199A716388026870
:1094D000CD689B00120A5B19DA716288C968920034
:1094E0000068511808726088082802D3C0B2FFF7DC
:1094F00081FF70BD1F22016852012B699143DA067A
:10950000920D11433F2292029143EA689206120C97
:109510001143C7E720210020382100205C210020D2
:109520003021002018210020D9920100A82E00200F
:109530001C21002010B5FEF7E3FEFFF7D2F800F083
:1095400088FF4A484088C0B2FFF754FF4848407837
:10955000FFF788FC10BD7CB5002001252D07019088
:1095600068693838C4B227E001A9204602F0FAFE43
:1095700001980068009068460078FF2802D005280E
:1095800015D10CE068464078FF2810D168468078F5
:10959000FF280CD16846C078FF280BD007E068464A
:1095A0004078002803D168468078022802D02046FF
:1095B00002F0C1FE641CE4B268692938A042D3D825
:1095C0007CBD7CB5002001252D07019068692938F4
:1095D000C4B227E001A9204602F0C4FE0198006849
:1095E000009068460078FF2802D0052815D10CE0CD
:1095F00068464078FF2810D168468078FF280CD153
:109600006846C078FF280BD007E0684640780028FD
:1096100003D168468078032802D0204602F08BFEF2
:10962000641CE4B268691A38A042D3D87CBD00201B
:1096300052E610B50F49002008710120FFF7FEFC2B
:1096400010BD0C4810B50C4A00211C3003F021FD60
:10965000002804D02921094A4901FAF75BFD10BD11
:1096600004490870704703480078704720210020A3
:10967000182100203C21002033960100C8900100F1
:1096800010B501F046F9044601F0C6F884423FD80F
:1096900001F0C2F8044601F03CF964214843214638
:1096A00005F072FFC0B20A2802D20322122103E0A1
:1096B000142805D2032213211420FDF735F810BD1C
:1096C0001E2802D203221421F6E7282802D2032200
:1096D0001521F1E7322802D203221621ECE73C28BB
:1096E00002D203221721E7E7462802D203221821DB
:1096F000E2E7502802D203221921DDE75A2802D2DC
:1097000003221A21D8E7642802D203221B21D3E7BF
:1097100003221C21D0E710B5034606F0B0F8162A44
:109720000C102A2A141D23373B6D71797D872B2D50
:1097300083414F58632A00221F2101206FE001223C
:109740002021022029E006220F210520FCF7ECFF52
:1097500000280ED0062136E006222121104604E022
:10976000032130E0062222210720FCF7DDFF00283C
:10977000F6D110BD062107E0062226211020FCF7B5
:10978000D3FF0028F5D0032101201DE0012227216D
:10979000082044E0032228210920FCF7C5FF03E04C
:1097A000002903D0032202E001210CE001220D2157
:1097B0001220FCF7B9FF0028F6D110BD03221E21AC
:1097C000132020E00221022000F04BF910BD00F030
:1097D00065FD002803D003220D2114201FE0FFF7B0
:1097E0004FFF10BD00F05AFD002801D0002000E01E
:1097F000012000F023F810BD032223210A20B4E742
:10980000022224210B20FCF78FFF0028DAD110BDA3
:10981000032223210A2002E0012224210B20FCF74D
:1098200083FF10BD0622252111209EE70121ABE711
:1098300010B500F03EF9FCF731FE10BD10B5002860
:1098400006D0064B01221D211420FCF75CFF10BD41
:1098500001220E211420FCF767FF10BDCD0C000083
:1098600010B50068002802D0012828D12AE0FBF7B3
:1098700061FC0446142105F087FE4949401C0A7822
:10988000C0B282421BD00870142C02D200220521E3
:1098900012E0282C02D2002206210DE03C2C02D23C
:1098A0000022072108E0502C02D20022082103E008
:1098B000642C05D2002209210420FCF735FF10BDDD
:1098C000642CFCD100226421F6E735480078810041
:1098D00040183C21081AC0B270473149002801D015
:1098E000002008704868022802D02D48001DB7E704
:1098F00070472C4801690902C90F0BD0002100698B
:109900000002C00F08D00020002909D0002805D08F
:10991000002070470121F2E70120F5E701207047A0
:109920000220704710B517280CD11D4A0023137070
:10993000FFF7DFFF5060022805D019485360001D73
:10994000FFF78EFF10BDFCF7F7FE0428FAD1FCF7F5
:10995000A5FD10BD00B5172803D1FFF7CAFF1049B8
:10996000486000BD032110480904C161C16170470E
:1099700010B5FFF7BEFF0A490228486002D0081D53
:10998000FFF76EFF032008490004C86110BD00B551
:10999000FFF7AFFF022801D0012000BD002000BD6D
:1099A00074210020000500504007005030B5084DDC
:1099B00007E00C78030A6040491C0006C00D285AD5
:1099C00058401346521E92B2002BF2D130BD000017
:1099D000B6F90100024600200121890700E089084C
:1099E0009142FCD807E04318934202D8D21A4B00A8
:1099F0001818400889080029F5D1704770B53F4C08
:109A0000002261882388994205D3626022806280A7
:109A100000F06FF870BD00680025012803D002280F
:109A200007D062600EE088073549000F0D581031ED
:109A300005E0C8073249400F10390D580831085861
:109A400000280BD000F055F82C4A2946121DA068BA
:109A500003F066FB6088401C608070BD00F044F835
:109A6000F2E7F8B5254C06460F460025A06803F03E
:109A700094FB00F03EF8002060806660012E0ED05E
:109A8000022E10D0606000F02FF860881B4A401C46
:109A90006080121D2946A06803F042FBF8BDB800A3
:109AA0002080174803E078002080154810380568AA
:109AB000E9E710B5114CA06803F06FFB00F019F84E
:109AC000002060602080608010BD0C4810B50D4AF9
:109AD0000021083003F0DDFA10BD0B490320486077
