:020000040001F9
:10400000283C0020A1980100B3980100B598010058
:1040100000000000000000000000000000000000A0
:10402000000000000000000000000000B798010040
:104030000000000000000000B9980100BB980100DA
:10404000BD980100BD980100BD980100BD98010018
:10405000BD9801000000000015B20100114E0100E2
:10406000BD980100BD980100BD980100F74901000D
:10407000BD980100BD980100BD980100BD980100E8
:10408000BD98010011B80100BD980100BD98010064
:1040900027B8010055AF010001B00100BD98010033
:1040A000BD980100BD980100000000000000000064
:1040B0000000000000000000000000000000000000
:1040C00000F002F800F032F80CA030C808382418CC
:1040D0002D18A246671EAB4654465D46AC4201D140
:1040E00000F024F87E460F3E0FCCB6460126334240
:1040F00000D0FB1AA246AB4633431847B8A60000CF
:10410000D8A600000023002400250026103A01D381
:1041100078C1FBD8520700D330C100D50B6070477F
:104120001FB5C046C0461FBD10B510BD0AF030F91E
:104130001146FFF7F5FF00F081FC0AF048F903B4DF
:10414000FFF7F2FF03BC0AF04DF90000401E00BF6C
:1041500000BF00BF00BF00BF00BF00BF00BF00BF67
:1041600000BF00BF00BFF1D170470000401E00BF7C
:1041700000BF00BF00BF00BF00BF00BF00BF00BF47
:1041800000BF00BF00BFF1D17047000070B5054609
:104190000C46164602E00FCC0FC5103E102EFAD288
:1041A000082E02D303CC03C5083E042E07D301CC4E
:1041B00001C5361F03E021782970641C6D1C761E32
:1041C000F9D270BD01231B03FF4CE36006F054FCE1
:1041D000FF49FE48C860BFF3408FFEE70A4601462C
:1041E000FC48FFF7EFFFF1B596B0FC2010A908726C
:1041F000F9480224C4603C21684609F060FF0120B0
:10420000694600944871088116A8039012A804908A
:1042100000208883089088828884054604460646E4
:104220000B9013A861DF002828D0EC48816A456A0A
:104230008CB2032615AFF2002846214609F0F2FDA4
:104240000321891B761E76B27854002EF3DA0420FF
:1042500010A9119708802004000E21020843694626
:1042600088870FA80C900021684605F0F2FF00280F
:1042700012D0FF21DAA2FA31FFF7A4FF13AFB81969
:1042800040780021F20009F0BDFD761C05430C4387
:1042900076B2062EF3DBCCE717B0F0BDF0B589B0EF
:1042A0001421684609F00BFF002069460870019050
:1042B0000872C94C0390E0680326502702250028A5
:1042C00006D0012805D002282DD0032822D133E0C2
:1042D000E56005A808F0C2F8002802D0C0A2DE21DF
:1042E0001FE06846007E002803D108A80078002857
:1042F00008D06846057205A803900420FFF773FFF5
:10430000E56000E0E66068460782142141820120F2
:1043100006F040FE684663DF002819D0FF21B0A2F6
:104320000931FFF74FFF0520FFF75DFF6846078261
:1043300028214182E660EAE70520FFF754FF1921B2
:10434000890168460182B42141820220E660DFE7EC
:1043500009B0F0BDA84903208862C86208634862BA
:1043600008628861C861A44A40321062506290605D
:104370005060C863D0601061012193488902816058
:104380004900816049008160C910816049108160E5
:104390004021816080218160490481604900816001
:1043A000C9118160491081608910816009018160B3
:1043B00049008160704708B5904B0093904B0B22E9
:1043C0001021002007F052FA002804D0FF2184A217
:1043D0003831FFF7F7FE08BD10B504F065F910BDE0
:1043E00010B57D4CE06907F016FB4B2100228904D3
:1043F000E06907F0D3FA10BD10B5774CE06907F01B
:104400000AFB012100220904E06907F0C7FA10BD88
:1044100010B504F05BF9002801D0FFF7E1FF10BDF3
:104420006D4810B5774A0021103007F070FA002867
:1044300003D0FF216AA279313FE06748724A002128
:10444000143007F064FA002803D0FF2164A27B3106
:1044500033E001F099FF002803D0FF2160A27F31F3
:104460002BE06A4A01216A4807F051FA002803D07C
:10447000FF215BA2843120E05748664A00211830B2
:1044800007F045FA002803D0FF2155A28F3114E030
:104490005148614A00211C3007F039FA002803D046
:1044A000FF214FA2943108E003F094FE04F0BFF81E
:1044B000002804D0FF214AA29931FFF783FE10BDE6
:1044C00010B504785548214605F0B9FB00280AD0FC
:1044D000082808D05249884205D05249884202D063
:1044E0003FA2514910E03C48002C02D000218160DD
:1044F00010BD8168491C81600329F9DD15214088C0
:1045000066DF494936A20C31FFF75CFE10B59AB060
:104510004021684609F0D3FD44A1684605F09AFAA7
:1045200045A108A805F096FA45A102A805F092FA5F
:1045300045A106A805F08EFA002018A908700120F0
:104540000007406919A90F38C0B206F049FB04F012
:10455000ACF8010004A81DD0199A002110AB545CDE
:104560005C54491CC9B22029F9D3194605F072FAE6
:1045700001200146103108A801770020014608A853
:104580004177684605F036FC002805D014A2304972
:10459000FFF718FE2FA1E9E71AB010BD2C4910A2B1
:1045A0003131FFF70FFEF8B5038845262D4D2E4912
:1045B000F6430022084C192B7ED061DC2B4F102BC8
:1045C00072D0112B79D053E0000500500400FA0599
:1045D00000ED00E0EFBEADDE002000208000001006
:1045E0002E2E5C536F757263655C7372635C6D61D4
:1045F000696E2E630000000000070050614B01004F
:1046000000250020D75F010019600100C57101007D
:1046100004210020D5550100D94301007C2B002046
:1046200003300000013400003F040000536D61724C
:104630007420436172650000322E302E300000007D
:10464000534D412D30320000312E302E310000000C
:104650004D0200003031323334353637383961623B
:1046600063646500FF0F00002421002080200020EB
:10467000132B2AD122462032002160886FDF0CE004
:104680001A2B7ED0392B01D0552B1ED10A70002059
:1046900003F067FC1321608866DF002815D0D52160
:1046A000FE4A8900FFF78EFD0221E160808860806C
:1046B00074DF608873DF01E057E007E0A5804B21DD
:1046C00001224904386807F069F9F8BD15460A70F7
:1046D000002003F046FC0020C043608001F051FE42
:1046E000012801D101F014FD386807F094F9EC4875
:1046F0000178002902D0057001F060FE00F0BAFDDB
:10470000002801D000F058FF01F04DFB002819D01F
:1047100004F0E0FE002815D004F0E4FE002811D0DB
:10472000002004F0D3FE002001F040FB0420205EB6
:10473000B04207DA04F0D6FE02280CD000210D208A
:1047400003F0AFFD2078002807D0257007F05CFE4D
:1047500007F0AFFF12E00121F1E707F09EFD00280E
:10476000F6D0CE4ACF499DE70BE00A708079002849
:10477000ABD1E068042801D10320E060FFF78EFD93
:10478000F8BD0627C75704F0ADFEC74800680128EA
:10479000F6D10420205EA84201D1A78009E00321C0
:1047A00009F0D0FC45000321384609F0CBFC28185D
:1047B000A08004F08FFE0028E2D10420205EB042E9
:1047C000DEDD012004F082FEF8BD10B5044600884D
:1047D000102802D0112802D004E0032000E00020BD
:1047E00006F0D8FB2146B14800F029FC204607F02E
:1047F000E5FC204605F09DFEAC482146183805F042
:1048000033F92046FFF7CFFE10BD08B5A84BA749E6
:104810000093A84B50229C390D2006F0C9FB0028BC
:1048200004D06F219D4AC900FFF7CCFC08BD10B52C
:10483000042804D0E321994A8900FFF7C3FC00F063
:104840001FFD002805D09C480121017013214088DC
:1048500066DF10BD704770B5984802680121D20725
:104860001BD0016084046569383D03E0E8B206F0BE
:10487000A0F96D1C60691838A842F7D86569183D21
:1048800007E060690F38A84202D0E8B206F091F95B
:104890006D1C60690E38A842F3D80124884D2405A8
:1048A000EC60FF20913002F05FFAAC6070BD002038
:1048B000844A022183009B181960401C2028F9D3E8
:1048C000704710B5FFF746FD03F0B9FE00F0C8F9D8
:1048D000FFF771FD7C4A1421082006F0CDFD002869
:1048E00003D06E4A8C21FFF76DFC00F011FB00F045
:1048F00025FB02F07BF910BD00B587B004F044FC45
:10490000FFF78EFD694902204C3906F0EAFC0028C9
:1049100003D06449614ACB315CE001F0E7FF00203D
:1049200001231B075A696946133A0A705A69143AF7
:104930004A706649019166490291694688706846E5
:1049400007F0BDFD002803D05649544AB63141E076
:10495000FFF75BFF00F00DF90520FFF744FC00F0C6
:104960003FF91C21684609F0AAFB052109040191C1
:104970004910002002910090032269460A73C88101
:1049800001220A74059053480690684605F077FDA9
:10499000002803D04349414A8E391BE000F04EF90C
:1049A0004D4A0521012006F0DFFA002803D03D49D9
:1049B0003A4AC3310EE0002006F0ECFA3E480023EC
:1049C000464A0221303006F08AFB002804D03549DF
:1049D000324AEB31FFF7F6FB00F004FE01F01BFD5D
:1049E000002806D0002001F0E6FC02F05AF907B0DA
:1049F00000BD0120F7E73A4900200860394901204D
:104A0000486039490004886038494011086070479F
:104A100010B500F025F90120344AC102803A116036
:104A2000344A33499160334A0821403211602E4A9A
:104A3000010451602B49086030BF10BDFFF737FFFC
:104A4000FFF7E6FF1F492C483431086001201C4C59
:104A50004003A060FFF735FF01263603E660FF271D
:104A6000F537384602F080F9B510E560384602F0B7
:104A70007BF9A560384602F077F9E560384602F028
:104A800073F9A660A56003F01BFFFFF7E4FEFFF7D4
:104A900033FF05F049FE00283ED12FE0E04501003C
:104AA000B02000202303000064200020942B00206D
:104AB000534B0100CB4701000020002000040040C0
:104AC0000005005000070050B023002055480100A9
:104AD0002F4801009D4501007FAE010066060000E1
:104AE00040B1004000B0004000B3004080E100E071
:104AF000FF0F000000B500400102000004F0C6FAFC
:104B000001F056FC002807D004F0EBFB04F04AFC4F
:104B100004F093FC02F01FFB02F0FDFC02F04EFDDE
:104B200003F0E4FA03F018FB02F002FAFFF7B6FB19
:104B300006F01AFBFFF76CFC04F030FB06F024FDD6
:104B400004F030FB3DDF0028F8D06E4A6E49FFF7D5
:104B500039FB10B500216D4A084606F0A0FC10BDD7
:104B60001CB5019100906A4A0821684606F097FC3E
:104B70001CBD0EB5694611200872624906226031DB
:104B800002A86CDF002803D0FF215E4AAC3124E08C
:104B90000920800168DF002803D0FF21594AAF3186
:104BA0001BE00021FF20009141306A4601911080F6
:104BB000FF20913050809180D08068466ADF0028C5
:104BC00003D0FF214F4AB93107E00320C04367DF1C
:104BD000002804D0FF214B4ABC31FFF7F3FA0EBD89
:104BE00008B500200090FC216846017001200146B4
:104BF0002031684641700020014668468170694650
:104C0000444804F0C3FE002802D03E4A424910E066
:104C100000F047F84248414941604249016001467D
:104C20003C48243000F093FA002804D09721354AFC
:104C30008900FFF7C7FAFFF769FC08BD38491E2055
:104C400008390880887801221043E12210400C3096
:104C5000DF22104088700720C8701020087170474C
:104C6000314901208861314900224A6083079860F8
:104C70004A60704710B5002904D02DA2752100208C
:104C8000FFF7A0FA06F0A8F910BD0246082905D0E2
:104C9000FF2132A216310020FFF794FA1168506804
:104CA000084700B585B01421684609F008FA0021CC
:104CB000684600910171029164210173012001464F
:104CC00010316846417301200146103168468173F6
:104CD000002001466846C173012001461031684634
:104CE00001740C4869460C3004F08AFF002804D097
:104CF0008921044A8900FFF765FA234800F010F97A
:104D000005B000BDE04501002A040000754C01001B
:104D10008B4C0100702B00200B0200005F5C010037
:104D200028200020B35D0100000500400001004084
:104D30002E2E5C6E726635313832325C496E636C91
:104D40007564655C626C655C626C655F73746163FD
:104D50006B5F68616E646C65722E68002E2E5C6EEF
:104D6000726635313832325C496E636C7564655CED
:104D70006170705F636F6D6D6F6E5C6170705F749A
:104D8000696D65722E680000C14401009549884232
:104D900001D36420704793493239884201D95F209A
:104DA000704790496439884201D95A2070478D492B
:104DB0009639884201D950207047AF2109018842B5
:104DC00001D9462070478749FA39884201D93C20E9
:104DD00070478549884201D932207047824932396B
:104DE000884201D9282070477F496439884201D917
:104DF0001E2070477C499639884201D9142070479B
:104E00007949C839884201D90A2070470120704782
:104E100070B5764801680024754D00291DD00460E6
:104E2000A868744A01215160E1210901484372498F
:104E300009F07EF9714A80B25080FFF7A7FF107029
:104E40005268002A09D001216C4806F028FB00288E
:104E500003D06BA2E021FFF7B5F92C6070BD644967
:104E600001200860614A00211160624908607047B2
:104E700070B50546FFF7F3FF0A2001F075FF5B4CA4
:104E800002E00A2001F070FF20680028F9D000201D
:104E9000206057488068574A01215160E12109018B
:104EA0004843554909F044F9288070BD5B49012009
:104EB00048605B4801680902090A02071143016062
:104EC0005849802008607047F1B554480027476072
:104ED00054490125802080310860444C2760454EAC
:104EE0007560FFF7BCFF0A2001F03EFF2068002834
:104EF000F9D027603E4880687560E1210901484388
:104F00003D4909F015F900990880FFF7CFFFF8BD7A
:104F100037494548486035490020086070479EE79A
:104F200010B5364A50605088FFF730FF1070526855
:104F3000002A02D001213148904710BD10B52F48FA
:104F40004088002803D12D48801CFFF791FF284995
:104F500000200860FFF7AAFF2848344A01210830E2
:104F600006F0D5FC002804D0FF2125A27531FFF7FB
:104F700029F910BD2E48807C7047014610B51F48A6
:104F80000022806806F00AFD002804D0FF211CA240
:104F90008831FFF717F910BD10B51848806806F082
:104FA0003AFD002804D0FF2115A29131FFF70AF93C
:104FB00010BD70B501200024C003FFF7DEFF0F4DC8
:104FC0001C4E6888B04201D3012406E030BF06F0D1
:104FD000DBFA03F08EFA0028F3D1FFF7DDFF20465D
:104FE00070BD0000B80B00008C0A0000007100408A
:104FF0000075004000700040FF03000048200020C2
:105000002E2E5C536F757263655C7372635C6264B1
:105010005F626174746572792E63000000730040F2
:1050200004E400E000E100E0024000001F4F010046
:105030007C2B0020980800008C4B07C3704710B5EC
:105040000B88012B2ED0102B16D00022112B1AD03A
:10505000502B10D1891D0B88048AA34202D10C8BDE
:10506000022C17D08288934205D18369002B02D08D
:105070000A8B1A31984710BD89888182C06900283F
:10508000F9D0804710BD0021C9438182827500F0AC
:1050900090FE10BD498B012901D0827510BD012100
:1050A000817510BD71480268002AFAD08168406895
:1050B000904710BD70B500240546601C90B00007F5
:1050C000000F08A9103008940870601C0007000F3A
:1050D000103048708878F9263040801C88701C2178
:1050E00001A808F0ECFF69460879102108436946D9
:1050F0000871029408A804940594079406902878EF
:1051000008A98871032069468884112000940870DA
:1051100048708878E7213040801C084001263043E1
:105120006946887014210AA808F0C9FF09A80A90E6
:1051300068460B9069460E8614204C8688862B465E
:1051400068880C330AAA01A9A2DF10B070BD30B57F
:10515000474B04460D460FCB85B003936B4607C300
:105160000020C043A0826868A0612868E061002038
:10517000A0752146684652DF002815D1217868467F
:10518000817401210182A21C04A90120A0DF002852
:105190000AD129462046FFF78DFF002804D1294671
:1051A000204600F01FF8002805B030BD1FB5837DF4
:1051B000002B05D01388142B04D9072004B010BD90
:1051C0000820FBE700230093019302930393848953
:1051D0006B461C800391029201219970808A694676
:1051E000A6DFEBE770B58EB005461C21684608F0D7
:1051F00066FF684601780820014368460170002474
:1052000001940394049405940694297808A8817065
:10521000022168460184601C0107090F10316846AD
:105220000794017701200146103168464177817F5C
:10523000F9200140891CE7200140012631436846DE
:105240008177142109A808F03AFF08A8099007A857
:105250000A90684686851421C485018668882B1DBE
:1052600009AA6946A2DF0EB070BD0000B42B002071
:1052700094E40100FF4800787047FE4908707047C9
:10528000FD49FE4A09880120914200D10020704763
:10529000F7B582B002980C461546002804D1FF20CD
:1052A000F7A1D030FEF79AFF042C04D0FF20F4A120
:1052B000D130FEF793FFEF4C2646A0683036002829
:1052C00004D0022804D001280CD00DE0A5600BE02A
:1052D000012D09D1B088012806D102980068A0618B
:1052E00001200FE0022D0CD0002069460880A06844
:1052F00002280AD0002806D002980568002D49D15E
:1053000050E00220E06005B0F0BDDA481430C1780A
:105310000129F8D10288807801282DD00023D549B1
:10532000AB2038310870684600791025000900016B
:105330002843DF25284001256B405B011843830685
:105340009B0E684603714B7000274F8050BA8F80C8
:10535000C8800822684602806A46D348FFF726FFC5
:1053600000280BD0D149884215D1C249D048143108
:105370000222FFF761FEC6E70123D0E7BD48A76020
:105380001430C770E0680128BDD1A569002DBAD0DE
:10539000E760A0607AE00020B649A0601431E060C8
:1053A000C870B0E78720B6A18000FEF717FF6DE058
:1053B000B049082040316A461080012715E068890D
:1053C0000028A0D02868002803D1ADA1B948FEF775
:1053D00005FF68891421142800D801466A46118007
:1053E00029892A680227081A81186A46AE48FFF7F9
:1053F000DDFE00280ED0AD4988424BD1AC4829468D
:105400000122FFF719FE01212A468904606A06F08D
:10541000C5FA78E7002F39D0012F04D0022F0AD027
:10542000032F33D12AE0B08801282FD10020B0808B
:10543000206460642AE0694668890988401A00048B
:10544000000C688122D100273A4639463846FFF7DA
:10545000F3FDA7600121E5612A468904606A06F030
:105460009DFAE068022811D182481430C0780128E2
:105470000CD10220A0600020E06038E77D481430A5
:10548000C178012902D10021A160C170B088012832
:1054900095D18DE700273A4639463846FFF7CCFDCF
:1054A000A7606968002902D0AF7300208847E068D0
:1054B0000228AED1E760A06019E738B504000D46B8
:1054C00004D1FF206EA1B730FEF788FE012D08D071
:1054D000022D05D10222009404216846FFF7D8FE70
:1054E00038BD00946089002803D06248406A06F005
:1054F00092FA0122F0E770B5040024D05D4DAB2094
:1055000040352870002068702289100AA870EA705F
:105510000020216802F0FCFF010A297155496871D9
:105520004888020AAA71E87122896281A081401C20
:105530004880284601211038818004602046FFF70A
:10554000BCFF002070BD072070BD70B50446807B95
:1055500000281BD06089002809D1E07B032806D2EF
:10556000401CE0732046FFF7C6FF00280ED0002540
:105570002A4629462846FFF75FFD3E488560C560FC
:10558000A5736168002901D00020884770BD002103
:105590000160704710B5002809D0012806D13648AF
:1055A00036490088884201D0132166DF10BD00F023
:1055B000AFFD00F079FF10BD01F07AFD01F04CFB6A
:1055C00005F058FA012039DF3C493B48C860BFF379
:1055D000408FFEE7274901200870274813210088E3
:1055E00066DF704710B5364800218173C1732148CA
:1055F000344A243006F08BF9002804D0FF2120A281
:105600002331FEF7DFFD1B482F4A0021283006F02A
:105610007EF9002804D0FF2119A22631FEF7D2FD21
:1056200014482A4A00212C3006F071F9002804D0D1
:10563000FF2113A22931FEF7C5FD002010BD70B572
:105640000C4D0E46E969002960D0898981425DD1FF
:10565000686A06F0E0F90024002E39D0E869C17BC1
:10566000032941D3224621462046FFF7E5FCAC60E2
:10567000EC6044E05420002002200020FFFF0000E6
:105680002E2E5C536F757263655C7372635C62642B
:105690005F636F6D6D756E69636174655F70726F66
:1056A000746F636F6C2E6300942B00200330000036
:1056B000BB540100310200000400FA0500ED00E0D7
:1056C000882C00204B5501008F5501009555010095
:1056D000224621462046FFF7AFFCE8698473416803
:1056E000002913D0012010E0491CC173FFF703FF0C
:1056F00000280BD0224621462046FFF79DFCE86992
:1057000084734168002901D00020884770BDF8B536
:10571000040006D0FA4F0026B87B002803D00420EE
:10572000F8BD0720F8BD0120B873F64DAB202870F6
:105730006E702289100AA870EA700020216802F0B9
:10574000E7FE010A29712A466871403A5188080A21
:10575000A871E97163687B6023683B6023893B81A2
:1057600023897B81FE73B981491C5180294601221E
:1057700010398A800F6038461146FFF79EFE0020E0
:10578000F8BD7047F8B50025062812D004DC0028C3
:1057900009D0012804D106E0092816D00A2828D00B
:1057A00007252846F8BD002AFBD1002002F024FA84
:1057B000F7E7012AF5D10978D348012902D0002161
:1057C0000170EEE701210170EFE70C2AE9D188783A
:1057D000CA78000210434A7812040243087804068B
:1057E000144303F086FEA042DBD0204603F07EFE89
:1057F000D7E70A2AD5D1087800908878CA780006B9
:105800001204024308794C7900021043044388795A
:10581000CA7900020243087A4F7A03024E781F4386
:10582000104601F04BFBB9493846484301F049FBAB
:105830000A20604301F048FB009801F048FB304625
:1058400001F050FBADE7F0B50346002585B00C46EE
:105850001046052B7BD006DC012B0DD0022B30D05F
:10586000032B06D178E0102B72D0202B71D0212B86
:1058700070D00725284646E5042A6CD100F060FF69
:10588000A178E67809020E436178C07809040E43D6
:10589000217809060E43B102C90E884205D00020C6
:1058A00003F024FE002001F0D8FD304601F09EF800
:1058B00000F07EFD0028DDD001F0F7FB00287DD050
:1058C000D8E7052108F034FC00295FD1C0B2009070
:1058D000082801D90820009003F08DFC002630E054
:1058E000B0003218A05C0021121994460291039076
:1058F00052780B06170A3B431206114318436246BF
:105900000291039092780023170C1B043B4312046E
:1059100011431843624602910390D2780023170E78
:105920001B0212023B43114318436246029103904B
:10593000127930461143029102A903F06DFC761CE6
:10594000F6B200988642CBD303F08EFC92E708E0D3
:105950001AE03BE04CE019E0002A17D101F0C5F84D
:1059600088E7042A12D1A178E0786278090201431D
:10597000207812040A430006104300D1634803F064
:105980003EFD03F045FD75E7042A01D0092571E7C6
:1059900000200090E0780090A17809020843009070
:1059A00061780904084300902178090608430090B3
:1059B000684603F0C0FC03F0C8FC00E003E001F01F
:1059C000EFF80028C2D001F0C6FB53E7012ABDD191
:1059D00008780407240F022CB8D8204603F07EFD77
:1059E000002C03D0012003F071FD43E70020FAE70B
:1059F000082AABD1002000900190E07900210191AC
:105A00000090A2791302DA17184311430191009014
:105A100062791204D317104319430191009022793F
:105A20001206D3171043194301910090E27868469B
:105A300011430191A278120211430191627812047C
:105A400011430191227812061143019103F0C2FB28
:105A50007AE710B5012000F0AEFC002003F02EFD27
:105A6000002003F043FD01F023FB03F01EFD01F0D5
:105A70008FFB10BD3EB5224A0123C83A13700023A4
:105A8000537002249470D370147150719171072077
:105A900069460193009208816846FFF738FE3EBDD3
:105AA0003EB50124012818D0112815D11448002131
:105AB000C8380470417012228270C17004220271D1
:105AC00044718471C4710472019100900920694687
:105AD00008816846FFF71BFE3EBD02F08CFB0546C1
:105AE000012002F085FBFFF745FA282810D201219A
:105AF0000846FFF7BFFF284602F07AFB3EBD0000D4
:105B0000882C002094200020242100201027000051
:105B100000210846FFF7AEFFFC4805210470FC4851
:105B20000022C903006805F039FFE7E7F7B50D4625
:105B300000280AD0002D08D0F44902780B69411CD6
:105B4000002B04D0012B74D129E00720FEBD032ACD
:105B500004D0062A0FD0012A2ED06AE0CA788C78A9
:105B60001102214349BACA058378411DD20D184656
:105B700000F08AF95DE00526841C0DE06078A178CC
:105B80000002401887B23946204603F03FF8E41976
:105B9000E41CF019C01C86B2A81BEFD549E0042A0A
:105BA0001BD004DC012A07D0022A42D108E0052AD2
:105BB00020D0FF2A3DD12AE08078FFF771FF38E03E
:105BC000CA788C781102214349BACA058378411DED
:105BD000D20D1846FFF737FE2BE0CA788C781102F9
:105BE000214349BACA058378411DD20D184600F0F9
:105BF00016F91EE0CA788C781102214349BACA0509
:105C00008378411DD20D1846FFF7BCFD11E0012D30
:105C10000FD1C078012804D0022805D0032808D16C
:105C20000CE00122114601E001220221032000F0D4
:105C3000A0FB0298002101600846FEBD012203215D
:105C4000F4E7B24A10B51432917010800120D07080
:105C500002211046FFF731FC002010BD7047FEB551
:105C6000AA4C0F461646A06A05F04DFF002802D147
:105C7000A06A05F0D0FEA748226A01460831002537
:105C80000091002A12D0012A44D0022A0DD178783E
:105C90006A46C106107108D58006C10FF879BA7935
:105CA0000002104340BAFFF7CAFCFEBD3978AB29A9
:105CB000FBD105463246394608F0A2F9A68069882C
:105CC00048BA0830801B00B2E08000281FDC6878EA
:105CD0006B46C206187103D58006C10FE888E1E75C
:105CE000022000262062A680A88849BA8AB240BA5B
:105CF000009900F020F9002802D02662E88833E0FD
:105D0000E888012140BAFFF79CFF68883CE0012049
:105D1000206240E07F49A088019008183246394649
:105D200008F06EF901988019A080E088801B00B20D
:105D3000E08000282FDC774E6A4670781071C1062B
:105D400004D58006C10F2562F088ABE702202062EF
:105D5000A5807188B0884ABA40BA009900F0EBF883
:105D600000280BD02562F088002140BAFFF769FFB8
:105D70000021694A084605F092FBFEBDF08801212A
:105D800040BAFFF75EFF7088604A41BA203200983F
:105D9000FFF7CCFEFEBD5D4A012120328904A06AD6
:105DA00005F0FCFDFEBD59484078704757494870E2
:105DB000704770B50024204622462146FFF73CF983
:105DC000524D2869012800D168702C61AC6151489E
:105DD000AC601038EC608473C473E869002805D0A7
:105DE00084734168002901D0002088472C6247480D
:105DF000AC80EC80143004804480686A05F083FE37
:105E0000002802D1686A05F006FEA86A05F07BFE4C
:105E1000002802D1A86A05F0FEFD002070BD10B573
:105E2000002420281FD008DC012811D0022812D01D
:105E3000032810D0042808D112E0212816D03028D9
:105E400017D0312818D0412819D00724204610BD7A
:105E50000021052015E002F0DEFB00F059F9F5E71E
:105E6000002106200DE0002107200AE00021082083
:105E700007E00021092004E000210A2001E00021C0
:105E80000B2002F00EFAE1E7F7B5204C054600279B
:105E9000E06A0E46012D06D0032D01D105F0BBFDB1
:105EA000032D31D11DE005F0B6FD0298202815D153
:105EB000002E13D0FFF75EF814280FD320223146AE
:105EC000164808F09DF80F2100224904E06A05F009
:105ED00065FD0021012002F0E4F915E000F0E4FA8C
:105EE00012E00298202807D1002E05D0202130464C
:105EF00000F011FB070013D000F05DFB4B210122E5
:105F00004904E06A05F04AFD3846FEBD54200020F1
:105F100018200020982C00205D5C0100FC2C002043
:105F200003F029F9002801D102F023FF00F02EFB35
:105F300001202061E8E710B50446002002F0E8FAED
:105F4000A04201D1002010BD0B2010BD0EB55D494F
:105F50000968012911D15C4907220A7000224A70A0
:105F600001238B70CA700B71487100910620019259
:105F7000694608816846FFF7CAFB0EBD10B50429C3
:105F80000BD10068012809D0022806D100F0F9F9E8
:105F900001280BD00220FFF7D9FF10BD0120FFF729
:105FA000D5FF0021112002F07CF910BD00F092FA1B
:105FB00010BD10B5042907D10068012805D00228BA
:105FC00002D11220FFF7C2FF10BD1120FFF7BEFF64
:105FD00002F0DFF910BD08B500213C4800910269CC
:105FE0003B48920216D40278521CD2B20270042AA4
:105FF00008D9022200920170364A0421684605F051
:106000004EFA08BD3448012100228903006805F0DA
:10601000C5FC08BD0122EDE708B500212B48009121
:1060200002692B48920016D44278521CD2B24270B8
:10603000042A08D9022200924170284A04216846A5
:1060400005F02DFA08BD26480121002289030068C9
:1060500005F0A4FC08BD0122EDE710B5152815D107
:106060001A480069800211D41B4C206805F04BFDD2
:10607000002802D1206805F0CEFC00201449024619
:10608000087001218903206805F088FC10BD10B557
:106090001D2815D10D480069800011D4104C2068CE
:1060A00005F031FD002802D1206805F0B4FC002085
:1060B00007490246487001218903206805F06EFCFB
:1060C00010BD000064200020C02B002000050050FF
:1060D0009C2000207D5F010010200020B35F0100A4
:1060E0001420002070B50021AB4BAC4C01220546BA
:1060F000CD40ED07ED0F5D5C164602D0AE40E66088
:1061000001E0AE40A660491CC9B20E29EFD370BDB4
:1061100010B5A34CE06805F07EFCFF20A0600020D5
:10612000A080112020700020FFF7DCFF10BD70B5AB
:106130009B4DAB68132B7AD00CDC08F09DF9133F14
:1061400034383B3F4245484B4E55585B5E61646E68
:106150007275A3001D2B26D008DC143B08F08CF9C7
:10616000096A6D7073767B7E81849200222B7ED0CB
:1061700008DC1E2B0DD01F2B0ED0202B10D0212B76
:1061800068D143E0232B0ED0242B42D0642B79D14D
:1061900026E0814C7E3C01E07F4C7A3C022169E0A4
:1061A0007D4C0E3401E07C4C26340C2162E07A4CAC
:1061B0003E34FAE7784C563405215BE0764C763C69
:1061C000ECE7754C723CE9E7734C6E3CE6E7724CC9
:1061D0006A3CE3E7704C663CE0E76F4C623CDDE70D
:1061E0006D4C803C012145E06B4C323CD6E76A4C5B
:1061F0002E3CD3E7684C2A3CD0E7674C263CCDE7E1
:10620000654C223CCAE7644C1E3CC7E7624C1A3C12
:10621000C4E7614C163CC1E709E05F4C083C04212F
:1062200028E05D4C123CB9E75B4C5E3CB6E75A4C4B
:106230005A3CB3E7584C563CB0E7574C523CADE79C
:10624000554C4E3CAAE7544C4A3CA7E7524C463CBE
:10625000A4E70CE016E0504C423C9FE74E4C3E3C1D
:106260009CE74D4C3A3C99E74B4C363C96E74A4C00
:106270000E3C0321002C05D0A8886A88904204D3E4
:10628000002A02D0FFF744FF70BD07F051FF48001D
:10629000205AFFF727FFA888401CA88070BDF8B5DA
:1062A00007463F4C0020A080A7600D461646E068D8
:1062B00005F029FC002802D1E06805F0ACFB294676
:1062C0000C2268045143000C89B2132F28D00DDC36
:1062D0003B4608F0D1F81325272729252525252514
:1062E000252525252525253825252C001D2F19D0C8
:1062F00003DC143F082F1AD812E0222F25D008DC27
:106300001E2F0DD01F2F0BD0202F0BD0212F0ED1E1
:1063100006E0232F06D0242F02D0642F07D105E0FA
:10632000608004E0618002E0A8000FE06580A06862
:10633000FF2807D00020FFF7FAFE00223146E06870
:1063400005F02CFBF8BDA800EAE768002818E7E78D
:1063500070B50C46154612491A460B78984206D875
:10636000087029462046FFF79AFF012070BD0020E3
:1063700070BD082803D00A2801D00A4BE8E70A4B71
:10638000FCE7074800787047054810B5074A012127
:106390000C3005F0BCFA10BD24E5010000050050EA
:1063A000A0200020333300009A1900002F61010063
:1063B0008B48407870478A49487070471CB5002266
:1063C0001146104604F098FB694601240880240712
:1063D000606901A91238C0B204F002FC002819D18A
:1063E00060691238C0B204F0E4FB019808227D49CC
:1063F000001D04F0CCFB00280CD16A46202179480E
:1064000004F07AFB6946088077494118019804F046
:10641000B9FB00281CBD1CB500221146104604F033
:106420006BFB6946088001200007406901A912380A
:10643000C0B204F0D5FB002815D101996B4B086858
:10644000020C9A4210D184B22022091D6548FDF742
:106450009DFE6A462021634804F04EFB6946088091
:10646000A04203D100201CBD401C01D00B201CBD4C
:1064700005201CBD0EB55E4803210170002141704E
:1064800002228270C170012202714171019100905B
:106490000620694608816846FFF739F90EBD554860
:1064A0001321008866DF70470EB551480321017043
:1064B0000021417002228270C1700121017141717D
:1064C0004D49019100900620694608816846FFF712
:1064D0001EF90EBD10B54948006805F09CFA404809
:1064E0000124047001F007F8FFF712FEFFF7C2FF66
:1064F0000021022001F0D5FE41480460FFF7A9FA0F
:1065000002F0E4F8002805D03E48006805F083FA60
:1065100002F08DFA10BDFEB506000D4601D0202D0B
:1065200001D00720FEBD00221146104604F0E4FA17
:106530006946088001200007406901A91238C0B2ED
:1065400004F04EFB0400EDD10198284A0368190CB1
:1065500091420AD19FB26A462021001D04F0CCFA74
:1065600069460880B84202D105E05B1C01D00B20CF
:10657000FEBD0520FEBD01992A46091D304607F0E3
:10658000F5FC002800D00B242046FEBD0EB51848AF
:10659000032101700021417004228270C170012228
:1065A0000271417101910090062069460881684698
:1065B000FFF7ADF80EBD0EB50D48032101700021A7
:1065C000417004228270C1700122027142710191F6
:1065D00000900620694608816846FFF798F80EBDCE
:1065E000B0200020FC2C00200000DE45DE4500002D
:1065F000C02B0020022000209F640100802000208A
:10660000642000201C20002002461F20012907D002
:10661000062901D9491EC9B2C90700D01E207047FA
:106620001C32D0B27047F8B504460846FF4907F05F
:106630007FFD0D4606463C21284607F079FD217175
:10664000E1210901284607F073FD054608463C2173
:1066500007F06EFD6071A5717D200001B5B220804C
:106660000FE0002F26D06421304607F061FD00299D
:1066700001D0B0071ED0FF206E30281A761C85B2DC
:1066800026802088FF210646913107F051FD0F003A
:1066900013D06421304607F04BFD002901D0B0072C
:1066A0000BD0FF206E30A842DBD90020FF27A0705E
:1066B00091371DE0FF206F30DFE7FF206F30F2E7FA
:1066C00020883946064607F033FD002927D064218B
:1066D000304607F02DFD002901D0B0071FD0002063
:1066E000A178FFF791FF281A85B2A078401CA0700E
:1066F00020883946064607F01BFD002911D0642189
:10670000304607F015FD002901D0B00709D0002060
:10671000A178FFF779FFA842D2D9E570F8BD012032
:10672000DEE70120F4E710B5C04907F001FD0721BD
:1067300007F0FEFC481D072107F0FAFC084610BDD3
:1067400010B5BB48C1681030FFF76DFFB848103076
:106750008178491C8170C178491CC17010BD70B529
:10676000FFF7EEFF0446002549E0284602F04CFD05
:106770000068A179C001C00E88423ED1284602F0CF
:1067800043FD00680003810E6079814235D1A8483D
:10679000C068FFF7C8FF0646284602F035FD0068CE
:1067A0000121B1400840400623D1284602F02CFDCB
:1067B0000068E1788000C00E88421ED1284602F0B1
:1067C00023FD01684068890880070843A178000F0D
:1067D000884212D1284602F017FD01684068090A74
:1067E000000608437D21800E090140182188884257
:1067F00003D100210C2001F054FD6D1CEDB202F01C
:10680000F7FCA842B1D870BDF8B502F0EEFC064620
:10681000FFF796FF054630687168020E08021043C4
:10682000000E012829D1824CE068FFF77CFF024668
:10683000A8790027002804D16979002901D12760AF
:106840006760012393403168DAB2114215D00A0221
:10685000120E824211D80A04120E82420DD33C223B
:1068600050436A79090E801807F062FC002905D0B0
:1068700002F03FFE6168401A2060F8BD03CE020CB2
:10688000080410432168000C884203D900210E201F
:1068900001F007FD276002F02CFE6060F8BD10B526
:1068A000634CE068401CE06002F07CFC3C21E06846
:1068B00007F03EFC0C0001D01E2C16D1FFF761FD45
:1068C000112805D101F0BFFE002801D1FEF7C7FA5B
:1068D000002C0AD100F0E9FB002806D0FFF73FFFAB
:1068E000FFF792FF002000F072FD10BD10B5504878
:1068F0007D2109011030018000218170C1708171FA
:10690000417101714A4C4B4AE1600121083804F0A1
:10691000FEFF002804D0FF2147A21531FDF752FCED
:1069200001210022C903A06805F038F8002804D02E
:10693000FF2141A21731FDF745FC10BDF8B5044613
:1069400081060005800E3C225043890E4118E00369
:10695000E122C00E1201504345187D20A70E000110
:106960003818FF2100269131009007F0E1FB002943
:1069700013D06421009807F0DBFB002901D0B80791
:106980000BD00023A0022949C00E484349424019B8
:106990004518A001040F641E09E00123F2E7F1B2DB
:1069A0001846FFF731FE214948434519761CB44289
:1069B000F5D8002414E07D200001FF21201891313A
:1069C000064607F0B5FB00290ED06421304607F0DB
:1069D000AFFB002901D0A00706D020482D18641C69
:1069E000A742E8D82846F8BD1D48F7E7F8B50446A1
:1069F00081060005800E3C225043890E4118E003B9
:106A0000E122C00E1201504345187D20A70E00015F
:106A10003818FF2100269131009007F089FB0029EA
:106A200030D06421009807F083FB1BE08051010007
:106A3000B42000209F6801002E2E5C536F75726396
:106A4000655C7372635C62645F77616C6C5F636CDE
:106A50006F636B5F74696D65722E63008033E10153
:106A60000085E201002901D0B8070BD00023A00265
:106A70005849C00E4843494240194518A001040F27
:106A8000641E09E00123F2E7F1B21846FFF7BCFDEE
:106A9000504948434519761CB442F5D8002414E007
:106AA0007D200001FF2120189131064607F040FBB0
:106AB000002918D06421304607F03AFB002901D0A4
:106AC000A00710D044482D18641CA742E8D8434CB6
:106AD000E560A06804F09FFF01210022C903A068BF
:106AE00004F05CFFF8BD3E48EDE7FEB53D4D0220E9
:106AF000287000266E700420A870EE7002F078FBFB
:106B000081004018287100242CE0204602F07CFB14
:106B1000A100611840684F197871204602F074FB9B
:106B2000014600684968000E09020843B871204612
:106B300002F06AFB014600684968000C090408433A
:106B4000F871204602F060FB014600684968000ABF
:106B5000090608433872204602F056FB0068641CA0
:106B60007872E4B202F044FBA042CED801960095C0
:106B700028796946401D08816846FEF7C8FDFEBDBC
:106B80001648C068704710B5144CE060A06804F067
:106B900042FF01210022C903A06804F0FFFE10BDDE
:106BA00010B5FFF7CDFD00887D210901884201D194
:106BB000002010BD012010BD10B50848806804F009
:106BC0002AFF002804D0FF21074AB231FDF7FAFA64
:106BD00010BD7047805101008033E101B4200020D6
:106BE0000085E201C02B0020386A010070B5534ACD
:106BF000042052490C321060121F10600A1D1060F0
:106C000008604E4C783420604C4D103528607D2053
:106C1000C00000F0A9F84A48206028604949800770
:106C20008860C82000F0A0F800221146104600F04D
:106C3000A9F800280FD0002000F009F902F0C1FCEB
:106C4000F22803D040A1EE20FDF7C8FA02F007FEBB
:106C5000002000F015F970BD10B5002000F0F7F825
:106C600002F0E3FD002000F00BF910BD10B500208C
:106C700000F0EDF8002000F003F910BD10B5002081
:106C800000F0E5F8002000F0FBF810BD10B5002082
:106C900000F0DDF8002002F0CBFD002000F0F0F85D
:106CA00010BD10B5002000F0D2F8012002F0C0FDA8
:106CB000002000F0E5F810BD10B5002000F0C7F886
:106CC0000124002000F0DCF8204610BD10B5044679
:106CD000002000F0BCF8204600F004F8002000F08E
:106CE000CFF810BDF1B5002482B0254602F07FFC3C
:106CF00040071FD51B4E2025684602F0ECFC684675
:106D000001880E2041436846018042880E2042439C
:106D10006846428083880E2043436846838020462D
:106D20000627784331528019641C4280E4B2838084
:106D3000AC42E1D302980570FEBD00000007005090
:106D400001020000000500502E2E5C536F75726327
:106D5000655C7372635C62645F68616C5F616363EE
:106D60002E6300001C2D002070B50446044D03E086
:106D7000641E2846FDF7EAF9002CF9D170BD000029
:106D8000E7030000F0B50446052647480025360213
:106D90000123002C01D0454809E003278419A7608E
:106DA0000227E7602361424CA360424C2560012426
:106DB000A40786197462002906D001290FD0022980
:106DC0000FD003290FD000211524A401002A00D0E0
:106DD000194302195161FF2109310D50F0BD022103
:106DE000F2E70421F0E70621EEE7F0B5002596462C
:106DF0008C462F4A064601212F462846D160F41DB5
:106E00001115F93471181AE07246D25DCA61032671
:106E1000360300E06D1CA268002A01D1B542F9D307
:106E2000B54205D101218140214881600020F0BD9B
:106E30000022A2608A693E467F1CBFB29A55674510
:106E4000E2D3012181401A4881600120F0BD10B5D4
:106E50000121174B10229A60134A002801D0134ACF
:106E600009E0154B14480C3319601B1F19600023EF
:106E7000041D23600160052000021018016010BD90
:106E8000094A002801D0094A05E00B490220C860E0
:106E900088604860086005210020090251180860D8
:106EA00003491020C8607047003000400040004097
:106EB00000050050E020002000070050FF498880B6
:106EC0007047FE4948617047FC498861704710B5BA
:106ED000FA4BFB4C3033596880072140C00A01430C
:106EE000596010BD10B5F54B782430335968E44330
:106EF00000072140400E0143596010BDEF488088D3
:106F00007047EE4840697047EC488069704710B59B
:106F1000EA4C207800280AD0E06904F07CFD0028C3
:106F200003D0E8A29F21FDF74DF90020207010BD8D
:106F300010B5E24C207800280CD10022E949E06924
:106F400004F02CFD002803D0DEA2AE21FDF73AF9B3
:106F50000120207010BD10B5D848C18803890A46A9
:106F6000994200D8194681814489A14200D821461E
:106F70008181914201D1002010BD994201D10120AF
:106F800010BD022010BDF8B506460068022803D0E7
:106F9000CCA1C720FDF722F97268002A5BDDC74C3F
:106FA000A18820462030002902D143785B1C437021
:106FB00043780125002B00D145705018A08002F0C5
:106FC00098FA7168401802F091FAB068002802DD62
:106FD0006169401860613069002802DDA1694018CC
:106FE000A061F068002804D0012806D002280BD147
:106FF00007E0E088401CE08006E02089401C2081FA
:1070000002E06089401C6081FFF7A5FFAB4BAC4EEE
:107010003033596880073140C00A0143B248002626
:107020000140A0880005400B0143596002F061FA5D
:10703000074602F0E1F9874202D3A07800280BD07E
:1070400002F057FA054602F0D7F9854200D2A67041
:10705000002000F0D1FDF8BDA5700021102001F046
:1070600020F9F5E710B504460068012804D0FF2098
:1070700094A10330FDF7B2F890496068C8702046CB
:1070800000F0C1FF002000F0B7FD10BD10B50446B0
:107090000068022802D12046FFF775FF206801280A
:1070A00002D12046FFF7DEFF10BD844840787047CC
:1070B00010B582490020487005F0ADFC10BD10B538
:1070C000FFF75EFD00217D227C4CD2000B4606F0CE
:1070D000BAFEE162A06210BDF8B5006841048E0DF1
:1070E0004100C40F00024F0EC50D002F00DC192710
:1070F000002E00DC4126002D00DCAA25012C02D048
:10710000002C00D001246D484078002801D0FFF702
:10711000CFFF3B46324629461920009405F049FC32
:10712000002804D0FF2067A1A530FDF757F8634879
:1071300001214170FFF7C3FF00216C4805F07AFC84
:10714000002804D0FF205FA1AB30FDF747F8FFF720
:10715000A8FD0020F8BD594810B52030407800281F
:1071600003D100F002FF00F05EFE54482430408856
:10717000002801D100F0F4FE5D4800684088002836
:1071800001D101F002FF02F0D3F8FFF7A5FF10BD17
:1071900010B500F0EAFE00F0E3FE01F0F6FE00F0AC
:1071A00042FE464800218180816141614181018127
:1071B000C180084602F09AF900F07CF900F05AF913
:1071C000012010BDF0B585B0002402A8FFF77EFDB8
:1071D0003A4D39E0A00732D1687800282FD02046F8
:1071E0000621484343490A5E40180221415ED610F9
:1071F000CF100421415EC8100390304639467043D9
:107200007943411803984043081801F095F9A96A99
:1072100084462723C918E86A00225041A962E8621F
:1072200000910190634639463046039A05F00BFC05
:10723000002804D02B2023A10001FCF7CFFF641C01
:107240002869E4B2401C28616846007A8442C1D3B0
:1072500005B0F0BDF1B5194E82B0B0883546303575
:10726000009000287ED00A21B06906F06BFF020C66
:107270000021090400041143070C4C0768682968C1
:10728000C0083F04640F89B2C0000F4304431A4989
:10729000706906F057FF390C80B2090408430849A9
:1072A00000270C4002998907C90A0C430E490C407B
:1072B00000990905490B0C43210E1FE0E82000202E
:1072C000FFFFE7FF2E2E5C536F757263655C737270
:1072D000635C62645F737465705F636F756E746521
:1072E000722E6300D72300007F00F8FF8D7001002D
:1072F000882100201C2D0020102700006C602C46E7
:107300002860103C6078C20057480368D21851705A
:10731000627869680368D200090CD21891706278AB
:1073200069680368D200090AD218D17062780368CC
:10733000D2006968D21811716A6829681202090EB0
:10734000114362780368D200D21851716A682968C3
:107350001204090C114362780368D200D2189171AB
:107360006A6800E016E029681206090A114362788B
:107370000368D200D218D17162780068D2002968FF
:10738000101801726078082804D100F049FB002829
:1073900000D167706A686968520D521C53052868ED
:1073A0000022B280B261726172813281C902F280C0
:1073B000C90A2E4A1943114082B2C808110CC000F4
:1073C00009047822D243104029606860FEBDFEB5F2
:1073D000FFF7B6F90546FFF7BEFD0646FFF76FFE5D
:1073E000A8790027224C002808D16879002805D107
:1073F0002879002802D102F079F8A770E088864247
:107400000FD91B4A782330325168DB4310680B4098
:10741000C70949063943090F491C0907490E0B439F
:107420005360E07801280CD12078002809D1E16A66
:10743000A06A0023019100901A461946184605F0EB
:1074400002FB68790F2106F073FE002902D1304655
:10745000FFF700FF01F024FDFEBD0549887070476D
:107460000348807870470000302100207F00E0FF53
:10747000E820002038B501242407616920692939F2
:107480004143F948016061692269293951434160EA
:1074900000200090606969462938C0B203F0A0FB63
:1074A00000980068401C04D060692938C0B203F01D
:1074B0006CFC38BD38B5012424076169206938396E
:1074C0004143E9480838016061692269383951430C
:1074D000416000200090606969463838C0B203F00E
:1074E0007FFB00980068401C04D060693838C0B247
:1074F00003F04BFC38BD10B5FFF7DCFFFFF7BAFF18
:1075000001F049FD10BD10B501210907096989B2D3
:1075100006F00EFE10BD70B5D34C012560682D0736
:10752000002802D02068002809D168692969293813
:107530004843606068692969293848432060606869
:10754000FFF7E1FF296989B248436168884217D093
:107550000846FFF7D8FF296989B248436168081ACD
:1075600080102C2106F0E4FD002909D06869296902
:107570002938484360606869296929384843206090
:1075800060680168491C02D14168491C15D0FFF7A9
:10759000BAFFC0B203F00DFB6068FFF7B4FF2969C2
:1075A00089B248436060FFF7AEFF05462068FFF7E9
:1075B000AAFF854201D16068206070BD70B5AA4CF9
:1075C0000125083C60682D07002802D020680028AB
:1075D00009D1686929693838484360606869296950
:1075E0003838484320606068FFF78DFF296989B209
:1075F00048436168884217D00846FFF784FF29692D
:1076000089B248436168081A80104C2106F090FD49
:10761000002909D068692969383848436060686979
:10762000296938384843206060680168491C02D1E4
:107630004168491C15D0FFF766FFC0B203F0B9FAE4
:107640006068FFF760FF296989B248436060FFF70F
:107650005AFF05462068FFF756FF854201D1606852
:10766000206070BD804801684068814201D10020DF
:107670007047012070477D484088002800D00120D5
:10768000704770B5784D2868FFF73DFF04462868BD
:107690005830FFF738FF8442286801D12C3070BD84
:1076A000FFF731FF401C0124240761691A39884221
:1076B00006D22868FFF727FF2169401C89B203E042
:1076C0002069616980B22939484370BD70B5664D43
:1076D00068688430FFF717FF06466868FFF713FFF6
:1076E0000124240786425AD068685830FFF70BFF00
:1076F00006466868FFF707FF864250D16868FFF7C3
:1077000002FF6169401C1A3988422AD26868FFF773
:10771000FAFE401CC0B203F038FB6868FFF7F3FEC6
:107720002169401C89B248432968884237D8686873
:10773000FFF7E9FE2169401C89B24843216989B2FB
:107740004118286881422AD9FFF7DDFE6169401A95
:107750001B3001D028681BE02069616980B229399B
:107760001BE060692938C0B203F00FFB206981B2C9
:107770006069293841432868814210D821696369CA
:10778000226989B2293B594392B28918814206D9AC
:10779000FFF7B9FE2169401C89B248432860686838
:1077A000FFF7B1FE064668685830FFF7ACFE864228
:1077B000686801D12C3070BDFFF7A5FE6169401CDF
:1077C0001A39884206D26868FFF79DFE2169401C7D
:1077D00089B203E02069616980B22939484370BDEC
:1077E0002148083801684068814201D10020704773
:1077F000012070471E490020497800290CD01D49FE
:107800000A684968D20C49031143174A090D303AF6
:10781000D288914200D00120704715490120497853
:10782000012900D80020704770B50F4D083D286829
:10783000FFF769FE044628689830FFF764FE84422B
:10784000286801D14C3070BDFFF75DFE401C01245B
:1078500024076169293988420ED22868FFF753FE50
:107860002169401C89B20BE0582100200C21002026
:1078700008210020182100202069616980B2383970
:10788000484370BD70B5FB4D6868E430FFF73BFEC0
:1078900006466868FFF737FE0124240786425AD05F
:1078A00068689830FFF72FFE06466868FFF72BFEE2
:1078B000864250D16868FFF726FE6169401C29396D
:1078C00088422AD26868FFF71EFE401CC0B203F04F
:1078D0005CFA6868FFF717FE2169401C89B24843CB
:1078E0002968884237D86868FFF70DFE2169401C77
:1078F00089B24843216989B24118286881422AD94E
:10790000FFF701FE6169401A2A3001D028681BE0A8
:107910002069616980B238391BE060693838C0B2CB
:1079200003F033FA206981B260693838414328682E
:10793000814210D821696369226989B2383B594371
:1079400092B28918814206D9FFF7DDFD2169401CFA
:1079500089B2484328606868FFF7D5FD0646686825
:107960009830FFF7D0FD8642686801D14C3070BD79
:10797000FFF7C9FD6169401C2939884206D2686851
:10798000FFF7C1FD2169401C89B203E020696169EC
:1079900080B23839484370BD70B500281AD000292C
:1079A00018D04A780524D200121D04700025D30592
:1079B0000226DB0D457086701C0AC47003714B886B
:1079C0001B0A43714B8883710B78C371497801722C
:1079D000501D70BD0020C04370BD70B500281CD084
:1079E00000291AD04A8805249200121D92B2047010
:1079F0000025D3050326DB0D457086701C0AC47074
:107A000003710B881B0A43710B8883714B881B0A17
:107A1000C37149880172501D70BD0020C04370BD04
:107A200070B5002802D0082801D9092070BD914CFA
:107A30009149283CA068FFF7AFFFC01CC117890F10
:107A4000081880038B4D020C6868A16803F09FF84A
:107A5000002801D0012070BDFFF714FF686086493F
:107A60000020864A4870864B50681840C008C00005
:107A7000002111605060084670BD10B57D4C283C57
:107A8000207900280DD105210022C903E06903F007
:107A900085FF002803D07BA28249FCF793FB0120DD
:107AA000207110BD3EB5754C7F4D20686168C20CD9
:107AB00048031043000D60D0FFF723FA7B4906F01E
:107AC00041FB226880B2120C120402432260FFF7CD
:107AD0001BFA0A2106F036FB020C002109041143AF
:107AE00000044A07030C61682068C908520FC900E6
:107AF0001B0480B211431843616020605E48AB688C
:107B00004278090ED200D218517042786168AB6891
:107B1000D200090CD218917042786168AB68D2002B
:107B2000090AD218D1704278AB68D2006168D218C5
:107B30001171626821681202090E11434278AB6824
:107B4000D200D2185171626821681204090C1143E5
:107B50004278AB68D200D21891716268216812062F
:107B6000090A11434278AB68D200D218D17140782B
:107B7000AA68C0002168801801723F49A868FFF711
:107B80000BFF4B490191A96800916946088168463D
:107B9000FDF7BDFD002801D000203EBD03CCC20C86
:107BA00048031043000DE88001203EBD3EB5314C36
:107BB00008342068C178027909025118491D89B238
:107BC0002C2908D80278052A05D14278002A02D14A
:107BD0008278032A03D0FFF754FD206008E0344A7E
:107BE0000090019268460181FDF791FD002801D0C7
:107BF00000203EBD01203EBDFEB52E480068012894
:107C00005CD1294C2078002856D1A069002804D0E6
:107C100024481CA16238FCF7E1FAE0780526244FDD
:107C2000012500284BD1FFF71DFD00280FD1FFF7DC
:107C300022FD00280BD101F09EFA002807D1FFF7A2
:107C4000CFFD002803D1FFF7E8FD002837D0094811
:107C5000002108380670417007228270C1700171DE
:107C60000090019768460681FDF751FD002823D159
:107C700006207FE05021002008210020182100204C
:107C80007F00E0FF2E2E5C536F757263655C73722C
:107C9000635C62645F73796E635F646174612E63B9
:107CA0000000000016050000282100201027000019
:107CB000957E010064200020FFF7DFFEFEBDFFF788
:107CC000D1FC002806D0FFF771FF0028F4D0A66190
:107CD0002570FEBDFFF7CFFC00280FD0FC49E068FF
:107CE000FFF77BFE0197E1680091694608816846CD
:107CF000FDF70DFD0028DFD104203BE001F03BFA49
:107D0000002805D001F036FA0028D5D0A561DFE7BC
:107D1000FFF766FD002805D000F0FCF80028CBD066
:107D2000032027E0FFF779FD00280AD101E00220B7
:107D300020E0E8480078002808D0FFF75BFD002825
:107D400004D0FFF7AFFE0028F1D1B5E7E0780028B6
:107D5000BFD0E14800210670417008228270C170D6
:107D600001710090019768460681FDF7D0FC00285C
:107D7000A2D10720A061ABE710B5D74C1034002882
:107D800003D0FFF77EFC206010BDD3482168203867
:107D90004269914203D041610021817010BD817818
:107DA000491CC9B281700429EBD210BD10B5FEF791
:107DB000C7FC01880322490252038918C44A3F24A0
:107DC000138849046402490CA3431943FF2311801B
:107DD000E133994383781B07DB0D19431180C07889
:107DE00049094901C006C00E01431180002050809E
:107DF00010BD10B5B84C0834002803D0FFF714FDAF
:107E0000206010BDB448216820380269914203D037
:107E100001610021417010BD4178491CC9B2417017
:107E20000429EBD210BD70B5FEF78AFC0546AB4CB9
:107E300000202060606068790F2106F079F9A97947
:107E4000890040184105002003C470BDEBE710B560
:107E5000FEF776FCA24AC3785188DB06490949013E
:107E6000DB0E1943FF235180E133994383781B07CD
:107E7000DB0D194351800088032340025B03C018C7
:107E80004004400C3F235B0299430843508000208C
:107E9000507010BD70B5904C0025203C2570012815
:107EA00014D0FFF7EAFDA069022804D0032804D00B
:107EB000052809D105E0E58006E00020FFF799FFDD
:107EC00002E00020FFF758FFA56170BDA36906F02E
:107ED000D3FA081C05080D1114181B1C01F079F8C1
:107EE00013E0FFF7B4FFFFF79EFF0EE00120FFF75E
:107EF00080FF0AE0FFF75AFF07E00120FFF73CFF91
:107F000003E00120E07000E0E5700120A561FFF7CB
:107F100073FE70BD3EB5704C08342068C17802799C
:107F200009025118491D89B24C2908D80278052A3E
:107F300005D14278002A02D18278022A03D0FFF7C5
:107F400073FC206008E0674A009001926846018156
:107F5000FDF7DDFB002801D000203EBD01203EBD25
:107F600024E75D492039C870704710B5FEF7E8FB7B
:107F70005B4AC3785188DB0649094901DB0E194386
:107F8000FF235180E133994383781B07DB0D1943AD
:107F900051800088032340025B03C0184004400C5A
:107FA0003F235B029943084350800020507010BD6E
:107FB00070B5002802D0082801D9092070BD464CB0
:107FC0004349203CE068FFF708FDC01CC117890F3A
:107FD000081880032546020C30356868E16802F015
:107FE000D6FD002801D0012070BDFFF76FFB68604F
:107FF00037490020488070BD374918310A6802604F
:1080000049684160704770B5054680683C2106F0BC
:1080100099F82F4C064622880F235104880ED2056A
:1080200080069B05120F9843920510431F225204AD
:1080300089029043890A0843FEF780FC3C2106F040
:1080400077F8311A2848418023496A6818310A6054
:10805000AB684B600168120709090901120F11434F
:10806000016062880B0E521C1B4992B2628020395B
:10807000CD6892005219537163880268CD689B00E5
:10808000120C5B199A7163880268CD689B00120A12
:108090005B19DA716288C968920000685118087229
:1080A0006088082802D3C0B2FFF782FF70BD10B508
:1080B000FEF751FFFFF7CEF800F0BAFF0448408802
:1080C000C0B2FFF775FF06484078FFF7A9FC10BD66
:1080D0000C2100202421002048210020182100200C
:1080E00008210020957E0100202100207CB5002081
:1080F00001252D07019068693838C4B227E001A92D
:10810000204602F06DFD01980068009068460078F6
:10811000FF2802D0052815D10CE068464078FF28DA
:1081200010D168468078FF280CD16846C078FF28B7
:108130000BD007E068464078002803D16846807875
:10814000022802D0204602F034FD641CE4B26869C3
:108150002938A042D3D87CBD7CB5002001252D074D
:10816000019068692938C4B227E001A9204602F0CD
:1081700037FD01980068009068460078FF2802D01B
:10818000052815D10CE068464078FF2810D16846D4
:108190008078FF280CD16846C078FF280BD007E014
:1081A00068464078002803D168468078032802D0CA
:1081B000204602F0FEFC641CE4B268691A38A04252
:1081C000D3D87CBD10B50D49002008710120FFF700
:1081D00013FD7CE7094810B5094A00211C3003F063
:1081E00096FB002803D0074A0749FBF7EBFF6EE731
:1081F0000249087070470148007870472821002024
:10820000C5810100847C01000705000010B501F064
:1082100070F9044601F0F0F884423FD801F0ECF820
:10822000044601F066F964214843214605F080FFC9
:10823000C0B20A2802D20322122103E0142805D278
:10824000032213211120FEF794F810BD1E2802D23C
:1082500003221421F6E7282802D203221521F1E790
:10826000322802D203221621ECE73C2802D2032254
:108270001721E7E7462802D203221821E2E7502817
:1082800002D203221921DDE75A2802D203221A2141
:10829000D8E7642802D203221B21D3E703221C2142
:1082A000D0E710B5034606F0E7F813380B0F38385F
:1082B000151E4E585C606F2426662A3941443800EA
:1082C00000221F21012053E0012220210220FEF77D
:1082D00050F819E006220F210520FEF74AF8002881
:1082E0001BD0062137E002222121062019E00221BD
:1082F00031E0062149E006221F210D203EE0002941
:1083000004D003220E2103E0012124E003220C21EA
:108310000F20FEF72EF80028F6D110BD03221E21F3
:108320001020FEF726F80028E1D110BDFFF76EFF00
:1083300010BD00F057FD002801D0002000E0012012
:1083400000F02DF810BD032222210720FEF711F8BE
:108350000028F7D00321022018E002222321082060
:10836000DFE703222221072002E001222321082047
:10837000FDF7FFFF10BD032224210E20FDF7F9FFBA
:108380000028F7D0032100E00121012000F01BF9B3
:1083900010BD10B500F03FF9FDF7BAFE10BD10B5E5
:1083A000002806D0064B01221D211120FDF7D0FF29
:1083B00010BD01220E211120FDF7DBFF10BD0000D2
:1083C000CD0C000010B50068002802D0012828D18B
:1083D0002AE0FCF7CFFD0446142105F0A9FE494927
:1083E000401C0A78C0B282421BD00870142C02D202
:1083F0000022052112E0282C02D2002206210DE0E5
:108400003C2C02D20022072108E0502C02D200228C
:10841000082103E0642C05D2002209210420FDF785
:10842000A8FF10BD642CFCD100226421F6E735487A
:108430000078810040183C21081AC0B270473149C9
:10844000002801D0002008704868022802D02D487A
:10845000001DB7E770472C4801690903C90F0BD00D
:1084600000210069C002C00F08D00020002909D0F7
:10847000002805D0002070470121F2E70120F5E730
:10848000012070470220704710B513280CD11D4AF7
:1084900000231370FFF7DFFF5060022805D0194852
:1084A0005360001DFFF78EFF10BDFDF76AFF042823
:1084B000FAD1FDF72DFE10BD00B5142803D1FFF74A
:1084C000CAFF1049486000BD032110480904C1607B
:1084D0000161704710B5FFF7BEFF0A4902284860E6
:1084E00002D0081DFFF76EFF032008490004C86092
:1084F00010BD00B5FFF7AFFF022801D0012000BD7D
:10850000002000BD682100200005005040070050F9
:1085100030B5084D07E00C78030A6040491C00069E
:10852000C00D285A58401346521E92B2002BF2D169
:1085300030BD000084E501000246002001218907CA
:1085400000E089089142FCD807E04318934202D822
:10855000D21A4B001818400889080029F5D1704735
:1085600070B53F4C002261882388994205D3626030
:108570002280628000F06FF870BD0068002501283D
:1085800003D0022807D062600EE088073549000F4B
:108590000D58103105E0C8073249400F10390D5809
:1085A0000831085800280BD000F055F82C4A29460D
:1085B000121DA06803F0F2F96088401C608070BD55
:1085C00000F044F8F2E7F8B5254C06460F460025C2
:1085D000A06803F020FA00F03EF80020608066609A
:1085E000012E0ED0022E10D0606000F02FF86088AF
:1085F0001B4A401C6080121D2946A06803F0CEF97A
:10860000F8BDB8002080174803E0780020801548A6
:1086100010380568E9E710B5114CA06803F0FBF9C4
:1086200000F019F8002060602080608010BD0C48C8
:1086300010B50D4A0021083003F069F910BD0B494F
:108640000320886170470648406870470120084948
:10865000800588607047012005498005C860704723
:108660007021002094E7010061850100400700505F
:108670000005005010B500F04CFB10BDFF48C1785C
:10868000002901D10121C170704710B5FB490020BC
:10869000C870FB4A014602F002FF002803D0F9A28D
:1086A0005821FBF78FFD10BDEFE708B5012000074B
:1086B000406969460F38C0B202F092FA0099012071
:1086C00020310978002900D0002008BD08B501201C
:1086D0000007406969460F38C0B202F081FA00997C
:1086E00001202031097CFF2900D0002008BD38B5C9
:1086F00004466846FEF7EAFAEA4801880912217042
:108700000188617041880912A1704188E1708188F7
:10871000091221718088607138BD38B501250024A7
:108720006846FEF7D3FA6846007801E0641CE4B2BC
:108730008442FBD9284638BDF8B50120DA4C8002C6
:10874000E0604000E0604000E060C010E060401089
:10875000E0604020E0608020E0604504E560860441
:10876000E660C702E7608002E0608010E060000120
:10877000E0604000E0607D200001FEF7F5FAA813FC
:10878000A0604000A0604000A060C010A060401049
:10879000A0604020A0608020A060A560A660A760C7
:1087A0008002A0608010A0600001A0604000A06076
:1087B000F8BDF8B50120BC4C8002A0604000A0606C
:1087C0004000A060C010A0604010A0604020A060E9
:1087D0008020A0604504A5608604A660C702A7604B
:1087E0008002A0608010A0600001A0604000A06036
:1087F0008012E0605020FEF7B7FAA813A060400096
:10880000E0605020FEF7B0FA6813A0604000E0601E
:108810005020FEF7A9FA2813A060C010E060502095
:10882000FEF7A2FAE813A0604010E0605020FEF7C7
:108830009BFA2814A0604020E0605020FEF794FAD4
:108840004020A0608020E0605020FEF78DFA80205C
:10885000A060E5605020FEF787FAA560E660502032
:10886000FEF782FAA660E7605020FEF77DFAA76067
:10887000E811E0605020FEF777FAE811A060801060
:10888000E0605020FEF770FA6812A0600001E0601E
:108890005020FEF769FA6811A0604000E0605020A7
:1088A000FEF762FA2811A060F8BD70B501257E4C74
:1088B000AD05A5607D20C000FEF756FAE56070BDED
:1088C00038B5FFF739FFFFF7F0FFFFF7EEFE00289E
:1088D0001FD1FFF722FF002808D00124724DE404C5
:1088E000EC60FF209130FEF73FFAAC6000200124DD
:1088F00024070090606969460F38C0B202F070F931
:1089000000980068401C04D060690F38C0B202F0C3
:1089100050F938BD70B50125634CAD05A560FF2049
:10892000F530FEF721FAE56070BD10B5534C2178A3
:10893000002903D0FCF7EBFE0020207010BD0128B9
:1089400001D14E490870704770B5584C049D217094
:1089500000216170A270190AE1702371002103E007
:108960006A5C66187271491C9942F9DB50490460CF
:108970005B1D4160038170BDF8B5007801243F4D57
:108980002607072813D00A281FD0AA2826D0BB28DC
:108990000CD1706969460F38C0B202F021F9009815
:1089A00030300021009002F0EDF8AC70F8BD706935
:1089B00008270F38C0B2694602F012F93D493A461D
:1089C000009802F0E4F86C70F8BD706969460F38E1
:1089D000C0B202F005F900982030E2E770696946FC
:1089E0000F38C0B202F0FCF80098303000900068F8
:1089F000401C04D070690F38C0B202F0DAF8AC70D5
:108A0000FBF7FAFCF8BD08B5AA20694608701B49B7
:108A100000208870284A0121684602F040FD0028A5
:108A200004D0FF2117A28C31FBF7CCFB08BD08B5A1
:108A3000BB20694608701149002088701E4A012138
:108A4000684602F02CFD002804D0FF210DA29531CC
:108A5000FBF7B8FB08BD08B50A206946087007494E
:108A600000208870144A0121684602F018FD002891
:108A700026D0FF2103A29F3120E000007C210020AE
:108A8000758601002E2E5C536F757263655C737280
:108A9000635C62645F666163746F72795F7465734F
:108AA000742E63001C2D002000050050C02B0020F8
:108AB0003F8901005C2E002079890100FBF782FBD1
:108AC00008BD00B5804885B00078002816D0012088
:108AD0000007406901A90F38C0B202F081F8019B7C
:108AE0000C222033019300930123062102A8FFF7F3
:108AF0002BFF02A8FFF719FF05B000BD0021734A44
:108B0000084602F0CCFC0028F6D0FF21704AAE31B6
:108B1000FBF758FBF0E738B505460C4607206946D9
:108B200008706949002048706A4A0121684602F0CD
:108B3000B6FC002804D0FF21654AB831FBF742FBA0
:108B40000020654A04E02918CB78411C13540846DC
:108B5000A042F8DB38BD00B55B4885B0017800293C
:108B600016D04078002813D001200007406904A9DE
:108B70000F38C0B202F034F8049B0093202309227E
:108B8000062101A8FFF7E0FE01A8FFF7CEFEB3E73C
:108B90000021524A084602F082FC0028ACD0FF2196
:108BA0004B4AC931FBF70EFBA6E71FB5464A1278C0
:108BB000002A0AD00B4600900222062101A8FFF7E6
:108BC000C3FE01A8FFF7B1FE1FBD454A02F067FCD6
:108BD0000028F9D0FF213E4AD631FBF7F3FA1FBD3A
:108BE00000B5394887B0007800280DD004A8FFF7F9
:108BF0007EFD04AB009306230E22194601A8FFF761
:108C0000A3FE01A8FFF791FE07B000BD70B5037881
:108C100004460D46102B03D02B48C078002820D0E6
:108C200005F02AFC121F0A1F1F1F20232D411F269B
:108C3000361F131F1F4C4F1F294AE01C02F02FFC48
:108C400000280ED0224A274909E00021264A08467A
:108C500002F025FC002804D022491D4A091DFBF71B
:108C6000B1FA70BDFFF768FD70BDFFF753FE70BD30
:108C7000FFF71BFD0028FAD1FFF7EDFE70BDFFF7EF
:108C800014FD0028FAD129B22046FFF744FF70BD39
:108C900000210E4A084602F002FC0028F7D01149D4
:108CA0000B4A1731DBE700210C4A084602F0F7FBBC
:108CB0000028ECD00B49064A1B31D0E7FFF7DEFC59
:108CC00070BDFFF7A0FE70BD7C210020C38A0100AB
:108CD000848A0100798901005C2E0020578B0100F5
:108CE000AB8B0100FF010000E18B010001200B496B
:108CF000C00748600A494020086030BF08498031F9
:108D00000860704710B5FDF7C1FF064901200860F3
:108D100010BD10B5FDF7BAFF31DF10BD0063004094
:108D200000E100E000050040F748038B0146838323
:108D300014310246438BC3832032086810607047A9
:108D4000F14820307047F0481C30704710B5EE49AC
:108D5000052388684968408800248000001D80B28F
:108D60000B70C2054C70D20D8B70130ACB700A7158
:108D700010BDE54810B52030006801072ED0E2494B
:108D800014310860E048828B0283C28B428383687F
:108D90005A88521C92B25A800B68446892001B0E8B
:108DA0001219537183680A685B8844689B00120C2F
:108DB0001B199A7183680A685B8844689B00120AD1
:108DC0001B19DA718268406852880968920010188D
:108DD0000172FFF7BBFF0020FEF70EFF10BDCA496E
:108DE00008707047C8480078704710B5C64C0F230C
:108DF000E060A0689B0501884A04900EC9058006C2
:108E0000090F9843890508431F21490488439102AB
:108E1000890A0843FDF792FD3C2105F089F9217884
:108E2000012251402170A26853885B1C5380E36883
:108E30001B1A20461430438003681B091B010B4397
:108E40000360190E528863689200D2185171A268AB
:108E50000168528863689200090CD2189171A26867
:108E60000168528863689200090AD218D171A1681A
:108E70006268498800688900891808720020FEF736
:108E8000BBFE10BD10B5A04880684088142806D8E5
:108E9000FDF776FE3C2105F04BF9FFF7A6FF10BD6C
:108EA0007CB5994C207800280DD0FDF769FE3C2157
:108EB00005F03EF9E168401A2D210901884223DBC3
:108EC000FFF7E0FF7CBDFDF73BFC8079162801D25F
:108ED0000428F7D86846FFF78FF800980128F1D1E9
:108EE000FDF74EFE0199401AE121C9008842E9DDF3
:108EF000A06840881428E5D83C21019805F022F9A3
:108F00000A38FFF772FF7CBD6846FFF775F80098D6
:108F10000025032815D12069002802D100F0E9FAC4
:108F2000206100F0E6FA21691431884207D8FDF784
:108F300027FE0199401A4B21C9008842E3DDFFF763
:108F4000A1FF25617CBD10B5FDF7FAFB0188032266
:108F50004902520389184A046B493F248968640214
:108F60000B88520CA3431A43FF230A80E1339A4330
:108F700083781B07DB0D1A430A80C078520952011F
:108F8000C006C00E02430A8010BD5F480021806801
:108F900001804180D7E738B5FFF7F7FF5A49002035
:108FA0001431086014390870C8600861012424076E
:108FB0000090606969461938C0B201F011FE00984E
:108FC0000068401C04D060691938C0B201F0DDFEB1
:108FD00038BD70B54C48816846784A88921B4A80F3
:108FE000012118E072184568920054198B006479C9
:108FF0005D196C714468491C1D191419A479AC7170
:109000004468C9B21D191419E479EC7144681B193C
:109010001219127A1A72826852888A42E2D28068E1
:109020004088002803D1FFF77FFEFFF78CFF70BD5B
:109030007CB5354DA8684088002825D084000521DE
:109040006846241D017000234370E2058170D20D33
:1090500082806868017043708170110AC17002716A
:109060000422401DA96804F0CBFF0834A005020EBD
:1090700001200007406969681938C0B201F0B8FDE5
:10908000002801D000207CBD01207CBDF8B5012561
:109090002D0768691C4C1938C0B26A46616801F036
:1090A000F1FD61680422491DA06804F0A9FF204673
:1090B00018304088002821D0A26863685088214673
:1090C0008000C01840791431000208605688B6004C
:1090D000F618B6793043000208605688B600F618D4
:1090E000F67930430002086052889200D218127A52
:1090F00010430860000700D001202070686919380B
:10910000C0B201F056FDF8BD8021002030B51C4CE6
:1091100085B0A06805224088002381006846091DAB
:1091200002734373CD058273ED0D05826068491D9E
:109130000270437082702A0AC2700571A268138897
:109140001B0A43711388837153881B0AC3715288A9
:1091500002720C4A0090019268460181FCF7D7FA2E
:10916000002802D0002005B030BDA06840886070A3
:109170000120F8E7CAE7024880684088704700008D
:1091800080210020957E01000C48002101600D48DF
:109190000B4A4260C160012181607047074901208C
:1091A0000860704708480068C00702D008490748AF
:1091B00008607047014900200860704700000140C6
:1091C000FFFF590000050140000401403546526E82
:1091D00000060140002805D0CD4905C84A61086154
:1091E000002070470020C0437047C94810307047C6
:1091F000C74800787047082802D90020C04370474C
:10920000C349087000207047082801D30020704728
:10921000C049C000401870470022D243082808D235
:10922000002906D0BB4AC000801806C906C000202D
:1092300070471046704710B5B54C94B02078009038
:109240004022B44901A8FAF7A1FF61692069119091
:10925000012012910007406913221038C0B26946FC
:1092600001F0C6FC14B010BD10B596B013206946CD
:1092700001240870240760696A461038C0B201A949
:1092800001F026FD002814D1A14901980978C0B247
:10929000884206D1C20002A99E4804F067FE002859
:1092A0001AD09B48082212A9103004F05FFE002853
:1092B00012D000201490606914A91038C0B201F0D7
:1092C0008FFC1521149801F004FD002806D0606978
:1092D0001038C0B201F059FD16B010BDFFF7ABFF5A
:1092E000FAE730B595B013206946087001200007F1
:1092F00040696A461038C0B201A901F0E9FC844C0B
:10930000002809D0002525704021824804F0D7FEAE
:109310002561656115B030BD01982070402202A919
:109320007C48FAF733FF1399129861612061F1E7E5
:1093300077480C307047002804D075490068C86031
:10934000002070470020C04370473EB501206946A9
:109350000870040760696A461138C0B201A901F0BB
:10936000B7FC002809D168460078012805D1684873
:1093700001990C300068884210D0606902A9113848
:10938000C0B201F02DFC0321029801F0A2FC0028DC
:1093900005D060691138C0B201F0F7FC3EBD00F0A5
:1093A000ABF83EBD08B5012069460870000740696A
:1093B00057491138C0B26A460C3101F089FC0028C7
:1093C00003D168460078012815D051497F220C311D
:1093D00008681206192390431B064F4AC018104014
:1093E0004122520180184D4A104055221204801823
:1093F000D2031043086008BD45484068704744499F
:109400004A68904202D048600120487000207047AE
:1094100038B53F4C607800280ED001252D076869CB
:1094200069461638C0B201F0DBFB68691638C0B275
:1094300001F0ABFC0020607038BD08B50120694622
:1094400008700007406932491638C0B26A46091DE3
:1094500001F03EFC2E49002806D16846007801281C
:1094600002D14868002801D12D48486008BD10B5D8
:10947000012109074A69163A824208D148692449FC
:109480001638C0B20122091D01F0B2FB10BD4A69B5
:10949000113A824202D100F02FF810BD496910390B
:1094A0008142FAD1FFF7C7FE10BD194800210246DC
:1094B00001700C3211601A49416070471449891CCF
:1094C000088070471248801C008870471049891C2A
:1094D000087070470E48801C007870470C49891C42
:1094E000487070470A48801C407870470849886077
:1094F000704707488068704710B501200007406931
:1095000003491138C0B201220C3101F071FB10BDCA
:10951000A8210020D82E00201F80FFFFFF7F00FF22
:1095200010270000028810051305000D002B05DA36
:1095300001231B03181AC043401C00B2920B05D034
:10954000012A05D0022A00D1888070470880704720
:109550004880704710B5CD4A0B2313700C465070ED
:109560000321CB4BCB48FDF740FCC94989782170DA
:1095700010BD10B5C84C03222270C84B00221A70CF
:10958000C24A0A23137050709170C14B2178C148B0
:10959000FDF72BFC10BD08B5002168460170694637
:1095A0000020FFF7D7FF6846007808BD08B5002106
:1095B0006846017069460120FFF7CCFF68460078D5
:1095C00008BD08B500216846017069460220FFF712
:1095D000C1FF6846007808BD08B5002168460170E3
:1095E00069460320FFF7B6FF6846007808BD08B556
:1095F00069460B20FFF7AEFF6846007808BD38B516
:109600000446002568460570258069461420FFF74A
:10961000A1FF6846007820806846057069461520DD
:10962000FFF798FF684600782188000201432180F7
:1096300038BDF8B505460C46164669460E20FFF7BC
:1096400089FF6B461878288069460F20FFF782FF54
:109650006B4619782888090208432880694610203B
:10966000FFF778FF6B461878208069461120FFF7D6
:1096700071FF6B46197820880902084320806946EB
:109680001220FFF767FF6B46187830806946132079
:10969000FFF760FF6B461978308809020843308075
:1096A000F8BDF8B506460C46154669460820FFF792
:1096B00051FF68460078307069460920FFF74AFF7D
:1096C00068460078207069460A20FFF743FF684625
:1096D00000782870F8BDF8B505466C4A0D2010706A
:1096E00007216B4B6B48FDF780FB694C0646A07861
:1096F000627801021143684601802946FFF712FF94
:109700002079E27801021143684601802946FFF77B
:1097100009FFA07962790102114368460180294658
:10972000FFF700FF3046F8BD0020704738B504460B
:109730001546002268460270C9B22020FFF719FFC3
:1097400000212120FFF715FF29462020FFF711FFF8
:1097500069462720FFF7FEFE68460178FD2001409C
:109760006000401C0843C1B22720FFF702FF38BD4C
:1097700038B504461546002268460270C9B2232057
:10978000FFF7F7FE00212420FFF7F3FEE9B22520C2
:10979000FFF7EFFE00212620FFF7EBFE69462720AA
:1097A000FFF7D8FE68460178F7200140E000001D71
:1097B0000843C1B22720FFF7DCFE38BD10B50C46C8
:1097C0008007800F91000843C1B22820FFF7D1FE27
:1097D00021462920FFF7CDFE10BD38B504460021F3
:1097E0006846017069462C20FFF7B4FE6846007891
:1097F000A1078006800E090E01432C20FFF7B9FE59
:1098000038BD38B5044600216846017069462C20F1
:10981000FFF7A0FE684600786107C008C000490F46
:1098200001432C20FFF7A5FE38BD52211F20A0E6E2
:1098300038B5044600216846017069462D20FFF7BF
:1098400089FE684600786100800880000143C9B243
:109850002D20FFF78EFE38BD84212A2089E610B521
:10986000FFF7E3FF012200211046FFF75FFF002210
:1098700060210220FFF7A2FF0120FFF7AEFF0320C7
:10988000FFF7BFFF0120FFF7D3FF10BDCC20002062
:10989000D420002000300040DD200020DC2000200B
:1098A0000A4802680F210A430260094880470948B4
:1098B0000047FEE7FEE7FEE7FEE7FEE7FEE7000003
:1098C00005480649044A064B70470000240500403D
:1098D000ED980100C140010028360020283C0020FE
:1098E00028360020234922480860704710B500F050
:1098F0001DF8002805D021491F484860C813204999
:1099000088612048016AC9B201290ED1416A09075C
:109910000BD1816A0906090F042906D1C06A000625
:10992000000F02D118490120886010BD1548016A56
:10993000C9B2012917D1416A090714D1816A090600
:109940000A0F03D1C26A1206120F0ED0090F0129A5
:1099500003D1C26A1206120F07D0032903D1C06ACD
:109960000006000F01D00020704701207047000062
:109970000024F400C0210020DFFF07C000050040E4
:10998000006C0040C00F00F00006004038B50446EF
:109990000D460121684681702949018022466946A9
:1099A0000120A0DF002803D12946204600F00BF853
:1099B00038BD03B581B001216A461180408802ABF1
:1099C0000021A4DF0EBDF0B58FB006460D461C2168
:1099D000684604F074FB684601780220014368463B
:1099E000017000240194039404940594012708A8AD
:1099F0000694877013496846018407946978017753
:109A0000A9784177807FF9210840801CE721084030
:109A10004108490068468177142109A804F04FFBEA
:109A200008A8099007A80A9068468785C485078614
:109A30000D953088B31C09AA6946A2DF0FB0F0BDAE
:109A400004180000072A00000A7802704978417063
:109A50000220704770B504460D46084604F0AEFA81
:109A60002080656070BD000038B50B88102B1AD0BF
:109A70000022112B1AD0502B17D1C37C002B14D0ED
:109A8000891D0B880489A3420FD10B8B022B0CD1AB
:109A9000CB7E8C7E1B022343DC07E40F0123002CCA
:109AA00009D0037508E08988018238BD0021C943C7
:109AB0000182027538BD02750468002CFAD0CC7E94
:109AC0008D7E21022943C907C90F01D0009200E011
:109AD000009302686946904738BDF0B50546C07CE2
