:020000040001F9
:10400000A03D0020C5980100D7980100D998010073
:1040100000000000000000000000000000000000A0
:10402000000000000000000000000000DB9801001C
:104030000000000000000000DD980100DF98010092
:10404000E1980100E1980100E1980100E198010088
:10405000E19801000000000039B20100F94D0100B3
:10406000E1980100E1980100E1980100D3490100C5
:10407000E1980100E1980100E1980100E198010058
:10408000E198010035B80100E1980100E1980100D4
:104090004BB8010079AF010025B00100E1980100A3
:1040A000E1980100E198010000000000000000001C
:1040B0000000000000000000000000000000000000
:1040C00000F002F800F032F80CA030C808382418CC
:1040D0002D18A246671EAB4654465D46AC4201D140
:1040E00000F024F87E460F3E0FCCB6460126334240
:1040F00000D0FB1AA246AB463343184784AC0000FD
:10410000A4AC00000023002400250026103A01D3AF
:1041100078C1FBD8520700D330C100D50B6070477F
:104120001FB5C046C0461FBD10B510BD0AF09EFBAE
:104130001146FFF7F5FF00F06FFC0AF0B6FB03B481
:10414000FFF7F2FF03BC0AF0BBFB0000401E00BFFC
:1041500000BF00BF00BF00BF00BF00BF00BF00BF67
:1041600000BF00BF00BFF1D170470000401E00BF7C
:1041700000BF00BF00BF00BF00BF00BF00BF00BF47
:1041800000BF00BF00BFF1D17047000070B5054609
:104190000C46164602E00FCC0FC5103E102EFAD288
:1041A000082E02D303CC03C5083E042E07D301CC4E
:1041B00001C5361F03E021782970641C6D1C761E32
:1041C000F9D270BD0123FC4CDB04E36006F066FC11
:1041D000FB49FA48C860BFF3408FFEE70A46014634
:1041E000F848FFF7EFFFF1B596B0FC2010A9087270
:1041F000F5480224C4603C2168460AF0CEF901204B
:10420000694600944871088116A8039012A804908A
:1042100000208883089088828884054604460646E4
:104220000B9013A861DF002828D0E848816A456A0E
:104230008CB2032615AFF200284621460AF060F83A
:104240000321891B761E76B27854002EF3DA0420FF
:1042500010A9119708802004000E21020843694626
:1042600088870FA80C900021684606F004F8002803
:1042700012D0FF21D6A2FA31FFF7A4FF13AFB8196D
:1042800040780021F2000AF02BF8761C05430C431D
:1042900076B2062EF3DBCCE717B0F0BDF0B589B0EF
:1042A000142168460AF079F90020694608700190E7
:1042B0000872C54C0390E0680326502702250028A9
:1042C00006D0012805D002282DD0032822D133E0C2
:1042D000E56005A808F0D4F8002802D0BCA2DE21D1
:1042E0001FE06846007E002803D108A80078002857
:1042F00008D06846057205A803900420FFF773FFF5
:10430000E56000E0E66068460782142141820120F2
:1043100006F052FE684663DF002819D0FF21ACA2E8
:104320000931FFF74FFF0520FFF75DFF6846078261
:1043300028214182E660EAE70520FFF754FF1921B2
:10434000890168460182B42141820220E660DFE7EC
:1043500009B0F0BDA44A0320D0611061D060906024
:10436000A149403908624862C8624863C86348612D
:10437000506350608862886201218F48C90581605E
:10438000C910816049108160491081608912816083
:1043900049008160890081608900816089008160B5
:1043A000202181600906816009138160C911816043
:1043B0008160704708B58D4B00938D4B0B22102107
:1043C000002007F065FA002804D0FF2180A23831D0
:1043D000FFF7F8FE08BD10B504F074F910BD10B574
:1043E000794C606907F029FB4B2100228904606940
:1043F00007F0E6FA10BD10B5734C606907F01DFBBD
:10440000012100220904606907F0DAFA10BD10B535
:1044100004F074F9002801D0FFF7E1FF10BD10B5DA
:1044200001F024FF002803D0FF2169A27F3136E08C
:10443000704A0121704807F07CFA002803D0FF2160
:1044400063A284312BE06D4A00216D4807F071FAB8
:10445000002803D0FF215EA2893120E05A48694A32
:104460000021103007F065FA002803D0FF2158A280
:104470008F3114E05448644A0021143007F059FA8F
:10448000002803D0FF2152A2943108E003F0B0FECF
:1044900004F0DBF8002804D0FF214DA29931FFF78A
:1044A00091FE10BD10B504785848214605F0D9FB9F
:1044B00000280AD0082808D05549884205D0554917
:1044C000884202D042A2544910E03F48002C02D05A
:1044D0000021816010BD8168491C81600329F9DDDC
:1044E0001521408866DF4C4939A20C31FFF76AFE7E
:1044F00010B59AB0402168460AF04FF847A16846C7
:1045000005F0BAFA48A108A805F0B6FA48A102A831
:1045100005F0B2FA48A106A805F0AEFA002018A9E5
:10452000087001200007406919A90F38C0B206F0D1
:1045300069FB04F0D2F8010004A81DD0199A0021EB
:1045400010AB545C5C54491CC9B22029F9D31946FC
:1045500005F092FA01200146103108A801770020E9
:10456000014608A84177684605F056FC002805D0AA
:1045700017A23349FFF726FE32A1E9E71AB010BDB2
:104580002F4913A23131FFF71DFEF8B503884526E8
:10459000304D314AF64300210B4C192B7ED05FDCA5
:1045A0002E4F102B70D0112B79D0132B78D122469F
:1045B000183260886FDF60E0000500500400FA05E3
:1045C00000ED00E0EFBEADDE002000208000001016
:1045D0002E2E5C536F757263655C7372635C6D61E4
:1045E000696E2E630000000040070050494B010037
:1045F00010250020FD700100DC200020A9700100C2
:10460000E8200020BD550100D74301008C2B00207D
:1046100003300000013400003F040000536D61725C
:104620007420436172650000322E302E300000008D
:10463000534D412D30340000312E302E3200000019
:104640004D0200003031323334353637383961624B
:1046500063646500FF0F00000C2100206020002033
:104660001A2B74D0392B01D0552B23D11170002077
:1046700003F085FC1321608866DF00281AD0D5215D
:10468000FE4A8900FFF79EFDFD4A1378012B12D0E8
:104690000221E1608088608074DF02E061E011E067
:1046A00008E0608873DFA5804B2101224904386847
:1046B00007F086F9F8BD1170F349F248C860BFF3FE
:1046C000408FFEE70D461170002003F058FC0020DB
:1046D000C043608001F0C7FD012801D101F08AFCD0
:1046E000386807F0AAF9E9480178002902D0057076
:1046F00001F0D6FD00F0B2FD002801D000F050FF1F
:1047000001F045FB002819D004F0F6FE002815D072
:1047100004F0FAFE002811D0002004F0E9FE002089
:1047200001F038FB0420205EB04207DA04F0ECFE12
:1047300002280DD000210D2003F0C1FD20780028B3
:1047400008D0257007F072FE07F0C5FF12E014E0F4
:104750000121F0E707F0B3FD0028F5D0C74ACC49A6
:1047600090E7117080790028A4D1E068042801D175
:104770000320E060FFF792FDF8BD0627C75704F05D
:10478000C3FEC44800680128F6D10420205EA84278
:1047900001D1A78009E0032109F042FF4500032170
:1047A000384609F03DFF2818A08004F0A5FE002837
:1047B000E2D10420205EB042DEDD012004F098FE4C
:1047C000F8BD10B504460088102802D0112802D088
:1047D00004E0032000E0002006F0EEFB2146AE4896
:1047E00000F021FC204607F0FBFC204605F0B3FE5C
:1047F000A9482146183805F049F92046FFF7C5FEBB
:1048000010BD08B5A54BA4490093A54B50229C3977
:104810000D2006F0DFFB002804D06F21974AC90065
:10482000FFF7D0FC08BD10B5042804D0E321934A5B
:104830008900FFF7C7FC00F017FD002805D0994854
:10484000012101701321408866DF10BD704770B5EB
:10485000954802680121D2071BD001608404656974
:10486000383D03E0E8B206F0B6F96D1C606918380F
:10487000A842F7D86569183D07E060690F38A8427B
:1048800002D0E8B206F0A7F96D1C60690E38A842A4
:10489000F3D80124854DA402EC60FF20913002F092
:1048A000D3F9AC6070BD0020814A022183009B18BF
:1048B0001960401C2028F9D3704710B5FFF74AFD56
:1048C00003F0CBFE00F0C0F9FFF774FD794A142124
:1048D000082006F0E3FD002803D0684A8C21FFF78A
:1048E00071FC00F009FB00F01DFB02F0F1F810BDB7
:1048F00000B587B004F05AFCFFF791FD664902202D
:104900004C3906F000FD002803D061495B4ACB31E9
:104910004BE001F05DFF002201200007436969467A
:10492000133B0B704069143848706348019063482A
:1049300002908A70684607F0D4FD002803D05449DD
:104940004E4AB63131E0FFF75CFF00F006F9052072
:10495000FFF749FC00F038F91C21684609F01DFEFC
:1049600005210904019149100020029100900322C1
:1049700069460A73C88101220A740590504806905E
:10498000684605F08EFD002803D041493B4A8E3928
:104990000BE000F047F94B4A0521012006F0F6FA3A
:1049A000002804D03A49354AC331FFF70BFC0020F8
:1049B00006F002FB00F00AFE01F09FFC002806D082
:1049C000002001F06AFC02F0DDF807B000BD012014
:1049D000F7E73D49002008603C49012048603C4918
:1049E000000488603B4940110860704710B500F032
:1049F0002BF90120374AC102803A1160374A364903
:104A00009160364A082140321160314A01045160F8
:104A10002E49086030BF10BDFFF745FFFFF7E6FFE6
:104A200023492F481C310860204C8020A060FFF7EC
:104A300044FF0126F604E660FF27F537384602F00A
:104A400003F93501E560384602F0FEF8A560384606
:104A500002F0FAF8E560384602F0F6F8A660A560C4
:104A600003F041FFFFF7F3FEFFF742FF05F06EFE94
:104A7000002843D104F01CFB34E00000D0450100C5
:104A8000682100200400FA0500ED00E08C200020E1
:104A90002303000044200020A42B00203B4B0100F6
:104AA000C347010000200020000400400005005022
:104AB00000070050C02300204D4801002748010096
:104AC00081450100A3AE010040B1004000B00040AC
:104AD00000B3004080E100E0FF0F000000B500409F
:104AE0000102000001F0D6FB002807D004F00BFC07
:104AF00004F06AFC04F0B3FC02F09FFA02F019FD26
:104B000002F06AFD03F000FB03F034FB02F0A0FCAE
:104B100002F080F9FFF7C2FB06F038FBFFF777FCE5
:104B200004F04EFB06F042FD04F04EFB3DDF002892
:104B3000F8D06E4A6E49FFF745FB10B500216D4A6B
:104B4000084606F0BEFC10BD1CB5019100906A4AF3
:104B50000821684606F0B5FC1CBD0EB5694611205B
:104B6000087262490622603102A86CDF002803D077
:104B7000FF215E4AAC3124E00920800168DF002873
:104B800003D0FF21594AAF311BE00021FF200091E3
:104B900041306A4601911080FF2091305080918011
:104BA000D08068466ADF002803D0FF214F4AB93120
:104BB00007E00320C04367DF002804D0FF214B4AF1
:104BC000BC31FFF7FFFA0EBD08B500200090FC21B4
:104BD000684601700120014620316846417000207E
:104BE0000146684681706946444804F0E1FE0028A9
:104BF00002D03E4A424910E000F047F8424841499D
:104C000041604249016001463C48243000F093FA7B
:104C1000002804D09721354A8900FFF7D3FAFFF71F
:104C200067FC08BD38491E200839088088780122B1
:104C30001043E12210400C30DF2210408870072022
:104C4000C8701020087170473149012088613149CE
:104C500000224A60830798604A60704710B50029B7
:104C600004D02DA275210020FFF7ACFA06F0C6F99A
:104C700010BD0246082905D0FF2132A216310020BE
:104C8000FFF7A0FA11685068084700B585B01421F5
:104C9000684609F082FC002168460091017102918A
:104CA00064210173012001461031684641730120DF
:104CB0000146103168468173002001466846C17381
:104CC000012001461031684601740C4869460C30D9
:104CD00004F0A8FF002804D08921044A8900FFF7C6
:104CE00071FA234800F010F905B000BDD04501006D
:104CF0002A0400005D4C0100734C0100802B002051
:104D00000B020000475C0100202000209B5D010099
:104D100000050040000100402E2E5C6E72663531A9
:104D20003832325C496E636C7564655C626C655CDC
:104D3000626C655F737461636B5F68616E646C6500
:104D4000722E68002E2E5C6E726635313832325CFF
:104D5000496E636C7564655C6170705F636F6D6DE7
:104D60006F6E5C6170705F74696D65722E680000B3
:104D7000A54401009549884201D3642070479349B6
:104D80003239884201D95F2070479049643988429E
:104D900001D95A2070478D499639884201D950204F
:104DA0007047AF210901884201D9462070478749E1
:104DB000FA39884201D93C2070478549884201D997
:104DC0003220704782493239884201D92820704701
:104DD0007F496439884201D91E2070477C49963941
:104DE000884201D9142070477949C839884201D9CD
:104DF0000A2070470120704770B57648016800248A
:104E0000754D00291DD00460A868744A01215160C5
:104E1000E12109014843724909F0F8FB714A80B267
:104E20005080FFF7A7FF10705268002A09D00121B7
:104E30006C4806F046FB002803D06BA2E021FFF788
:104E4000C1F92C6070BD644901200860614A0021ED
:104E5000116062490860704770B50546FFF7F3FFBF
:104E60000A2001F0F1FE5B4C02E00A2001F0ECFEAA
:104E700020680028F9D00020206057488068574AF1
:104E800001215160E12109014843554909F0BEFB68
:104E9000288070BD5B49012048605B4801680902B9
:104EA000090A0207114301605849802008607047D1
:104EB000F1B55448002747605449012580208031CE
:104EC0000860444C2760454E7560FFF7BCFF0A2020
:104ED00001F0BAFE20680028F9D027603E488068BB
:104EE0007560E121090148433D4909F08FFB0099B4
:104EF0000880FFF7CFFFF8BD37494548486035497E
:104F00000020086070479EE710B5364A5060508810
:104F1000FFF730FF10705268002A02D0012131489B
:104F2000904710BD10B52F484088002803D12D4868
:104F3000801CFFF791FF284900200860FFF7AAFFB7
:104F40002848344A0121083006F0F3FC002804D038
:104F5000FF2125A27531FFF735F910BD2E48807C61
:104F60007047014610B51F480022806806F028FDF2
:104F7000002804D0FF211CA28831FFF723F910BDBF
:104F800010B51848806806F058FD002804D0FF21AD
:104F900015A29131FFF716F910BD70B5012000245C
:104FA000C003FFF7DEFF0F4D1C4E6888B04201D3EF
:104FB000012406E030BF06F0F9FA03F0A8FA002851
:104FC000F3D1FFF7DDFF204670BD0000B80B0000F5
:104FD0008C0A000000710040007500400070004025
:104FE000FF030000282000202E2E5C536F75726393
:104FF000655C7372635C62645F626174746572792C
:105000002E6300000073004004E400E000E100E0D3
:1050100002800000074F01008C2B00209808000040
:105020008C4B07C3704710B50B88012B2ED0102B6B
:1050300016D00022112B1AD0502B10D1891D0B88AD
:10504000048AA34202D10C8B022C17D0828893428F
:1050500005D18369002B02D00A8B1A31984710BD05
:1050600089888182C0690028F9D0804710BD00215D
:10507000C9438182827500F090FE10BD498B0129E1
:1050800001D0827510BD0121817510BD7148026883
:10509000002AFAD081684068904710BD70B500249E
:1050A0000546601C90B00007000F08A91030089456
:1050B0000870601C0007000F103048708878F926CF
:1050C0003040801C88701C2101A809F066FA6946EE
:1050D00008791021084369460871029408A80494CD
:1050E000059407940690287808A9887103206946DA
:1050F000888411200094087048708878E721304037
:10510000801C0840012630436946887014210AA893
:1051100009F043FA09A80A9068460B9069460E8682
:1051200014204C8688862B4668880C330AAA01A96D
:10513000A2DF10B070BD30B5474B04460D460FCB13
:1051400085B003936B4607C30020C043A082686804
:10515000A0612868E0610020A0752146684652DF02
:10516000002815D121786846817401210182A21C92
:1051700004A90120A0DF00280AD129462046FFF714
:105180008DFF002804D12946204600F01FF8002892
:1051900005B030BD1FB5837D002B05D01388142BBF
:1051A00004D9072004B010BD0820FBE700230093BA
:1051B00001930293039384896B461C8003910292AE
:1051C00001219970808A6946A6DFEBE770B58EB041
:1051D00005461C21684609F0E0F968460178082078
:1051E00001436846017000240194039404940594DB
:1051F0000694297808A88170022168460184601C01
:105200000107090F10316846079401770120014614
:10521000103168464177817FF9200140891CE720E1
:1052200001400126314368468177142109A809F01D
:10523000B4F908A8099007A80A9068468685142141
:10524000C485018668882B1D09AA6946A2DF0EB0B5
:1052500070BD0000C42B002070E90100FF480078F9
:105260007047FE4908707047FD49FE4A09880120D1
:10527000914200D100207047F7B582B002980C46E9
:105280001546002804D1FF20F7A1D030FEF7A6FF75
:10529000042C04D0FF20F4A1D130FEF79FFFEF4C87
:1052A0002646A0683036002804D0022804D0012801
:1052B0000CD00DE0A5600BE0012D09D1B0880128CC
:1052C00006D102980068A06101200FE0022D0CD0E9
:1052D000002069460880A06802280AD0002806D06D
:1052E00002980568002D49D150E00220E06005B029
:1052F000F0BDDA481430C1780129F8D102888078ED
:1053000001282DD00023D549AB20383108706846DC
:1053100000791025000900012843DF2528400125D8
:105320006B405B01184383069B0E684603714B700C
:1053300000274F8050BA8F80C880082268460280BC
:105340006A46D348FFF726FF00280BD0D149884290
:1053500015D1C249D04814310222FFF761FEC6E7D9
:105360000123D0E7BD48A7601430C770E06801286A
:10537000BDD1A569002DBAD0E760A0607AE0002019
:10538000B649A0601431E060C870B0E78720B6A1CC
:105390008000FEF723FF6DE0B049082040316A46E7
:1053A0001080012715E068890028A0D0286800280F
:1053B00003D1ADA1B948FEF711FF68891421142863
:1053C00000D801466A46118029892A680227081AEE
:1053D00081186A46AE48FFF7DDFE00280ED0AD49C1
:1053E00088424BD1AC4829460122FFF719FE012122
:1053F0002A468904606A06F0E3FA78E7002F39D07C
:10540000012F04D0022F0AD0032F33D12AE0B08815
:1054100001282FD10020B080206460642AE0694612
:1054200068890988401A0004000C688122D100278D
:105430003A4639463846FFF7F3FDA7600121E5619A
:105440002A468904606A06F0BBFAE068022811D196
:1054500082481430C07801280CD10220A0600020BE
:10546000E06038E77D481430C178012902D100217D
:10547000A160C170B088012895D18DE700273A4618
:1054800039463846FFF7CCFDA7606968002902D08D
:10549000AF7300208847E0680228AED1E760A060C3
:1054A00019E738B504000D4604D1FF206EA1B730CE
:1054B000FEF794FE012D08D0022D05D102220094A2
:1054C00004216846FFF7D8FE38BD009460890028A3
:1054D00003D06248406A06F0B0FA0122F0E770B5E6
:1054E000040024D05D4DAB2040352870002068704A
:1054F0002289100AA870EA700020216803F016F8CB
:10550000010A2971554968714888020AAA71E8712F
:1055100022896281A081401C4880284601211038E0
:10552000818004602046FFF7BCFF002070BD07208B
:1055300070BD70B50446807B00281BD060890028B0
:1055400009D1E07B032806D2401CE0732046FFF718
:10555000C6FF00280ED000252A4629462846FFF718
:105560005FFD3E488560C560A5736168002901D074
:105570000020884770BD00210160704710B50028E9
:1055800009D0012806D1364836490088884201D022
:10559000132166DF10BD00F02DFD00F0F7FE10BDF9
:1055A00001F0F8FC01F0C9FA05F076FA012039DFC4
:1055B0003C493B48C860BFF3408FFEE727490120C4
:1055C000087027481321008866DF704710B53648F9
:1055D00000218173C1732148344A243006F0A9F9AF
:1055E000002804D0FF2120A22331FEF7EBFD1B4849
:1055F0002F4A0021283006F09CF9002804D0FF2112
:1056000019A22631FEF7DEFD14482A4A00212C306B
:1056100006F08FF9002804D0FF2113A22931FEF7EC
:10562000D1FD002010BD70B50C4D0E46E969002972
:1056300060D0898981425DD1686A06F0FEF9002454
:10564000002E39D0E869C17B032941D32246214687
:105650002046FFF7E5FCAC60EC6044E0342000201D
:1056600002200020FFFF00002E2E5C536F75726336
:10567000655C7372635C62645F636F6D6D756E69A8
:10568000636174655F70726F746F636F6C2E63001B
:10569000A42B002003300000A354010031020000BD
:1056A0000400FA0500ED00E0982C002033550100BD
:1056B000775501007D550100224621462046FFF71F
:1056C000AFFCE86984734168002913D0012010E021
:1056D000491CC173FFF703FF00280BD02246214667
:1056E0002046FFF79DFCE86984734168002901D0DA
:1056F0000020884770BDF8B5040006D0FA4F002698
:10570000B87B002803D00420F8BD0720F8BD012095
:10571000B873F64DAB2028706E702289100AA870FD
:10572000EA700020216802F001FF010A29712A466F
:105730006871403A5188080AA871E97163687B6012
:1057400023683B6023893B8123897B81FE73B98178
:10575000491C51802946012210398A800F60384641
:105760001146FFF79EFE0020F8BD7047F8B50025F2
:10577000062812D004DC002809D0012804D106E054
:10578000092816D00A2828D007252846F8BD002A5F
:10579000FBD1002002F03EFAF7E7012AF5D10978A3
:1057A000D348012902D000210170EEE701210170E8
:1057B000EFE70C2AE9D18878CA78000210434A78CA
:1057C0001204024308780406144303F0A4FEA04226
:1057D000DBD0204603F09CFED7E70A2AD5D1087813
:1057E00000908878CA7800061204024308794C7940
:1057F0000002104304438879CA7900020243087A00
:105800004F7A03024E781F43104601F0C9FAB94996
:105810003846484301F0C7FA0A20604301F0C6FA4F
:10582000009801F0C6FA304601F0CEFAADE7F0B5C7
:105830000346002585B00C461046052B7BD006DCC0
:10584000012B0DD0022B30D0032B06D178E0102B8A
:1058500072D0202B71D0212B70D00725284646E529
:10586000042A6CD100F0DEFEA178E67809020E432E
:105870006178C07809040E43217809060E43B1020D
:10588000C90E884205D0002003F042FE002001F03E
:10589000BEFD304601F01CF800F0FCFC0028DDD015
:1058A00001F075FB00287DD0D8E7052108F0AEFE99
:1058B00000295FD1C0B20090082801D908200090CB
:1058C00003F0ABFC002630E0B0003218A05C0021F1
:1058D000121994460291039052780B06170A3B4323
:1058E00012061143184362460291039092780023F6
:1058F000170C1B043B4312041143184362460291E8
:105900000390D2780023170E1B0212023B4311436F
:105910001843624602910390127930461143029176
:1059200002A903F08BFC761CF6B200988642CBD31A
:1059300003F0ACFC92E708E01AE03BE04CE019E031
:10594000002A17D101F043F888E7042A12D1A17880
:10595000E078627809020143207812040A430006C5
:10596000104300D1634803F05CFD03F063FD75E76D
:10597000042A01D0092571E700200090E07800900A
:10598000A178090208430090617809040843009057
:105990002178090608430090684603F0DEFC03F016
:1059A000E6FC00E003E001F06DF80028C2D001F051
:1059B00044FB53E7012ABDD108780407240F022CC9
:1059C000B8D8204603F09CFD002C03D0012003F042
:1059D0008FFD43E70020FAE7082AABD100200090B2
:1059E0000190E079002101910090A2791302DA1769
:1059F000184311430191009062791204D3171043A8
:105A000019430191009022791206D31710431943CC
:105A100001910090E278684611430191A278120248
:105A20001143019162781204114301912278120608
:105A30001143019103F0E0FB7AE710B5012000F07B
:105A40002CFC002003F04CFD002003F061FD01F070
:105A5000A1FA03F03CFD01F00DFB10BD3EB5224A5A
:105A60000123C83A13700023537002249470D3703A
:105A70001471507191710720694601930092088159
:105A80006846FFF738FE3EBD3EB50124012818D018
:105A9000112815D114480021C83804704170122211
:105AA0008270C1700422027144718471C4710472E5
:105AB000019100900920694608816846FFF71BFEA6
:105AC0003EBD02F0A6FB0546012002F09FFBFFF75A
:105AD00045FA282810D201210846FFF7BFFF2846C3
:105AE00002F094FB3EBD0000982C002074200020A2
:105AF0000C2100201027000000210846FFF7AEFF10
:105B0000FC4805210470FC480022C903006805F028
:105B100057FFE7E7F7B50D4600280AD0002D08D05B
:105B2000F44902780B69411C002B04D0012B74D17D
:105B300029E00720FEBD032A04D0062A0FD0012A3F
:105B40002ED06AE0CA788C781102214349BACA057E
:105B50008378411DD20D184600F08AF95DE00526D4
:105B6000841C0DE06078A1780002401887B23946A5
:105B7000204603F05CF8E419E41CF019C01C86B25E
:105B8000A81BEFD549E0042A1BD004DC012A07D06A
:105B9000022A42D108E0052A20D0FF2A3DD12AE07E
:105BA0008078FFF771FF38E0CA788C7811022143C2
:105BB00049BACA058378411DD20D1846FFF737FE52
:105BC0002BE0CA788C781102214349BACA05837840
:105BD000411DD20D184600F016F91EE0CA788C78E7
:105BE0001102214349BACA058378411DD20D1846D6
:105BF000FFF7BCFD11E0012D0FD1C078012804D0C2
:105C0000022805D0032808D10CE00122114601E04A
:105C100001220221032000F01EFB029800210160F6
:105C20000846FEBD01220321F4E7B24A10B5143242
:105C3000917010800120D07002211046FFF731FCD6
:105C4000002010BD7047FEB5AA4C0F461646A06A4C
:105C500005F06BFF002802D1A06A05F0EEFEA74810
:105C6000226A0146083100250091002A12D0012A3B
:105C700044D0022A0DD178786A46C106107108D541
:105C80008006C10FF879BA790002104340BAFFF7D5
:105C9000CAFCFEBD3978AB29FBD1054632463946F0
:105CA00008F01CFCA680698848BA0830801B00B246
:105CB000E08000281FDC68786B46C206187103D5A7
:105CC0008006C10FE888E1E7022000262062A68056
:105CD000A88849BA8AB240BA009900F020F9002891
:105CE00002D02662E88833E0E888012140BAFFF755
:105CF0009CFF68883CE00120206240E07F49A0884A
:105D0000019008183246394608F0E8FB01988019DE
:105D1000A080E088801B00B2E08000282FDC774E56
:105D20006A4670781071C10604D58006C10F2562DD
:105D3000F088ABE702202062A5807188B0884ABA5B
:105D400040BA009900F0EBF800280BD02562F088EB
:105D5000002140BAFFF769FF0021694A084605F0B3
:105D6000B0FBFEBDF088012140BAFFF75EFF7088EE
:105D7000604A41BA20320098FFF7CCFEFEBD5D4A72
:105D8000012120328904A06A05F01AFEFEBD59489F
:105D90004078704757494870704770B500242046D6
:105DA00022462146FFF73CF9524D2869012800D1CF
:105DB00068702C61AC615148AC601038EC60847341
:105DC000C473E869002805D084734168002901D0B4
:105DD000002088472C624748AC80EC801430048057
:105DE0004480686A05F0A1FE002802D1686A05F0C7
:105DF00024FEA86A05F099FE002802D1A86A05F0E1
:105E00001CFE002070BD10B5002420281FD008DC27
:105E1000012811D0022812D0032810D0042808D15C
:105E200012E0212816D0302817D0312818D0412868
:105E300019D00724204610BD0021052015E002F0EE
:105E4000F8FB00F0D7F8F5E7002106200DE000216F
:105E500007200AE00021082007E00021092004E0D3
:105E600000210A2001E000210B2002F028FAE1E7DE
:105E7000F7B5204C05460027E06A0E46012D06D0F6
:105E8000032D01D105F0D9FD032D31D11DE005F021
:105E9000D4FD0298202815D1002E13D0FFF75EF80C
:105EA00014280FD320223146164808F017FB0F2183
:105EB00000224904E06A05F083FD0021012002F080
:105EC000FEF915E000F062FA12E00298202807D1EE
:105ED000002E05D02021304600F08FFA070013D0A5
:105EE00000F0DBFA4B2101224904E06A05F068FD6D
:105EF0003846FEBD3420002010200020A82C0020B1
:105F0000455C01000C2D002003F047F9002801D169
:105F100002F041FF00F0ACFA01202061E8E710B583
:105F20000446002002F002FBA04201D1002010BD77
:105F30000B2010BD0EB522490968012911D1214954
:105F400007220A7000224A7001238B70CA700B71FD
:105F50004871009106200192694608816846FFF762
:105F6000CAFB0EBD10B504290BD10068012809D069
:105F7000022806D100F077F901280BD00220FFF7A4
:105F8000D9FF10BD0120FFF7D5FF0021112002F03D
:105F900096F910BD00F010FA10BD10B5042907D114
:105FA0000068012805D0022802D11220FFF7C2FFA5
:105FB00010BD1120FFF7BEFF02F0F9F910BD00007F
:105FC00044200020D02B002070B50021AB4BAC4CFE
:105FD00001220546CD40ED07ED0F5D5C164602D06F
:105FE000AE40E66001E0AE40A660491CC9B20E2991
:105FF000EFD370BD10B5A34CE06805F01EFDFF2087
:10600000A0600020A080112020700020FFF7DCFF9E
:1060100010BD70B59B4DAB68132B7AD00CDC08F02B
:1060200099FC133F34383B3F4245484B4E55585B33
:106030005E61646E7275A3001D2B26D008DC143BD4
:1060400008F088FC096A6D7073767B7E818492000B
:10605000222B7ED008DC1E2B0DD01F2B0ED0202B28
:1060600010D0212B68D143E0232B0ED0242B42D01B
:10607000642B79D126E0814C7E3C01E07F4C7A3C58
:10608000022169E07D4C0E3401E07C4C26340C2169
:1060900062E07A4C3E34FAE7784C563405215BE0F6
:1060A000764C763CECE7754C723CE9E7734C6E3C01
:1060B000E6E7724C6A3CE3E7704C663CE0E76F4C05
:1060C000623CDDE76D4C803C012145E06B4C323C8D
:1060D000D6E76A4C2E3CD3E7684C2A3CD0E7674CA5
:1060E000263CCDE7654C223CCAE7644C1E3CC7E722
:1060F000624C1A3CC4E7614C163CC1E709E05F4CB6
:10610000083C042128E05D4C123CB9E75B4C5E3C46
:10611000B6E75A4C5A3CB3E7584C563CB0E7574C9C
:10612000523CADE7554C4E3CAAE7544C4A3CA7E7DD
:10613000524C463CA4E70CE016E0504C423C9FE732
:106140004E4C3E3C9CE74D4C3A3C99E74B4C363C20
:1061500096E74A4C0E3C0321002C05D0A8886A889B
:10616000904204D3002A02D0FFF744FF70BD08F02C
:106170004DFA4800205AFFF727FFA888401CA88046
:1061800070BDF8B507463F4C0020A080A7600D46C3
:106190001646E06805F0C9FC002802D1E06805F069
:1061A0004CFC29460C2268045143000C89B2132F81
:1061B00028D00DDC3B4608F0CDFB132527272925E9
:1061C00025252525252525252525253825252C008A
:1061D0001D2F19D003DC143F082F1AD812E0222FEC
:1061E00025D008DC1E2F0DD01F2F0BD0202F0BD059
:1061F000212F0ED106E0232F06D0242F02D0642FAA
:1062000007D105E0608004E0618002E0A8000FE0B3
:106210006580A068FF2807D00020FFF7FAFE002263
:106220003146E06805F0CCFBF8BDA800EAE768005D
:106230002818E7E770B50C46154612491A460B7840
:10624000984206D8087029462046FFF79AFF012099
:1062500070BD002070BD082803D00A2801D00A4B69
:10626000E8E70A4BFCE7074800787047054810B597
:10627000074A01210C3005F05CFB10BD00EA01006B
:10628000000500507C200020333300009A190000E4
:10629000136001008B48407870478A494870704706
:1062A0001CB500221146104604F038FC6946012452
:1062B00008802407606901A91238C0B204F0A2FC6A
:1062C000002819D160691238C0B204F084FC01982A
:1062D00008227D49001D04F06CFC00280CD16A46A0
:1062E0002021794804F01AFC694608807749411852
:1062F000019804F059FC00281CBD1CB50022114671
:10630000104604F00BFC6946088001200007406934
:1063100001A91238C0B204F075FC002815D101990A
:106320006B4B0868020C9A4210D184B22022091DDE
:106330006548FDF72BFF6A462021634804F0EEFB19
:1063400069460880A04203D100201CBD401C01D03A
:106350000B201CBD05201CBD0EB55E48032101703D
:106360000021417002228270C170012202714171CC
:10637000019100900620694608816846FFF7BBF945
:106380000EBD55481321008866DF70470EB5514891
:10639000032101700021417002228270C17001212D
:1063A000017141714D4901910090062069460881B3
:1063B0006846FFF7A0F90EBD10B54948006805F022
:1063C0003CFB40480124047001F0A3F8FFF712FEE3
:1063D000FFF7C2FF0021022001F071FF4148046075
:1063E000FFF72BFB02F08AF9002805D03E48006831
:1063F00005F023FB02F02EFB10BDFEB506000D4696
:1064000001D0202D01D00720FEBD002211461046EC
:1064100004F084FB6946088001200007406901A957
:106420001238C0B204F0EEFB0400EDD10198284A06
:106430000368190C91420AD19FB26A462021001DBF
:1064400004F06CFB69460880B84202D105E05B1C91
:1064500001D00B20FEBD0520FEBD01992A46091D75
:10646000304607F0F1FF002800D00B242046FEBD87
:106470000EB518480321017000214170042282707A
:10648000C17001220271417101910090062069469C
:1064900008816846FFF72FF90EBD0EB50D480321A0
:1064A00001700021417004228270C17001220271CA
:1064B0004271019100900620694608816846FFF705
:1064C0001AF90EBD8C2000200C2D00200000DE45A6
:1064D000DE450000D02B0020022000208363010055
:1064E00060200020442000201420002002461F20AD
:1064F000012907D0062901D9491EC9B2C90700D010
:106500001E2070471C32D0B27047F8B504460846CA
:10651000FF4908F07BF80D4606463C21284608F066
:1065200075F82171E1210901284608F06FF8054648
:1065300008463C2108F06AF86071A5717D200001D1
:10654000B5B220800FE0002F26D06421304608F03D
:106550005DF8002901D0B0071ED0FF206E30281A48
:10656000761C85B226802088FF210646913108F0EE
:106570004DF80F0013D06421304608F047F8002989
:1065800001D0B0070BD0FF206E30A842DBD900202D
:10659000FF27A07091371DE0FF206F30DFE7FF205D
:1065A0006F30F2E720883946064608F02FF80029B8
:1065B00027D06421304608F029F8002901D0B0071F
:1065C0001FD00020A178FFF791FF281A85B2A0788C
:1065D000401CA07020883946064608F017F80029AC
:1065E00011D06421304608F011F8002901D0B0071D
:1065F00009D00020A178FFF779FFA842D2D9E57031
:10660000F8BD0120DEE70120F4E710B5C04907F02E
:10661000FDFF072107F0FAFF481D072107F0F6FFED
:10662000084610BD10B5BB48C1681030FFF76DFFBC
:10663000B84810308178491C8170C178491CC170FC
:1066400010BD70B5FFF7EEFF0446002549E028466F
:1066500002F0ECFD0068A179C001C00E88423ED175
:10666000284602F0E3FD00680003810E6079814254
:1066700035D1A848C068FFF7C8FF0646284602F093
:10668000D5FD00680121B1400840400623D12846CD
:1066900002F0CCFD0068E1788000C00E88421ED177
:1066A000284602F0C3FD0168406889088007084356
:1066B000A178000F884212D1284602F0B7FD016888
:1066C0004068090A000608437D21800E0901401830
:1066D0002188884203D100210C2001F0F0FD6D1CBF
:1066E000EDB202F097FDA842B1D870BDF8B502F046
:1066F0008EFD0646FFF796FF054630687168020E6C
:1067000008021043000E012829D1824CE068FFF7EF
:106710007CFF0246A8790027002804D16979002966
:1067200001D127606760012393403168DAB21142DA
:1067300015D00A02120E824211D80A04120E8242A9
:106740000DD33C2250436A79090E801807F05EFF92
:10675000002905D002F0DFFE6168401A2060F8BD14
:1067600003CE020C080410432168000C884203D9B0
:1067700000210E2001F0A3FD276002F0CCFE606036
:10678000F8BD10B5634CE068401CE06002F01CFDF1
:106790003C21E06807F03AFF0C0001D01E2C16D116
:1067A000FFF761FD112805D101F05BFF002801D141
:1067B000FEF749FB002C0AD100F0E9FB002806D0C7
:1067C000FFF73FFFFFF792FF002000F0DAFD10BD5A
:1067D00010B550487D2109011030018000218170E1
:1067E000C1708171417101714A4C4B4AE1600121D4
:1067F000083805F09EF8002804D0FF2147A2153183
:10680000FDF7E0FC01210022C903A06805F0D8F8DB
:10681000002804D0FF2141A21731FDF7D3FC10BDA1
:10682000F8B5044681060005800E3C225043890ECF
:106830004118E003E122C00E1201504345187D20AB
:10684000A70E00013818FF2100269131009007F0B3
:10685000DDFE002913D06421009807F0D7FE00293F
:1068600001D0B8070BD00023A0022949C00E48432D
:10687000494240194518A001040F641E09E0012394
:10688000F2E7F1B21846FFF731FE214948434519B6
:10689000761CB442F5D8002414E07D200001FF21CD
:1068A00020189131064607F0B1FE00290ED0642170
:1068B000304607F0ABFE002901D0A00706D02048E3
:1068C0002D18641CA742E8D82846F8BD1D48F7E7F4
:1068D000F8B5044681060005800E3C225043890E1F
:1068E0004118E003E122C00E1201504345187D20FB
:1068F000A70E00013818FF2100269131009007F003
:1069000085FE002930D06421009807F07FFE1BE04F
:106910008051010090200020836701002E2E5C53DF
:106920006F757263655C7372635C62645F77616CE0
:106930006C5F636C6F636B5F74696D65722E63006F
:106940008033E1010085E201002901D0B8070BD0B6
:106950000023A0025849C00E484349424019451837
:10696000A001040F641E09E00123F2E7F1B218460A
:10697000FFF7BCFD504948434519761CB442F5D891
:10698000002414E07D200001FF21201891310646EB
:1069900007F03CFE002918D06421304607F036FE8F
:1069A000002901D0A00710D044482D18641CA7422C
:1069B000E8D8434CE560A06805F03FF801210022CB
:1069C000C903A06804F0FCFFF8BD3E48EDE7FEB542
:1069D0003D4D0220287000266E700420A870EE70D5
:1069E00002F018FC81004018287100242CE0204699
:1069F00002F01CFCA100611840684F197871204614
:106A000002F014FC014600684968000E09020843C0
:106A1000B871204602F00AFC014600684968000C83
:106A200009040843F871204602F000FC01460068A2
:106A30004968000A090608433872204602F0F6FB4E
:106A40000068641C7872E4B202F0E4FBA042CED885
:106A50000196009528796946401D08816846FEF731
:106A60004AFEFEBD1648C068704710B5144CE06081
:106A7000A06804F0E2FF01210022C903A06804F02D
:106A80009FFF10BD10B5FFF7CDFD00887D210901E6
:106A9000884201D1002010BD012010BD10B508486A
:106AA000806804F0CAFF002804D0FF21074AB231F1
:106AB000FDF788FB10BD7047805101008033E10174
:106AC000902000200085E201D02B00201C690100ED
:106AD00070B5524901260420504C10310860091F3E
:106AE0000860091F0860091F086020604B4D783559
:106AF00028607D20C00000F0A7F849482060286089
:106B000048488660C82000F09FF8002211461046D1
:106B100000F0A8F800280FD0002000F009F902F0DA
:106B200062FDF22803D040A1EE20FDF757FB02F0F2
:106B3000A8FE002000F014F970BD10B5002000F090
:106B4000F7F802F084FE002000F00AF910BD10B53D
:106B5000002000F0EDF8002000F002F910BD10B5A3
:106B6000002000F0E5F8002000F0FAF810BD10B5A4
:106B7000002000F0DDF8002002F06CFE002000F0A4
:106B8000EFF810BD10B5002000F0D2F8012002F09F
:106B900061FE002000F0E4F810BD10B5002000F008
:106BA000C7F80124002000F0DBF8204610BD10B526
:106BB0000446002000F0BCF8204600F004F8002055
:106BC00000F0CEF810BDF1B5002482B0254602F0E9
:106BD00020FD40071FD51B4E2025684602F08DFD85
:106BE000684601880E2041436846018042880E2095
:106BF00042436846428083880E2043436846838030
:106C000020460627784331528019641C4280E4B242
:106C10008380AC42E1D302980570FEBD00070050AE
:106C200001020000000500502E2E5C536F75726348
:106C3000655C7372635C62645F68616C5F6163630F
:106C40002E6300002C2D002070B50446044D03E097
:106C5000641E2846FDF77AFA002CF9D170BD0000B9
:106C6000E703000070B505460524484824020123C7
:106C7000002D01D046480AE004260519AE6003261F
:106C8000EE6002262E61434DAE60434D2B60012520
:106C9000AD0704196562002906D0012910D0022928
:106CA00010D0032910D000211524A401002A00D0FF
:106CB0001943021951610022FF2109310A5070BDA8
:106CC0000221F1E70421EFE70621EDE7F0B50646E2
:106CD0008C460025964601202E4902222F46CA6086
:106CE000F41D0915F93471181AE07246D25DCA61B3
:106CF0000326360300E06D1CA268002A01D1B542CC
:106D0000F9D3B54205D1012181402248816000209C
:106D1000F0BD0022A2608A693E467F1CBFB29A5530
:106D20006745E2D3012181401A4881600120F0BD0E
:106D30000121184B8A079A60144A002801D0144A8E
:106D400009E016480160001F0160144B0020083B59
:106D50001860181F016005200002101801607047BC
:106D60000A4A002801D00A4A06E00C4902201039DC
:106D70000861C86088604860052100200902511838
:106D80000860012003498007C86070470030004058
:106D90000040004000050050BC20002010070050BB
:106DA000FF49C8807047FE4948617047FC498861C7
:106DB000704710B5FA4BFB4C4033596880072140AF
:106DC000C00A0143596010BD10B5F54B782440331B
:106DD0005968E44300072140400E0143596010BD4B
:106DE000EF48C0887047EE4840697047EC488069BA
:106DF000704710B5EA4C207800280AD0E06904F00A
:106E00001CFE002803D0E8A29F21FDF7DBF900203B
:106E1000207010BD10B5E24C207800280CD1002263
:106E2000E949E06904F0CCFD002803D0DEA2AE21E0
:106E3000FDF7C8F90120207010BD10B5D8480189B0
:106E400043890A46994200D81946C1818489A142E2
:106E500000D82146C181914201D1002010BD994244
:106E600001D1012010BD022010BDF8B50646006812
:106E7000022803D0CCA1C720FDF7B0F97268002A20
:106E80005BDDC74CE18820462030002902D14378E1
:106E90005B1C437043780125002B00D145705018CE
:106EA000E08002F038FB7168401802F031FBB068F6
:106EB000002802DD6169401860613069002802DD48
:106EC000A1694018A061F068002804D0012806D00C
:106ED00002280BD107E02089401C208106E0608950
:106EE000401C608102E0A089401CA081FFF7A5FF43
:106EF000AB4BAC4E4033596880073140C00A014368
:106F0000B24800260140E0880005400B014359606B
:106F100002F001FB074602F081FA874202D3A07813
:106F200000280BD002F0F7FA054602F077FA854206
:106F300000D2A670002000F06DFEF8BDA570002103
:106F4000102001F0BCF9F5E710B5044600680128EF
:106F500004D0FF2094A10330FDF740F99049606808
:106F6000C870204601F05DF8002000F053FE10BD0F
:106F700010B504460068022802D12046FFF775FFCD
:106F80002068012802D12046FFF7DEFF10BD8448AB
:106F90004078704710B582490020487005F0A9FF7D
:106FA00010BD10B5FFF75EFD00217D227C4CD200A4
:106FB0000B4607F0B6F96163206310BDF8B50068B1
:106FC00041048E0D4100C40F00024F0EC50D002F6D
:106FD00000DC1927002E00DC4126002D00DCAA254C
:106FE000012C02D0002C00D001246D4840780028EC
:106FF00001D0FFF7CFFF3B463246294619200094C7
:1070000005F045FF002804D0FF2067A1A530FDF75B
:10701000E5F8634801214170FFF7C3FF00216C4888
:1070200005F076FF002804D0FF205FA1AB30FDF70C
:10703000D5F8FFF7A7FD0020F8BD594810B520305E
:107040004078002803D100F09EFF00F0FAFE54487B
:1070500024304088002801D100F090FF5D4800688E
:107060004088002801D101F0A2FF02F073F9FFF778
:10707000A5FF10BD10B500F086FF00F07FFF01F006
:1070800096FF00F0DEFE46480021C180816141612B
:10709000818141810181084602F03AFA00F018FA34
:1070A00000F0F6F9012010BD38B53D4C20790328D9
:1070B00017D0042804D301220E210320FFF7CBF8B8
:1070C0002079022502280FD0032815D0042805D3E3
:1070D000414A00950421684604F0F3F9002020712C
:1070E00038BD01220D21E8E7FFF7BDF8012803D0E4
:1070F00001200090394AEDE70095FBE7F0B587B035
:10710000002502A8FFF753FD9AE0284606214843D0
:10711000334E07460390305E052107F081FA04B232
:10712000BF1902200597385E052107F079FA06B2EB
:107130000420385E052107F073FA404207B220466A
:10714000314660437143411838467843081801F0CE
:1071500001FA13490346886BC96B019100903A46C6
:107160003146204605F007FD002803D00EA11D483A
:10717000FDF734F80A4C0A23A16BE06BC918002212
:107180005041A163E063A80755D16078002852D030
:1071900013480399405EC01003900221059823E034
:1071A000C0200020FFFFE7FF2E2E5C536F75726337
:1071B000655C7372635C62645F737465705F636F58
:1071C000756E7465722E6300D72300007F00F8FF90
:1071D000716F0100742100209B5F0100655F010059
:1071E0002C2D0020A2020000415EC9100491042150
:1071F000415E0398CF1004994043494341183846F3
:107200007843081801F0A6F90346206B2722616B2A
:1072100082180026714122636163009201913A460F
:107220000499039805F07DFE002804D02B20904996
:107230000001FCF7D3FF6D1C2069EDB2401C2061FA
:107240006846007A854200D25FE707B0F0BDF1B52D
:10725000884E82B0F088354640350090002873D0C3
:107260000A21B06907F0DCF9020C002109040004CE
:107270001143070C4C0768682968C0083F04640F75
:1072800089B2C0000F4304437B49706907F0C8F915
:10729000390C80B209040843784900270C40029950
:1072A0008907C90A0C4376490C4000990905490B26
:1072B0000C436C60210E2C462860203C6078C20094
:1072C00070480368D2185170627869680368D20008
:1072D000090CD2189170627869680368D200090AB3
:1072E000D218D17062780368D2006968D21811711F
:1072F0006A6829681202090E114362780368D20095
:10730000D21851716A6829681204090C1143627815
:107310000368D200D21891716A6829681206090AB6
:1073200011436278D2000368D218D1716278006884
:10733000D2002968101801726078082804D100F082
:107340007DFB002800D167706A686968520D521C85
:10735000530528680022F280B2617261B2817281A5
:10736000C9023281C90A484A1943114082B2C80889
:10737000110CC00009047822D243104029606860D3
:10738000FEBDFEB5FFF74EF90546FFF756FD064672
:10739000FFF707FEA8790027364C002808D1687946
:1073A000002805D12879002802D102F0B1F8A77091
:1073B000208986420FD92F4A782340325168DB4317
:1073C00010680B40C70949063943090F491C0907D2
:1073D000490E0B435360E07801280CD12078002837
:1073E00009D1616B206B0023019100901A46194668
:1073F000184605F096FD68790F2107F007F9002976
:1074000002D13046FFF723FF01F05CFDFEBD1949B4
:107410008870704717488078704770B5154C012503
:107420002079ED03401CC2B222712046806A012AF5
:1074300009D0022A01D0032A09D304F0FEFA00225F
:107440002946A06A01E00022294604F0B9FA70BD7D
:1074500010B5642005F0BCFA00210C4805F0DFFAF5
:10746000002804D06F200249C000FCF7B7FE10BD11
:10747000A8710100C020002010270000FFFFE7FFD7
:107480007F00F8FF182100207F00E0FF1B7401003F
:1074900038B5012424076169206929394143F94835
:1074A00001606169226929395143416000200090DF
:1074B000606969462938C0B203F0A4FB00980068EF
:1074C000401C04D060692938C0B203F070FC38BD9C
:1074D00038B5012424076169206938394143E948F6
:1074E00008380160616922693839514341600020E0
:1074F0000090606969463838C0B203F083FB009899
:107500000068401C04D060693838C0B203F04FFCFA
:1075100038BD10B5FFF7DCFFFFF7BAFF01F04DFDF6
:1075200010BD10B501210907096989B207F06EF88D
:1075300010BD70B5D34C012560682D07002802D01E
:107540002068002809D168692969293848436060A2
:10755000686929692938484320606068FFF7E1FFBE
:10756000296989B248436168884217D00846FFF705
:10757000D8FF296989B248436168081A80102C2114
:1075800007F044F8002909D0686929692938484377
:10759000606068692969293848432060606801682B
:1075A000491C02D14168491C15D0FFF7BAFFC0B28F
:1075B00003F011FB6068FFF7B4FF296989B2484303
:1075C0006060FFF7AEFF05462068FFF7AAFF85421F
:1075D00001D16068206070BD70B5AA4C0125083CDF
:1075E00060682D07002802D02068002809D168694A
:1075F00029693838484360606869296938384843E0
:1076000020606068FFF78DFF296989B2484361688F
:10761000884217D00846FFF784FF296989B248439A
:107620006168081A80104C2106F0F0FF002909D08B
:107630006869296938384843606068692969383859
:107640004843206060680168491C02D14168491CB8
:1076500015D0FFF766FFC0B203F0BDFA6068FFF710
:1076600060FF296989B248436060FFF75AFF054609
:107670002068FFF756FF854201D16068206070BD29
:10768000804801684068814201D100207047012094
:1076900070477D484088002800D00120704770B5B1
:1076A000784D2868FFF73DFF044628685830FFF7FB
:1076B00038FF8442286801D12C3070BDFFF731FFBC
:1076C000401C0124240761691A39884206D22868BF
:1076D000FFF727FF2169401C89B203E02069616937
:1076E00080B22939484370BD70B5664D68688430F2
:1076F000FFF717FF06466868FFF713FF012424070A
:1077000086425AD068685830FFF70BFF0646686813
:10771000FFF707FF864250D16868FFF702FF6169F3
:10772000401C1A3988422AD26868FFF7FAFE401CCA
:10773000C0B203F03CFB6868FFF7F3FE2169401C10
:1077400089B248432968884237D86868FFF7E9FE5C
:107750002169401C89B24843216989B241182868CF
:1077600081422AD9FFF7DDFE6169401A1B3001D042
:1077700028681BE02069616980B229391BE06069D3
:107780002938C0B203F013FB206981B2606929383F
:1077900041432868814210D821696369226989B20E
:1077A000293B594392B28918814206D9FFF7B9FEA5
:1077B0002169401C89B2484328606868FFF7B1FE20
:1077C000064668685830FFF7ACFE8642686801D10B
:1077D0002C3070BDFFF7A5FE6169401C1A39884244
:1077E00006D26868FFF79DFE2169401C89B203E05C
:1077F0002069616980B22939484370BD2148083841
:1078000001684068814201D1002070470120704723
:107810001E490020497800290CD01D490A68496892
:10782000D20C49031143174A090D303AD2889142CC
:1078300000D001207047154901204978012900D85E
:107840000020704770B50F4D083D2868FFF769FEAE
:10785000044628689830FFF764FE8442286801D106
:107860004C3070BDFFF75DFE401C012424076169A8
:10787000293988420ED22868FFF753FE2169401C3F
:1078800089B20BE040210020E4200020E02000200D
:10789000002100202069616980B23839484370BDF9
:1078A00070B5FB4D6868E430FFF73BFE064668683C
:1078B000FFF737FE0124240786425AD068689830C3
:1078C000FFF72FFE06466868FFF72BFE864250D171
:1078D0006868FFF726FE6169401C293988422AD270
:1078E0006868FFF71EFE401CC0B203F060FA6868CB
:1078F000FFF717FE2169401C89B248432968884276
:1079000037D86868FFF70DFE2169401C89B24843EB
:10791000216989B24118286881422AD9FFF701FEFE
:107920006169401A2A3001D028681BE0206961692A
:1079300080B238391BE060693838C0B203F037FADA
:10794000206981B26069383841432868814210D883
:1079500021696369226989B2383B594392B2891817
:10796000814206D9FFF7DDFD2169401C89B24843F9
:1079700028606868FFF7D5FD064668689830FFF70D
:10798000D0FD8642686801D14C3070BDFFF7C9FD5B
:107990006169401C2939884206D26868FFF7C1FD39
:1079A0002169401C89B203E02069616980B23839DD
:1079B000484370BD70B500281AD0002918D04A7805
:1079C0000524D200121D04700025D3050226DB0D0C
:1079D000457086701C0AC47003714B881B0A437182
:1079E0004B8883710B78C37149780172501D70BD4B
:1079F0000020C04370BD70B500281CD000291AD0EB
:107A00004A8805249200121D92B204700025D30505
:107A10000326DB0D457086701C0AC47003710B8849
:107A20001B0A43710B8883714B881B0AC3714988F9
:107A30000172501D70BD0020C04370BD70B500289C
:107A400002D0082801D9092070BD914C9149283CE9
:107A5000A068FFF7AFFFC01CC117890F081880038B
:107A60008B4D020C6868A16803F0A3F8002801D0D0
:107A7000012070BDFFF714FF686086490020864A28
:107A80004870864B50681840C008C0000021116043
:107A90005060084670BD10B57D4C283C2079002808
:107AA0000DD105210022C903E06903F089FF0028F8
:107AB00003D07BA28249FCF785FB0120207110BD19
:107AC0003EB5754C7F4D20686168C20C4803104379
:107AD000000D60D0FFF787F97B4906F0A1FD226811
:107AE00080B2120C120402432260FFF77FF90A21D0
:107AF00006F096FD020C00210904114300044A0718
:107B0000030C61682068C908520FC9001B0480B2C9
:107B100011431843616020605E48AB684278090EEB
:107B2000D200D218517042786168AB68D200090C5B
:107B3000D218917042786168AB68D200090AD218F5
:107B4000D1704278AB68D2006168D2181171626856
:107B500021681202090E11434278AB68D200D21894
:107B60005171626821681204090C11434278AB68B4
:107B7000D200D2189171626821681206090A114375
:107B80004278AB68D200D218D1714078AA68C000A0
:107B90002168801801723F49A868FFF70BFF4B4925
:107BA0000191A9680091694608816846FDF7A3FD27
:107BB000002801D000203EBD03CCC20C4803104376
:107BC000000DE88001203EBD3EB5314C08342068F0
:107BD000C178027909025118491D89B22C2908D8A7
:107BE0000278052A05D14278002A02D18278032A38
:107BF00003D0FFF754FD206008E0344A0090019262
:107C000068460181FDF777FD002801D000203EBDC8
:107C100001203EBDFEB52E48006801285CD1294CEC
:107C20002078002856D1A069002804D024481CA13F
:107C30006238FCF7D3FAE0780526244F01250028A6
:107C40004BD1FFF71DFD00280FD1FFF722FD0028C3
:107C50000BD101F0A2FA002807D1FFF7CFFD0028D1
:107C600003D1FFF7E8FD002837D009480021083884
:107C70000670417007228270C170017100900197F7
:107C800068460681FDF737FD002823D106207FE0F6
:107C900038210020E0200020002100207F00E0FFAC
:107CA0002E2E5C536F757263655C7372635C6264E5
:107CB0005F73796E635F646174612E63000000001E
:107CC000160500001021002010270000B17E0100E1
:107CD00044200020FFF7DFFEFEBDFFF7D1FC0028A7
:107CE00006D0FFF771FF0028F4D0A6612570FEBD15
:107CF000FFF7CFFC00280FD0FC49E068FFF77BFEC0
:107D00000197E1680091694608816846FDF7F3FC38
:107D10000028DFD104203BE001F03FFA002805D025
:107D200001F03AFA0028D5D0A561DFE7FFF766FD3C
:107D3000002805D000F0FCF80028CBD0032027E075
:107D4000FFF779FD00280AD101E0022020E0E84891
:107D50000078002808D0FFF75BFD002804D0FFF76B
:107D6000AFFE0028F1D1B5E7E0780028BFD0E148A8
:107D700000210670417008228270C170017100906C
:107D8000019768460681FDF7B6FC0028A2D10720BE
:107D9000A061ABE710B5D74C1034002803D0FFF733
:107DA0007EFC206010BDD348216820384269914292
:107DB00003D041610021817010BD8178491CC9B296
:107DC00081700429EBD210BD10B5FEF72BFC0188A1
:107DD0000322490252038918C44A3F2413884904E4
:107DE0006402490CA3431943FF231180E1339943F3
:107DF00083781B07DB0D19431180C07849094901BD
:107E0000C006C00E014311800020508010BD10B587
:107E1000B84C0834002803D0FFF714FD206010BDD3
:107E2000B448216820380269914203D001610021E1
:107E3000417010BD4178491CC9B241700429EBD290
:107E400010BD70B5FEF7EEFB0546AB4C0020206080
:107E5000606068790F2106F0D9FBA9798900401884
:107E60004105002003C470BDEBE710B5FEF7DAFB57
:107E7000A24AC3785188DB0649094901DB0E194340
:107E8000FF235180E133994383781B07DB0D1943AE
:107E900051800088032340025B03C0184004400C5B
:107EA0003F235B029943084350800020507010BD6F
:107EB00070B5904C0025203C2570012814D0FFF7A8
:107EC000EAFDA069022804D0032804D0052809D1BE
:107ED00005E0E58006E00020FFF799FF02E00020C2
:107EE000FFF758FFA56170BDA36906F033FD081CBC
:107EF00005080D1114181B1C01F07DF813E0FFF7A5
:107F0000B4FFFFF79EFF0EE00120FFF780FF0AE0BD
:107F1000FFF75AFF07E00120FFF73CFF03E00120D5
:107F2000E07000E0E5700120A561FFF773FE70BD11
:107F30003EB5704C08342068C178027909025118A6
:107F4000491D89B24C2908D80278052A05D1427802
:107F5000002A02D18278022A03D0FFF773FC206046
:107F600008E0674A0090019268460181FDF7C3FB73
:107F7000002801D000203EBD01203EBD24E75D4920
:107F80002039C870704710B5FEF74CFB5B4AC378C8
:107F90005188DB0649094901DB0E1943FF23518053
:107FA000E133994383781B07DB0D19435180008827
:107FB000032340025B03C0184004400C3F235B02D4
:107FC0009943084350800020507010BD70B50028C0
:107FD00002D0082801D9092070BD464C4349203CF5
:107FE000E068FFF708FDC01CC117890F081880035F
:107FF0002546020C30356868E16802F0DAFD002899
:1080000001D0012070BDFFF76FFB68603749002089
:10801000488070BD374918310A680260496841607C
:10802000704770B5054680683C2106F0F9FA2F4C80
:10803000064622880F235104880ED20580069B0530
:10804000120F9843920510431F2252048902904355
:10805000890A0843FEF7E4FB3C2106F0D7FA311AFF
:108060002848418023496A6818310A60AB684B6030
:108070000168120709090901120F114301606288A2
:108080000B0E521C1B4992B262802039CD689200BF
:108090005219537163880268CD689B00120C5B19FA
:1080A0009A7163880268CD689B00120A5B19DA71C5
:1080B0006288C968920000685118087260880828B0
:1080C00002D3C0B2FFF782FF70BD10B5FEF7B5FE58
:1080D000FFF7BDF800F0BEFF04484088C0B2FFF7CC
:1080E00075FF06484078FFF7A9FC10BDE42000208A
:1080F0000C2100203021002000210020E020002061
:10810000B17E0100082100207CB5002001252D074B
:10811000019068693838C4B227E001A9204602F00E
:1081200071FD01980068009068460078FF2802D031
:10813000052815D10CE068464078FF2810D1684624
:108140008078FF280CD16846C078FF280BD007E064
:1081500068464078002803D168468078022802D01B
:10816000204602F038FD641CE4B268692938A04258
:10817000D3D87CBD7CB5002001252D07019068690E
:108180002938C4B227E001A9204602F03BFD01983E
:108190000068009068460078FF2802D0052815D1B5
:1081A0000CE068464078FF2810D168468078FF28A8
:1081B0000CD16846C078FF280BD007E068464078AD
:1081C000002803D168468078032802D0204602F0B8
:1081D00002FD641CE4B268691A38A042D3D87CBDA1
:1081E00010B50D49002008710120FFF713FD7CE751
:1081F000094810B5094A00211C3003F09AFB0028F9
:1082000003D0074A0749FBF7DDFF6EE70249087014
:10821000704701480078704710210020E18101007B
:10822000A07C01000705000010B501F074F90446B8
:1082300001F0F4F884423FD801F0F0F8044601F070
:108240006AF964214843214606F0E0F9C0B20A28E1
:1082500002D20322122103E0142805D203221321A3
:108260001120FDF7F8FF10BD1E2802D203221421B1
:10827000F6E7282802D203221521F1E7322802D29C
:1082800003221621ECE73C2802D203221721E7E75C
:10829000462802D203221821E2E7502802D2032204
:1082A0001921DDE75A2802D203221A21D8E76428CF
:1082B00002D203221B21D3E703221C21D0E710B5F1
:1082C000034606F047FB13380B0F3838151E4E587F
:1082D0005C606F2426662A394144380000221F2141
:1082E000012053E0012220210220FDF7B4FF19E014
:1082F00006220F210520FDF7AEFF00281BD0062126
:1083000037E002222121062019E0022131E0062176
:1083100049E006221F210D203EE0002904D003225F
:108320000E2103E0012124E003220C210F20FDF7A0
:1083300092FF0028F6D110BD03221E211020FDF768
:108340008AFF0028E1D110BDFFF76EFF10BD00F0DD
:108350005BFD002801D0002000E0012000F02DF896
:1083600010BD032222210720FDF775FF0028F7D05A
:108370000321022018E0022223210820DFE7032244
:108380002221072002E0012223210820FDF763FFBC
:1083900010BD032224210E20FDF75DFF0028F7D039
:1083A000032100E00121012000F01BF910BD10B5F0
:1083B00000F03FF9FDF71EFE10BD10B5002806D0F5
:1083C000064B01221D211120FDF734FF10BD0122B3
:1083D0000E211120FDF73FFF10BD0000CD0C000065
:1083E00010B50068002802D0012828D12AE0FCF747
:1083F000B5FD0446142106F009F94949401C0A78E4
:10840000C0B282421BD00870142C02D20022052177
:1084100012E0282C02D2002206210DE03C2C02D2D0
:108420000022072108E0502C02D20022082103E09C
:10843000642C05D2002209210420FDF70CFF10BD99
:10844000642CFCD100226421F6E7354800788100D5
:1084500040183C21081AC0B270473149002801D0A9
:10846000002008704868022802D02D48001DB7E798
:1084700070472C4801690903C90F0BD0002100691E
:10848000C002C00F08D00020002909D0002805D064
:10849000002070470121F2E70120F5E70120704735
:1084A0000220704710B513280CD11D4A0023137009
:1084B000FFF7DFFF5060022805D019485360001D08
:1084C000FFF78EFF10BDFDF7CEFE0428FAD1FDF7B1
:1084D00091FD10BD00B5142803D1FFF7CAFF104964
:1084E000486000BD032110480904C1600161704764
:1084F00010B5FFF7BEFF0A490228486002D0081DE8
:10850000FFF76EFF032008490004C86010BD00B5E6
:10851000FFF7AFFF022801D0012000BD002000BD01
:1085200050210020000500504007005030B5084D94
:1085300007E00C78030A6040491C0006C00D285A69
:1085400058401346521E92B2002BF2D130BD0000AB
:1085500060EA0100024600200121890700E0890845
:108560009142FCD807E04318934202D8D21A4B003C
:108570001818400889080029F5D1704770B53F4C9C
:10858000002261882388994205D36260228062803C
:1085900000F06FF870BD00680025012803D00228A4
:1085A00007D062600EE088073549000F0D58103182
:1085B00005E0C8073249400F10390D5808310858F6
:1085C00000280BD000F055F82C4A2946121DA0684F
:1085D00003F0F6F96088401C608070BD00F044F83C
:1085E000F2E7F8B5254C06460F460025A06803F0D3
:1085F00024FA00F03EF8002060806660012E0ED064
:10860000022E10D0606000F02FF860881B4A401CDA
:108610006080121D2946A06803F0D2F9F8BDB800A9
:108620002080174803E0780020801548103805683E
:10863000E9E710B5114CA06803F0FFF900F019F854
:10864000002060602080608010BD0C4810B50D4A8D
:108650000021083003F06DF910BD0B49032048617B
:108660007047064840687047012008494005886007
:108670007047012005494005C86070475821002017
:1086800070EC01007D85010040070050000500509E
:1086900010B500F050FB10BDF848C178002901D199
:1086A0000121C170704710B5F4490020C870F44A28
:1086B000014602F006FF002803D0F2A25821FBF782
:1086C00081FD10BD10B5FEF794FBFEF7E7F9F54903
:1086D0000120C860E949087110BD08B501200007F4
:1086E000406969460F38C0B202F08CFA0099012047
:1086F00020310978002900D0002008BD08B50120EC
:108700000007406969460F38C0B202F07BFA009951
:1087100001202031097CFF2900D0002008BD38B598
:1087200004466846FEF743FADF48018809122170C3
:108730000188617041880912A1704188E1708188C7
:10874000091221718088607138BD38B50125002477
:108750006846FEF72CFA6846007801E0641CE4B233
:108760008442FBD9284638BDF8B50120CD4CC00560
:10877000E060C010E0604010E0604010E0608012F7
:10878000E0604000E0608600E6600701E76080018D
:10879000E0602020E0600006E0600013E060C511AA
:1087A000E560E5607D200001FEF74EFA6803A060F9
:1087B000C010A0604010A0604010A0608012A060B7
:1087C0004000A060A660A7608001A0602020A0609B
:1087D0000006A0600013A060A560A560F8BDF8B514
:1087E0000120B04CC005A060C010A0604010A06087
:1087F0004010A0608012A0604000A0608600A660CB
:108800000701A7608001A0602020A0600006A06092
:108810000013A060C511A560A5608001E060502034
:10882000FEF712FA6803A060C010E0605020FEF767
:108830000BFAA802A0604010E0605020FEF704FA96
:108840006802A0604010E0605020FEF7FDF92802A9
:10885000A0608012E0605020FEF7F6F9A810A0603A
:108860004000E0605020FEF7EFF96810A060E6607D
:108870005020FEF7E9F9A660E7605020FEF7E4F922
:10888000A7606801E0605020FEF7DEF96801A06093
:108890002020E0605020FEF7D7F92020A0600006DD
:1088A000E0605020FEF7D0F9E804A0600013E0601B
:1088B0005020FEF7C9F9E801A060E5605020FEF7FE
:1088C000C3F9A560E5605020FEF7BEF9A560F8BDCC
:1088D00070B50125734C6D05A5607D20C000FEF7C5
:1088E000B3F9E56070BD38B5FFF73EFFFFF7F0FF65
:1088F000FFF7F3FE00281FD1FFF727FF002808D05D
:108900000124684DA402EC60FF209130FEF79CF931
:10891000AC600020012424070090606969460F388C
:10892000C0B202F06FF900980068401C04D0606982
:108930000F38C0B202F04FF938BD70B50125594C5F
:108940006D05A560FF20F530FEF77EF9E56070BD8E
:1089500010B54A4C2178002903D0FCF7CCFE00204A
:10896000207010BD012801D144490870704770B5CE
:108970004E4C049D217000216170A270190AE170B3
:108980002371002103E06A5C66187271491C9942E8
:10899000F9DB474904605B1D4160038170BDF8B598
:1089A00000780124354D2607072813D00A281FD048
:1089B000AA2826D0BB280CD1706969460F38C0B2EE
:1089C00002F020F9009830300021009002F0ECF81D
:1089D000AC70F8BD706908270F38C0B2694602F064
:1089E00011F934493A46009802F0E3F86C70F8BD8A
:1089F000706969460F38C0B202F004F9009820305F
:108A0000E2E7706969460F38C0B202F0FBF80098DF
:108A1000303000900068401C04D070690F38C0B23C
:108A200002F0D9F8AC70FBF7E6FCF8BD08B5AA2057
:108A3000694608701149002088701F4A0121684664
:108A400002F03FFD002804D0FF210EA28C31FBF77D
:108A5000B9FB08BD08B5BB2069460870074900206E
:108A60008870154A0121684602F02BFD002804D0C9
:108A7000FF2104A29531FBF7A5FB08BD642100206E
:108A8000918601002E2E5C536F757263655C737264
:108A9000635C62645F666163746F72795F7465734F
:108AA000742E6300000500502C2D0020D02B0020D8
:108AB000658901006C2E00209F89010008B50A20FD
:108AC00069460870894900208870894A01216846F2
:108AD00002F0F7FC0028D0D0FF21864A9F31FBF737
:108AE00071FBCAE700B5814885B00078002816D030
:108AF00001200007406901A90F38C0B202F082F8D6
:108B0000019B0C222033019300930123062102A82C
:108B1000FFF72DFF02A8FFF71BFF05B000BD0021E6
:108B2000754A084602F0CDFC0028F6D0FF21714AB4
:108B3000AE31FBF747FBF0E738B505460C4607209A
:108B400069460870694900204870694A01216846F1
:108B500002F0B7FC002804D0FF21664AB831FBF7C9
:108B600031FB0020654A04E02918CB78411C1354DE
:108B70000846A042F8DB38BD00B55C4885B00178F6
:108B8000002916D04078002813D001200007406942
:108B900004A90F38C0B202F035F8049B00932023DB
:108BA0000922062101A8FFF7E2FE01A8FFF7D0FE87
:108BB000B3E70021524A084602F083FC0028ACD0FB
:108BC000FF214C4AC931FBF7FDFAA6E71FB5474A1A
:108BD0001278002A0AD00B4600900222062101A832
:108BE000FFF7C5FE01A8FFF7B3FE1FBD454A02F01F
:108BF00068FC0028F9D0FF213E4AD631FBF7E2FAA3
:108C00001FBD00B5394887B0007800280DD004A8F2
:108C1000FFF785FD04AB009306230E22194601A839
:108C2000FFF7A5FE01A8FFF793FE07B000BD70B5E2
:108C3000037804460D46102B03D02C48C07800283A
:108C400020D005F087FE121F0A1F1F1F20232D4171
:108C50001F26361F131F1F4C4F1F2A4AE01C02F00D
:108C600030FC00280ED0234A274909E00021274A7A
:108C7000084602F026FC002804D023491D4A091D9D
:108C8000FBF7A0FA70BDFFF76FFD70BDFFF755FE53
:108C900070BDFFF722FD0028FAD1FFF70FFF70BD6E
:108CA000FFF71BFD0028FAD129B22046FFF744FF49
:108CB00070BD0021104A084602F003FC0028F7D0DE
:108CC00011490C4A1731DBE700210D4A084602F032
:108CD000F8FB0028ECD00C49064A1B31D0E7FFF71F
:108CE000DBFC70BDFFF7A2FE70BD00006421002018
:108CF0009F890100848A0100E58A01006C2E002012
:108D0000798B0100CD8B0100FF010000038C010075
:108D100001200B49C00748600A494020086030BF65
:108D2000084980310860704710B5FDF720FF0649FB
:108D30000120086010BD10B5FDF719FF31DF10BD2F
:108D40000063004000E100E000050040F748038BAD
:108D50000146838314310246438BC3832032086863
:108D600010607047F14820307047F0481C30704761
:108D700010B5EE49052388684968408800248000C2
:108D8000001D80B20B70C2054C70D20D8B70130A9F
:108D9000CB700A7110BDE54810B52030006801079E
:108DA0002ED0E24914310860E048828B0283C28BE6
:108DB000428383685A88521C92B25A800B68446876
:108DC00092001B0E1219537183680A685B8844680D
:108DD0009B00120C1B199A7183680A685B884468AF
:108DE0009B00120A1B19DA71826840685288096870
:108DF000920010180172FFF7BBFF0020FEF70AFF78
:108E000010BDCA4908707047C8480078704710B54F
:108E1000C64C0F23E060A0689B0501884A04900EB1
:108E2000C9058006090F9843890508431F21490495
:108E300088439102890A0843FDF7F2FC3C2105F0C2
:108E4000E5FB2178012251402170A26853885B1C08
:108E50005380E3681B1A20461430438003681B09C3
:108E60001B010B430360190E528863689200D218ED
:108E70005171A2680168528863689200090CD21887
:108E80009171A2680168528863689200090AD21839
:108E9000D171A168626849880068890089180872E0
:108EA0000020FEF7B7FE10BD10B5A04880684088CE
:108EB000142806D8FDF7D6FD3C2105F0A7FBFFF7E7
:108EC000A6FF10BD7CB5994C207800280DD0FDF789
:108ED000C9FD3C2105F09AFBE168401A2D210901EA
:108EE000884223DBFFF7E0FF7CBDFDF79BFB807929
:108EF000162801D20428F7D86846FFF78BF80098A7
:108F00000128F1D1FDF7AEFD0199401AE121C90018
:108F10008842E9DDA06840881428E5D83C21019802
:108F200005F07EFB0A38FFF772FF7CBD6846FFF74D
:108F300071F800980025032815D12069002802D176
:108F400000F0E9FA206100F0E6FA21691431884264
:108F500007D8FDF787FD0199401A4B21C9008842C7
:108F6000E3DDFFF7A1FF25617CBD10B5FDF75AFBDE
:108F7000018803224902520389184A046B493F249D
:108F8000896864020B88520CA3431A43FF230A80AA
:108F9000E1339A4383781B07DB0D1A430A80C078BC
:108FA00052095201C006C00E02430A8010BD5F483C
:108FB0000021806801804180D7E738B5FFF7F7FFCF
:108FC0005A4900201431086014390870C8600861DB
:108FD000012424070090606969461938C0B201F085
:108FE00011FE00980068401C04D060691938C0B2B6
:108FF00001F0DDFE38BD70B54C48816846784A887E
:10900000921B4A80012118E0721845689200541999
:109010008B0064795D196C714468491C1D19141921
:10902000A479AC714468C9B21D191419E479EC71C2
:1090300044681B191219127A1A72826852888A427D
:10904000E2D280684088002803D1FFF77FFEFFF757
:109050008CFF70BD7CB5354DA8684088002825D0B0
:10906000840005216846241D017000234370E20539
:109070008170D20D82806868017043708170110A1E
:10908000C17002710422401DA96805F027FA083456
:10909000A005020E01200007406969681938C0B2B6
:1090A00001F0B8FD002801D000207CBD01207CBD6E
:1090B000F8B501252D0768691C4C1938C0B26A46FD
:1090C000616801F0F1FD61680422491DA06805F0A6
:1090D00005FA204618304088002821D0A26863682D
:1090E000508821468000C018407914310002086081
:1090F0005688B600F618B6793043000208605688E4
:10910000B600F618F67930430002086052889200E3
:10911000D218127A10430860000700D00120207096
:1091200068691938C0B201F056FDF8BD6C21002005
:1091300030B51C4C85B0A068052240880023810012
:109140006846091D02734373CD058273ED0D0582D8
:109150006068491D0270437082702A0AC2700571EE
:10916000A26813881B0A43711388837153881B0AF2
:10917000C371528802720C4A0090019268460181C4
:10918000FCF7B9FA002802D0002005B030BDA06875
:10919000408860700120F8E7CAE70248806840888C
:1091A000704700006C210020B17E01000C480021B6
:1091B00001600D480B4A4260C16001218160704727
:1091C000074901200860704708480068C00702D0BE
:1091D0000849074808607047014900200860704747
:1091E00000000140FFFF590000050140000401405C
:1091F0003546526E00060140002805D0CD4905C80D
:109200004A610861002070470020C0437047C94888
:1092100010307047C74800787047082802D90020EE
:10922000C0437047C349087000207047082801D325
:1092300000207047C049C000401870470022D24348
:10924000082808D2002906D0BB4AC000801806C9E9
:1092500006C0002070471046704710B5B54C94B05A
:10926000207800904022B44901A8FAF78FFF616985
:1092700020691190012012910007406913221038D3
:10928000C0B2694601F0C6FC14B010BD10B596B06E
:109290001320694601240870240760696A46103863
:1092A000C0B201A901F026FD002814D1A1490198FE
:1092B0000978C0B2884206D1C20002A99E4805F0D2
:1092C000C3F800281AD09B48082212A9103005F0D4
:1092D000BBF8002812D000201490606914A910383F
:1092E000C0B201F08FFC1521149801F004FD002894
:1092F00006D060691038C0B201F059FD16B010BD3B
:10930000FFF7ABFFFAE730B595B013206946087058
:109310000120000740696A461038C0B201A901F077
:10932000E9FC844C002809D00025257040218248A2
:1093300005F033F92561656115B030BD01982070E5
:10934000402202A97C48FAF721FF13991298616123
:109350002061F1E777480C307047002804D0754948
:109360000068C860002070470020C04370473EB5C9
:10937000012069460870040760696A461138C0B266
:1093800001A901F0B7FC002809D16846007801283E
:1093900005D1684801990C300068884210D0606996
:1093A00002A91138C0B201F02DFC0321029801F08E
:1093B000A2FC002805D060691138C0B201F0F7FCAA
:1093C0003EBD00F0ABF83EBD08B50120694608700F
:1093D0000007406957491138C0B26A460C3101F0A4
:1093E00089FC002803D168460078012815D051492E
:1093F0007F220C3108681206192390431B064F4A3E
:10940000C01810404122520180184D4A1040552288
:1094100012048018D2031043086008BD4548406814
:10942000704744494A68904202D048600120487021
:109430000020704738B53F4C607800280ED00125D9
:109440002D07686969461638C0B201F0DBFB686910
:109450001638C0B201F0ABFC0020607038BD08B512
:109460000120694608700007406932491638C0B2C9
:109470006A46091D01F03EFC2E49002806D16846C7
:109480000078012802D14868002801D12D484860A1
:1094900008BD10B5012109074A69163A824208D170
:1094A000486924491638C0B20122091D01F0B2FBF7
:1094B00010BD4A69113A824202D100F02FF810BD66
:1094C000496910398142FAD1FFF7C7FE10BD19482A
:1094D0000021024601700C3211601A494160704748
:1094E0001449891C088070471248801C0088704706
:1094F0001049891C087070470E48801C007870471E
:109500000C49891C487070470A48801C4078704795
:1095100008498860704707488068704710B5012087
:109520000007406903491138C0B201220C3101F033
:1095300071FB10BD90210020E82E00201F80FFFF4E
:10954000FF7F00FF10270000028810051305000DA3
:10955000002B05DA01231B03181AC043401C00B27C
:10956000920B05D0012A05D0022A00D188807047CD
:10957000088070474880704710B5CD4A0B231370A0
:109580000C4650700321CB4BCB48FDF79FFBC949DC
:109590008978217010BD10B5C84C03222270C84BC9
:1095A00000221A70C24A0A23137050709170C14B86
:1095B0002178C148FDF78AFB10BD08B50021684637
:1095C000017069460020FFF7D7FF6846007808BDA4
:1095D00008B500216846017069460120FFF7CCFFFD
:1095E0006846007808BD08B50021684601706946E4
:1095F0000220FFF7C1FF6846007808BD08B50021CA
:109600006846017069460320FFF7B6FF6846007898
:1096100008BD08B569460B20FFF7AEFF6846007825
:1096200008BD38B5044600256846057025806946A2
:109630001420FFF7A1FF6846007820806846057077
:1096400069461520FFF798FF6846007821880002D8
:109650000143218038BDF8B505460C4616466946DB
:109660000E20FFF789FF6B461878288069460F2087
:10967000FFF782FF6B461978288809020843288083
:1096800069461020FFF778FF6B46187820806946FE
:109690001120FFF771FF6B461978208809020843F3
:1096A000208069461220FFF767FF6B4618783080EC
:1096B00069461320FFF760FF6B461978308809026E
:1096C00008433080F8BDF8B506460C461546694695
:1096D0000820FFF751FF684600783070694609207E
:1096E000FFF74AFF68460078207069460A20FFF7B6
:1096F00043FF684600782870F8BDF8B505466C4A07
:109700000D20107007216B4B6B48FDF7DFFA694C99
:109710000646A07862780102114368460180294616
:10972000FFF712FF2079E2780102114368460180B9
:109730002946FFF709FFA0796279010211436846C3
:1097400001802946FFF700FF3046F8BD0020704732
:1097500038B504461546002268460270C9B220207A
:10976000FFF719FF00212120FFF715FF29462020D0
:10977000FFF711FF69462720FFF7FEFE68460178D4
:10978000FD2001406000401C0843C1B22720FFF7C4
:1097900002FF38BD38B504461546002268460270FF
:1097A000C9B22320FFF7F7FE00212420FFF7F3FEC4
:1097B000E9B22520FFF7EFFE00212620FFF7EBFEA0
:1097C00069462720FFF7D8FE68460178F720014058
:1097D000E000001D0843C1B22720FFF7DCFE38BDC2
:1097E00010B50C468007800F91000843C1B22820B5
:1097F000FFF7D1FE21462920FFF7CDFE10BD38B579
:10980000044600216846017069462C20FFF7B4FE2B
:1098100068460078A1078006800E090E01432C20BF
:10982000FFF7B9FE38BD38B504460021684601701F
:1098300069462C20FFF7A0FE684600786107C00843
:10984000C000490F01432C20FFF7A5FE38BD52216F
:109850001F20A0E638B5044600216846017069461D
:109860002D20FFF789FE684600786100800880009F
:109870000143C9B22D20FFF78EFE38BD84212A2076
:1098800089E610B5FFF7E3FF012200211046FFF73C
:109890005FFF002260210220FFF7A2FF0120FFF7F7
:1098A000AEFF0320FFF7BFFF0120FFF7D3FF10BD7E
:1098B000A8200020B020002000300040B920002067
:1098C000B82000200A4802680F210A4302600948B4
:1098D000804709480047FEE7FEE7FEE7FEE7FEE7B0
:1098E000FEE7000005480649044A064B70470000A1
:1098F0002405004011990100C1400100A03700205B
:10990000A03D0020A037002023492248086070476E
:1099100010B500F01DF8002805D021491F48486007
:10992000C813204988612048016AC9B201290ED1B3
:10993000416A09070BD1816A0906090F042906D17A
:10994000C06A0006000F02D118490120886010BDCE
:109950001548016AC9B2012917D1416A090714D112
:10996000816A09060A0F03D1C26A1206120F0ED0CD
:10997000090F012903D1C26A1206120F07D0032969
:1099800003D1C06A0006000F01D0002070470120FB
:10999000704700000024F400A8210020DFFF07C06A
:1099A00000050040006C0040C00F00F000060040C1
:1099B00038B504460D460121684681702949018069
:1099C000224669460120A0DF002803D1294620460F
:1099D00000F00BF838BD03B581B001216A46118053
:1099E000408802AB0021A4DF0EBDF0B58FB0064663
:1099F0000D461C21684604F0D0FD6846017802201F
:109A00000143684601700024019403940494059472
:109A1000012708A8069487701349684601840794B3
:109A200069780177A9784177807FF9210840801C07
:109A3000E72108404108490068468177142109A8B8
:109A400004F0ABFD08A8099007A80A90684687852E
:109A5000C48507860D953088B31C09AA6946A2DF24
:109A60000FB0F0BD04180000072A00000A78027049
:109A7000497841700220704770B504460D4608468B
:109A800004F00AFD2080656070BD000038B50B88C9
:109A9000102B1AD00022112B1AD0502B17D1C37CB7
:109AA000002B14D0891D0B880489A3420FD10B8B86
:109AB000022B0CD1CB7E8C7E1B022343DC07E40FF0
:109AC0000123002C09D0037508E08988018238BD84
:109AD0000021C9430182027538BD02750468002C5B
